:020000040800F2
:1000000028180020B1440008B94400087B230008E8
:10001000BD440008BF440008C144000800000000BF
:10002000000000000000000000000000C3440008C1
:10003000C544000800000000C7440008C944000887
:10004000CB440008CB440008CB440008CB44000854
:10005000CB440008CB440008CB440008CB44000844
:10006000CB440008CB440008CB440008CB44000834
:10007000CB440008CB440008CB440008CB44000824
:10008000CB440008C9400008CB4400087D070008A5
:1000900093070008CB440008CB440008CB44000879
:1000A000CB440008CB440008CB440008CB440008F4
:1000B000CB440008CB440008CB440008CB440008E4
:1000C000CB440008CB440008CB440008CB440008D4
:1000D000CB4400081D07000883420008394200088D
:1000E000CB440008CB440008CB440008F7030008C9
:1000F000CB440008CB440008CB440008CB440008A4
:10010000CB440008CB440008CB440008CB44000893
:10011000CB440008CB440008CB440008CB44000883
:10012000CB440008CB440008CB440008CB44000873
:10013000CB440008CB440008CB440008B5070008B6
:10014000CB070008CB440008CB440008CB44000890
:10015000CB440008CB440008CB440008CB44000843
:10016000CB440008CB440008CB440008CB44000833
:10017000CB440008CB440008CB440008CB44000823
:10018000CB440008CB440008DFF80CD007F0C0F9DE
:10019000004800479D01000828180020002400F0B6
:1001A000C1F836E0012001F038FD1E2C2ADD194887
:1001B00090ED020A184880ED000A164890ED000AFA
:1001C000154880ED010A134890ED010A124880EDB0
:1001D000020A1248B0F9060100EE100AB8EEC00A91
:1001E0000D4880ED030A0B4890ED0A0A0A4880ED9D
:1001F000040A084890ED090A074880ED050A03F053
:1002000093FF0024601C84B205480068401C044928
:100210000860C7E7500600205C020020EC040020C4
:100220000000002010B504466FF0040004F0A5F9AA
:10023000E11704EB5171C1F3C701384A1170104640
:10024000007800EB4001C1EBC0104FF6FF7101EAEE
:10025000C0003349088010BD0146304A12784A4335
:100260004FF0E0235A6100229A611A46126942F067
:1002700001021A6100BF4FF0E022106910F0010F77
:1002800002D010F4803FF6D04FF0E022126922F045
:1002900001024FF0E0231A6100229A617047014683
:1002A0001F4A12884A434FF0E0235A6100229A61A4
:1002B0001A46126942F001021A6100BF4FF0E022B3
:1002C000106910F0010F02D010F4803FF6D04FF00B
:1002D000E022126922F001024FF0E0231A610022AD
:1002E0009A61704770B504464FF4077094FBF0F0C4
:1002F000C6B24FF4077094FBF0F100FB114085B2D9
:1003000005E04FF40770FFF7CAFF701EC6B2002E5B
:10031000F7D115B12846FFF7C2FF70BD04000020D9
:100320000600002010B5A820FFF77CFF03F054FD65
:1003300000F0FAF84FF47A70FFF7D4FF00F0C0FC39
:1003400000F09CFB00F036FC00F008F800F060F9CB
:1003500003F01DFE00F01FF810BD00000EB50121D6
:10036000042005F0BEFC4FF0FF3001905320ADF8A3
:1003700000000020ADF80800ADF8020001212B4874
:1003800005F0D2FE6946294805F063FE01212748A1
:1003900005F0E8FE0EBD1FB50121402005F0A1FCCF
:1003A0006320029040F24730ADF804000020ADF821
:1003B0000600ADF80C0001A91D4805F04AFE012217
:1003C00011461B4806F0E6FA0121194805F0CAFE5D
:1003D0004FF4E06004F07EF82B208DF80000002040
:1003E0008DF8010001208DF802008DF803006846A9
:1003F00004F075F81FBD10B501210D4806F0E1FAB3
:1004000001280ED101210A4806F0ECFA0121084822
:1004100006F0D4FA01F026FE06480068401C0549A3
:10042000086010BD01482430006870470008004093
:10043000001800400800002000B58BB001210846DC
:1004400005F006FC0121480605F04BFC4FF4C050B6
:10045000099002208DF8280000208DF82A00032042
:100460008DF8290001208DF82B0009A9FE4805F020
:1004700051F909220B21FC4805F0D7F909220C217A
:10048000F94805F0D2F900208DF81E008DF81F0004
:100490008DF820008DF821008DF822008DF82300C2
:1004A0008DF81A008DF81B0008208DF81C00032021
:1004B0008DF81D00ADF8180006A9EC4804F095F879
:1004C00000208DF812008DF8130001208DF8140023
:1004D0000020ADF80800ADF80A00ADF80C00ADF84A
:1004E0000E00ADF8100001208DF8150002A804F0F0
:1004F00006F901220221DD4804F000FC0122114628
:10050000DA4804F0FBFB14208DF8040001208DF87C
:10051000050000208DF8060001208DF8070001A8D5
:1005200003F0DDFF0BB000BD00B58BB00121022050
:1005300005F08EFB0121480605F0D3FB012188065A
:1005400005F0CFFB09220D21C94805F06EF90922FB
:100550000C21C74805F069F94FF440500290022081
:100560008DF80C0002A9C24805F0D4F840208DF89F
:10057000040000208DF8050001208DF806008DF89C
:10058000070001A803F0ABFFBA4804F015F808A86B
:1005900004F036F900208DF826008DF827008DF83C
:1005A00028008DF829008DF82A008DF82B008DF891
:1005B00022008DF8230008208DF8240003208DF8F8
:1005C0002500ADF8200008A9AA4804F00EF80E2076
:1005D0008DF81A0000208DF81B0001208DF81C00FA
:1005E0000020ADF81000ADF81200ADF81400ADF821
:1005F0001600ADF8180001208DF81D0004A804F0C5
:100600007EF8012202219B4804F078FB0BB000BD6C
:1006100000B597B00121984805F01AFB0121102080
:1006200005F070FB07221146914805F0FEF8802086
:10063000119002208DF8480000208DF84A00032018
:100640008DF8490000208DF84B0011A9884805F06D
:1006500061F88A4804F0A6FC894813900020ADF8A0
:100660005000ADF852004FF48060ADF85400042003
:10067000ADF856000020ADF8580013A97F4804F0EB
:10068000F8FC012240217D4804F028FE25208DF849
:10069000400001208DF8410000208DF8420001202B
:1006A0008DF8430010A803F01AFF764806F076FA9A
:1006B00001A806F03EFB4FF0006001906F48001D5E
:1006C000029071480390002004901E2005900020A5
:1006D00006904FF4806007900020089009904FF436
:1006E00080700A904FF440300B9000200C900D90D9
:1006F0000E900F9001A9634806F0F2FA01216148BB
:1007000006F028FB012240F224415C4804F0EFFD92
:1007100001215A4804F035FD17B000BD10B540F274
:100720002441564804F01EFE38B35448008853480C
:100730008088544806F051FBF8B90021514806F072
:1007400009FB504806F029FBC0F11E004F49086024
:100750001E204C4944390860081F006840F40020FE
:10076000091F08600121474806F0F4FA474800686D
:10077000122802D1444801F00DFE10BD10B5012130
:100780003A4804F022FB18B10121384804F0B7FBC5
:1007900010BD10B50221354804F017FB48B1002107
:1007A000324804F0ACFB3A4A0021304804F08BF99F
:1007B00000BF10BD10B501212E4804F006FB18B192
:1007C00001212C4804F09BFB10BD10B502212948E3
:1007D00004F0FBFA00281AD00221264804F08FFB0F
:1007E0002C4A0021234804F06EF92A481438406945
:1007F000A0F5007106390BD12648143890F8201066
:10080000C07F01EB002001B22348A0F8881067E008
:10081000204814384069A0F5007105390BD11D48F6
:10082000143890F82010C07F01EB002000B21A4964
:10083000A1F8400054E0174814384069B0F5007F33
:1008400042D9144814384069B0F5017F3CD81148AA
:10085000143890F82010C07F01EB002002B20D4840
:10086000143841691AE000000000024000640040B2
:1008700000040240006800400200400000100140F7
:10088000A086010088640240840200200C00002041
:10089000440400200804002058040020A1F2012193
:1008A000104820F81120104890F8221090F82100EC
:1008B00001EB002002B20C484069A0F20120094976
:1008C000083921F810200BE007484069012807D1BA
:1008D0000548C07F05490870034890F8200048701B
:1008E00010BD0000F4050020F4030020A401002046
:1008F000B0EE401AB4EEE01AF1EE10FA02DDB0EEFE
:10090000600A7047B0EE410AFBE7B0EE401AB4EE61
:10091000E01AF1EE10FA02DDB0EE410A7047B0EED7
:10092000600AFBE7B0EE401A10B9B0EE410A70471A
:10093000B4EEE01AF1EE10FA02DDB0EE600AF6E76E
:10094000B1EE600AB4EEC01AF1EE10FA02D2B1EEC6
:10095000600AECE7B0EE410AE9E730B50446F0EE94
:10096000400A002014B9B0EE600A30BD002028E033
:10097000F5EEC00AF1EE10FA02DDB0EE600A01E019
:10098000B1EE600A03EB800595ED011AB4EEC10AE1
:10099000F1EE10FA13D8F5EEC00AF1EE10FA02DD0E
:1009A000B0EE600A01E0B1EE600A03EB800595ED60
:1009B000001AB4EEC10AF1EE10FA00DD04E0451CA5
:1009C000E8B24D1E8542D3DC00BF02EB800595EDF9
:1009D000000A20EE200AC8E7F0EE402A10B9B0EE77
:1009E000620A7047F5EEC02AF1EE10FA02DDB0EEB1
:1009F000620A01E0B1EE620AB4EEE00AF1EE10FA2A
:100A000039DBF5EEC02AF1EE10FA02DDB0EE620A33
:100A100001E0B1EE620AB4EEC10AF1EE10FA2AD892
:100A200031EE600AB5EEC00AF1EE10FA02DD31EEE9
:100A3000600A03E031EE600AB1EE400AB0EE404ACF
:100A400032EEE00A80EE043A32EE610AB5EEC00AF8
:100A5000F1EE10FA02DD32EE610A03E032EE610AD5
:100A6000B1EE400AF0EE403AB0EE610A03EE230A1E
:100A700020EE220AB5E722EE220AB2E710B500BF47
:100A800001226B21D02000F062FAC4B24FF4FA7058
:100A9000FFF728FC00226B21D02000F058FAC4B2E6
:100AA0003220FFF71FFC7521D02000F090FA7F491B
:100AB0000870084600786828E2D100226B21D02017
:100AC00000F045FAC4B23220FFF70CFC00221921D5
:100AD000D02000F03CFA2044C4B23220FFF702FCE0
:100AE00003221A21D02000F032FA2044C4B232206E
:100AF000FFF7F8FB10221B21D02000F028FA204439
:100B0000C4B23220FFF7EEFB09221C21D02000F0F6
:100B10001EFA2044C4B23220FFF7E4FB204610BD89
:100B200010B53B21D02000F052FA614908703C21F9
:100B3000D02000F04CFA5E4948703D21D02000F0F2
:100B400046FA5B4988703E21D02000F040FA5849AF
:100B5000C8703F21D02000F03AFA55490871402171
:100B6000D02000F034FA524948714321D02000F0DF
:100B70002EFA4F4908724421D02000F028FA4C493F
:100B800048724521D02000F022FA49498872462156
:100B9000D02000F01CFA4649C8724721D02000F04E
:100BA00016FA434908734821D02000F010FA404952
:100BB000487310BD10B52DED048B4FF47A7408EE18
:100BC000104A9FED3C0AF0EE408A9FED3A0AB0EEE3
:100BD000409A0021384841858185C1853748C185C3
:100BE0003CE0FFF79DFF3248407A3149097A40EAFC
:100BF000012000B2304988842D48C07A2C49897A76
:100C000040EA012001B22C48C1842948407B284990
:100C1000097B40EA012001B227480185B0F9240090
:100C200000EE100AB8EEC00A30EE280AF0EE408A54
:100C30002148B0F9260000EE100AB8EEC00A30EEE6
:100C4000090AB0EE409A1C48B0F9280000EE100ADC
:100C5000B8EEC00A30EE290AF0EE409A2000A4F166
:100C60000104BED1B8EEC80AC8EE800ABDEEE00AA3
:100C700010EE100A01B21048C186B8EEC80AC9EEDB
:100C8000000ABDEEE00A10EE100A01B20A48018720
:100C9000B8EEC80AC9EE800ABDEEE00A10EE100AEE
:100CA00001B205484187BDEC048B10BD1000002047
:100CB000280300200000000098020020E00200202D
:100CC0001CB50121022004F0C3FF4FF48070009096
:100CD00001208DF804008DF8050000208DF8060035
:100CE00001208DF807006946CD4804F013FD4FF44C
:100CF0000070009001208DF804008DF805008DF83B
:100D0000060000208DF807006946C54804F002FD82
:100D10001CBD062000BF0100A0F10100FBD17047FF
:100D200041F6583000E0401E0028FCD1704710B555
:100D30004FF40071BA4804F069FD4FF48071B8486F
:100D400004F064FDFFF7E5FF4FF40071B44804F0D0
:100D500043FD08B9002010BD4FF40071B04804F005
:100D600057FDFFF7D6FF4FF40071AD4804F034FD96
:100D700008B10020EFE74FF40071A94804F048FDE6
:100D8000FFF7C7FF0120E6E710B54FF48071A448D4
:100D900004F03EFDFFF7BDFF4FF40071A04804F0E2
:100DA00037FDFFF7B6FF4FF480719D4804F02EFD2C
:100DB000FFF7AFFF4FF40071994804F027FDFFF7EC
:100DC000A8FF10BD10B54FF48071954804F020FDC8
:100DD000FFF79FFF4FF40071914804F019FDFFF7F2
:100DE00098FF4FF480718E4804F010FDFFF791FFDB
:100DF0004FF480718A4804F00BFDFFF78AFF10BDA5
:100E000010B54FF48071864804F002FDFFF781FFB2
:100E10004FF40071824804F0F9FCFFF77AFF4FF4B9
:100E200080717F4804F0F2FCFFF773FF4FF480718C
:100E30007B4804F0EDFCFFF76CFF10BD10B54FF4DC
:100E40008071774804F0E4FCFFF763FF4FF4007112
:100E5000734804F0DBFCFFF75CFF4FF480717048CF
:100E600004F0D4FCFFF755FF4FF400716C4804F018
:100E7000B3FC40B14FF48071694804F0C9FCFFF73E
:100E800048FF002010BD4FF48071654804F0C0FC9D
:100E9000FFF73FFF0120F5E770B5044608251FE086
:100EA0004FF480715E4804F0B3FCFFF732FF14F09A
:100EB000800F05D04FF40071594804F0A7FC04E0FE
:100EC0004FF40071564804F0A3FC6006040EFFF7CF
:100ED00020FF4FF48071524804F098FCFFF719FF8F
:100EE0002800A5F10101CDB2DAD14FF480714C4850
:100EF00004F08EFC70BD70B508250024A901484897
:100F000004F084FC17E06006040E4FF4807144483E
:100F100004F07EFCFFF7FDFE4FF48071404804F0C2
:100F200075FCFFF7F6FE4FF400713D4804F054FCE9
:100F300008B144F001042800A5F10101CDB2E2D1CD
:100F40004FF48071364804F063FC204670BD70B5E4
:100F500006460C461546FFF7EAFE08B9002070BDAC
:100F60003046FFF799FFFFF769FF18B9FFF70CFF4D
:100F70000020F4E72046FFF78FFFFFF75FFF2846CA
:100F8000FFF78AFFFFF75AFFFFF7FEFEFFF7C8FEE5
:100F90000120E4E770B505460C46FFF7C8FE08B926
:100FA000002070BD2846FFF777FFFFF747FF18B90D
:100FB000FFF7EAFE0020F4E72046FFF76DFFFFF79A
:100FC0003DFFFFF7E1FEFFF7ABFE0120E9E770B55B
:100FD00004460D46FFF7ABFE08B9002070BD204661
:100FE000FFF75AFFFFF72AFF18B9FFF7CDFE0020E1
:100FF000F4E72846FFF750FFFFF720FFFFF797FEC3
:10100000611CC8B2FFF748FFFFF718FFFFF773FF37
:101010000646FFF7F5FEFFF7B7FE3046DEE70000B5
:1010200000040240F0EE400AF6EE001A60EEA11A4B
:10103000B0EE611AB0EE600A10EE100AFE49A1EBA4
:10104000600000EE100A21EE002AF7EE081A42EEC8
:10105000401A61EE801AB0EE610A704710B52DEDAE
:10106000108B96B0B0EE409AF0EE609AB0EE41AAC6
:10107000F0EE61BAF0EE42AAB0EE62BA0024EF4898
:1010800090ED000A20EE000A8DED130A90ED000AA3
:10109000EB48D0ED000A20EE200A8DED120AE74859
:1010A00090ED000AE748D0ED000A20EE200A8DED11
:1010B000110AE24890ED000AE348D0ED000A20EE64
:1010C000200A8DED100ADE4890ED000A20EE000A9D
:1010D0008DED0F0A90ED000ADA48D0ED000A20EEFF
:1010E000200A8DED0E0AD64890ED000AD648D0EDC4
:1010F000000A20EE200A8DED0D0AD24890ED000A7C
:1011000020EE000A8DED0C0A90ED000ACE48D0EDDD
:10111000000A20EE200A8DED0B0A90ED000A20EE69
:10112000000A8DED0A0AFFF77DF9C84908600846F4
:101130000068C749096888420CD3C4480068C4499C
:101140000968401A00EE100AB8EE400ADFEDC10A45
:10115000C0EE208ABD480068BD4908606BEEAB0A4E
:101160004AEEAA0A4BEE0B0AB0EE600AFFF75AFFEE
:10117000B0EE408AB0EE480A2BEE800AF0EE40BA9C
:10118000B0EE480A2AEE800AF0EE40AAB0EE480A15
:101190002BEE000AB0EE40BA9DED0D0ADDED110A0E
:1011A00030EE600AF0EE000A20EE20FA9DED120A01
:1011B000DDED0B0A30EE200AF0EE000A60EE20FAB8
:1011C0009DED130ADDED0F0A70EE600A9DED0C0A2D
:1011D00070EEC00A9DED0A0A30EE800A8DED150A08
:1011E0009DED150A2AEE800AB0EE40CA0BEE6FCADA
:1011F0006BEE0F0A9DED150AF0EE60CA4BEEC0CA09
:101200002BEEAF0AB0EE40DA0AEECFDAB5EEC0CA86
:10121000F1EE10FA51D0F5EEC0CAF1EE10FA4CD052
:10122000B5EEC0DAF1EE10FA47D09FED8B0A6CEE06
:10123000000A8A4890ED000A00EEA80A80ED000A34
:101240009FED850A6CEE800A854890ED000A00EE5D
:10125000A80A80ED000A9FED800A6DEE000A814821
:1012600090ED000A00EEA80A80ED000AF7EE000AF1
:10127000B0EE490A00EE8C0A7848D0ED000A30EE54
:10128000200AB0EE409AF7EE000AB0EE690A00EECE
:10129000AC0A7348D0ED000A30EE200AF0EE409A16
:1012A000F7EE000AB0EE4A0A00EE8D0A6D48D0ED66
:1012B000000A30EE200AB0EE40AA614890ED000A24
:1012C000B1EE400A20EE090A5E48D0ED000A00EEB9
:1012D000E90A5D4890ED001AF0EE400A41EE4A0A34
:1012E000564890ED000A00EEA80A8DED140A90ED24
:1012F000000A20EE090A5348D0ED000A00EE8A0ADF
:101300005148D0ED000A00EEE90A4D48D0ED000A40
:10131000F0EE60DA40EE28DA484890ED000A20EE60
:10132000290A4748D0ED000A00EECA0A4648D0ED27
:10133000000A00EE890A4348D0ED000AB0EE60EAE8
:1013400000EE28EA3D4890ED000A20EE0A0A3C48EB
:10135000D0ED000A00EEA90A3A48D0ED000A00EEEE
:10136000C90A3948D0ED000AF0EE60EA40EE28EAFA
:10137000DDED140A60EEA00A4DEEAD0A4EEE0E0A47
:101380004EEEAE0AB0EE600AFFF74CFEB0EE408AB9
:101390009DED140A20EE080A284880ED000A2DEE83
:1013A000880A274880ED000A2EEE080A254880EDBD
:1013B000000A2EEE880A244880ED000A214890EDAC
:1013C000000AF8EE000A20EE200AD0ED000A20EE16
:1013D000200A1D48D0ED000AB0EE001A60EE810A26
:1013E00090ED001A00EEC10AF7EE000A30EE200A76
:1013F00010EE101A084605F06DFF41EC100B8DED54
:10140000020B0F4890ED000AF0EE000A20EE200AD1
:101410000C48D0ED000A20EE200A0848D0ED000A62
:10142000B0EE001A60EE810A074890ED001A00EE57
:10143000810A10EE101A17E0DF59375F18000020FC
:101440001C00002020000020240000208400002038
:10145000800000200024F4490AD7233C2800002003
:101460002C00002030000020084605F033FF41EC3E
:10147000100B8DED000B9DED021B9DED000B06F09A
:101480001FFC8DED040B9DED040B51EC100B81F056
:10149000004141EC100B8DED060B9FEDF90B53EC69
:1014A000102B9DED060B51EC100B05F002FE41ECEC
:1014B000100B8DED080B9DED080B51EC100B05F09A
:1014C0001CFFF1498860F14890ED000AF8EE000A2F
:1014D00020EE200AEE48D0ED000A20EE200AED486A
:1014E000D0ED000AB0EE001A60EE810AEA4890EDF5
:1014F000001A00EE810A10EE101A084605F0EAFE06
:1015000041EC100B8DED020B9DED020B06F0ACF8DB
:101510008DED040B9DED040B51EC100B81F000419F
:1015200041EC100B8DED060B9FEDD50B53EC102B02
:101530009DED060B51EC100B05F0BBFD41EC100BC3
:101540008DED080B9DED080B51EC100B05F0D5FE51
:10155000CD494860CD4890ED000AF8EE000A20EE33
:10156000200AD0ED000A20EE200ACB48D0ED000A78
:10157000B0EE001A60EE810A90ED001A00EEC10A8A
:10158000F7EE000A30EE200A10EE101A084605F0B9
:10159000A1FE41EC100B8DED040BBF4890ED000A4D
:1015A000F0EE000A20EE200AB948D0ED000A20EE45
:1015B000200AB848D0ED000AB0EE001A60EE810AA9
:1015C000B24890ED001A00EE810A10EE101A08469B
:1015D00005F080FE41EC100B8DED020B9DED041B20
:1015E0009DED020B06F06CFB8DED060B9FEDA40B41
:1015F00053EC102B9DED060B51EC100B05F059FD33
:1016000041EC100B8DED080B9DED080B51EC100B10
:1016100005F073FE9C49086016B0BDEC108B10BD40
:1016200000B52DED108B89B0B0EE40BAF0EE60BA87
:10163000B0EE418AF0EE618AB0EE429AF0EE629A24
:101640008DED069B8DED048B944890ED000BB0EE74
:1016500040CAF0EE60CA90ED000BB0EE40CAF0EE6A
:1016600060CA9DED048B53EC182B8D4890ED000B58
:1016700051EC100B05F076FC41EC100BB0EE40AADB
:10168000F0EE60AA9DED069B53EC192B51EC1A0B62
:1016900005F068FC41EC100BB0EE40FAF0EE60FA99
:1016A00053EC1F2B51EC1A0B05F075FD41EC100BA0
:1016B000B0EE40EAF0EE60EA53EC1C2B51EC1B0B51
:1016C00005F0F1FC41EC100BB0EE40FAF0EE60FAE0
:1016D00053EC1E2B51EC1F0B05F0EBFC41EC100BF7
:1016E0008DED000B53EC1C2B9DED000B51EC100B02
:1016F00005F038FC41EC100BB0EE40DAF0EE60DAA9
:1017000053EC1E2B9FED670B51EC100B05F0CBFC3F
:1017100041EC100BB0EE40FAF0EE60FA53EC1A2BED
:1017200051EC1F0B05F0C5FC41EC100B8DED020BCD
:101730009DED020B5A4880ED000B584880ED00DB10
:10174000B0EE4D0AF0EE6D0A09B0BDEC108B00BD95
:1017500000B52DED108B89B0B0EE40BAF0EE60BA56
:10176000B0EE418AF0EE618AB0EE429AF0EE629AF3
:101770008DED069B8DED048B4C4890ED000BB0EE8B
:1017800040CAF0EE60CA90ED000BB0EE40CAF0EE39
:1017900060CA9DED048B53EC182B454890ED000B6F
:1017A00051EC100B05F0DEFB41EC100BB0EE40AA43
:1017B000F0EE60AA9DED069B53EC192B51EC1A0B31
:1017C00005F0D0FB41EC100BB0EE40FAF0EE60FA01
:1017D00053EC1F2B51EC1A0B05F0DDFC41EC100B08
:1017E000B0EE40EAF0EE60EA53EC1C2B51EC1B0B20
:1017F00005F059FC41EC100BB0EE40FAF0EE60FA47
:1018000053EC1E2B51EC1F0B05F053FC41EC100B5D
:101810008DED000B53EC1C2B9DED000B51EC100BD0
:1018200005F0A0FB41EC100BB0EE40DAF0EE60DA10
:1018300053EC1E2B9FED1B0B51EC100B05F033FCF2
:1018400041EC100BB0EE40FAF0EE60FA53EC1A2BBC
:1018500051EC1F0B05F02DFC41EC100B8DED020B34
:101860009DED020B124880ED000B104880ED00DB6F
:10187000B0EE4D0AF0EE6D0A09B0BDEC108B00BD64
:101880000000006094A94C40380300201C00002098
:10189000240000201800002020000020600000200C
:1018A00068000020000000000000F03F5000002011
:1018B0005800002000B52DED108B89B0B0EE40BA75
:1018C000F0EE60BAB0EE418AF0EE618AB0EE429A74
:1018D000F0EE629A8DED069B8DED048BFE4890ED47
:1018E000000BB0EE40CAF0EE60CA90ED000BB0EE17
:1018F00040CAF0EE60CA9DED048B53EC182BF748FC
:1019000090ED000B51EC100B05F02CFB41EC100B93
:10191000B0EE40AAF0EE60AA9DED069B53EC192BA9
:1019200051EC1A0B05F01EFB41EC100BB0EE40FA27
:10193000F0EE60FA53EC1F2B51EC1A0B05F02BFC68
:1019400041EC100BB0EE40EAF0EE60EA53EC1C2BD9
:1019500051EC1B0B05F0A7FB41EC100BB0EE40FA6D
:10196000F0EE60FA53EC1E2B51EC1F0B05F0A1FBBF
:1019700041EC100B8DED000B53EC1C2B9DED000B7F
:1019800051EC100B05F0EEFA41EC100BB0EE40DA22
:10199000F0EE60DA53EC1E2B1FED3E0B51EC100BFA
:1019A00005F081FB41EC100BB0EE40FAF0EE60FA6E
:1019B00053EC1A2B51EC1F0B05F07BFB41EC100B89
:1019C0008DED020B9DED020BC44880ED000BC2486B
:1019D00080ED00DBB0EE4D0AF0EE6D0A09B0BDEC13
:1019E000108B00BD70B52DED088B0546002415B990
:1019F000BDEC088B70BDFFF793F8B9484078B84943
:101A0000097840EA012000B2B6490880B448C0789D
:101A1000B349897840EA012000B2B2494880B04811
:101A20004079AF49097940EA012000B2AD49888088
:101A3000AB48407AAA49097A40EA0121A948C08EF8
:101A4000081A00B2A7498884A548C07AA449897AAF
:101A500040EA0121A348008F081A01B2A148C184BD
:101A60009F48407B9E49097B40EA01219D48408F69
:101A7000081A01B29B480185B0F9240000EE100A53
:101A8000B8EEC00A98489949097800EB810080EDCA
:101A9000000A9448B0F9260000EE100AB8EEC00A19
:101AA000914828309149097800EB810080ED000AC7
:101AB0008C48B0F9280000EE100AB8EEC00A8A4837
:101AC00050308A49097800EB810080ED000A9FEDD3
:101AD000888ADFED878A9FED869A00241DE0824880
:101AE00000EB840090ED000A30EE080AB0EE408A68
:101AF0007D48283000EB840090ED000A30EE280A83
:101B0000F0EE408A7848503000EB840090ED000AF7
:101B100030EE090AB0EE409A641C0A2CDFDB7348F1
:101B20000078401C0A2190FBF1F201FB12006F4982
:101B30000870F2EE040A88EE200ADFED6E0A20EE4D
:101B4000200A684880ED0F0AB2EE040AC8EE800A47
:101B50009FED680A20EE800A80ED100AF2EE040A7A
:101B600089EE200ADFED630A20EE200A80ED110ADB
:101B70000146B1F9000005F07DFB41EC100BB0EE21
:101B800040BAF0EE60BA9FED5C2B9FED5D1BFFF756
:101B900091FEB0EE40AAF0EE60AA51EC1A0B05F0EF
:101BA0007AFB00B24F49C880B1F9020005F062FB30
:101BB00041EC100BB0EE40BAF0EE60BA9FED4E2B48
:101BC0009FED4F1BFFF7C4FDB0EE40AAF0EE60AAF8
:101BD00051EC1A0B05F05FFB01B24248018101464E
:101BE000B1F9040005F046FB41EC100BB0EE40BA31
:101BF000F0EE60BA9FED402B9FED411BFFF710FD0B
:101C0000B0EE40AAF0EE60AA51EC1A0B05F043FBCF
:101C100001B23448418100BFEAE610B50446012014
:101C2000FFF7E0FE2F48B0F90A0003EE100AB8EE05
:101C3000C33AF0EE432A2B48B0F9080003EE100A2D
:101C4000B8EEC33AB0EE432A2648B0F9060003EED8
:101C5000100AB8EEC33AF0EE431A224890ED113A5A
:101C6000B0EE431A90ED103AF0EE430A90ED0F3AC1
:101C7000B0EE430AFFF7F2F910BD00B52DED108B61
:101C800089B0B0EE40BAF0EE60BAB0EE418AF0EE44
:101C9000618AB0EE429AF0EE629A8DED069B8DED70
:101CA000048B194890ED000BB0EE40CAF0EE60CA0C
:101CB00090ED000BB0EE40CAF0EE60CA9DED048BD3
:101CC00053EC182B114890ED000B51EC100B05F064
:101CD00049F941EC100B1BE04000002048000020B7
:101CE0002803002098020020440300203D0000202B
:101CF00000000000E4A40B3A0000000000001840BF
:101D00007B14AE47E17A943F7000002078000020F9
:101D1000B0EE40AAF0EE60AA9DED069B53EC192BA5
:101D200051EC1A0B05F01EF941EC100BB0EE40FA25
:101D3000F0EE60FA53EC1F2B51EC1A0B05F02BFA66
:101D400041EC100BB0EE40EAF0EE60EA53EC1C2BD5
:101D500051EC1B0B05F0A7F941EC100BB0EE40FA6B
:101D6000F0EE60FA53EC1E2B51EC1F0B05F0A1F9BD
:101D700041EC100B8DED000B53EC1C2B9DED000B7B
:101D800051EC100B05F0EEF841EC100BB0EE40DA20
:101D9000F0EE60DA53EC1E2B9FED120B51EC100BA2
:101DA00005F081F941EC100BB0EE40FAF0EE60FA6C
:101DB00053EC1A2B51EC1F0B05F07BF941EC100B87
:101DC0008DED020B9DED020B084880ED000B0848DD
:101DD00080ED00DBB0EE4D0AF0EE6D0A09B0BDEC0F
:101DE000108B00BD000000000000F03F78000020D4
:101DF00070000020F74890ED4F0AD0ED500A30EE09
:101E0000200AD0ED510A30EE600AD0ED520A30EED1
:101E1000600ADFEDF10A80EE201A9FEDEF0A21EE55
:101E2000000ADFEDEE0A80EE201AB0EE000A21EE85
:101E3000000ADFEDEB0A20EE200A80ED480A90ED63
:101E40004F0AD0ED500A30EE600AD0ED510A30EE64
:101E5000600AD0ED520A30EE200ADFEDDF0A80EE94
:101E6000201A9FEDDD0A21EE000ADFEDDC0A80EE8C
:101E7000201AB0EE000A21EE000ADFEDD90A20EEAA
:101E8000200A80ED470AB0F90011B0F902010144BF
:101E9000D048B0F90401091ACE48B0F90601081A71
:101EA0004C2190FBF1F000EE100AB8EEC00ADFED15
:101EB000CA0A20EE200ADFEDC90A80EE201AB0EE31
:101EC000000A21EE000ADFEDC60A20EE200AC14812
:101ED00080ED4C0AB0F90011B0F90201091ABD48B1
:101EE000B0F90401091ABB48B0F9060108444C21B5
:101EF00090FBF1F000EE100AB8EEC00ADFEDB60A72
:101F000060EE200A9FEDB51A80EE810AF0EE000A1D
:101F100020EE200ADFEDB20A20EE200AAD4880ED67
:101F20004B0AB0F900014142AA48B0F90201091A6E
:101F3000A848B0F90401091AA648B0F90601081A20
:101F40004C2190FBF1F000EE100AB8EEC00ADFED74
:101F5000A20A60EE200A9FEDA31A80EE810ADFED4F
:101F60009F0A80EE201AB0EE000A21EE000ADFED93
:101F70009E0A20EE200A974880ED4D0A90ED4D0A0A
:101F80009FED9A1AC0EE010A90ED4E0A30EE800ADB
:101F900080ED4E0A964890ED110ADFED960A20EE8C
:101FA000200A954880ED0A0A8A4890ED4B0A9FED79
:101FB0008F1AC0EE010A90ED490A30EE800A80EDDA
:101FC000490A90ED4C0ADFED890A80EE201A90ED67
:101FD0004A0A31EE000A80ED4A0A874890ED0A0A63
:101FE000B5EEC00AF1EE10FA02DD90ED0A0A04E047
:101FF000814890ED0A0AB1EE400AF0EE080AB4EE0C
:10200000E00AF1EE10FA04D29FED7C0A7A4880EDE6
:102010000A0A794890ED0A0ADFED740A80EE201A68
:1020200090ED090A31EE000A80ED090A70479FED34
:10203000730A714880ED090A9FED700A80ED050A68
:102040009FED6E0A80ED0A0A9FED6C0A614880EDF3
:10205000490A9FED6A0A80ED4A0A9FED680A80ED01
:102060004E0A704710B5664890F90000401C0628DB
:1020700072D2DFE800F08822030F305B00F09CFD95
:1020800038B100F05DFD02205D49087001205D4916
:1020900008607AE058495C4800F0DFFC5849087055
:1020A000FFF7A8FE002000F0BBFEC4B2574B584A11
:1020B0000121204600F0ADFB67E04F49524800F097
:1020C000CCFC4F4908704F490878504B504A0021CA
:1020D00000F09FFB59E048494B4800F0BEFC4D48DA
:1020E000407868B901F03BFA04462346484A032188
:1020F000012000F08EFBFFF79AFF02204049087094
:10210000FFF778FE01F02BFA04462346404A0321EC
:10211000012000F07EFB002000F082FEC4B23B4BA9
:102120003B4A0121204600F074FB2EE0324936483C
:1021300000F093FC3748807878B901F010FA044633
:102140002346334A0321012000F063FB02202C497F
:102150000870FFF76CFF15E016E0FFF74BFE01F08B
:10216000FEF9044623462A4A0321012000F051FBD0
:10217000002000F055FEC4B2244B254A0121204620
:1021800000F047FB01E000E000BF00BF012010BDF0
:102190009FED1A0A0F4880ED490A9FED180A80ED5D
:1021A0004A0A9FED160A80ED4E0A704700B50146B7
:1021B000087A012851D1487A032830D1164800788E
:1021C00060BB0120134A50701070D071124A107019
:1021D000032000BDEC040020000098420000704283
:1021E000DA0F49400080FD430000344300007A4488
:1021F00098020020333365425006002000000000A2
:1022000088000020940000201C04002048060020C4
:10221000F40300201007002099000020FFE7487A0F
:10222000012807D10020564A50701070554A10708E
:10223000032000BD487A02280DD15248007850B9D9
:1022400001204F4A507017201070012010724D4A23
:1022500010700220EDE70320EBE7087A02284BD14B
:10226000488A20B90020484A10700220E1E7488AD5
:10227000B0F5807F16D14448007870BB4048407864
:1022800028B100203E4A50701070D07205E0012045
:102290003B4A5070D072FFF7CAFE01203A4A1070D4
:1022A0000320C6E7488AB0F5907F17D136480078FA
:1022B00098B93348407820B10020314A50701070EE
:1022C00006E001202E4A50701070D071FFF7AFFE6B
:1022D00001202D4A10700320ABE7FFE7887C10F047
:1022E000100F04D00120294AD0700220A1E700205D
:1022F000264AD07002209CE700BF9AE710B588B04C
:102300000446A0208DF80000E07C8DF80100A07C40
:102310008DF80200607C8DF80300207C8DF80400AD
:10232000E07D8DF80500A07D8DF80600607D8DF8BC
:102330000700207D8DF80800154890F82B008DF8D7
:102340000900134890F82A008DF80A00104890F808
:1023500029008DF80B000E4890F828008DF80C002D
:102360000748C07A8DF80D00B0208DF80E000F21BF
:10237000684601F0BEFE08B010BD00BFFEE70000D9
:1023800010070020990000209800002088000020FD
:1023900050060020014608784A7840EA0220C0F33F
:1023A0000A00F94A10804878C0108A7840EA421042
:1023B000C0F30A00F44A508088788011CA7840EA55
:1023C00082000A7940EA8220C0F30A00EE4A908037
:1023D000087940104A7940EAC210C0F30A00EA4A7C
:1023E000D08048790011800810724879C0F301103C
:1023F00050728879CA7940EA0220404200B2E24A2B
:102400005081087A4A7A40EA022002B2DE4882818C
:10241000887ACA7A40EA022002B2DB48C2810A7B8B
:1024200002744A7B4274887BCA7B40EA0220D64A07
:1024300050820120704710B52DED048B04462069B1
:1024400010B9D248406B2060D048406B2168401AD8
:1024500000EE100AB8EE400ADFEDCD0A80EE201A39
:1024600084ED021A94ED020AF1EE060AB4EEE00AD7
:10247000F1EE10FA04DDB7EE000A84ED030A20E065
:1024800094ED020AB1EE400A10EE101A084604F06C
:1024900021FF41EC100BB0EE409AF0EE609A05F08F
:1024A000FFFCB0EE408AF0EE608A51EC180B04F0AD
:1024B00024FF00EE100AF7EE000A30EEC00A84EDA9
:1024C000030A94ED030ABDEC048B10BD70B50446FD
:1024D0000D46A07C10F0010F20D0AC4890F83000E1
:1024E00010F0010F03D00120A849086102E000208C
:1024F000A6490861A548FFF79EFFA648B0F900006D
:1025000000EE900AF8EEE00A20EE200ABDEEC00AC6
:1025100010EE100A00B29F4988802AE0A07C10F0DB
:10252000020F21D0994890F8300010F0020F03D02C
:1025300001209649086102E000209449086193480F
:10254000FFF779FF9348B0F90000404200EE900A8F
:10255000F8EEE00A20EE200ABDEEC00A10EE100AE6
:1025600000B28C49888004E000208A49888087492D
:102570000861A07C10F0040F21D0844890F830004E
:1025800010F0040F03D001218048816202E0002195
:102590007E4881627D481830FFF74DFF7D48B0F9D5
:1025A000020000EE900AF8EEE00A20EE200ABDEEEE
:1025B000C00A10EE100A00B27649C8802CE0A07C58
:1025C00010F0080F22D0714890F8300010F0080F7A
:1025D00003D001216D48816202E000216B488162D5
:1025E0006A481830FFF727FF6A48B0F902004042F6
:1025F00000EE900AF8EEE00A20EE200ABDEEC00AD6
:1026000010EE100A00B26349C88005E0002061495D
:10261000C88000215D488162608A5C4908635D482A
:10262000B0F9040000EE100AB8EEC00A85ED000A09
:102630005848B0F9060000EE100AB8EEC00A85ED61
:10264000010A5548C07AE8BBB4F90A0000281FDD2A
:10265000B4F90A0000EE100AB8EEC00ADFED4F0A26
:1026600020EE200ADFED4E0AB4EEE00AF1EE10FA99
:102670003ED295ED050AB4F90A0000EE900AF8EE94
:10268000E00A9FED461A00EE810A85ED080A2FE068
:10269000B4F90A00002821DAB4F90A0000EE100AA1
:1026A000B8EEC00ADFED3D0A20EE200ADFED3D0A5C
:1026B000B4EEE00AF1EE10FA1ADD95ED050AB4F970
:1026C0000A0000E018E000EE900AF8EEE00A9FED44
:1026D000331A00EE810A85ED080A09E0608938B9ED
:1026E00095ED050ADFED300A30EE200A85ED080A87
:1026F00095ED080A85ED050A012070BD70B5034609
:10270000002033B1012B1ED0022B4FD0032B7DD1E3
:102710006CE0002014E04FF400740C6000240C7294
:102720004C7208248C72002505EB400601F10B0465
:10273000A555012404EB400601F10B04A555401CEE
:102740000428E8DB63E04FF400740C6000240C7292
:102750004C7208248C72002012E032F81040C4F34E
:102760000725002404EB400601F10B04A55512F8DF
:102770001050012404EB400601F10B04A555401C48
:102780000428EADB43E000001C040020BC03002016
:102790000000C842A0000020100700200AD7A33B79
:1027A00000002042000020C20000000040F2FF14A0
:1027B0000C6000240C724C7208248C72002012E011
:1027C00032F81040C4F30725002404EB400601F161
:1027D0000B04A55512F81050012404EB400601F13A
:1027E0000B04A555401C0228EADB10E006240C600F
:1027F00000240C724C7208248C72AB24CC721578B5
:102800000D731488250A4D7301E0FFE700BF00BF78
:1028100070BD2DE9F04705460E461746984615B996
:102820000020BDE8F087424639463046FFF766FF94
:102830003946B74802F052F88146002401E0601C96
:1028400004B24946B24802F0E1F8012801D0FF2C59
:10285000F5DB0120E5E770B504460D466088A0F57C
:102860008060002803DD6088A0F5806002E0608859
:10287000C0F58060642836DD0120A64908616088C3
:10288000A0F58060642813DD0846FFF7D4FDA24858
:10289000B0F9000000EE900AF8EEE00A20EE200AFF
:1028A000BDEEC00A10EE100A00B29B49888022E0FB
:1028B0006088A0F5806010F1640F1CDA9548FFF77E
:1028C000BAFD9548B0F90000404200EE900AF8EEDB
:1028D000E00A20EE200ABDEEC00A10EE100A00B297
:1028E0008D49888007E000208A4908618A498880EC
:1028F0008848FFF7A0FD2088A0F58060002803DD50
:102900002088A0F5806002E02088C0F580606428FF
:1029100038DD01217F4881622088A0F5806064282D
:1029200015DD7C481830FFF786FD7B48B0F90200C2
:10293000404200EE900AF8EEE00A20EE200ABDEEDA
:10294000C00A10EE100A00B27349C88024E0208843
:10295000A0F5806010F1640F1EDA6E481830FFF7A2
:102960006AFD6D48B0F9020000EE900AF8EEE00A48
:1029700020EE200ABDEEC00A10EE100A00B2664931
:10298000C88009E000216348816200206249C88054
:1029900060481830FFF74FFD5F48B0F9040000EEC3
:1029A000100AB8EEC00A85ED000A5B48B0F90600CF
:1029B00000EE100AB8EEC00A85ED010AA088C0F545
:1029C0008060002803DDA088C0F5806002E0A08858
:1029D000A0F58060322804DA1FED8D0A85ED080A23
:1029E0000CE0A088C0F5806000EE100AB8EEC00AC6
:1029F000DFED4A0A20EE200A85ED080AD5ED080A27
:102A0000B0EE600ADFED460A0120FDF78BFF85ED91
:102A1000080A95ED050AD5ED080A30EE200A85ED85
:102A2000050A40480068052810DD95ED050AD5ED3A
:102A3000070AB4EE600AF1EE10FA02D001212976FD
:102A400001E00021297600203649086035480068F9
:102A5000401C34490860012070BD70B504460D4625
:102A60002C48406B401C2B494863207A012828D011
:102A7000022816D003282BD129462046FFF7EBFE6B
:102A800000202949087000F06AFD06463346274AAF
:102A900003210120FFF7BDFE00202549C872022056
:102AA00070BD2148007820B9FFF7C1FA01201E4906
:102AB000087029462046FFF709FD1E48FFF776FB00
:102AC000EEE70020184908701A48FFF76FFBE7E7A8
:102AD0000220E5E770B5054602201749086017484F
:102AE0000078C8720DB9002070BD1349084801F084
:102AF000F5FE0646002401E0601C04B2314604489D
:102B000001F084FF012801D0FF2CF5DB0120EBE769
:102B100000680040BC030020A000002017B7D13996
:102B2000CDCC4C3EAC000020AA000020F4030020D5
:102B3000100700201C04002030040020A800002002
:102B400010B51C2219491A4804F0FAF91C22194937
:102B50001748483804F0F4F9012010BD10B50446B8
:102B60000CB9002010BD12486C38B0F98820D0EDA7
:102B7000230AB0EE600A00F148016C3000F0D6FA8A
:102B80000B496C39A1F890000846B0F98820D0EDC7
:102B9000110AB0EE600A48316C3000F0C7FA0449FF
:102BA0006C39A1F892000120DCE70000CC00002085
:102BB000C4040020B000002010B51C22FD49FE48CE
:102BC00004F0BEF91C22FB49FB481C3004F0B8F9A4
:102BD0001C22F849F848383004F0B2F91C22F549B3
:102BE000F548543004F0ACF9B3EE030AF24880ED36
:102BF000460A9FEDF20A80ED450A9FEDF10AF14881
:102C000080ED030A9FEDF00A80ED040A1C22EF49D3
:102C1000543004F095F91C22ED49EA48943004F050
:102C20008FF94FF48060EB49088048808880C88025
:102C3000012010BD10B5E848C07800B39FEDE00A50
:102C4000E04880ED030A9FEDE00A80ED040A1C22B3
:102C5000E249D94804F074F91C22E049D6481C30F6
:102C600004F06EF91C22DD49D348383004F068F9CD
:102C70001C22DA49D048543004F062F91FE0B7EE64
:102C8000080AD04880ED030AB7EE000A80ED040A76
:102C90001C22C849C84804F053F91C22C549C6483B
:102CA0001C3004F04DF91C22C249C348383004F0EE
:102CB00047F91C22BF49C048543004F041F910BD07
:102CC00010B5C048D0ED090AFDEEE00A10EE900AFA
:102CD00002B2BC48D0ED050AB0EE600A00F1300146
:102CE000543000F023FAB748D0ED0A0AFDEEE00AAE
:102CF00010EE900A02B2B348D0ED140AB0EE600AAA
:102D000000F17001943000F011FA00EE100AB8EEF4
:102D1000C00AAC4880ED020AB148C07A40B9A9485F
:102D200090ED020A80ED020A90ED050A80ED070A97
:102D300010BD70B505460C4694ED000AB1EE400A90
:102D4000D4ED010A9FEDA01A00EE810AD4ED030A2A
:102D500020EE200AD4ED040A94ED021A00EE810A56
:102D600085ED530A94ED000AD4ED010A9FED961A01
:102D700000EE810AD4ED030A20EE200AD4ED040A05
:102D800094ED021A00EE810A85ED540A94ED000AD2
:102D9000D4ED010A9FED8C1A00EEC10AD4ED030AAE
:102DA00020EE200AD4ED040A94ED021A00EE810A06
:102DB00085ED550A94ED000AD4ED010A9FED821AC3
:102DC00010EEC10AD4ED030A20EE200AD4ED040A65
:102DD00094ED021A00EE810A85ED560A00261BE0EA
:102DE00005F5A67000EB860090ED001AD5ED461AA9
:102DF00021EE211AB0EE410A95ED451AF0EE410A96
:102E00000120FDF78FFDB1EE400A05F59E7000EB45
:102E1000860080ED000A761C042EE1DB012070BDE7
:102E200070B505460DB9002070BDFFF749FF654933
:102E30006148FFF77EFF002425E06A4B33F9143028
:102E400000EE903AF8EEE00AFDEEE00A10EE903A5D
:102E50001AB2644B3C3303EB8403D3ED000AB0EEAB
:102E6000600A04EBC406544B703303EB8601C4EBD9
:102E7000C403514E06EB830000F058F906F5AE711D
:102E800021F81400641C042CD7DB0120CCE770B5BA
:102E90002DED048B05460C461646012D09D05248EF
:102EA000007810B10020504908700020BDEC048B60
:102EB00070BD2078E8B3D4ED018A94ED029A94EDC8
:102EC000030AB5EEC00AF1EE10FA02DD94ED030A32
:102ED00003E094ED030AB1EE400AF7EE000AB4EE07
:102EE000E00AF1EE10FA02D29FED408A05E094ED7F
:102EF000030ADFED3F0A80EE208A324890ED050A92
:102F000030EE080A80ED050AB2EE040AC8EE800A27
:102F1000F0EE609ADFED370AB0EE690A0120FDF7A6
:102F200001FD284880ED000AB2EE040AC9EE000A4D
:102F300000E00FE0F0EE609ADFED2F0AB0EE690AD4
:102F40000120FDF7EFFC1F4880ED010A0120264912
:102F50000870ABE79FED250A1A4880ED020A9FED45
:102F6000230A80ED050A9FED210A80ED090A012060
:102F70001D490870801E99E700B52DED108B89B0B2
:102F8000B0EE409AF0EE609AB0EE41FA1FEE100AF1
:102F900004F0A0F941EC100B8DED060B19EE900A30
:102FA00004F098F941EC100B8DED040B134890EDF3
:102FB000000B25E0F4000020EC04002000C0DA45FE
:102FC0006666E63F500600209A99993F4801002026
:102FD0002C0100201C04002088000020100100208B
:102FE00010070020EC050020640100200000000014
:102FF00000007A44000048430000164368010020A6
:10300000B0EE40AAF0EE60AA90ED000BB0EE40AA40
:10301000F0EE60AA9DED040B53EC102B3F4890EDB1
:10302000000B51EC100B03F09DFF41EC100BB0EEC8
:10303000408AF0EE608A9DED060B53EC102B51ECAC
:10304000180B03F08FFF41EC100BB0EE40DAF0EEFE
:1030500060DA53EC1D2B51EC180B04F09CF841EC9A
:10306000100BB0EE40CAF0EE60CA19EE100A04F080
:1030700031F941EC100B8DED000B53EC1A2B9DED4B
:10308000000B51EC100B04F00EF841EC100BB0EEFD
:1030900040EAF0EE60EA53EC1C2B51EC1E0B04F0FE
:1030A00008F841EC100BB0EE40DAF0EE60DA53ECC9
:1030B0001A2B51EC1D0B03F055FF41EC100BB0EE39
:1030C00040BAF0EE60BA53EC1C2B9FED150B51EC9F
:1030D000100B03F0E8FF41EC100BB0EE40DAF0EE1D
:1030E00060DA53EC182B51EC1D0B03F0E2FF41ECBE
:1030F000100B8DED020B9DED020B084880ED000BCF
:10310000094880ED00BB51EC1B0B04F0F6F800EE13
:10311000100A09B0BDEC108B00BD0000700100204A
:10312000000000000000F03F6801002070B52DEDA8
:10313000028B05460C46B0EE408A164694ED000A16
:10314000F0EE408A84ED008A00EE106AB8EEC00A04
:1031500084ED010A00EE106AB8EEC00A38EE400AAB
:1031600084ED030A287E18B90020BDEC028B70BDE7
:10317000287E062872D2DFE800F0CE03040D5F9AA5
:10318000CAE094ED030ADFED960A20EE200A84EDF2
:10319000030AC1E094ED030AF6EE000A20EE200ACD
:1031A00084ED030A94ED000AB5EEC00AF1EE10FAC0
:1031B00018D194ED030AB5EEC00AF1EE10FA02DD63
:1031C00094ED030A03E094ED030AB1EE400AF3EE36
:1031D000040AB4EEE00AF1EE10FA03D29FED810A80
:1031E00084ED030A94ED030AB5EEC00AF1EE10FA7D
:1031F00002DD94ED030A03E094ED030AB1EE400A08
:10320000DFED790AB4EEE00AF1EE10FA09D294ED9E
:10321000000AB5EEC00AF1EE10FA02D001202873C0
:1032200009E0002028739FED6F0A84ED050A9FEDE9
:103230006D0A84ED060A6FE094ED030ADFED6B0A78
:1032400020EE200A84ED030A94ED000AB5EEC00AD0
:10325000F1EE10FA03DD94ED000A04E05BE094ED7A
:10326000000AB1EE400AF2EE040AB4EEE00AF1EE12
:1032700010FA1BD294ED030AB5EEC00AF1EE10FA73
:1032800002DD94ED030A03E094ED030AB1EE400A77
:10329000F7EE000AB4EEE00AF1EE10FA06D2544856
:1032A000007E18B99FED4F0A84ED030A34E094EDD7
:1032B000030AB5EEC00AF1EE10FA02DD94ED030A3E
:1032C00003E094ED030AB1EE400ADFED4A0AB4EEE2
:1032D000E00AF1EE10FA07D24548007E20B99FEDD2
:1032E000410A84ED030A15E0D4ED030AB0EE600A4A
:1032F000DFED410A0120FDF715FB84ED030AD4ED53
:10330000030AB0EE600A3D4B3D4A05210120FDF75E
:1033100024FB01E000E000BF00BF95ED000AD4ED02
:10332000030A20EE200A84ED020A94ED020A84EDDD
:10333000080A287B20B394ED050AD4ED030A30EE89
:10334000200A84ED050A94ED050AD5ED010A20EE68
:10335000200A84ED060A95ED041AF0EE410A94ED78
:10336000061AB0EE410A287BFDF7DCFA84ED060A66
:1033700094ED080AD4ED060A30EE200A84ED080A1E
:10338000687BB8B194ED030AD4ED040A30EE600A0C
:10339000D5ED020A20EE200A84ED070A94ED030A17
:1033A00084ED040A94ED020AD4ED070A30EE200AF7
:1033B00084ED080A95ED051AF0EE410A94ED081A1D
:1033C000B0EE410A287EFDF7ADFA84ED080A94EDCF
:1033D000080ABDEEC00A10EE100A00B2C5E60000F1
:1033E0000AD7233C000000000000C843CDCCCC3DF0
:1033F00050060020CDCC4C3F000020427C01002034
:10340000900100202DE9F0412DED028BB0EE408AB5
:1034100005460E460024FA4890ED000AB4EE480A2C
:10342000F1EE10FA09D080ED008A0120F54908700C
:103430009FEDF50AF54880ED000AF2480078C0B328
:10344000F24890ED000A38EE400AB3EE041AC0EEDE
:10345000010A90ED000A30EE800A80ED000A90ED3E
:10346000000AE748D0ED000A30EE600AB5EEC00A67
:10347000F1EE10FA08DDE54890ED000AE048D0EDE5
:10348000000A30EE600A09E0E04890ED000ADC48EE
:10349000D0ED000A30EE600AB1EE400ADFEDDC0A42
:1034A000B4EEE00AF1EE10FA07D20020D549087018
:1034B00003E0FFE7D54880ED008AD64890ED490A41
:1034C000BDEEC00A10EE100A02B2D04890ED000A1C
:1034D000D149D248FFF72AFE00EE100AB8EEC00A22
:1034E000CF4880ED000AFFF7EBFBCD49C948FFF755
:1034F00020FC002425E0CB4B33F9143000EE903A49
:10350000F8EEE00AFDEEE00A10EE903A1AB2C54B72
:103510003C3303EB8403D3ED000AB0EE600A04EB06
:10352000C407BC4B703303EB8701C4EBC403B94F32
:1035300007EB8300FFF7FAFD07F5AE7121F81400E1
:10354000641C042CD7DBB74B5C33B74A0121002045
:10355000FFF75FF90120BDEC028BBDE8F08170B58B
:1035600000240025B148408AB149098888420DD11C
:10357000AF48008850B1AF480088401CAD49088072
:1035800008460088782809DD012407E00020A949C1
:1035900008800024A548408AA5490880A348407CAB
:1035A00050B1A5480088401CA349088008460088FF
:1035B000642805DD012503E000209F4908800025DF
:1035C0009A48408A18B114B900209C49087097485D
:1035D000407C18B115B90020994908709348007AC9
:1035E00001282AD19148407A022810D195480078C4
:1035F00068B901209449087094490870944908708A
:1036000000209449086001208E49087045E08748F1
:10361000407A032841D18B48007800283DD18A495F
:1036200008708A4908708A4908708B49087089496E
:1036300008600120834908702FE07C48007A032845
:1036400028D17A48407A022810D17E48007868B99B
:103650000120824988727B490870002080490870E7
:103660008049087021207D49087016E06F48407A33
:10367000022812D07348007878B100207149087090
:1036800076498872212008700020754908707549B4
:10369000087002E000206B4908707048807818BB01
:1036A0006E48007800BB6D484078E8B96B48807A76
:1036B000D0B900206C4908706C4908706C490870DA
:1036C00066494872634908606449C87108725E4976
:1036D00008705E4908705E4908706049C872084603
:1036E0000078644908804DE35C48807A012823D142
:1036F000614840780321B1EBA01F0BD158480078F6
:1037000040B95848007828B9212054490870012050
:1037100053490870584840788011E4D150480078E7
:103720000028E0D020204D49087000204C49087046
:1037300001204C49087025E34848807800285ED075
:103740003E4800780028CED1002CCCD03748807C71
:1037500010F0400F21D03548807C10F0800F1CD035
:103760004148007850B901203C4908703E49087032
:1037700000203E4908703E4908700AE0172037498A
:10378000087000203849087001203849087038490D
:103790000870012029490870F4E22448807C10F068
:1037A000400F13D03148007830B902202B490870FF
:1037B00001202E49087005E01520284908700020D6
:1037C0002A49087001201D490870DBE21748807CF7
:1037D00010F0800F87D02648007830B903201F49A9
:1037E000087001202249087005E016201B49087066
:1037F00000201F490870012010490870C2E23DE016
:10380000E8010020F001002000000000EC01002091
:1038100000004842EC0400201C070020AC010020FE
:1038200050060020EC050020F40300201C040020BA
:10383000D0010020D8010020DA010020D5010020AD
:10384000CE010020D6010020E0010020E10100208F
:10385000E2010020DC010020E3010020100700202D
:10386000E6010020E7010020D4010020D201002061
:10387000D3010020CC010020A4010020FE484078A4
:10388000002889D0FC48C07A012805D1FA49C87AB5
:103890000022FA49FFF7FBFAF748C07A012809D15C
:1038A000F748007830B92DB10220F349C8720120E1
:1038B000F3490870F348007828BB24B3F248807CB1
:1038C00010F0800F1FD0F148007870B9EA48407AB4
:1038D00058B10120ED4908700020E74948720120E5
:1038E00008720020EA4908600DE0E848007850B10D
:1038F000E148407A38B90020E44908700120DE49E7
:10390000487200200872DC48C07900287AD0E1486B
:103910000178E1480078E14A92ED000AFFF772FD74
:10392000DF48007800286ED1DE48007890B9DE4884
:10393000407878B90120DB4908709FEDDC0AD74850
:1039400080ED000A0120D4490870D2490870002097
:10395000CF490860D348007828B3D348407803287B
:1039600021D10220C44908700120D14908700020EB
:10397000CC490870FEF70CFC9FEDCE0AC74880EDDD
:10398000000A0120C4490870C2490870C048006894
:10399000401CBF49086008460068642802D2002025
:1039A000BD490870DEE1C248007868B3BE4840787F
:1039B0000F282AD10320B0490870BD48007810B103
:1039C0000020B34908600120BB4908700020B849B5
:1039D0000870FEF7DDFB9FEDB90AB04880ED000AE4
:1039E0000120AD490870AB490870A9480068401C27
:1039F000A7490860084600686428D3D20020A5497A
:103A00000870AFE18DE01DE0FFE7AB4800780028CB
:103A1000C8D0A54840783F28C4D1012096490870F5
:103A20009F4908700020A4490870FEF7B1FB9FED84
:103A3000A30A9A4880ED000A012097490870954929
:103A400008708FE1964800780028ABD096484078FF
:103A5000032824D10220884908709548007810B9BD
:103A600000208B490860012091490870FEF790FB07
:103A70009FED920A894880ED000A0120864908706E
:103A80008449087082480068401C814908600846E3
:103A90000068642886D200207F49087062E184486B
:103AA000007838B3804840780F2823D1032072492A
:103AB00008708148007810B9002075490860FEF749
:103AC00067FB9FED7F0A754880ED000A012072496F
:103AD000087070490870784908706D480068401C8B
:103AE0006B4908600846006864288AD2002069494A
:103AF000087037E1704800780028A2D06A48407802
:103B00003F289ED101205C4908700020C871012027
:103B10004872FEF73DFB9FED6B0A604880ED000A9E
:103B200020E15548007A00288BD05A4801785A483D
:103B300000785A4A92ED000AFFF764FC5C4800786E
:103B4000F0B35948407820B951480068401C5049AA
:103B5000086057480078F0B151480078D8B156480D
:103B60000078C0B150484078A8B949480068C828D2
:103B700011D9172040490870FEF70AFB9FED520A41
:103B8000464880ED000A0120434908704149087009
:103B900000203F49086044484078032819D1162086
:103BA0003549087000203E49087043490870FEF707
:103BB000EFFA9FED450A394880ED000A012000E048
:103BC0002EE03549087033490870002030490860FC
:103BD000C8E033480078002821D137480078002811
:103BE0001DD131484078002819D11520224908708C
:103BF00001202B4908703049087000202C490870BA
:103C0000FEF7C6FA9FED300A244880ED000A012035
:103C1000214908701F49087000201D490860A1E073
:103C20002348007830BB2048407820B91848006805
:103C3000401C174908601A480078E0B11E48007817
:103C4000C8B119484078B0B911480068B0F5FA7F9A
:103C500041D9172008490870FEF79AFA9FED1B0A10
:103C60000E4880ED000A01200B49087009490870D0
:103C700000202DE076E02EE0100700205007002005
:103C8000CE010020D50100201C040020D30100201B
:103C9000DC010020E5010020E4010020C801002033
:103CA000E2010020E3010020A40100200000FA430B
:103CB000E001002000805444E101002000002F4476
:103CC000000048430000C8420000E1C3000002C4F5
:103CD0003449086046E034480078F0B13348007851
:103CE000D8B133484078032817D1162031490870DD
:103CF00000202D4908702D490870FEF749FA9FED04
:103D00002E0A2E4880ED000A01202D4908702D4909
:103D1000087000202349086024E02348007808BB8D
:103D200022480078F0B922484078D8B915202149B6
:103D30000870FEF72DFA9FED240A204880ED000A56
:103D400001201F4908701F49087016480068B0F527
:103D5000167F07D90020174908729FED1C0A1C48DE
:103D600080ED000A1348C07960B91248007A48B95A
:103D70001048407A30B90F48C07A18B900200D4970
:103D8000487008700B48007812490880084600788F
:103D900008800846008840F4204000B208800846A9
:103DA00070BD0000DC010020E2010020E1010020E4
:103DB000A401002010070020000070C2C8010020EC
:103DC000E4010020E5010020000048C300000000DD
:103DD00050060020CC01002000B597B00121F74823
:103DE00001F036FF0121480401F07BFF02208DF82D
:103DF000480000208DF84A0001208DF84B00032078
:103E00008DF849000420119011A9ED4801F082FCC1
:103E10000820119011A9EA4801F07CFC0722022138
:103E2000E74801F002FD07220321E54801F0FDFC0F
:103E30004FF4E13013900020ADF85000ADF852007F
:103E4000ADF854000C20ADF856000020ADF8580035
:103E500013A9DC4801F00DF901224021D94801F0F5
:103E60003DFA01228021D74801F038FA0121D548D6
:103E700001F087F9D44802F091FE4FF00060019004
:103E8000D048001D0290D1480390002004900F20DC
:103E90000590002006904FF4806007900020089065
:103EA00009904FF480700A904FF440300B9000203E
:103EB0000C900D900E900F9001A9C34802F010FFD6
:103EC000C148183002F06AFE4FF000600190BD4812
:103ED000001D0290BE480390402004901D200590D4
:103EE000002006904FF48060079000200890099011
:103EF0000A904FF440300B9000200C9001200D9060
:103F000000200E900F9001A9AF48183002F0E8FE93
:103F100026208DF8400001208DF841008DF84200E8
:103F20008DF8430010A800F0DAFA11208DF8400057
:103F300001208DF841008DF842008DF8430010A853
:103F400000F0CDFA012240F224419E4801F0CFF961
:103F5000012210219C48183002F088FF01219A4864
:103F600002F0F8FE01219848183002F0F3FE012219
:103F70004021944801F0B2F901228021914801F0DA
:103F8000ADF901218F4801F0FCF817B000BD00B574
:103F900097B001218948401C01F05AFE0121880494
:103FA00001F09FFE02208DF8480000208DF84A00A5
:103FB00001208DF84B0003208DF849004FF48060FC
:103FC000119011A9834801F0A5FB4FF400601190F6
:103FD00011A9804801F09EFB07220A217D4801F0CB
:103FE00024FC07220B217B4801F01FFC4FF4E13039
:103FF00013900020ADF85000ADF85200ADF8540019
:104000000C20ADF856000020ADF8580013A97248F6
:1040100001F02FF8012240216F4801F05FF90122E1
:1040200080216D4801F05AF901216B4801F0A9F88F
:104030006548603802F0B2FD4FF0006001906648BC
:10404000001D029065480390002004900E2005900A
:10405000002006904FF4806007900020089009909F
:104060004FF480700A904FF440300B9000200C9079
:104070000D900E900F9001A95348603802F030FE69
:1040800027208DF8400000208DF841008DF8420077
:1040900001208DF8430010A800F021FA012240F21F
:1040A00024414D4801F023F901214748603802F0CE
:1040B00051FE01224021484801F010F901214648F3
:1040C00001F05FF817B000BD10B545493E48183003
:1040D00002F09DFE60B142493B48183002F0B2FE4A
:1040E00000213948183002F035FE00203D490870A3
:1040F00010BD70B504460D4611E001203949087025
:104100002A462146324802F01BFF29462E48183025
:1041100002F041FE01212C48183002F01BFE31480C
:1041200000780028E9D070BD70B588B0054600243D
:104130000026AA208DF800008DF80100F1208DF8EE
:10414000020018208DF8030000BF23E005EB840077
:10415000C178002000EB8400001D0DF8001005EB75
:1041600084008178012000EB8400001D0DF8001010
:1041700005EB84004178022000EB8400001D0DF85F
:10418000001015F82410032000EB8400001D0DF82A
:104190000010641C062CD9DB002404E01DF8040088
:1041A0003044C6B2641C1C2CF8DB8DF81C601D2149
:1041B0006846FFF79EFF08B070BD000001002000B8
:1041C0000000024000440040886002404007002098
:1041D000EE07002000040240004800406007002075
:1041E00000002020F401002070B588B005460026AC
:1041F000AA208DF800008DF80100EF208DF8020054
:1042000002208DF8030010208DF80400E8B28DF82C
:104210000500002405E01DF80400304486B2601C4F
:1042200084B2062CF7DBF0B28DF806000721684651
:10423000FFF75FFF08B070BD10B5002440F22441C5
:104240008F4801F08FF8D8B18D4800888C48001D48
:1042500000888C4802F0C1FD90B90021894802F025
:1042600079FD884802F099FDC0F10E00864908608A
:104270000E2084492839C8620121824802F06AFD73
:1042800010BD10B5002440F22441804801F06AF8C6
:1042900000285AD07D4800887C48001D0088794855
:1042A000603002F09AFD00284FD10021754860303F
:1042B00002F050FD7348603002F06FFDC0F10F0056
:1042C000734908600F20734908604FF0010172487C
:1042D00002F040FD71480078A02836D16F48807BFD
:1042E000B02832D16D4840786D4908706B488078AD
:1042F00008716A48C1786A4841716848017968481C
:104300008171664841796648C17164488079644921
:1043100008726248C179624841726048017A604817
:1043200081725E48417A5E48C1725C48807A5C491D
:1043300008735A48C17A5A4841735848017B584813
:1043400081735648417B5648C17310BD30B5034652
:1043500013B94FF6FF7030BD09E013F8014B82EA44
:104360000400C0B24F4D35F8100080EA2222080048
:10437000A1F10101F1D11046EDE770B505460C46FB
:1043800000260DB1022C00D870BDA11E464802883F
:104390002846FFF7DBFF0646A01E2E54310A601E9A
:1043A000295400BFF0E730B5034605E013F8010BD0
:1043B00080EA02043D48025D0800A1F10101F5D147
:1043C000104630BD70B505460C4600260DB1022CD6
:1043D00000D870BD611EFF222846FFF7E4FF0646A5
:1043E000601E2E5400BFF4E710B50446A5202070CF
:1043F0000C2060700020A0700420E0700521204691
:10440000FFF7E0FF052060710020A0711521204614
:10441000FFF7B3FF10BD70B505460C4600260DB181
:10442000022C01D8002070BD611EFF222846FFF734
:10443000BAFF0646601E285CB04201D10120F2E7B7
:104440000020F0E770B505460C4600260DB1022CA1
:1044500001D8002070BDA11E134802882846FFF72E
:1044600075FF0646F1B2A01E285C814206D1601E8F
:10447000285CB0EB162F01D10120EBE70020E9E723
:104480000048004028600240040200200044004030
:10449000080200208C600240886002404007002033
:1044A00050070020EC84000800020020EB83000885
:1044B0000648804706480047FEE7FEE7FEE7FEE7BE
:1044C000FEE7FEE7FEE7FEE7FEE7FEE7D35400085F
:1044D0008901000833490143334A1160704770B5C0
:1044E000002100230F22C47824B32F4C246804F445
:1044F000E064C4F5E064C4F30721C1F10404E3B24D
:104500000A4144789C40E1B28478144021430C076E
:10451000210E264C05786155047804F01F0501240E
:10452000AC4005786D114FF0E02606EB8505C5F827
:10453000004109E0047804F01F040125A5401C4C4B
:104540000678761144F8265070BD1A4A0A40024394
:10455000154B1B1F1A60704739B1134A121D1268A0
:104560000243114B1B1D1A6006E00F4A121D126810
:1045700082430D4B1B1D1A607047042808D14FF071
:10458000E021096941F004014FF0E022116107E0E8
:104590004FF0E021096921F004014FF0E0221161A0
:1045A000704700000000FA050CED00E000E400E0B8
:1045B00080E100E080FFFF1F10B50446FE48844202
:1045C00009D10121480601F0E1FB00214FF0007004
:1045D00001F0DCFB08E00121880601F0D7FB002197
:1045E0004FF0806001F0D2FB10BD30B502460020D4
:1045F0000023146824F002041460146844F00104D9
:10460000146000E05B1C546814F0010F03D1A3F5A3
:104610007F44FF3CF6D1546814F0010F01D1002013
:104620006CE08C79012C04D1146844F0800414608F
:1046300003E0146824F080041460CC79012C04D1C8
:10464000146844F04004146003E0146824F040044B
:1046500014600C7A012C04D1146844F02004146016
:1046600003E0146824F0200414604C7A012C04D177
:10467000146844F01004146003E0146824F010047B
:1046800014608C7A012C04D1146844F0080414607E
:1046900003E0146824F008041460CC7A012C04D1DF
:1046A000146844F00404146003E0146824F0040463
:1046B00014608C78A407CD7844EA05640D7944EA47
:1046C00005444D7944EA05540D886D1E2C43D46190
:1046D000146824F001041460002300E05B1C54689B
:1046E00014F0010F03D0A3F57F44FF3CF6D15468CA
:1046F00014F0010F01D0002000E0012030BD10B502
:104700000021837A012202FA03F1AC4A126842F0D6
:104710000102AA4B1A60A94A1C3212688A43A74BAD
:104720001C331A60027BCAB9A44A0C3212688A434D
:10473000A24B0C331A604288C38842EA03439F4A63
:104740004032847A42F834300288838842EA034354
:104750009A4A4032847A02EBC4025360027B012AF7
:1047600019D1964A0C3212680A43944B0C331A60E2
:104770004288038842EA0343904A4032847A42F8EE
:104780003430C288838842EA03438C4A4032847AB8
:1047900002EBC4025360C27A3AB9884A121D126809
:1047A0008A43864B1B1D1A6006E0844A121D12685C
:1047B0000A43824B1B1D1A60028932B97F4A1432A8
:1047C00012688A437D4B14331A600289012A06D18C
:1047D0007A4A143212680A43784B14331A60427BC7
:1047E000012A06D1754A1C3212680A43734B1C33E6
:1047F0001A60724A126822F00102704B1A6010BDF2
:1048000000218171C171017241728172C172817026
:10481000C1700321017102214171012101807047A2
:104820006649096841F00101644A1160114609684E
:1048300043F60E729143614A11601146096841EADC
:10484000002111601146096821F0010111607047D3
:1048500021B1026842F48032026003E0026822F46F
:10486000803202607047E1B1026842F0800202606B
:104870004FF4C272125842F480734FF4C272135054
:104880004FF4CA72125842F480734FF4CA72135034
:104890004FF4D272125842F480734FF4D272135014
:1048A0001BE0026822F0800202604FF4C2721258CC
:1048B00022F480734FF4C27213504FF4CA7212582C
:1048C00022F480734FF4CA7213504FF4D27212580C
:1048D00022F480734FF4D2721350704710B5024621
:1048E0000020936803F08063B3F1806F00D110E083
:1048F000936803F00063B3F1006F01D1012008E079
:10490000936803F08053B3F1805F01D1022000E08F
:104910000420042879D002F5C07303EB00131B6850
:1049200003F0010402F5C07303EB00131C600B7A63
:104930007BB94B7A0C8843EA445302F5C07404EB0C
:1049400000142468234302F5C07404EB00142360B0
:1049500010E00B7A4C6843EAC4034C7A234302F517
:10496000C07404EB00142468234302F5C07404EB04
:10497000001423608B7A03F00F038B7202F5C0736F
:1049800003EB00135B6823F00F0402F5C07303EB25
:1049900000135C6002F5C07303EB00135B688C7A54
:1049A000234302F5C07404EB001463608B7B1C0688
:1049B0004B7B44EA034403E000640040006600408F
:1049C0000B7B44EA0323CC7A234302F5C07404EB47
:1049D0000014A3608B7C1C064B7C44EA03440B7CD4
:1049E00044EA0323CC7B234302F5C07404EB001498
:1049F000E36002F5C07303EB00131B6843F001048E
:104A000002F5C07303EB00131C6010BD10B5024625
:104A1000002321B1012907D002290FD109E09068B4
:104A2000F84C00EA04030BE09068F74C00EA04033A
:104A300006E09068F54C00EA040301E0002300BFA3
:104A400000BFF34C181BA34216D007DC83B16FF0F4
:104A5000806018180ED0022818D111E0B0F5007F40
:104A600010D0EC4C001909D0B0F5003F0ED10BE08E
:104A700002230DE000230BE0002309E0002307E000
:104A8000012305E0012303E0012301E0002300BF2F
:104A900000BFD8B210BD21B1012907D002290FD122
:104AA00009E0826842F0800282600AE0826842F493
:104AB0000042826005E0826842F40002826000E009
:104AC00000BF00BF704710B500F5D87303EB0113AA
:104AD0001B6803F004031372137A53B900F5D873FB
:104AE00003EB01131B6840F2FF7404EA5353136095
:104AF00009E000F5D87303EB01131B686FF0604405
:104B000004EAD303536000F5D87303EB01131B6869
:104B100003F00203537200F5D87303EB01135B68D3
:104B200003F00F03937200F5D87303EB01135B6876
:104B30001B0AD37400F5D87303EB01139B68D3727F
:104B400000F5D87303EB01139B681C0A147300F57E
:104B5000D87303EB01139B681C0C547300F5D873D6
:104B600003EB01139B681B0E937300F5D87303EBE3
:104B70000113DB68D37300F5D87303EB0113DB6813
:104B80001C0A147400F5D87303EB0113DB681C0CCA
:104B9000547400F5D87303EB0113DB681B0E937498
:104BA00021B9C36843F02003C36003E0036943F005
:104BB0002003036110BD21B9C26842F02002C26027
:104BC00003E0026942F020020261704702460020C1
:104BD00019B9D36803F0030006E0012903D1136972
:104BE00003F0030000E00020704710B502460B46BA
:104BF00000204FF6FF71BBB9146824F0020444F0A2
:104C00000104146000E0491E546804F00304012C00
:104C100001D00029F7D1546804F00304012C01D01D
:104C2000002032E0012030E0012B13D1146824F081
:104C30000304146000E0491E546814F0030F01D00F
:104C40000029F8D1546814F0030F01D000201CE0B3
:104C500001201AE0022B17D1146824F0010444F05B
:104C60000204146000E0491E546804F00304022C9E
:104C700001D00029F7D1546804F00304022C01D0BC
:104C8000002002E0012000E0002010BD01460020CD
:104C90000A6822F0010242F002020A604A6802F049
:104CA0000302022A00D10120704701464FF6FF722D
:104CB00000200B6823F002030B6000E0521E4B68DB
:104CC00003F00203022B01D1002AF7D14B6803F055
:104CD0000203022B00D001207047014600208A69A0
:104CE00002F070007047014600208A69100E70477C
:104CF000014600208A69C2F3074070471AB1436930
:104D00000B43436102E043698B434361704710B535
:104D10000246002011F4700F08D09369C1F3130408
:104D2000234201D001202DE000202BE011F0807FF4
:104D300008D05368C1F31304234201D0012021E0BD
:104D400000201FE011F0006F08D09368C1F3130436
:104D5000234201D0012015E0002013E011F0007F74
:104D600008D0D368C1F31304234201D0012009E025
:104D7000002007E01369C1F31304234201D001208E
:104D800000E0002010BD0022234B994202D10023F5
:104D9000836111E0C1F3130211F0007F01D0C26002
:104DA0000AE011F0806F01D0026105E011F0006FA0
:104DB00001D0826000E042607047024600200A4253
:104DC00001D0012000E00020704770B504460D4678
:104DD00000266069284272D0B5F5807F69D01DDC5D
:104DE000082D42D006DC012D2DD0022D31D0042D0E
:104DF0007FD134E0102D3ED0202D42D0402D78D1EF
:104E000045E0000003000004000300080000031058
:104E1000000100080001FFF77000F030B5F5004F09
:104E200061D009DCB5F5007F4AD0B5F5806F4DD073
:104E3000B5F5006F5DD150E0B5F5803F2DD0B5F5EB
:104E4000003F56D12FE0A0685549FFF7B6FF064650
:104E500051E0E0680321FFF7B0FF06464BE0E06851
:104E60000821FFF7AAFF064645E0E0681021FFF79A
:104E7000A4FF06463FE020690321FFF79EFF064698
:104E800039E020690821FFF798FF064633E02069E2
:104E90001021FFF792FF06462DE060680821FFF71A
:104EA0008CFF064627E060681021FFF786FF064664
:104EB00021E0A0690121FFF780FF06461BE01BE00F
:104EC000A0690221FFF779FF064614E0A0690421DA
:104ED000FFF773FF06460EE00BE0A0697021FFF7B5
:104EE0006CFF064607E060680421FFF766FF064690
:104EF00001E0002600BF00E00026304670BDB1F59D
:104F0000007F3AD00FDC202928D006DC01291CD0F4
:104F100004291DD0082940D11DE0402921D0B1F538
:104F2000807F3AD126E0B1F5004F31D006DCB1F5F3
:104F3000806F25D0B1F5006F2FD124E0B1F5803F0F
:104F400012D0B1F5003F28D111E0154A826025E06A
:104F50000822C26022E01022C2601FE00822026123
:104F60001CE01022026119E00822426016E01022C3
:104F7000426013E00422426010E0042242600DE02F
:104F8000042242600AE0002282610422426005E0BD
:104F9000002282610422426000E000BF00BF70472F
:104FA0000101010010B50446FA48844208D10121EC
:104FB000102000F0FCFE0021102000F0F8FE57E069
:104FC000F548844209D10121480400F0DFFE0021A8
:104FD0004FF4003000F0DAFE4AE0F048844209D194
:104FE0000121880400F0D2FE00214FF4802000F05F
:104FF000CDFE3DE0EA48844209D10121C80400F019
:10500000C5FE00214FF4002000F0C0FE30E0E5486E
:10501000844209D10121080500F0B8FE00214FF4B7
:10502000801000F0B3FE23E0DF48844208D1012164
:10503000202000F0BCFE0021202000F0B8FE17E088
:10504000DA48844209D10121880700F09FFE00213F
:105050004FF0804000F09AFE0AE0D548844207D124
:105060000121400500F092FE0021600500F08EFE57
:1050700010BD2DE9FF4705460E460024A14600BF9E
:10508000A046B08900B100BF2C8A24F44054F088B7
:1050900004432C82AC8941F20C608443B08831898E
:1050A0000843718908430443AC81AC8A24F44074FA
:1050B000B0890443AC82684600F0F9FCB5488542EB
:1050C00002D0B948854202D1DDF80C9001E0DDF84C
:1050D0000890A88910F4004F08D009EBC90000EB34
:1050E000091031684900B0FBF1F707E009EBC9008E
:1050F00000EB091031688900B0FBF1F76420B7FBC1
:10510000F0F004012009642101FB1078A88910F453
:10511000004F08D0322000EBC800B0FBF1F000F0E7
:105120000700044308E0322000EB08106421B0FBC4
:10513000F1F000F00F0004432C81BDE8FF874FF42D
:105140001651016000218180C18001810C214181C3
:1051500000218181704710B502460020108A20F49A
:1051600070600B884C8823438C882343CC8823436E
:105170001843108210BD0021018041808180C180D0
:10518000704721B1828942F40052828104E0828911
:105190004DF6FF731A4082817047028B02F47F4202
:1051A0000283028B0A430283704721B1828942F451
:1051B0000042828103E08289C2F30E02828170473D
:1051C00021B1828A42F40062828204E0828A4FF234
:1051D000FF731A4082827047C1F3080282807047D1
:1051E00001468888C0F308007047028A4FF6F073C2
:1051F0001A400282028A0A430282704721B18289E0
:1052000042F00202828104E082894FF6FD731A4067
:105210008281704782894FF2FF731A4082818289AE
:105220000A4382817047028A4FF6DF731A40028276
:10523000028A0A430282704721B1028A42F4804204
:10524000028204E0028A4BF6FF731A400282704722
:10525000818941F001018181704721B1828A42F048
:105260000802828204E0828A4FF6F7731A40828233
:105270007047028BD2B20283028B42EA0122028380
:10528000704721B1828A42F02002828204E0828A41
:105290004FF6DF731A408282704721B1828A42F052
:1052A0001002828204E0828A4FF6EF731A408282F3
:1052B0007047828A4FF6FB731A408282828A0A43C1
:1052C0008282704721B1828A42F00202828204E027
:1052D000828A4FF6FD731A40828270471AB1838A20
:1052E0000B43838202E0838A8B4383827047F0B54D
:1052F00003460024002600250020A1F510676A3F20
:1053000000D100BF1846C1F3421401F01F06012767
:1053100007FA06F5012C01D10C3004E0022C01D172
:10532000103000E014301AB107682F43076002E024
:105330000768AF430760F0BD02460020B1F5007F6B
:1053400000D100BF13880B4201D0012000E00020F3
:10535000704701F40072B2F5007F00D100BFCA436C
:105360000280704770B5024600240023002500200B
:10537000A1F510666A3E00D100BFC1F3421501F0ED
:105380001F03012606FA03F3012D13D1968933403A
:1053900017E00000001001400044004000480040B9
:1053A000004C0040005000400014014000780040D4
:1053B000007C0040022D02D1168A334001E0968A1B
:1053C00033400C12012606FA04F41688344013B157
:1053D0000CB1012000E0002070BD10B500220023B8
:1053E000A1F510646A3C00D100BF0A120124944068
:1053F000A3B2DC43048010BD0CB5002001900090E6
:105400007648006840F480307449086000BF7348F3
:10541000006800F4003000900198401C0190009852
:1054200018B90198B0F5A04FF1D16C48006810F49C
:10543000003F02D00120009001E000200090009881
:10544000012845D165484030006840F080506349EC
:10545000403108606248006840F44040604908609C
:105460005E48083000685D490831086008460068F9
:1054700040F4004008600846006840F4A05008600E
:105480005848091F0860081F006840F08070091F15
:10549000086000BF5148006810F0007FFAD040F269
:1054A0000570514908604D480830006820F003003D
:1054B0004A49083108600846006840F00200086068
:1054C00000BF46480830006800F00C000828F8D1FA
:1054D0000CBD70B5012401254448006840F47000FB
:1054E000424908603D48006840F001003B490860BF
:1054F00000203A4908310860384800683C490840B3
:10550000364908603B48091D0860081F006820F400
:105510008020091F0860002030490C310860FFF727
:105520006BFFE00631498039086070BD70B500201E
:105530000022022300240221284D08352D6805F0A1
:105540000C0020B1042806D0082834D107E02A4DE9
:105550002A4E356033E02A4D284E35602FE01F4D2E
:105560002D1D2D68C5F380541C4D2D1D2D6805F093
:105570003F0154B1224DB5FBF1F5184E361D36688A
:10558000C6F3881605FB06F209E01B4DB5FBF1F5E5
:10559000124E361D3668C6F3881605FB06F20F4D0F
:1055A0002D1D2D68C5F301456D1C6B00B2FBF3F595
:1055B000124E356003E0104D104E356000BF00BF45
:1055C000064D08352D68C5F303150E4E705D0B4D65
:1055D0002D68C540094E356070BD0000003802409E
:1055E0000070004008544007003C024088ED00E095
:1055F000FFFFF6FE103000240024F40034020020E7
:1056000000127A003802002010B5044698488442FF
:1056100008D10121084600F086FB0021012000F09E
:1056200082FB76E09348844208D10121022000F0F9
:105630007AFB0021022000F076FB6AE08E4884426B
:1056400008D10121042000F06EFB0021042000F0AD
:105650006AFB5EE08948844208D10121082000F0FD
:1056600062FB0021082000F05EFB52E08448844287
:1056700008D10121102000F056FB0021102000F07D
:1056800052FB46E07F48844208D10121202000F0EF
:105690004AFB0021202000F046FB3AE07A48844291
:1056A00008D10121402000F03EFB0021402000F005
:1056B0003AFB2EE07548844208D10121802000F099
:1056C00032FB0021802000F02EFB22E07048844253
:1056D00008D10121801500F026FB0021A01500F063
:1056E00022FB16E06B48844208D10121401500F0EE
:1056F0001AFB0021601500F016FB0AE066488442A0
:1057000007D10121001500F00EFB0021201500F04B
:105710000AFB10BDF0B50A4600210023002400BF9B
:105720003DE0012505FA01F3156805EA03049C42F2
:1057300034D105684F000326BE40B5430560157996
:105740004E00B5400668354305601579012D02D03D
:105750001579022D16D185684F000326BE40B5434A
:10576000856055794E00B54086683543856045684B
:1057700001268E40B5434560456896798E40B6B2A5
:1057800035434560C5684F000326BE40B543C5603C
:10579000D5794E00B540C6683543C560491C10290F
:1057A000BFD3F0BD4FF6FF7101600021017141715F
:1057B0008171C171704708B54FF480320092009A30
:1057C0000A430092009AC261C161009AC261C26933
:1057D0000092C269009208BD0246002013690B4284
:1057E00001D0012000E0002070470146086980B226
:1057F00070470246002053690B4201D0012000E0AF
:10580000002070470146486980B2704701837047A5
:10581000418370470AB1018300E0418370474161D1
:10582000704742694A4042617047F0B50023002446
:105830004D07ED0E02FA05F3CE1000F1200555F8E4
:1058400026504E07F70E0F26BE40B543CF1000F18D
:10585000200646F82750CE1000F1200555F82650B6
:1058600045EA0304CE1000F1200545F82640F0BDBE
:10587000000002400004024000080240000C024008
:10588000001002400014024000180240001C0240B8
:10589000002002400024024000280240F94800682D
:1058A00040F00100F74908600020F649083108601F
:1058B000F4480068F4490840F2490860F348091DBB
:1058C0000860F348EF4984310860F0481038091D3A
:1058D0000860EC48006820F48020EA490860002055
:1058E000E8490C310860E7498C31086070470021B5
:1058F000E44A921C117011460870704710B50146B9
:105900000022002300204A11012A02D1DD4C236825
:1059100008E0022A03D1DB4C7034236802E0D94C42
:105920007434236801F01F02012494401C4201D00A
:10593000012000E0002010BD38B5002000900024B8
:10594000002500BF3120FFF7D9FF05460098401C15
:1059500000900098B0F5A04F01D0002DF2D031207A
:10596000FFF7CCFF08B1012400E00024204638BD39
:1059700001460020C34A106820F0F80040EAC10048
:1059800010607047C349086070470021BD4A7032FB
:1059900011701170012802D004280AD104E00121FD
:1059A000B84A7032117005E00521B64A70321170A4
:1059B00000E000BF00BF7047B7490860704770B58E
:1059C000049C41EA82150126C6EB530645EA0645CA
:1059D000054345EA0465AB4E361D356070BDAD49E3
:1059E00008667047820142EA0172A64B84331A604E
:1059F0007047A8498866704710B5830143EA016380
:105A000043EA02739F4C8834236010BDA1490867A4
:105A10007047A049C864704702460020994B08337C
:105A2000186820F0EC6042EA01031843954B0833F4
:105A30001860704702460020924B0833186820F027
:105A4000784042EA010318438E4B083318607047D0
:105A5000014600208B4A0832106820F003000843FA
:105A60001060704787480830006800F00C007047ED
:105A700001460020834A0832106820F0F0000843F5
:105A800010607047014600207E4A0832106820F4FA
:105A9000E05008431060704701460020794A083200
:105AA000106820F4604040EAC10010607047F0B513
:105AB000002100220024022500260223714F08370E
:105AC0003F6807F00C0121B1042905D0082937D11E
:105AD00005E0724F076036E0714F076033E0694FB1
