:020000040800F2
:1000000028160020D5420008DD42000877130008BA
:10001000E1420008E3420008E54200080000000059
:10002000000000000000000000000000E74200089F
:10003000E942000800000000EB420008ED42000821
:10004000EF420008EF420008EF420008EF420008CC
:10005000EF420008EF420008EF420008EF420008BC
:10006000EF420008EF420008EF420008EF420008AC
:10007000EF420008EF4200084B3D0008EF42000845
:10008000EF420008213D0008EF420008A5080008E3
:10009000BB080008EF420008EF420008EF420008EA
:1000A000EF420008EF420008EF420008EF4200086C
:1000B000EF420008EF420008EF420008EF4200085C
:1000C000EF420008EF420008EF420008EF4200084C
:1000D000EF420008450800082B410008773F000860
:1000E000EF420008EF420008EF4200081F05000839
:1000F000EF420008EF420008EF420008EF4200081C
:10010000EF420008EF420008EF420008EF4200080B
:10011000EF420008EF420008EF420008EF420008FB
:10012000EF420008EF420008EF420008EF420008EB
:10013000EF420008EF420008EF420008DB08000829
:10014000F1080008EF420008EF420008EF42000803
:10015000EF420008EF420008EF420008EF420008BB
:10016000EF420008EF420008EF420008EF420008AB
:10017000EF420008EF420008EF420008EF4200089B
:10018000EF420008EF420008DFF80CD007F0D2F889
:10019000004800479D01000828160020002400F0B8
:1001A0004DF91AE001200D4908601E2C0EDD0C48A7
:1001B00090ED0A0A0B4880ED040A094890ED090AFF
:1001C000084880ED050A03F024FE0024601C84B278
:1001D00005480068401C04490860E3E7800241428A
:1001E000680400200C0200200000002010B5044626
:1001F0006FF0040004F0D3F8E11704EB5171C1F380
:10020000C701384A11701046007800EB4001C1EB7D
:10021000C0104FF6FF7101EAC0003349088010BDDD
:100220000146304A12784A434FF0E0235A610022D7
:100230009A611A46126942F001021A6100BF4FF03A
:10024000E022106910F0010F02D010F4803FF6D0C8
:100250004FF0E022126922F001024FF0E0231A6110
:1002600000229A61704701461F4A12884A434FF0A4
:10027000E0235A6100229A611A46126942F0010293
:100280001A6100BF4FF0E022106910F0010F02D098
:1002900010F4803FF6D04FF0E022126922F0010204
:1002A0004FF0E0231A6100229A61704770B504464E
:1002B0004FF4077094FBF0F0C6B24FF4077094FB54
:1002C000F0F100FB114085B205E04FF40770FFF735
:1002D000CAFF701EC6B2002EF7D115B12846FFF72F
:1002E000C2FF70BD04000020060000201CB50121E3
:1002F000042005F0BFFB012000908DF804000020D1
:100300008DF8060003208DF8050001208DF8070008
:100310006946594805F010F91CBD30B585B040F26A
:100320000440009000208DF808008DF80900082096
:100330008DF80A0000208DF80B0001218DF80C10BB
:1003400002218DF80D1003218DF80E1004218DF877
:100350000F1005218DF8101006218DF811100721BE
:100360008DF812106946454804F0CAF90546002484
:1003700001E0601C04B22946404804F059FA012803
:1003800001D0FF2CF5DB05B030BD00B58BB00121ED
:10039000022005F0B8FB0121042005F06BFB0222CE
:1003A0000821354805F053F902220921324805F0A9
:1003B0004EF94FF44070099002208DF82800032078
:1003C0008DF8290000208DF82A0001208DF82B00DF
:1003D00009A9294805F0B0F842F2CF00ADF818009D
:1003E000C72007900020ADF81A00ADF8200006A93C
:1003F000234805F040FD7020ADF804000120ADF861
:1004000006000220ADF8100001A91D4805F04EFEBF
:1004100008211B4805F067FF01A9194805F0ACFE4B
:100420000821174805F068FF0121154805F08EFDE9
:100430000121134805F0A8FD0BB000BD10B5A820A0
:10044000FFF7D4FE03F08DFB00F002F9FFF79DFFEC
:100450004FF47A70FFF72AFFFFF75FFF00F012F802
:1004600000F06AF903F0A2FA00F029F84FF47A706C
:10047000FFF71CFF10BD00000008024000680040AC
:10048000000400400EB50121042005F03CFB4FF0B4
:10049000FF3001905320ADF800000020ADF80800B7
:1004A000ADF8020001212B4805F050FD69462948AE
:1004B00005F0E1FC0121274805F066FD0EBD1FB5E2
:1004C0000121402005F01FFB6320029040F24730DD
:1004D000ADF804000020ADF80600ADF80C0001A94D
:1004E0001D4805F0C8FC012211461B4806F064F9BE
:1004F0000121194805F048FD4FF4E06003F0FCFECF
:100500002B208DF8000000208DF8010001208DF8CF
:1005100002008DF80300684603F0F3FE1FBD10B51E
:1005200001210D4806F05FF901280ED101210A488A
:1005300006F06AF90121084806F052F900F082FC41
:1005400006480068401C0549086010BD0148243079
:1005500000687047000800400018004008000020B4
:1005600000B58BB00121084605F084FA0121480648
:1005700005F0C9FA4FF4C050099002208DF8280008
:1005800000208DF82A0003208DF8290001208DF825
:100590002B0009A9FE4804F0CFFF09220B21FC48DB
:1005A00005F055F809220C21F94805F050F8002013
:1005B0008DF81E008DF81F008DF820008DF82100A9
:1005C0008DF822008DF823008DF81A008DF81B009D
:1005D00008208DF81C0003208DF81D00ADF81800D0
:1005E00006A9EC4803F013FF00208DF812008DF8E7
:1005F000130001208DF814000020ADF80800ADF8BC
:100600000A00ADF80C00ADF80E00ADF810000120A6
:100610008DF8150002A803F084FF01220221DD48B5
:1006200004F07EFA01221146DA4804F079FA142027
:100630008DF8040001208DF8050000208DF80600DB
:1006400001208DF8070001A803F05BFE0BB000BD90
:1006500000B58BB00121022005F00CFA01214806FB
:1006600005F051FA0121880605F04DFA09220D2105
:10067000C94804F0ECFF09220C21C74804F0E7FF49
:100680004FF44050029002208DF80C0002A9C2489D
:1006900004F052FF40208DF8040000208DF8050082
:1006A00001208DF806008DF8070001A803F029FE4F
:1006B000BA4803F093FE08A803F0B4FF00208DF8B9
:1006C00026008DF827008DF828008DF829008DF878
:1006D0002A008DF82B008DF822008DF823000820C9
:1006E0008DF8240003208DF82500ADF8200008A91E
:1006F000AA4803F08CFE0E208DF81A0000208DF819
:100700001B0001208DF81C000020ADF81000ADF892
:100710001200ADF81400ADF81600ADF81800012075
:100720008DF81D0004A803F0FCFE012202219B4865
:1007300004F0F6F90BB000BD00B597B00121984860
:1007400005F098F90121102005F0EEF90722114675
:10075000914804F07CFF8020119002208DF8480021
:1007600000208DF84A0003208DF8490000208DF804
:100770004B0011A9884804F0DFFE8A4804F024FBEE
:10078000894813900020ADF85000ADF852004FF4A6
:100790008060ADF854000420ADF856000020ADF89C
:1007A000580013A97F4804F076FB012240217D48C0
:1007B00004F0A6FC25208DF8400001208DF84100B2
:1007C00000208DF8420001208DF8430010A803F0AE
:1007D00098FD764806F0F4F801A806F0BCF94FF051
:1007E000006001906F48001D029071480390002046
:1007F00004901E200590002006904FF48060079022
:100800000020089009904FF480700A904FF4403017
:100810000B9000200C900D900E900F9001A9634852
:1008200006F070F90121614806F0A6F9012240F2B4
:1008300024415C4804F06DFC01215A4804F0B3FBEC
:1008400017B000BD10B540F22441564804F09CFC9E
:1008500038B35448008853488088544806F0CFF98C
:10086000F8B90021514806F087F9504806F0A7F979
:10087000C0F11E004F4908601E204C4944390860F1
:10088000081F006840F40020091F08600121474844
:1008900006F072F947480068122802D1444800F077
:1008A0007FFD10BD10B501213A4804F0A0F918B140
:1008B0000121384804F035FA10BD10B50221354841
:1008C00004F095F940B10021324804F02AFA3A4A7E
:1008D0000021304804F009F810BD10B501212F485F
:1008E00004F085F918B101212C4804F01AFA10BD62
:1008F00010B50221294804F07AF9002836D00221E7
:10090000264804F00EFA2D4A0021244803F0EDFF9A
:100910002A4814384069B0F5007F28D92748143890
:100920004069B0F5017F22D82448143890F820108F
:10093000C07F01EB002002B2204814384169A1F2C7
:1009400001211F4820F811201C48143890F822106B
:1009500090F8210001EB002002B2184814384069D9
:10096000A0F201201649083921F8102068E0134848
:100970001438406901282FD110481438C07F11491C
:1009800008700E48143890F8200000F03F001BE07B
:100990000000024000640040000402400068004083
:1009A0000200400000100140A0860100886402405F
:1009B000340200200C0000206003002024030020EB
:1009C0000C0400203401002048701E4890F82100DB
:1009D00000F00300887033E01A484069A0F5806198
:1009E00001392DD11748C07F0106164890F8200024
:1009F00001EB0041134890F8210001EB0021114860
:100A000090F82200084400EE100AB8EEC00ADFEDAC
:100A10000E0A20EE200A0D4880ED010A90ED010A31
:100A2000D0ED020A30EE600ADFED090A20EE200A5E
:100A3000084880ED0A0A054890ED010A80ED020A97
:100A400010BD0000100300200AD7233C48020020FC
:100A500000007A4468040020B0EE401AB4EEE01AB8
:100A6000F1EE10FA02DDB0EE600A7047B0EE410A16
:100A7000FBE7B0EE401AB4EEE01AF1EE10FA02DD38
:100A8000B0EE410A7047B0EE600AFBE7B0EE401AE4
:100A900010B9B0EE410A7047B4EEE01AF1EE10FA68
:100AA00002DDB0EE600AF6E7B1EE600AB4EEC01AFD
:100AB000F1EE10FA02D2B1EE600AECE7B0EE410AB4
:100AC000E9E730B50446F0EE400A002014B9B0EE74
:100AD000600A30BD002028E0F5EEC00AF1EE10FA01
:100AE00002DDB0EE600A01E0B1EE600A03EB8005C2
:100AF00095ED011AB4EEC10AF1EE10FA13D8F5EE35
:100B0000C00AF1EE10FA02DDB0EE600A01E0B1EECB
:100B1000600A03EB800595ED001AB4EEC10AF1EE10
:100B200010FA00DD04E0451CE8B24D1E8542D3DC1E
:100B300000BF02EB800595ED000A20EE200AC8E711
:100B4000F0EE402A10B9B0EE620A7047F5EEC02A06
:100B5000F1EE10FA02DDB0EE620A01E0B1EE620AD7
:100B6000B4EEE00AF1EE10FA39DBF5EEC02AF1EE50
:100B700010FA02DDB0EE620A01E0B1EE620AB4EEF4
:100B8000C10AF1EE10FA2AD831EE600AB5EEC00AB9
:100B9000F1EE10FA02DD31EE600A03E031EE600A98
:100BA000B1EE400AB0EE404A32EEE00A80EE043A7E
:100BB00032EE610AB5EEC00AF1EE10FA02DD32EE55
:100BC000610A03E032EE610AB1EE400AF0EE403A0B
:100BD000B0EE610A03EE230A20EE220AB5E722EE08
:100BE000220AB2E79FEDFE0AFE4880ED090A9FED5A
:100BF000FC0A80ED050A9FEDFA0A80ED0A0A002042
:100C0000F94908709FEDF60AF84880ED2D0A9FED2E
:100C1000F40A80ED2E0A9FEDF20A80ED320A704749
:100C2000F24890ED330AD0ED340A30EE200AD0EDD0
:100C3000350A30EE600AD0ED360A30EE600ADFED9C
:100C4000EC0A80EE201A9FEDEA0A21EE000ADFEDA1
:100C5000E90A80EE201AB0EE000A21EE000ADFED6C
:100C6000E60A20EE200A80ED2C0A90ED330AD0ED42
:100C7000340A30EE600AD0ED350A30EE600AD0ED6D
:100C8000360A30EE200ADFEDDA0A80EE201A9FEDF8
:100C9000D80A21EE000ADFEDD70A80EE201AB0EE66
:100CA000000A21EE000ADFEDD40A20EE200A80EDD2
:100CB0002B0AB0F99010B0F992000144CB48B0F97A
:100CC0009400091AC948B0F99600081A4C2190FB03
:100CD000F1F000EE100AB8EEC00ADFEDC50A60EED2
:100CE000200A9FEDC41A80EE810AF0EE000A20EE81
:100CF000200ADFEDC10A20EE200ABC4880ED300A50
:100D0000B0F99010B0F99200091AB848B0F99400FF
:100D1000091AB648B0F9960008444C2190FBF1F04E
:100D200000EE100AB8EEC00ADFEDB10A20EE200A8C
:100D30009FEDB01AC0EE010AB0EE000A20EE800A64
:100D4000DFEDAD0A20EE200AA84880ED2F0AB0F9A9
:100D500090004142A548B0F99200091AA348B0F9A1
:100D60009400091AA148B0F99600081A4C2190FB8A
:100D7000F1F000EE100AB8EEC00ADFED9D0A60EE59
:100D8000200A9FED9E1A80EE810ADFED9A0A80EE1E
:100D9000201AB0EE000A21EE000ADFED990A20EEDB
:100DA000200A924880ED310A90ED310A9FED951AA4
:100DB000C0EE010A90ED320A30EE800A80ED320A70
:100DC00090ED2F0ADFED8F0A80EE201A90ED2D0AAC
:100DD00031EE000A80ED2D0A90ED300ADFED890A30
:100DE00080EE201A90ED2E0A31EE000A80ED2E0AD8
:100DF0007C4890ED0A0AB5EEC00AF1EE10FA02DD69
:100E000090ED0A0A04E0774890ED0A0AB1EE400A34
:100E1000F0EE080AB4EEE00AF1EE10FA04D29FED0B
:100E2000700A704880ED0A0A6E48D0ED0A0A9FEDFC
:100E3000751A80EE810AD0ED090A30EE200A80EDA5
:100E4000090A704710B5704890F90000401C082846
:100E500076D2DFE800F0E62F04103E5F8DFD00F053
:100E6000A9FE38B100F080FE022067490870012019
:100E70006649086023E15B49654800F0F4FD62497A
:100E80000870FFF7CDFE0121084600F073FE564AB8
:100E9000117A10789FED5F0A00F0E4FF012000F066
:100EA00072FFC4B2514BEC335B4A0121204600F083
:100EB000B6FC04E14B49564800F0D5FD5249087094
:100EC00052490878494BEC33534A002100F0A7FC03
:100ED000F5E044494E4800F0C6FD5048407868B9F6
:100EE00001F0FFFE044623464B4A0321012000F097
:100EF00096FCFFF777FE022043490870FFF790FE4B
:100F000001F0EFFE04462346434A0321012000F08E
:100F100086FCD4E033493E4800F0A5FD3F48807888
:100F200078B901F0DEFE044623463B4A0321012046
:100F300000F075FC022034490870FFF753FE16E0FC
:100F4000BCE0FFF76DFE01F0CCFE04462346324ABA
:100F50000321012000F063FC002000F014FFC4B264
:100F6000224BEC332C4A0121204600F058FCA6E02D
:100F70001C49274800F077FDFFF752FE2748C07A4A
:100F800060B32648007BA0B901F0ABFE04462346BF
:100F9000214A0321012000F042FC022000F0F3FE70
:100FA000C4B2124BEC331C4A0121204600F037FC3E
:100FB0004DE01A48007B90B101F093FE04462346B1
:100FC000154A0321012000F02AFC032000F0DBFE7B
:100FD000C4B2064BEC33104A012123E026E036E090
:100FE0000000000068040020200500207403002099
:100FF0000000984200007042DA0F49400080FD4333
:101000000000344300007A44100000201C0000203F
:10101000380300200000B4421003002038050020EF
:1010200016E04AE0204600F0FAFB10E0D348C07A10
:1010300068B901F056FE04462346D14A0321012037
:1010400000F0EDFB0220CF490870FFF7CBFD36E042
:10105000CD49CE4800F007FDFFF7E2FDC748407BD1
:1010600010B9C648807B98B101F03BFE0446234688
:10107000C34A0321012000F0D2FB012000F083FECF
:10108000C4B2C34BBE4A0121204600F0C8FB13E0A6
:10109000BA48807B80B9B948407B68B901F021FE2D
:1010A00004462346B64A0321012000F0B8FB022083
:1010B000B4490870FFF796FD01E000E000BF00BFF3
:1010C000012010BD1FED3A0AB148EC3880ED2D0A21
:1010D0001FED3D0A80ED2E0A1FED3F0A80ED320A1A
:1010E000704700B50246107A01281AD1507A0328B9
:1010F0000AD1A848007838B90120A0494870087082
:10110000A4490870032000BD507A012807D10020AF
:101110009A49487008709F4908700320F3E703203C
:10112000F1E7107A02286ED1508AB0F5807F17D18E
:1011300099480078002867D19048407828B100206D
:101140008E4948700870887405E001208B4948700A
:101150008874FFF747FD01208F4908700320D2E70C
:10116000508AB0F5907F1AD18B4800780028E2D1E0
:101170008248407828B10020804948700870887201
:1011800008E001207D4948700870C871002088720D
:10119000FFF728FD0120804908700320B3E7774856
:1011A0004078D8B9508A10F4007F17D07A48007878
:1011B00000287ED17148C07A20B100206F49C872E2
:1011C000087006E001206D49C872002008732120D4
:1011D0000870012070490870052094E7674840783E
:1011E000F0B9508A10F4806F1AD06B48007800284C
:1011F0005FD16248407B40B1002060494873C873AA
:101200000120887307E075E041E001205B494873E5
:10121000C8730020887301205F490870062072E7B8
:101220005648407850B1508A10F4006F06D05A48A2
:10123000007860BB0120514988723AE04F484078FD
:1012400050B1508A10F4805F06D053480078F0B94E
:1012500002204A4988722CE04848407850B1508AB0
:1012600010F4005F06D04C48007880B90320434951
:1012700088721EE04148407850B1508A10F4804F87
:1012800006D04548007810B904203C49887210E027
:101290003A48407850B1508A10F4004F06D03E488A
:1012A000007830B905203549887202E000203A49BB
:1012B000087032484078D8B9907C10F0100F03D0F5
:1012C00001203049C87002E000202E49C870907C8F
:1012D00010F0800F03D00120304908700872907C14
:1012E00010F0400F04D001202C4908700020087233
:1012F000022008E700BF06E710B588B00446A0202A
:101300008DF80000E07C8DF80100A07C8DF80200D3
:10131000607C8DF80300207C8DF80400E07D8DF862
:101320000500A07D8DF80600607D8DF80700207D0A
:101330008DF80800144890F82B008DF80900124829
:1013400090F82A008DF80A000F4890F829008DF8CF
:101350000B000D4890F828008DF80C000748807CA1
:101360008DF80D00B0208DF80E000F21684602F0B8
:1013700001FD08B010BD00BFFEE7000038050020E9
:101380001003002010000020680400203803002013
:101390006004002021000020200000202005002003
:1013A000014608784A7840EA0220C0F30A00F94A68
:1013B00010804878C0108A7840EA4210C0F30A00D2
:1013C000F44A508088788011CA7840EA82000A790D
:1013D00040EA8220C0F30A00EE4A9080087940106B
:1013E0004A7940EAC210C0F30A00EA4AD08048793C
:1013F0000011800810724879C0F30110507288798A
:10140000CA7940EA0220404200B2E24A5081087A9A
:101410004A7A40EA022002B2DE488281887ACA7A99
:1014200040EA022002B2DB48C2810A7B02744A7B96
:101430004274887BCA7B40EA0220D64A508201204F
:10144000704710B52DED048B0446206910B9D248C1
:10145000406B2060D048406B2168401A00EE100AB3
:10146000B8EE400ADFEDCD0A80EE201A84ED021AB4
:1014700094ED020AF1EE060AB4EEE00AF1EE10FA7B
:1014800004DDB7EE000A84ED030A20E094ED020AC1
:10149000B1EE400A10EE101A084605F02DFE41ECA0
:1014A000100BB0EE409AF0EE609A05F0A9FFB0EE96
:1014B000408AF0EE608A51EC180B05F030FE00EE29
:1014C000100AF7EE000A30EEC00A84ED030A94ED2C
:1014D000030ABDEC048B10BD70B504460D46A07C1C
:1014E00010F0010F20D0AC4890F8300010F0010F40
:1014F00003D00120A849086102E00020A649086144
:10150000A548FFF79EFFA648B0F9000000EE900A3C
:10151000F8EEE00A20EE200ABDEEC00A10EE100A36
:1015200000B29F4988802AE0A07C10F0020F21D0F1
:10153000994890F8300010F0020F03D0012096492E
:10154000086102E00020944908619348FFF779FFA1
:101550009348B0F90000404200EE900AF8EEE00A2D
:1015600020EE200ABDEEC00A10EE100A00B28C492F
:10157000888004E000208A49888087490861A07C2F
:1015800010F0040F21D0844890F8300010F0040FC0
:1015900003D001218048816202E000217E488162FF
:1015A0007D481830FFF74DFF7D48B0F9020000EE8E
:1015B000900AF8EEE00A20EE200ABDEEC00A10EE16
:1015C000100A00B27649C8802CE0A07C10F0080F09
:1015D00022D0714890F8300010F0080F03D001219C
:1015E0006D48816202E000216B4881626A481830D0
:1015F000FFF727FF6A48B0F90200404200EE900A68
:10160000F8EEE00A20EE200ABDEEC00A10EE100A45
:1016100000B26349C88005E000206149C88000210C
:101620005D488162608A5C4908635D48B0F90400E6
:1016300000EE100AB8EEC00A85ED000A5848B0F96D
:10164000060000EE100AB8EEC00A85ED010A554802
:10165000807CE8BBB4F90A0000281FDDB4F90A0059
:1016600000EE100AB8EEC00ADFED4F0A20EE200AA5
:10167000DFED4E0AB4EEE00AF1EE10FA3ED295ED3F
:10168000050AB4F90A0000EE900AF8EEE00A9FEDB0
:10169000461A00EE810A85ED080A2FE0B4F90A0027
:1016A000002821DAB4F90A0000EE100AB8EEC00AE8
:1016B000DFED3D0A20EE200ADFED3D0AB4EEE00A40
:1016C000F1EE10FA1ADD95ED050AB4F90A0000E012
:1016D00018E000EE900AF8EEE00A9FED331A00EEF3
:1016E000810A85ED080A09E0608938B995ED050A97
:1016F000DFED300A30EE200A85ED080A95ED080A84
:1017000085ED050A012070BD70B50346002033B198
:10171000012B1ED0022B4FD0032B7DD16CE000207B
:1017200014E04FF400740C6000240C724C72082416
:101730008C72002505EB400601F10B04A555012430
:1017400004EB400601F10B04A555401C0428E8DB1E
:1017500063E04FF400740C6000240C724C72082497
:101760008C72002012E032F81040C4F307250024E8
:1017700004EB400601F10B04A55512F810500124AA
:1017800004EB400601F10B04A555401C0428EADBDC
:1017900043E0000038030020D80200200000C842C7
:1017A00028000020380500200AD7A33B0000204273
:1017B000000020C20000000040F2FF140C60002472
:1017C0000C724C7208248C72002012E032F8104027
:1017D000C4F30725002404EB400601F10B04A555D2
:1017E00012F81050012404EB400601F10B04A5553A
:1017F000401C0228EADB10E006240C6000240C7276
:101800004C7208248C72AB24CC7215780D7314883A
:10181000250A4D7301E0FFE700BF00BF70BD2DE951
:10182000F04705460E461746984615B90020BDE814
:10183000F087424639463046FFF766FF3946BF48D3
:1018400002F05EFF8146002401E0601C04B24946BC
:10185000BA4802F0EDFF012801D0FF2CF5DB012092
:10186000E5E770B504460D466088A0F58060002865
:1018700003DD6088A0F5806002E06088C0F58060CC
:10188000642836DD0120AE4908616088A0F58060DB
:10189000642813DD0846FFF7D4FDAA48B0F900001C
:1018A00000EE900AF8EEE00A20EE200ABDEEC00A33
:1018B00010EE100A00B2A349888022E06088A0F5EB
:1018C000806010F1640F1CDA9D48FFF7BAFD9D4857
:1018D000B0F90000404200EE900AF8EEE00A20EE77
:1018E000200ABDEEC00A10EE100A00B295498880A9
:1018F00007E0002092490861924988809048FFF7EC
:10190000A0FD2088A0F58060002803DD2088A0F5D8
:10191000806002E02088C0F58060642838DD012105
:10192000874881622088A0F58060642815DD84489E
:101930001830FFF786FD8348B0F90200404200EE00
:10194000900AF8EEE00A20EE200ABDEEC00A10EE82
:10195000100A00B27B49C88024E02088A0F580608E
:1019600010F1640F1EDA76481830FFF76AFD7548EB
:10197000B0F9020000EE900AF8EEE00A20EE200A2C
:10198000BDEEC00A10EE100A00B26E49C88009E030
:1019900000216B48816200206A49C880684818307D
:1019A000FFF74FFD6748B0F9040000EE100AB8EEEB
:1019B000C00A85ED000A6348B0F9060000EE100A7F
:1019C000B8EEC00A85ED010AA088C0F58060002845
:1019D00003DDA088C0F5806002E0A088A0F58060EB
:1019E000322804DA1FED8D0A85ED080A0CE0A08884
:1019F000C0F5806000EE100AB8EEC00ADFED520AB2
:101A000020EE200A85ED080AD5ED080AB0EE600A3E
:101A1000DFED4E0A0120FFF739F885ED080A95ED54
:101A2000050AD5ED080A30EE200A85ED050A48487A
:101A30000068052810DD95ED050AD5ED070AB4EE1E
:101A4000600AF1EE10FA02D00121297601E00021AE
:101A5000297600203E4908603D480068401C3C490A
:101A60000860012070BD70B504460D463448406BD7
:101A7000401C33494863207A012833D002281ED005
:101A8000032836D13348007820B1FFF7ABF80020A7
:101A90003049087000203049087029462046FFF779
:101AA000E0FE01F01EF9064633462C4A03210120D0
:101AB000FFF7B5FE002028498874022070BD254834
:101AC000007820B9FFF78EF80120224908702248DB
:101AD000407818B929462046FFF7FEFC2048FFF75A
:101AE00000FBEBE700201B4908701D48FFF7F9FADF
:101AF000E4E70220E2E72DE9F04705460E461746E7
:101B0000984615B90020BDE8F08742463946304670
:101B1000FFF7FAFD3946134802F0F2FD8146002432
:101B200001E0601C04B249460E4802F081FE012823
:101B300001D0FF2CF5DB0120E5E700000068004044
:101B4000D80200202800002017B7D139CDCC4C3E58
:101B5000340000203200002038050020100300204F
:101B600038030020006400401420104908600E2053
:101B70004860704770B504460D4604B970BD012D2C
:101B800004D0022D03D0032D03D101E001E000E0D9
:101B900000BF00BF05480168054804F05EFB03482C
:101BA0004168034804F05BFB00BFE7E73800002012
:101BB0000004004010B5B3EE030AFD4880ED2A0A88
:101BC0009FEDFC0A80ED290A9FEDFB0AFB4880EDA2
:101BD000030A9FEDFB0A80ED040A1C22F9495830E4
:101BE00005F0C0F81C22F849F448983005F0BAF81E
:101BF0004FF48060F549088048808880C8800120C3
:101C000010BDF348C07848B19FEDEB0AEB4880ED7A
:101C1000030A9FEDEB0A80ED040A08E0B7EE080A1C
:101C2000E64880ED030AB7EE000A80ED040A70472B
:101C300010B5E248D0ED090AFDEEE00A10EE900A78
:101C400002B2DE48D0ED050AB0EE600A00F13401C0
:101C5000583000F085FCD948D0ED0A0AFDEEE00AC4
:101C600010EE900A02B2D548D0ED150AB0EE600A27
:101C700000F17401983000F073FC00EE100AB8EE29
:101C8000C00ACE4880ED020A90ED050A80ED070AF1
:101C900010BD2DE9F04105460C46174694ED000AAB
:101CA000B1EE400AD4ED010A9FEDC51A00EE810A9B
:101CB000D4ED030A20EE200AD4ED040A94ED021AB2
:101CC00000EE810A85ED370A94ED000AD4ED010A91
:101CD0009FEDBB1A00EE810AD4ED030A20EE200A24
:101CE000D4ED040A94ED021A00EE810A85ED380A5B
:101CF00094ED000AD4ED010A9FEDB11A00EEC10A7D
:101D0000D4ED030A20EE200AD4ED040A94ED021A61
:101D100000EE810A85ED390A94ED000AD4ED010A3E
:101D20009FEDA71A10EEC10AD4ED030A20EE200A97
:101D3000D4ED040A94ED021A00EE810A85ED3A0A08
:101D400000261BE005F1DC0000EB860090ED001A98
:101D5000D5ED2A1A21EE211AB0EE410A95ED291A85
:101D6000F0EE410A0120FEF791FEB1EE400A05F1C6
:101D7000CC0000EB860080ED000A761C042EE1DB2F
:101D80000120BDE8F08170B505460DB9002070BD99
:101D9000FFF74EFF032D05D19FED8E0A874880ED9A
:101DA000040A04E09FED860A844880ED040A2A466E
:101DB00082497F48FFF76DFF012D01D0032D26D109
:101DC000002421E07A48903030F9140000EE900AA7
:101DD000F8EEE00AFDEEE00A10EE900A02B2744856
:101DE000CC3000EB8400D0ED000AB0EE600A04EBCA
:101DF000C4006F4B03EB8001774800F0B1FB6C49E6
:101E0000EC3121F81400641C042CDBDB28E0022DEB
:101E100026D1002422E06648903030F9140000EE0C
:101E2000900AF8EEE00AFDEEE00A10EE900A02B227
:101E30005F48CC3000EB8400D0ED000AB0EE600AC1
:101E400004EBC4005A4B03EB8001644800F088FBAC
:101E500001465748EC3020F81410641C042CDADBDF
:101E6000012094E770B52DED0C8B0546B0EE408A4D
:101E70000C469FED5B0AB0EE409A1DB90020BDEC08
:101E80000C8B70BD574890ED000AB4EE408AF1EE1D
:101E900010FA10D00020544908605448047051488A
:101EA00080ED008A454890ED050A514880ED000A12
:101EB0000120504908704D480078A04207D03F48A3
:101EC00090ED050A4A4880ED000A484804704948E8
:101ED000007820B144480068401C434908604248EB
:101EE00090ED000AB8EE400A9FED431AC0EE010AD9
:101EF0009FED420A60EE808A9FED410AF4EEC08AAF
:101F0000F1EE10FA08DD374890ED000AB0EE409A85
:101F10000020384908702BE018EE900A05F0ECF824
:101F200041EC100BB0EE40DAF0EE60DA05F01CFC8C
:101F3000B0EE40BAF0EE60BA2A48006805F0DCF86E
:101F400041EC100BB0EE40CAF0EE60CA53EC1B2B14
:101F500051EC1C0B04F0BFFF41EC100BB0EE40AA9B
:101F6000F0EE60AA51EC1A0B05F0D9F809EE100A50
:101F7000ECB91F4890ED000A30EE090A0F4880EDD9
:101F8000050A1B4890ED000A30EE080A0B48D0ED18
:101F9000090A30EE600AB5EEC00AF1EE10FA36DD3D
:101FA000134890ED000A30EE080A04482AE04DE09C
:101FB0007403002000C0DA456666E63F680400202E
:101FC0009A99993FBC000020A0000020380300200F
:101FD00010000020CDCCCC3F4C0000206800002039
:101FE00000000000F0000020E8000020ED000020CC
:101FF000E4000020EC00002000007A44D80F4940A3
:10200000B30CC93FD0ED090A30EE600A0BE0FE4880
:1020100090ED000A30EE080AFC48D0ED090A30EED7
:10202000600AB1EE400AF0EE000AB4EEE00AF1EE0A
:1020300010FA4ED21FED160AF54880ED000A002076
:10204000F4490870F4490870022018E7012C40D1C7
:10205000ED4890ED000A30EE490AEC4880ED050AA3
:10206000E94890ED000A30EE480AE848D0ED090A48
:1020700030EE600AB5EEC00AF1EE10FA0ADDE24871
:1020800090ED000A30EE480AE048D0ED090A30EE43
:10209000600A0BE0DC4890ED000A30EE480ADB48AD
:1020A000D0ED090A30EE600AB1EE400AF0EE000A07
:1020B000B4EEE00AF1EE10FA0BD21FED370AD44865
:1020C00080ED000A0020D3490870D349087002202F
:1020D000D5E60120D3E670B52DED048B06460C46FF
:1020E00015461EB90020BDEC048B70BD012D11D129
:1020F000E178D4ED030AB0EE600A6078FFF7B2FE33
:10210000022806D10120C549C87108700020C449C1
:1021100048704AE1022D24D10020C2490870C2490A
:102120000870C2490880E178D4ED030AB0EE600A75
:102130006078FFF797FE0228EBD1B948C07818B154
:102140000120B649887205E0B548C078012801D160
:10215000B24988720320B14988740020B0494870A0
:1021600023E1032D7ED1AD48807A08B90020BAE77B
:10217000AC48007868B91FED660AA44880ED000AF3
:102180001FED690A80ED010AA8480088401CA74994
:102190000880A448007880BBA4480088B0F5967FEA
:1021A00030DDE178D4ED030AB0EE600A6078FFF725
:1021B00059FE9B4890ED030AB5EEC00AF1EE10FA05
:1021C00002DD90ED030A04E0954890ED030AB1EEBC
:1021D000400AF7EE000AB4EEE00AF1EE10FA0DD272
:1021E00091480078032802D101208E4908708E485A
:1021F0000078401C8C490870D7E003E000208A4931
:102200000870D2E0874800780028A9D08348807AF7
:1022100087490978884208D08048807A84490870C4
:10222000012084490870844908707D48D0ED010A76
:102230007A48807A401E814951F8300000EE100A39
:10224000B8EEC00A70EEC08A754890ED020AB5EE8D
:10225000C00AF1EE10FA0AD1012077490870002077
:10226000774900E08FE008701FEDA38A0EE06C480C
:10227000D0ED020A6948807A401E704901EBC00027
:1022800090ED010AB8EEC00A30EEC08AF5EEC08AC1
:10229000F1EE10FA02DDB0EE680A01E0B1EE680A74
:1022A000F2EE0E0AB4EEE00AF1EE10FA10D21FEDD3
:1022B000B40AF0EE408A63480078401C6149087017
:1022C00008460078042806D100205A49087002E028
:1022D00000205C490870B5EEC08AF1EE10FA02DD0C
:1022E000B0EE480A01E0B1EE480AF2EE040AB4EE9C
:1022F000E00AF1EE10FA10D21FEDC70AB0EE408AE4
:102300004F480078401C4E49087008460078042861
:1023100006D100204849087002E0002048490870B2
:102320004548007810B94348007810B3B2EE080A67
:10233000C8EE000AB0EE609ADFED430AB0EE490A3B
:102340000120FEF7A3FB314880ED010AB2EE080A36
:10235000C8EE800AB0EE609ADFED3B0AB0EE490AA3
:102360000120FEF793FBB1EE400A284880ED000AF9
:102370001BE01FEDE50A254880ED010A1FEDE80A84
:1023800080ED000A11E085B91FEDEB0A1F4880EDD2
:10239000050A1FEDED0A80ED090A1FEDEF0A80ED39
:1023A000000A1FEDF10A80ED010A01209BE600B54D
:1023B0002DED108B89B0B0EE409AF0EE609AB0EE41
:1023C00041FA1FEE100A04F097FE41EC100B8DED60
:1023D000060B19EE900A04F08FFE41EC100B8DED08
:1023E000040B1A4890ED000BB0EE40AAF0EE60AA84
:1023F00090ED000BB0EE40AAF0EE60AA9DED040B4C
:1024000053EC102B124825E0E40000206804002063
:10241000F0000020EC0000202005002038050020FE
:1024200084050020E1000020DE000020D80000200C
:10243000DA000020DF000020E00000209C8000087F
:10244000DD000020DC0000200000F042F800002049
:102450000001002090ED000B51EC100B04F094FCF7
:1024600041EC100BB0EE408AF0EE608A9DED060B59
:1024700053EC102B51EC180B04F086FC41EC100BC4
:10248000B0EE40DAF0EE60DA53EC1D2B51EC180B95
:1024900004F093FD41EC100BB0EE40CAF0EE60CAC0
:1024A00019EE100A04F028FE41EC100B8DED000B24
:1024B00053EC1A2B9DED000B51EC100B04F005FDB5
:1024C00041EC100BB0EE40EAF0EE60EA53EC1C2B4E
:1024D00051EC1E0B04F0FFFC41EC100BB0EE40DAA7
:1024E000F0EE60DA53EC1A2B51EC1D0B04F04CFCAF
:1024F00041EC100BB0EE40BAF0EE60BA53EC1C2B7E
:102500009FED130B51EC100B04F0DFFC41EC100BB2
:10251000B0EE40DAF0EE60DA53EC182B51EC1D0B04
:1025200004F0D9FC41EC100B8DED020B9DED020B7C
:10253000094880ED000B094880ED00BB51EC1B0BF6
:1025400004F0EDFD00EE100A09B0BDEC108B00BDEB
:10255000000000000000F03F00010020F800002013
:1025600070B52DED028B05460C46B0EE408A16463E
:1025700094ED000AF0EE408A84ED008A00EE106AC5
:10258000B8EEC00A84ED010A00EE106AB8EEC00A87
:1025900038EE400A84ED030A287E18B90020BDEC0D
:1025A000028B70BD287E07287CD2DFE800F0E104B2
:1025B000051769A4D800DCE094ED030A84ED030A52
:1025C00095ED041AF0EE410A94ED051AB0EE410AB9
:1025D000287BFEF75BFA84ED050ACAE094ED030A56
:1025E000F6EE000A20EE200A84ED030A94ED000ABC
:1025F000B5EEC00AF1EE10FA18D194ED030AB5EE6B
:10260000C00AF1EE10FA02DD94ED030A03E094ED46
:10261000030AB1EE400AF3EE040AB4EEE00AF1EE6A
:1026200010FA03D29FED840A84ED030A94ED030AA5
:10263000B5EEC00AF1EE10FA02DD94ED030A03E0F4
:1026400094ED030AB1EE400ADFED7C0AB4EEE00A35
:10265000F1EE10FA09D294ED000AB5EEC00AF1EEDF
:1026600010FA02D00120287309E0002028739FEDA2
:10267000720A84ED050A9FED700A84ED060A78E07F
:1026800094ED030ADFED6E0A20EE200A84ED030AC2
:1026900094ED000AB5EEC00AF1EE10FA03DD94EDF8
:1026A000000A04E064E094ED000AB1EE400AF2EEA4
:1026B000040AB4EEE00AF1EE10FA1BD294ED030A1C
:1026C000B5EEC00AF1EE10FA02DD94ED030A03E064
:1026D00094ED030AB1EE400AF7EE000AB4EEE00A08
:1026E000F1EE10FA06D25748007E18B99FED520A53
:1026F00084ED030A3DE094ED030AB5EEC00AF1EE65
:1027000010FA02DD94ED030A03E094ED030AB1EE42
:10271000400ADFED4D0AB4EEE00AF1EE10FA07D2FE
:102720004848007E20B99FED440A84ED030A15E075
:10273000D4ED030AB0EE600ADFED440A0120FEF793
:10274000A5F984ED030AD4ED030AB0EE600A404B0C
:10275000404A05210120FEF7B4F90AE009E094EDB2
:10276000030ADFED370A20EE200A84ED030A00E0B9
:1027700000BF00BF95ED000AD4ED030A20EE200A49
:1027800084ED020A94ED020A84ED080A287B20B346
:1027900094ED050AD4ED030A30EE200A84ED050A13
:1027A00094ED050AD5ED010A20EE200A84ED060A13
:1027B00095ED041AF0EE410A94ED061AB0EE410AC6
:1027C000287BFEF763F984ED060A94ED080AD4ED40
:1027D000060A30EE200A84ED080A687BB8B194ED51
:1027E000030AD4ED040A30EE600AD5ED020A20EEA9
:1027F000200A84ED070A94ED030A84ED040A94ED9F
:10280000020AD4ED070A30EE200A84ED080A95ED9D
:10281000051AF0EE410A94ED081AB0EE410A287E3E
:10282000FEF734F984ED080A94ED080ABDEEC00AFB
:1028300010EE100A00B2B2E6000000000000C8432B
:10284000CDCCCC3D68040020CDCC4C3F00002042D4
:102850000C0100202001002070B52DED0C8BB0EE96
:10286000408A05460E469FEDFD0AB0EE409A0024D0
:10287000FB4890ED000AB4EE408AF1EE10FA08D061
:102880000020F8490860F64880ED008A0120F649EA
:102890000870F548007820B1F2480068401CF14902
:1028A0000860F04890ED000AB8EE400ADFEDEF0A4C
:1028B00080EE201A9FEDEE0A61EE008A9FEDED0A90
:1028C000F4EEC08AF1EE10FA08DDE54890ED000A5A
:1028D000B0EE409A0020E44908702BE018EE900A10
:1028E00004F00AFC41EC100BB0EE40DAF0EE60DAD6
:1028F00004F03AFFB0EE40BAF0EE60BAD848006893
:1029000004F0FAFB41EC100BB0EE40CAF0EE60CAE6
:1029100053EC1B2B51EC1C0B04F0DDFA41EC100BBB
:10292000B0EE40AAF0EE60AA51EC1A0B04F0F7FBEF
:1029300009EE100AD04880ED009AC94890ED000ACF
:10294000B5EEC00AF1EE10FA0CDDCB4890ED000AAE
:10295000B5EEC00AF1EE10FA18D29FEDC00A80ED74
:10296000000A13E0BE4890ED000AB5EEC00AF1EE91
:1029700010FA0BD2C04890ED000AB5EEC00AF1EE95
:1029800010FA03DD9FEDB50A80ED000AFFF750F95C
:10299000F5B3EEB3B84890ED000AB1EE400AD0EDC1
:1029A000010A9FEDB61A00EE810AD0ED030A20EE6F
:1029B000200AD0ED040A90ED021A00EE810AB04818
:1029C00080ED370AAC4890ED000AD0ED010A9FED8A
:1029D000AB1A00EE810AD0ED030A20EE200AD0EDFA
:1029E000040A90ED021A00EE810AA54880ED380A2B
:1029F000A14890ED000AD0ED010A9FEDA01A00EE6B
:102A0000C10AD0ED030A20EE200AD0ED040A00E04E
:102A10001DE090ED021A00EE810A994880ED390A16
:102A2000954890ED000AD0ED010A9FED941A10EE42
:102A3000C10AD0ED030A20EE200AD0ED040A90ED81
:102A4000021A00EE810A8E4880ED3A0AE3E0EDB307
:102A5000894890ED000AB1EE400AD0ED010A9FEDE1
:102A6000871A00EE810AD0ED030A20EE200AD0ED8D
:102A7000040A90ED021A00EE810A814880ED370ABF
:102A80007D4890ED000AD0ED010A9FED7C1A00EE22
:102A9000810AD0ED030A20EE200AD0ED040A90ED61
:102AA000021A00EE810A764880ED380A724890EDED
:102AB000000AD0ED010A9FED711A00EEC10AD0EDB7
:102AC000030A20EE200AD0ED040A00E01DE090ED9C
:102AD000021A00EE810A6A4880ED390A664890EDD4
:102AE000000AD0ED010A9FED651A10EEC10AD0ED83
:102AF000030A20EE200AD0ED040A90ED021A00EE3F
:102B0000810A5F4880ED3A0A85E0EEB35A4890EDBD
:102B1000000AB1EE400AD0ED010A9FED581A00EE0E
:102B2000810ADFED4E0A20EE200AD0ED040A90ED76
:102B3000021A00EE810A524880ED370A4E4890EDA5
:102B4000000AD0ED010A9FED4D1A00EE810ADFED7B
:102B5000430A20EE200AD0ED040A90ED021A00EE9E
:102B6000810A474880ED380A434890ED000AD0EDCD
:102B7000010A9FED421A00EEC10AD0ED030A20EED1
:102B8000200AD0ED040A00E01DE090ED021A00EEEC
:102B9000810A3B4880ED390A374890ED000AD0EDB4
:102BA000010A9FED361A10EEC10AD0ED030A20EE9D
:102BB000200AD0ED040A90ED021A00EE810A304896
:102BC00080ED3A0A27E02C4890ED040AD0ED020A85
:102BD00020EE200A2A4880ED370A274890ED040AA3
:102BE000D0ED020A20EE200A254880ED380A22485E
:102BF00090ED040AD0ED020A20EE200A204880ED74
:102C0000390A1D4890ED040AD0ED020A20EE200A90
:102C10001B4880ED3A0A00241CE01948DC3000EB28
:102C2000840090ED001A1648D0ED2A1A21EE211AE0
:102C3000B0EE410A90ED291AF0EE410A0120FDF7AD
:102C400025FFB1EE400A0E48CC3000EB840080ED49
:102C5000000A641C042CE0DB002435E000000000C6
:102C600090010020840100208C0100200000FA4423
:102C7000D80F4940B30CC93F680400209A99993F86
:102C800074030020F74830F9140000EE900AF8EEC3
:102C9000E00AFDEEE00A10EE900A02B2F1483C3084
:102CA00000EB8400D0ED000AB0EE600A04EBC40033
:102CB000EC4B903B03EB8001EB48FFF751FCE949FB
:102CC0005C3121F81400641C042CDBDBE54B5C3325
:102CD000E64A01210846FEF7A2FD0120BDEC0C8B5F
:102CE00070BD2DE9F041002400250026E048408A0F
:102CF000E049098888420DD1DE48008850B1DE489D
:102D00000088401CDC49088008460088642809DDEA
:102D1000012407E00020D84908800024D448408AD4
:102D2000D4490880D248407C50B1D4480088401C27
:102D3000D249088008460088322805DD012603E0D4
:102D40000020CE4908800026C948007C50B1CC48FC
:102D50000088401CCA49088008460088322805DDE2
:102D6000012503E00020C64908800025C048408AAC
:102D700018B114B90020C3490870BD48007C18B1CF
:102D800015B90020C0490870B948407C18B116B97F
:102D90000020BE490870BE488078002832D1BC4867
:102DA000007870BBBA48407858BBB948C07A40BB7D
:102DB000B748407B28BB0020B6490870B649087068
:102DC000B6490870B2494872B5490860B049C8713F
:102DD0000872B4490870B4490870B4490870AC4925
:102DE000887408460078B24908800020B14908700C
:102DF000B1490870B1490870B1490870B14908700B
:102E0000F6E3FFE7A248407B18B9A148807B002881
:102E10007ED0AD480088401CAB4908809C48407B70
:102E2000002876D099480078A8B9A6B19848007CC7
:102E300028B90120964908740920087007E09448D1
:102E4000007C20B1002092490874102008700120F5
:102E50008E49087023E08C48007800BBFDB18C4897
:102E6000407C58B901208A49487413200870012019
:102E7000964908700020944908800DE08448407C01
:102E800050B10020824948742620087001209049E2
:102E9000087000208C49088001207B4908708C480C
:102EA000007890B17A48407C78B98848007860B161
:102EB00085480088B0F5967F07DD262074490870A4
:102EC000002083490870814908708148007880B9E2
:102ED0006F48407C68B17D48007850B17A480088DE
:102EE000B0F5967F05DD25206949087001207849F5
:102EF00008706748C07B88B17648007870B976481A
:102F0000007858B90020704908800120714901E01B
:102F100068E03EE008705E49087071E75C48C07B7D
:102F2000B0B16C48007898B167480088B0F5FA7F76
:102F30000EDD6948007858B900206349088065496A
:102F4000087001206449087018205149087057E73B
:102F50004F48C07B0028E0D05E4800780028DCD1D4
:102F600059480088B0F5FA7FD7DD5B480078002823
:102F7000D3D0002054490880012056490870002011
:102F80004349C87301205449087011204049087012
:102F900036E73F48807B0028BFD04F48007858B1C3
:102FA0004C48007840B100204B49087046490880E1
:102FB00012203749087023E7474800780028ACD131
:102FC000444800780028A8D03F480088B0F5FA7F30
:102FD000A3DD00203F4908703B4908802C49087058
:102FE00088730DE72A48C07A01287BD127480078EA
:102FF00050B94EB121202649087000203049087090
:10300000012030490870FBE62148007B48BB1E4880
:10301000007868B965B101201D490873002028496E
:103020000870284908702D49087001201649087059
:103030002B488078032808D12148007828B901203E
:10304000264908701E490870DAE62548807800286D
:103050009ED11B48007800289AD020200C49087087
:10306000CEE640E0040400204C00002010030020C5
:1030700038030020620100206A0100207001002056
:103080006E01002067010020610100206001002026
:103090003805002066010020640100206501002041
:1030A0007401002078010020790100207A010020BD
:1030B0005E0100205C0100205D010020690100200C
:1030C00080010020810100206C0100207E01002091
:1030D0007F0100207C0100207D0100208201002072
:1030E0003401002015E0F748007B00288BD0F6481B
:1030F0000078002887D00020F2490870F349087052
:10310000F1490870EF490873C8720120F04908704E
:1031100076E6EC488078D8B3EE480078002893D162
:10312000002C91D0EC48807C10F0400F21D0EA4870
:10313000807C10F0800F1CD0E848007850B9012046
:10314000E0490870E54908700020E5490870E54944
:1031500008700AE01720DB4908700020DF4908707A
:103160000120DF490870DF4908700120D949087043
:1031700046E6D948807C10F0400F14D0D84800783B
:1031800038B90220CF4908700120D549087006E0FF
:1031900022E01520CB4908700020D1490870012099
:1031A000CC490870EDE3CC48807C10F0800FAFD0A4
:1031B000CC48007830B90320C24908700120C949C1
:1031C000087005E01620BF4908700020C549087046
:1031D0000120C0490870D4E3BA484078002897D04D
:1031E000BC48007828BB24B3BB48807C10F0800F1B
:1031F0001FD0BC48007870B9B248407A58B101205D
:10320000B84908700020AF494872012008720020B8
:10321000B54908600DE0B348007850B1A948407A3C
:1032200038B90020AF4908700120A6494872002033
:103230000872A448807C012819D1A248C079B0B98D
:10324000A048007A98B99F48407A80B9A7490A787F
:103250009C49887CA549FEF73EFF0120FEF793FDBF
:10326000C7B2A34BA34A01213846FEF7D8FA9548C6
:10327000C07900287AD0A048407820B99A480068E0
:10328000401C994908609D4801789D4800789D4AF6
:1032900092ED000AFFF7E0FA9B48007800287CD105
:1032A0009A480078A8B99448407890B98E48006848
:1032B00064280ED99FED960A924880ED000A0120FD
:1032C0008F4908708D490870904908700020864920
:1032D00008608E48007868B387484078032829D171
:1032E00081480068401C804908608A48007808B915
:1032F000002008607C480068C82805D29FED860A37
:10330000804880ED000A07E0B3EE090A7D4880EDB1
:10331000000A00207D49087002206A4908700120D7
:103320007C490870FDF7CEFE01207549087073498D
:103330000870F2E27748007880B36F4840780F2831
:103340002DD169480068401C6749086073480078BF
:1033500008B90020086064480068B0F5FA7F06D21A
:103360009FED6D0A674880ED000A08E012E1B3EEB8
:103370000E0A644880ED000A0020664908700320A8
:1033800050490870012065490870FDF79BFE012037
:103390005B49087059490870BFE21FE0FFE75F48CA
:1033A00000780028C5D0544840783F28C1D101207A
:1033B0004449087054490870FDF784FE9FED560A91
:1033C000504880ED000A01204D4908704B490870B3
:1033D000002045490860524908709EE24A4800783A
:1033E0000028A6D04E480078D0B943484078B8B9F4
:1033F0003D480068C82813D9FDF764FE9FED490ACF
:10340000404880ED000A0120444908704449087092
:103410003B490870394908700020334908607CE254
:103420003F48007870B33448407803282AD10220FE
:10343000244908702C480068401C2B490860354816
:10344000007808B90020086027480068B0F5967F2A
:1034500005D29FED310A2B4880ED000A07E0B3EE5C
:10346000090A284880ED000A00202D490870012033
:1034700028490870FDF726FE0120214908701F49E0
:1034800008704AE223480078D8B11B4840780F28DA
:103490005FD103200B49087013480068401C124993
:1034A00008601E48007808B1002008600E480068D7
:1034B000B0F5FA7F38D29FED180A124880ED000A65
:1034C00037E046E03805002081010020800100201F
:1034D0006001002067010020380300206601002001
:1034E0006401002065010020740100208405002093
:1034F0006004002010030020340100205D01002042
:103500005C010020580100207A0100207B0100208E
:103510000000204278010020000000007901002016
:103520006901002000000C42B3EE0E0AFE4880ED57
:10353000000A0020FD490870FDF7C4FD0120FC4988
:103540000870FC490870FC480068401CFA49086093
:10355000E3E1F6480078002893D1F84840783F2806
:103560008FD10420F64908700020C87101204872EC
:10357000FDF7A8FD1FED180AEB4880ED000A0120B9
:10358000EB490870EB490870E84908700020EA49E7
:103590000860C2E1EA48407A58B3E7480068401C36
:1035A000E5490860E648807C012823D10846006888
:1035B00064281FD90220E24988740020DE4908608F
:1035C0001FED2B0ADF4880ED000A1FED2D0A80ED6C
:1035D000010A1FED2F0A80ED020A0120FEF7D3FB3E
:1035E000C7B2D94BD94A01213846FEF718F994E100
:1035F000C7E181E0D248807C02281AD1D448007803
:10360000022816D1D2490A78CD49887CD049FEF7E4
:1036100062FD0120FEF7B7FBC7B2CB4BCB4A0121BD
:103620003846FEF7FCF80020CA490870C249086015
:1036300073E1C848007850BBC148807C032826D17C
:10364000C3480078032822D1BB480068B0F5967FB4
:103650001DD90120BF4908700020B74908601FED3F
:10366000520AB84880ED000A1FED550A80ED010AA4
:103670001FED570A80ED020A0120FEF784FBC7B256
:10368000B14BB24A01213846FEF7C9F845E1B148CD
:103690000078C8B1AA48807C032815D1AC480078CE
:1036A000032811D1AA490A78A549887CA849FEF7C0
:1036B00012FD0120FEF767FBC7B2A34BA34A01210D
:1036C0003846FEF7ACF828E11FED6D0A9D4880ED05
:1036D000000A1FED6F0A80ED010A1FED710A80EDEF
:1036E000020A0120FEF74FFBC7B2974B974A012110
:1036F0003846FEF794F810E19148007A002897D0F8
:103700008C4801788A480078874A92ED000AFFF7D2
:10371000A3F891480078E8B38848407820B98648F3
:103720000068401C844908608B480078F8B18B48D9
:103730000078E0B17D480078C8B180484078B0B9E1
:103740007D480068C82812D917207D490870FDF708
:10375000B9FC1FED8F0A744880ED000A01207449FE
:1037600008707449087000207349086020E07A48A6
:103770000078E8B179480078D0B16C480078B8B1E9
:103780006E4840783F2813D122206D490870FDF71C
:1037900029FA00E04CE0BBEE090A634880ED000A1C
:1037A000012063490870634908700020624908607D
:1037B00062484078032817D116206149087000201C
:1037C0006649087059490870FDF77CFCBBEE090A90
:1037D000554880ED000A0120554908705549087088
:1037E00000205549086098E05C480078F8B94F48D7
:1037F0000078E0B951484078C8B9152050490870A0
:103800000120564908704949087000205249087043
:10381000FDF758FC9FED520A434880ED000A012055
:10382000434908704349087000204349086074E028
:103830004948007848BB4148407820B93E48006874
:10384000401C3D49086045480078F8B13748007889
:10385000E0B13A484078C8B937480068B0F5967F7B
:1038600014D9172036490870FDF72CFCBBEE0E0A60
:103870002D4880ED000A01202D4908702D4908705F
:1038800000202D4908602949087046E03348007837
:10389000F0B126480078D8B928484078032817D1D5
:1038A00016202749087000202C4908701F4908700D
:1038B000FDF708FCBBEE090A1B4880ED000A012059
:1038C0001B4908701B49087000201B49086024E050
:1038D0002248007808BB15480078F0B917484078AE
:1038E000D8B9152016490870FDF7ECFB9FED1C0AAE
:1038F0000D4880ED000A01200D4908700D4908703F
:103900000D480068B0F5FA7F07D900200C4908720D
:103910009FED140A0B4880ED000A0948C07980BB6E
:103920000748007A68BB1FE0580100207901002099
:103930005C0100205D0100207401002034010020A2
:1039400038050020680400206004002010030020D7
:103950008405002083010020780100207A010020E6
:1039600000000CC2000000000E48407A48B90D4823
:10397000807C30B90B48407818B100200949487064
:1039800008700848007808490880084600780880D0
:103990000846008840F4204000B208800846BDE890
:1039A000F0810000380500205E01002000B597B0CE
:1039B0000121FE4802F05EF80121480402F0A3F85C
:1039C00002208DF8480000208DF84A0001208DF873
:1039D0004B0003208DF849000420119011A9F448F0
:1039E00001F0AAFD0820119011A9F14801F0A4FDF1
:1039F00007220221EE4801F02AFE07220321EC48AB
:103A000001F025FE4FF4E13013900020ADF8500096
:103A1000ADF85200ADF854000C20ADF8560000206F
:103A2000ADF8580013A9E34801F035FA012240210E
:103A3000E04801F065FB01228021DE4801F060FBD7
:103A40000121DC4801F0AFFADB4802F0B9FF4FF08A
:103A500000600190D748001D0290D84803900020D4
:103A6000049011200590002006904FF4806007908C
:103A70000020089009904FF480700A904FF4403075
:103A80000B9000200C900D900E900F9001A9CA4849
:103A900003F038F8C848183002F092FF4FF0006089
:103AA0000190C448001D0290C54803904020049036
:103AB0001D200590002006904FF4806007900020A4
:103AC000089009900A904FF440300B9000200C9021
:103AD00001200D9000200E900F9001A9B6481830DB
:103AE00003F010F826208DF8400001208DF84100E9
:103AF0008DF842008DF8430010A800F002FC112060
:103B00008DF8400001208DF841008DF842008DF8BD
:103B1000430010A800F0F5FB012240F22441A54823
:103B200001F0F7FA01221021A348183003F0B0F891
:103B30000121A14803F020F801219F48183003F02B
:103B40001BF8012240219B4801F0DAFA0122802172
:103B5000984801F0D5FA0121964801F024FA17B0EF
:103B600000BD00B597B001219048401C01F082FFD4
:103B70000121880401F0C7FF02208DF848000020D1
:103B80008DF84A0001208DF84B0003208DF8490084
:103B90004FF48060119011A98A4801F0CDFC4FF4D8
:103BA0000060119011A9874801F0C6FC07220A2184
:103BB000844801F04CFD07220B21824801F047FDAB
:103BC0004FF4E13013900020ADF85000ADF85200F2
:103BD000ADF854000C20ADF856000020ADF85800A8
:103BE00013A9794801F057F901224021764801F0E4
:103BF00087FA01228021744801F082FA012172487B
:103C000001F0D1F96C48603802F0DAFE4FF0006044
:103C100001906D48001D02906C48039000200490B4
:103C20001E200590002006904FF480600790002031
:103C3000089009904FF480700A904FF440300B9038
:103C400000200C900D900E900F9001A95A486038FA
:103C500002F058FF5848303802F0B2FE4FF00060D2
:103C600001905948001D029059480390402004904B
:103C70001D200590002006904FF4806007900020E2
:103C8000089009900A904FF440300B9000200C905F
:103C900001200D9000200E900F9001A94648303869
:103CA00002F030FF27208DF8400001208DF8410000
:103CB00002208DF8420001208DF8430010A800F08A
:103CC00020FB0E208DF8400001208DF841000220DD
:103CD0008DF8420001208DF8430010A800F011FB80
:103CE000012240F22441384801F013FA0121324800
:103CF000603802F041FF01212F48303802F03CFFCC
:103D000001224021304801F0FBF9012280212E4898
:103D100001F0F6F901212C4801F045F917B000BD7A
:103D200010B52C492448183002F083FF60B12949AE
:103D30002148183002F098FF00211F48183002F087
:103D40001BFF00202449087010BD10B521491A48F6
:103D5000303802F06EFF60B11E491748303802F06B
:103D600083FF00211448303802F006FF00201B4971
:103D7000087010BD70B504460D4611E001201649CB
:103D800008702A4621460E4802F0ECFF29460A48F0
:103D9000183002F012FF01210748183002F0ECFE43
:103DA0000D4800780028E9D070BD00000100200017
:103DB000000002400044004088600240700500207E
:103DC000E80500200004024000480040980500205B
:103DD0000506002000002020980100209901002005
:103DE00070B504460D460FE00120FD4908702A46D3
:103DF0002146FC4802F0B6FF2946FB4802F0DDFEF2
:103E00000121F94802F0B8FEF54800780028EBD00F
:103E100070BD70B588B0054600240026AA208DF834
:103E200000008DF80100F1208DF8020018208DF8B7
:103E3000030000BF23E005EB8400C178002000EB05
:103E40008400001D0DF8001005EB8400817801202E
:103E500000EB8400001D0DF8001005EB8400417894
:103E6000022000EB8400001D0DF8001015F824104E
:103E7000032000EB8400001D0DF80010641C062CCC
:103E8000D9DB002404E01DF804003044C6B2641CF1
:103E90001C2CF8DB8DF81C601D216846FFF76AFFBB
:103EA00008B070BD30B5034613B94FF6FF7030BD92
:103EB00009E013F8014B82EA0400C0B2CB4D35F89B
:103EC000100080EA22220800A1F10101F1D1104680
:103ED000EDE770B505460C4600260DB1022C00D862
:103EE00070BDA11EC24802882846FFF7DBFF0646C8
:103EF000A01E2E54310A601E295400BFF0E730B5D1
:103F0000034605E013F8010B80EA0204B948025D9C
:103F10000800A1F10101F5D1104630BD70B505468C
:103F20000C4600260DB1022C00D870BD611EFF2288
:103F30002846FFF7E4FF0646601E2E5400BFF4E754
:103F400010B50446A52020700D2060700020A070E0
:103F50000420E07005212046FFF7E0FF002060719B
:103F60000120A07116212046FFF7B3FF162120463D
:103F7000FFF736FF10BD10B5002440F224419E48E3
:103F800001F002F900287DD09B4800889A48001D66
:103F900000889548303802F032FE002872D10021A6
:103FA0009148303802F0E8FD8F48303802F007FEC3
:103FB000C0F11E009149086011208B495839C86230
:103FC00001218948303802F0D7FD8D480078A528B6
:103FD000E4D18B48407908281ED2DFE800F0A40421
:103FE0001E29408F979C8648C0798549097A00EB45
:103FF0000120844908808248407A88708048807A0D
:10400000C8707F48C07A7E49097B00EB01207D495A
:1040100088807B48407BC88085E07948C07900F083
:104020000F00794908707648C079000948707AE035
:104030007348C079754908707148007A00EE100A1B
:10404000B8EE400A084680ED010A6D48407A00EE5D
:10405000100AB8EE400A084680ED020A63E068489C
:10406000C0796B4908706648007A48706448407AA5
:1040700088706348807AC8706148C07A0871604867
:10408000017B00E050E0624841715D48417B60483F
:1040900081715B48817B5E48C1715948C07B5C4936
:1040A00008725748017C5A4841725548417C58482B
:1040B00081725348817C5648C1725148C07C544932
:1040C00008734F48017D524841734D48417D504827
:1040D00081734B48817D4E48C1734948C07D484932
:1040E000097E00EB01204A4908824548407E444948
:1040F000897E00EB01204649488200BF4048C079D4
:10410000444908703E48007A48700CE03C48C07949
:104110004149087007E03A48C0794049087038487A
:10412000007A487000BF00BF10BD10B5002440F2F7
:1041300024413B4801F028F800287DD03848008809
:104140003748001D00882848303002F058FD00280C
:1041500072D100212448303002F00EFD2248303068
:1041600002F02DFDC0F111002E49086011202E49EA
:1041700008604FF001012D4802F0FEFC2C48007849
:10418000A0286AD12A48007CB02866D12848407807
:10419000284908702648807848702548C078C8703B
:1041A000234800790871224841792248417120480A
:1041B0008179204881711E48C1791E48C1711C480F
:1041C000007A1C4908721A48417A1A484172184804
:1041D000817A184881721648C17A1648C1722CE05B
:1041E000990100200506002058600240C6810008A1
:1041F000A4010020C580000800480040A80100205C
:1042000098050020B2010020BA010020B805002066
:10421000C4050020BC010020BE010020BF01002019
:1042200000440040AC0100208C60024088600240E5
:1042300070050020840500200FE02348007B2349FF
:1042400008732148417B214841731F48817B1F48E7
:1042500081731D48C17B1D48C17310BD70B50546F3
:104260000C4600260DB1022C01D8002070BD611E45
:10427000FF222846FFF743FE0646601E285CB04238
:1042800001D10120F2E70020F0E770B505460C46A9
:1042900000260DB1022C01D8002070BDA11E0C48D3
:1042A00002882846FFF7FEFD0646F1B2A01E285CF4
:1042B000814206D1601E285CB0EB162F01D101208F
:1042C000EBE70020E9E700007005002084050020EE
:1042D000A40100200648804706480047FEE7FEE7A5
:1042E000FEE7FEE7FEE7FEE7FEE7FEE7FEE7FEE7A6
:1042F000F75200088901000833490143334A11602D
:10430000704770B5002100230F22C47824B32F4CCE
:10431000246804F4E064C4F5E064C4F30721C1F147
:104320000404E3B20A4144789C40E1B2847814402A
:1043300021430C07210E264C05786155047804F0C2
:104340001F050124AC4005786D114FF0E02606EB07
:104350008505C5F8004109E0047804F01F04012533
:10436000A5401C4C0678761144F8265070BD1A4AB8
:104370000A400243154B1B1F1A60704739B1134A9C
:10438000121D12680243114B1B1D1A6006E00F4AF2
:10439000121D126882430D4B1B1D1A6070470428C2
:1043A00008D14FF0E021096941F004014FF0E0220B
:1043B000116107E04FF0E021096921F004014FF09D
:1043C000E0221161704700000000FA050CED00E0EA
:1043D00000E400E080E100E080FFFF1F10B504462C
:1043E000FE48844209D10121480601F0E1FB002189
:1043F0004FF0007001F0DCFB08E00121880601F0BD
:10440000D7FB00214FF0806001F0D2FB10BD30B52A
:10441000024600200023146824F00204146014688B
:1044200044F00104146000E05B1C546814F0010FB8
:1044300003D1A3F57F44FF3CF6D1546814F0010F7B
:1044400001D100206CE08C79012C04D1146844F077
:104450008004146003E0146824F080041460CC79B4
:10446000012C04D1146844F04004146003E0146883
:1044700024F0400414600C7A012C04D1146844F038
:104480002004146003E0146824F0200414604C7AC3
:10449000012C04D1146844F01004146003E0146883
:1044A00024F0100414608C7A012C04D1146844F0B8
:1044B0000804146003E0146824F008041460CC7A43
:1044C000012C04D1146844F00404146003E014685F
:1044D00024F0040414608C78A407CD7844EA0564C1
:1044E0000D7944EA05444D7944EA05540D886D1E62
:1044F0002C43D461146824F001041460002300E00C
:104500005B1C546814F0010F03D0A3F57F44FF3CFB
:10451000F6D1546814F0010F01D0002000E0012012
:1045200030BD10B50021837A012202FA03F1AC4AB2
:10453000126842F00102AA4B1A60A94A1C321268A2
:104540008A43A74B1C331A60027BCAB9A44A0C32B7
:1045500012688A43A24B0C331A604288C38842EA2D
:1045600003439F4A4032847A42F834300288838879
:1045700042EA03439A4A4032847A02EBC40253600F
:10458000027B012A19D1964A0C3212680A43944BD5
:104590000C331A604288038842EA0343904A40324F
:1045A000847A42F83430C288838842EA03438C4AD2
:1045B0004032847A02EBC4025360C27A3AB9884A24
:1045C000121D12688A43864B1B1D1A6006E0844A3E
:1045D000121D12680A43824B1B1D1A60028932B9F0
:1045E0007F4A143212688A437D4B14331A60028961
:1045F000012A06D17A4A143212680A43784B1433DE
:104600001A60427B012A06D1754A1C3212680A439D
:10461000734B1C331A60724A126822F00102704B0D
:104620001A6010BD00218171C171017241728172E5
:10463000C1728170C1700321017102214171012198
:10464000018070476649096841F00101644A1160C0
:104650001146096843F60E729143614A1160114692
:10466000096841EA002111601146096821F0010141
:104670001160704721B1026842F48032026003E0A9
:10468000026822F4803202607047E1B1026842F0B1
:10469000800202604FF4C272125842F480734FF4E9
:1046A000C27213504FF4CA72125842F480734FF41E
:1046B000CA7213504FF4D272125842F480734FF4FE
:1046C000D27213501BE0026822F0800202604FF4A5
:1046D000C272125822F480734FF4C27213504FF416
:1046E000CA72125822F480734FF4CA7213504FF4F6
:1046F000D272125822F480734FF4D2721350704762
:1047000010B502460020936803F08063B3F1806F18
:1047100000D110E0936803F00063B3F1006F01D1A2
:10472000012008E0936803F08053B3F1805F01D16A
:10473000022000E00420042879D002F5C07303EBC6
:1047400000131B6803F0010402F5C07303EB0013B0
:104750001C600B7A7BB94B7A0C8843EA445302F510
:10476000C07404EB00142468234302F5C07404EB06
:104770000014236010E00B7A4C6843EAC4034C7ABF
:10478000234302F5C07404EB00142468234302F5AC
:10479000C07404EB001423608B7A03F00F038B7258
:1047A00002F5C07303EB00135B6823F00F0402F5FE
:1047B000C07303EB00135C6002F5C07303EB0013DE
:1047C0005B688C7A234302F5C07404EB00146360C9
:1047D0008B7B1C064B7B44EA034403E000640040EF
:1047E000006600400B7B44EA0323CC7A234302F5A6
:1047F000C07404EB0014A3608B7C1C064B7C44EA61
:1048000003440B7C44EA0323CC7B234302F5C074AE
:1048100004EB0014E36002F5C07303EB00131B68A4
:1048200043F0010402F5C07303EB00131C6010BDDC
:1048300010B50246002321B1012907D002290FD16A
:1048400009E09068F84C00EA04030BE09068F74C2C
:1048500000EA040306E09068F54C00EA040301E076
:10486000002300BF00BFF34C181BA34216D007DC87
:1048700083B16FF0806018180ED0022818D111E0B3
:10488000B0F5007F10D0EC4C001909D0B0F5003F16
:104890000ED10BE002230DE000230BE0002309E022
:1048A000002307E0012305E0012303E0012301E0E9
:1048B000002300BF00BFD8B210BD21B1012907D02D
:1048C00002290FD109E0826842F0800282600AE08A
:1048D000826842F40042826005E0826842F400028D
:1048E000826000E000BF00BF704710B500F5D873CC
:1048F00003EB01131B6803F004031372137A53B91B
:1049000000F5D87303EB01131B6840F2FF7404EA4F
:104910005353136009E000F5D87303EB01131B68D0
:104920006FF0604404EAD303536000F5D87303EBDF
:1049300001131B6803F00203537200F5D87303EBF5
:1049400001135B6803F00F03937200F5D87303EB58
:1049500001135B681B0AD37400F5D87303EB0113D2
:104960009B68D37200F5D87303EB01139B681C0A94
:10497000147300F5D87303EB01139B681C0C54737C
:1049800000F5D87303EB01139B681B0E937300F5BE
:10499000D87303EB0113DB68D37300F5D87303EB13
:1049A0000113DB681C0A147400F5D87303EB0113C0
:1049B000DB681C0C547400F5D87303EB0113DB683F
:1049C0001B0E937421B9C36843F02003C36003E056
:1049D000036943F02003036110BD21B9C26842F0AE
:1049E0002002C26003E0026942F0200202617047C7
:1049F0000246002019B9D36803F0030006E001293C
:104A000003D1136903F0030000E00020704710B5E4
:104A100002460B4600204FF6FF71BBB9146824F024
:104A2000020444F00104146000E0491E546804F0DC
:104A30000304012C01D00029F7D1546804F00304C9
:104A4000012C01D0002032E0012030E0012B13D1F5
:104A5000146824F00304146000E0491E546814F044
:104A6000030F01D00029F8D1546814F0030F01D0CE
:104A700000201CE001201AE0022B17D1146824F05A
:104A8000010444F00204146000E0491E546804F07C
:104A90000304022C01D00029F7D1546804F0030468
:104AA000022C01D0002002E0012000E0002010BD17
:104AB000014600200A6822F0010242F002020A6068
:104AC0004A6802F00302022A00D101207047014621
:104AD0004FF6FF7200200B6823F002030B6000E02A
:104AE000521E4B6803F00203022B01D1002AF7D1BA
:104AF0004B6803F00203022B00D0012070470146EF
:104B000000208A6902F070007047014600208A691F
:104B1000100E7047014600208A69C2F307407047B3
:104B20001AB143690B43436102E043698B4343611C
:104B3000704710B50246002011F4700F08D0936939
:104B4000C1F31304234201D001202DE000202BE00B
:104B500011F0807F08D05368C1F31304234201D0C1
:104B6000012021E000201FE011F0006F08D09368C1
:104B7000C1F31304234201D0012015E0002013E00B
:104B800011F0007F08D0D368C1F31304234201D091
:104B9000012009E0002007E01369C1F31304234258
:104BA00001D0012000E0002010BD0022234B9942DB
:104BB00002D10023836111E0C1F3130211F0007FE1
:104BC00001D0C2600AE011F0806F01D0026105E0FF
:104BD00011F0006F01D0826000E042607047024631
:104BE00000200A4201D0012000E00020704770B58B
:104BF00004460D4600266069284272D0B5F5807FD4
:104C000069D01DDC082D42D006DC012D2DD0022DEF
:104C100031D0042D7FD134E0102D3ED0202D42D054
:104C2000402D78D145E00000030000040003000897
:104C300000000310000100080001FFF77000F030D1
:104C4000B5F5004F61D009DCB5F5007F4AD0B5F568
:104C5000806F4DD0B5F5006F5DD150E0B5F5803F68
:104C60002DD0B5F5003F56D12FE0A0685549FFF78C
:104C7000B6FF064651E0E0680321FFF7B0FF0646A5
:104C80004BE0E0680821FFF7AAFF064645E0E06830
:104C90001021FFF7A4FF06463FE020690321FFF73C
:104CA0009EFF064639E020690821FFF798FF064677
:104CB00033E020691021FFF792FF06462DE060687F
:104CC0000821FFF78CFF064627E060681021FFF7F8
:104CD00086FF064621E0A0690121FFF780FF064616
:104CE0001BE01BE0A0690221FFF779FF064614E0F4
:104CF000A0690421FFF773FF06460EE00BE0A069F0
:104D00007021FFF76CFF064607E060680421FFF79B
:104D100066FF064601E0002600BF00E000263046A0
:104D200070BDB1F5007F3AD00FDC202928D006DC19
:104D300001291CD004291DD0082940D11DE040299B
:104D400021D0B1F5807F3AD126E0B1F5004F31D0C6
:104D500006DCB1F5806F25D0B1F5006F2FD124E0CE
:104D6000B1F5803F12D0B1F5003F28D111E0154ACE
:104D7000826025E00822C26022E01022C2601FE0AB
:104D8000082202611CE01022026119E00822426040
:104D900016E01022426013E00422426010E0042278
:104DA00042600DE0042242600AE000228261042297
:104DB000426005E0002282610422426000E000BF00
:104DC00000BF70470101010010B50446FA48844253
:104DD00008D10121102000F0FCFE0021102000F07D
:104DE000F8FE57E0F548844209D10121480400F05B
:104DF000DFFE00214FF4003000F0DAFE4AE0F04818
:104E0000844209D10121880400F0D2FE00214FF430
:104E1000802000F0CDFE3DE0EA48844209D1012126
:104E2000C80400F0C5FE00214FF4002000F0C0FED1
:104E300030E0E548844209D10121080500F0B8FEC0
:104E400000214FF4801000F0B3FE23E0DF488442DD
:104E500008D10121202000F0BCFE0021202000F01C
:104E6000B8FE17E0DA48844209D10121880700F032
:104E70009FFE00214FF0804000F09AFE0AE0D548E6
:104E8000844207D10121400500F092FE0021600517
:104E900000F08EFE10BD2DE9FF4705460E460024AA
:104EA000A14600BFA046B08900B100BF2C8A24F4FF
:104EB0004054F08804432C82AC8941F20C60844356
:104EC000B08831890843718908430443AC81AC8AB6
:104ED00024F44074B0890443AC82684600F0F9FCC5
:104EE000B548854202D0B948854202D1DDF80C9020
:104EF00001E0DDF80890A88910F4004F08D009EB14
:104F0000C90000EB091031684900B0FBF1F707E078
:104F100009EBC90000EB091031688900B0FBF1F71B
:104F20006420B7FBF0F004012009642101FB107834
:104F3000A88910F4004F08D0322000EBC800B0FB65
:104F4000F1F000F00700044308E0322000EB081005
:104F50006421B0FBF1F000F00F0004432C81BDE8A8
:104F6000FF874FF41651016000218180C1800181CB
:104F70000C21418100218181704710B5024600203B
:104F8000108A20F470600B884C8823438C8823435C
:104F9000CC8823431843108210BD0021018041803A
:104FA0008180C180704721B1828942F400528281A0
:104FB00004E082894DF6FF731A4082817047028BAC
:104FC00002F47F420283028B0A430283704721B1BD
:104FD000828942F40042828103E08289C2F30E0298
:104FE0008281704721B1828A42F40062828204E0A9
:104FF000828A4FF2FF731A4082827047C1F308021F
:105000008280704701468888C0F308007047028A92
:105010004FF6F0731A400282028A0A4302827047F6
:1050200021B1828942F00202828104E082894FF636
:10503000FD731A408281704782894FF2FF731A40D4
:10504000828182890A4382817047028A4FF6DF7328
:105050001A400282028A0A430282704721B1028A00
:1050600042F48042028204E0028A4BF6FF731A4047
:1050700002827047818941F001018181704721B12D
:10508000828A42F00802828204E0828A4FF6F77335
:105090001A4082827047028BD2B20283028B42EAAC
:1050A00001220283704721B1828A42F0200282826B
:1050B00004E0828A4FF6DF731A408282704721B182
:1050C000828A42F01002828204E0828A4FF6EF73F5
:1050D0001A4082827047828A4FF6FB731A4082829E
:1050E000828A0A438282704721B1828A42F0020298
:1050F000828204E0828A4FF6FD731A4082827047F2
:105100001AB1838A0B43838202E0838A8B438382B2
:105110007047F0B503460024002600250020A1F5C5
:1051200010676A3F00D100BF1846C1F3421401F076
:105130001F06012707FA06F5012C01D10C3004E007
:10514000022C01D1103000E014301AB107682F434F
:10515000076002E00768AF430760F0BD0246002029
:10516000B1F5007F00D100BF13880B4201D00120B0
:1051700000E00020704701F40072B2F5007F00D11A
:1051800000BFCA430280704770B502460024002366
:1051900000250020A1F510666A3E00D100BFC1F3D2
:1051A000421501F01F03012606FA03F3012D13D166
:1051B0009689334017E00000001001400044004091
:1051C00000480040004C00400050004000140140E6
:1051D00000780040007C0040022D02D1168A334046
:1051E00001E0968A33400C12012606FA04F4168870
:1051F000344013B10CB1012000E0002070BD10B5A7
:1052000000220023A1F510646A3C00D100BF0A12FD
:1052100001249440A3B2DC43048010BD0CB50020EF
:10522000019000907648006840F48030744908602E
:1052300000BF7348006800F4003000900198401CE3
:105240000190009818B90198B0F5A04FF1D16C48C1
:10525000006810F4003F02D00120009001E000201F
:1052600000900098012845D165484030006840F022
:1052700080506349403108606248006840F4404013
:10528000604908605E48083000685D490831086080
:105290000846006840F4004008600846006840F492
:1052A000A05008605848091F0860081F006840F0B7
:1052B0008070091F086000BF5148006810F0007F2F
:1052C000FAD040F20570514908604D480830006836
:1052D00020F003004A49083108600846006840F0A1
:1052E0000200086000BF46480830006800F00C006B
:1052F0000828F8D10CBD70B5012401254448006888
:1053000040F47000424908603D48006840F00100E8
:105310003B49086000203A49083108603848006875
:105320003C490840364908603B48091D0860081F91
:10533000006820F48020091F0860002030490C31EB
:105340000860FFF76BFFE00631498039086070BDE7
:1053500070B500200022022300240221284D0835C8
:105360002D6805F00C0020B1042806D0082834D19F
:1053700007E02A4D2A4E356033E02A4D284E35602D
:105380002FE01F4D2D1D2D68C5F380541C4D2D1D84
:105390002D6805F03F0154B1224DB5FBF1F5184ED3
:1053A000361D3668C6F3881605FB06F209E01B4D6C
:1053B000B5FBF1F5124E361D3668C6F3881605FBAF
:1053C00006F20F4D2D1D2D68C5F301456D1C6B00B8
:1053D000B2FBF3F5124E356003E0104D104E356010
:1053E00000BF00BF064D08352D68C5F303150E4EEE
:1053F000705D0B4D2D68C540094E356070BD0000D5
:10540000003802400070004008544007003C024051
:1054100088ED00E0FFFFF6FE103000240024F400C9
:10542000E401002000127A00E801002010B50446D3
:105430009848844208D10121084600F086FB0021EB
:10544000012000F082FB76E09348844208D10121DC
:10545000022000F07AFB0021022000F076FB6AE0D7
:105460008E48844208D10121042000F06EFB002107
:10547000042000F06AFB5EE08948844208D10121E3
:10548000082000F062FB0021082000F05EFB52E0E3
:105490008448844208D10121102000F056FB0021ED
:1054A000102000F052FB46E07F48844208D10121E1
:1054B000202000F04AFB0021202000F046FB3AE0CB
:1054C0007A48844208D10121402000F03EFB0021AF
:1054D000402000F03AFB2EE07548844208D10121BB
:1054E000802000F032FB0021802000F02EFB22E023
:1054F0007048844208D10121801500F026FB00216C
:10550000A01500F022FB16E06B48844208D101216F
:10551000401500F01AFB0021601500F016FB0AE0B0
:105520006648844207D10121001500F00EFB0021DE
:10553000201500F00AFB10BDF0B50A46002100233B
:10554000002400BF3DE0012505FA01F3156805EAD6
:1055500003049C4234D105684F000326BE40B54386
:10556000056015794E00B54006683543056015792C
:10557000012D02D01579022D16D185684F00032622
:10558000BE40B543856055794E00B54086683543C9
:105590008560456801268E40B5434560456896792B
:1055A0008E40B6B235434560C5684F000326BE4005
:1055B000B543C560D5794E00B540C6683543C56072
:1055C000491C1029BFD3F0BD4FF6FF7101600021C7
:1055D000017141718171C171704708B54FF480321A
:1055E0000092009A0A430092009AC261C161009A37
:1055F000C261C2690092C269009208BD02460020E1
:1056000013690B4201D0012000E0002070470146E1
:10561000086980B270470246002053690B4201D0EE
:10562000012000E0002070470146486980B27047C1
:1056300001837047418370470AB1018300E04183D1
:1056400070474161704742694A4042617047F0B516
:10565000002300244D07ED0E02FA05F3CE1000F1F1
:10566000200555F826504E07F70E0F26BE40B543CD
:10567000CF1000F1200646F82750CE1000F120058B
:1056800055F8265045EA0304CE1000F1200545F8F0
:105690002640F0BD00000240000402400008024025
:1056A000000C0240001002400014024000180240AA
:1056B000001C02400020024000240240002802405A
:1056C000F948006840F00100F74908600020F649F9
:1056D00008310860F4480068F4490840F24908605D
:1056E000F348091D0860F348EF4984310860F04829
:1056F0001038091D0860EC48006820F48020EA4951
:1057000008600020E8490C310860E7498C310860E6
:1057100070470021E44A921C1170114608707047CE
:1057200010B501460022002300204A11012A02D1AF
:10573000DD4C236808E0022A03D1DB4C7034236877
:1057400002E0D94C7434236801F01F020124944014
:105750001C4201D0012000E0002010BD38B500201F
:1057600000900024002500BF3120FFF7D9FF054637
:105770000098401C00900098B0F5A04F01D0002D7B
:10578000F2D03120FFF7CCFF08B1012400E0002463
:10579000204638BD01460020C34A106820F0F800BA
:1057A00040EAC10010607047C3490860704700219B
:1057B000BD4A703211701170012802D004280AD13C
:1057C00004E00121B84A7032117005E00521B64AA3
:1057D0007032117000E000BF00BF7047B749086029
:1057E000704770B5049C41EA82150126C6EB53064A
:1057F00045EA0645054345EA0465AB4E361D35606E
:1058000070BDAD4908667047820142EA0172A64B3D
:1058100084331A607047A8498866704710B58301C1
:1058200043EA016343EA02739F4C8834236010BD4E
:10583000A14908677047A049C86470470246002024
:10584000994B0833186820F0EC6042EA01031843D2
:10585000954B08331860704702460020924B08337E
:10586000186820F0784042EA010318438E4B083351
:1058700018607047014600208B4A0832106820F0FB
:10588000030008431060704787480830006800F044
:105890000C00704701460020834A0832106820F04F
:1058A000F000084310607047014600207E4A08322D
:1058B000106820F4E0500843106070470146002053
:1058C000794A0832106820F4604040EAC100106054
:1058D0007047F0B500210022002402250026022393
:1058E000714F08373F6807F00C0121B1042905D03A
:1058F000082937D105E0724F076036E0714F076025
:1059000033E0694F3F1D3F68C7F38056664F3F1D28
:105910003F6807F03F036EB16A4FB7FBF3F7DFF85C
:1059200088C10CF1040CDCF800C0CCF3881C07FB28
:105930000CF40CE0624FB7FBF3F7DFF86CC10CF12D
:10594000040CDCF800C0CCF3881C07FB0CF4564FA9
:105950003F1D3F68C7F301477F1C7D00B4FBF5F78F
:10596000076002E0564F076000BF00BF4E4F083788
:105970003F6807F0F0010909534F7A5C0768D74088
:105980004760494F08373F6807F4E051890A4E4F96
:105990007A5C4768D7408760434F08373F6807F411
:1059A0006041490B484F7A5C4768D740C760F0BDFB
:1059B000002100F44072B2F5407F0AD13A4A083221
:1059C000116821F4F811414A02401143364A083265
:1059D0001160354A70321268C0F30B031A43324B20
:1059E00070331A607047354944390860704733494D
:1059F000403908607047364908607047014600200A
:105A0000294A8C32106820F01F004A1E1043264A93
:105A10008C321060704701460020234A8C32106897
:105A200020F4F8504A1E40EA02201F4A8C321060CF
:105A30007047014600201C4A8C32106820F4401048
:105A400008431060704701460020174A8C321068E6
:105A500020F4400008431060704701460020124ABD
:105A60008C32106820F440300843106070471949A8
:105A70000860704739B10C4A3032126802430A4B51
:105A800030331A6006E0084A303212688243064B0F
:105A900030331A607047F9B1034A34321268024356
:105AA000014B34331A601CE000380240FFFFF6EA75
:105AB000103000240030002000004742800E474292
:105AC0000024F40000127A00F8010020FFFCFF0F10
:105AD0005C014742E01147428F4A126882438E4B75
