:020000040800F2
:10000000D80E0020E1340008E9340008EB34000881
:10001000ED340008EF340008F1340008000000005F
:10002000000000000000000000000000F3340008A1
:10003000F534000800000000F7340008F934000827
:10004000FB340008FB340008FB340008FB340008D4
:10005000FB340008FB340008FB340008FB340008C4
:10006000FB340008FB340008FB340008FB340008B4
:10007000FB340008FB340008FB340008FB340008A4
:10008000FB340008652E0008FB3400082107000837
:1000900037070008FB340008FB340008FB34000875
:1000A000FB340008FB340008FB340008FB34000874
:1000B000FB340008FB340008FB340008FB34000864
:1000C000FB340008FB340008FB340008FB34000854
:1000D000FB340008BF06000891300008D52F000847
:1000E000FB340008FB340008FB34000895030008CB
:1000F000FB340008FB340008FB340008FB34000824
:10010000FB340008FB340008FB340008FB34000813
:10011000FB340008FB340008FB340008FB34000803
:10012000FB340008FB340008FB340008FB340008F3
:10013000FB340008FB340008FB3400086B070008A0
:1001400081070008FB340008FB340008FB3400087A
:10015000FB340008FB340008FB340008FB340008C3
:10016000FB340008FB340008FB340008FB340008B3
:10017000FB340008FB340008FB340008FB340008A3
:10018000FB340008FB340008DFF80CD006F0EAF975
:10019000004800479D010008D80E0020002400F010
:1001A0008FF80AE0012001F006FD1E2C03DD034854
:1001B00002F088FE0024601C84B2F3E7C401002032
:1001C00010B504466FF0040003F0EFF9E11704EBFB
:1001D0005171C1F3C701384A11701046007800EB25
:1001E0004001C1EBC0104FF6FF7101EAC000334976
:1001F000088010BD0146304A12784A434FF0E02390
:100200005A6100229A611A46126942F001021A618B
:1002100000BF4FF0E022106910F0010F02D010F47F
:10022000803FF6D04FF0E022126922F001024FF039
:10023000E0231A6100229A61704701461F4A128822
:100240004A434FF0E0235A6100229A611A4612692C
:1002500042F001021A6100BF4FF0E022106910F075
:10026000010F02D010F4803FF6D04FF0E022126967
:1002700022F001024FF0E0231A6100229A617047D8
:1002800070B504464FF4077094FBF0F0C6B24FF41B
:10029000077094FBF0F100FB114085B205E04FF4CC
:1002A0000770FFF7CAFF701EC6B2002EF7D115B156
:1002B0002846FFF7C2FF70BD0000002002000020AA
:1002C00010B5A820FFF77CFF02F04EFC00F0FEF80E
:1002D0004FF47A70FFF7D4FF00F0C0FC00F09CFBF5
:1002E00000F036FC00F008F800F064F902F01DFDA3
:1002F00000F01FF810BD00000EB50121042004F02D
:1003000008FD4FF0FF3001905320ADF800000020B1
:10031000ADF80800ADF8020001212C4804F01CFFE4
:1003200069462A4804F0ADFE0121284804F032FF56
:100330000EBD1FB50121402004F0EBFC63200290AC
:1003400040F24730ADF804000020ADF80600ADF8EB
:100350000C0001A91E4804F094FE012211461C481D
:1003600005F030FB01211A4804F014FF4FF4E0605F
:1003700003F0C8F82B208DF8000000208DF8010054
:1003800002208DF8020001208DF80300684603F07A
:10039000BEF81FBD10B501210D4805F02AFB01284C
:1003A0000FD101210A4805F035FB0121084805F06D
:1003B0001DFB084801F021FD07480068401C064964
:1003C000086010BD014824300068704700080040F4
:1003D00000180040800000200400002000B58BB011
:1003E0000121084604F04CFC0121480604F091FC70
:1003F0004FF4C050099002208DF8280000208DF89D
:100400002A0003208DF8290001208DF82B0009A96E
:10041000FE4804F097F909220B21FC4804F01DFA6C
:1004200009220C21F94804F018FA00208DF81E006A
:100430008DF81F008DF820008DF821008DF8220026
:100440008DF823008DF81A008DF81B0008208DF818
:100450001C0003208DF81D00ADF8180006A9EC481B
:1004600003F0DBF800208DF812008DF81300012056
:100470008DF814000020ADF80800ADF80A00ADF8C2
:100480000C00ADF80E00ADF8100001208DF815003D
:1004900002A803F04CF901220221DD4803F046FCDA
:1004A00001221146DA4803F041FC14208DF80400C3
:1004B00001208DF8050000208DF8060001208DF840
:1004C000070001A803F023F80BB000BD00B58BB006
:1004D0000121022004F0D4FB0121480604F019FC9C
:1004E0000121880604F015FC09220D21C94804F0F9
:1004F000B4F909220C21C74804F0AFF94FF4405079
:10050000029002208DF80C0002A9C24804F01AF9EA
:1005100040208DF8040000208DF8050001208DF8A2
:1005200006008DF8070001A802F0F1FFBA4803F0B9
:100530005BF808A803F07CF900208DF826008DF800
:1005400027008DF828008DF829008DF82A008DF8F5
:100550002B008DF822008DF8230008208DF8240050
:1005600003208DF82500ADF8200008A9AA4803F063
:1005700054F80E208DF81A0000208DF81B00012081
:100580008DF81C000020ADF81000ADF81200ADF899
:100590001400ADF81600ADF8180001208DF81D000C
:1005A00004A803F0C4F8012202219B4803F0BEFB1B
:1005B0000BB000BD00B597B00121984804F060FB76
:1005C0000121102004F0B6FB07221146914804F0E7
:1005D00044F98020119002208DF8480000208DF809
:1005E0004A0003208DF8490000208DF84B0011A926
:1005F000884804F0A7F88A4803F0ECFC8948139077
:100600000020ADF85000ADF852004FF48060ADF816
:1006100054000420ADF856000020ADF8580013A98E
:100620007F4803F03EFD012240217D4803F06EFE2D
:1006300025208DF8400000208DF841008DF8420003
:1006400001208DF8430010A802F061FF764805F004
:10065000BDFA01A805F085FB4FF0006001907048DD
:10066000001D029071480390002004901E20059008
:10067000002006904FF480600790002008900990B9
:100680004FF480700A904FF440300B9000200C9093
:100690000D900E900F9001A9634805F039FB0121E0
:1006A000614805F06FFB012240F224415C4803F0F1
:1006B00036FE01215A4803F07CFD17B000BD10B58D
:1006C00040F22441564803F065FE40B35448008888
:1006D00053488088544805F098FB00BB00215248DD
:1006E00005F050FB504805F070FBC0F11E0050496A
:1006F00008601E204C4944390860081F006840F417
:100700000020091F08600121474805F03BFB4848CD
:100710000068122803D14549464801F03CFE10BD4F
:1007200010B501213A4803F068FB18B1012138489F
:1007300003F0FDFB10BD10B50221354803F05DFB51
:1007400090B10021324803F0F2FB3B4A00213048CF
:1007500003F0D1F9384814384069012804D13648EB
:100760001438C07F3549087010BD10B501212A48E2
:1007700003F043FB18B10121274803F0D8FB10BD5B
:1007800010B50221244803F038FB002879D002215B
:10079000214803F0CCFB2A4A00211F4803F0ABF9A3
:1007A000274814384069A0F5007106390BD1244858
:1007B000143890F82010C07F01EB002001B22148CE
:1007C000A0F888105DE01E4814384069A0F500715B
:1007D00005390BD11A48143890F82010C07F01EB6E
:1007E000002000B21749A1F840004AE0144814382C
:1007F0004069B0F5007F44D9114814384069B0F51C
:10080000017F3ED80E4814381EE000000000024070
:100810000064004000040240006800400200400004
:1008200000100140A086010088640240D801002029
:100830000800002048030020980300209D000020AD
:1008400070030020AC03002090F82010C07F01EB63
:10085000002002B20B484169A1F201210A4820F8A8
:100860001120084890F8221090F8210001EB002098
:1008700002B204484069A0F201200349083921F876
:10088000102010BD5C030020F4040020B0EE401ADC
:10089000B4EEE01AF1EE10FA02DDB0EE600A704735
:1008A000B0EE410AFBE7B0EE401AB4EEE01AF1EE0A
:1008B00010FA02DDB0EE410A7047B0EE600AFBE7C5
:1008C000B0EE401A10B9B0EE410A7047B4EEE01A2B
:1008D000F1EE10FA02DDB0EE600AF6E7B1EE600A62
:1008E000B4EEC01AF1EE10FA02D2B1EE600AECE7F3
:1008F000B0EE410AE9E730B50446F0EE400A0020C8
:1009000014B9B0EE600A30BD002028E0F5EEC00A50
:10091000F1EE10FA02DDB0EE600A01E0B1EE600A1D
:1009200003EB800595ED011AB4EEC10AF1EE10FA61
:1009300013D8F5EEC00AF1EE10FA02DDB0EE600A4F
:1009400001E0B1EE600A03EB800595ED001AB4EE0C
:10095000C10AF1EE10FA00DD04E0451CE8B24D1EBC
:100960008542D3DC00BF02EB800595ED000A20EE46
:10097000200AC8E7F0EE402A10B9B0EE620A7047CC
:10098000F5EEC02AF1EE10FA02DDB0EE620A01E0E7
:10099000B1EE620AB4EEE00AF1EE10FA39DBF5EEE0
:1009A000C02AF1EE10FA02DDB0EE620A01E0B1EE0B
:1009B000620AB4EEC10AF1EE10FA2AD831EE600AEA
:1009C000B5EEC00AF1EE10FA02DD31EE600A03E086
:1009D00031EE600AB1EE400AB0EE404A32EEE00A73
:1009E00080EE043A32EE610AB5EEC00AF1EE10FA7A
:1009F00002DD32EE610A03E032EE610AB1EE400A36
:100A0000F0EE403AB0EE610A03EE230A20EE220A2D
:100A1000B5E722EE220AB2E710B500BF01226B2132
:100A2000D02000F062FAC4B24FF4FA70FFF728FC4D
:100A300000226B21D02000F058FAC4B23220FFF718
:100A40001FFC7521D02000F090FA7F4908700846FD
:100A500000786828E2D100226B21D02000F045FA0E
:100A6000C4B23220FFF70CFC00221921D02000F084
:100A70003CFA2044C4B23220FFF702FC03221A21C0
:100A8000D02000F032FA2044C4B23220FFF7F8FB45
:100A900010221B21D02000F028FA2044C4B23220BA
:100AA000FFF7EEFB09221C21D02000F01EFA2044A3
:100AB000C4B23220FFF7E4FB204610BD10B53B2145
:100AC000D02000F052FA614908703C21D02000F09B
:100AD0004CFA5E4948703D21D02000F046FA5B494F
:100AE00088703E21D02000F040FA5849C8703F215C
:100AF000D02000F03AFA554908714021D02000F08A
:100B000034FA524948714321D02000F02EFA4F495F
:100B100008724421D02000F028FA4C49487245213F
:100B2000D02000F022FA494988724621D02000F0F6
:100B30001CFA4649C8724721D02000F016FA4349F2
:100B400008734821D02000F010FA4049487310BDC6
:100B500010B52DED048B4FF47A7408EE104A9FED1A
:100B60003C0AF0EE408A9FED3A0AB0EE409A00212E
:100B7000384841858185C1853748C1853CE0FFF70C
:100B80009DFF3248407A3149097A40EA012000B29B
:100B9000304988842D48C07A2C49897A40EA01205E
:100BA00001B22C48C1842948407B2849097B40EA8E
:100BB000012001B227480185B0F9240000EE100A97
:100BC000B8EEC00A30EE280AF0EE408A2148B0F9AB
:100BD000260000EE100AB8EEC00A30EE090AB0EEA8
:100BE000409A1C48B0F9280000EE100AB8EEC00A7E
:100BF00030EE290AF0EE409A2000A4F10104BED1A3
:100C0000B8EEC80AC8EE800ABDEEE00A10EE100A7F
:100C100001B21048C186B8EEC80AC9EE000ABDEE9E
:100C2000E00A10EE100A01B20A480187B8EEC80ABD
:100C3000C9EE800ABDEEE00A10EE100A01B20548C6
:100C40004187BDEC048B10BD0C0000207C0200200D
:100C500000000000EC010020340200201CB501213E
:100C6000022004F00DF84FF48070009001208DF800
:100C700004008DF8050000208DF8060001208DF895
:100C800007006946CD4803F05DFD4FF40070009009
:100C900001208DF804008DF805008DF80600002075
:100CA0008DF807006946C54803F04CFD1CBD0620C1
:100CB00000BF0100A0F10100FBD1704741F65830A0
:100CC00000E0401E0028FCD1704710B54FF40071C1
:100CD000BA4803F0B3FD4FF48071B84803F0AEFD9D
:100CE000FFF7E5FF4FF40071B44803F08DFD08B93C
:100CF000002010BD4FF40071B04803F0A1FDFFF7D4
:100D0000D6FF4FF40071AD4803F07EFD08B100201E
:100D1000EFE74FF40071A94803F092FDFFF7C7FF1A
:100D20000120E6E710B54FF48071A44803F088FD78
:100D3000FFF7BDFF4FF40071A04803F081FDFFF7FE
:100D4000B6FF4FF480719D4803F078FDFFF7AFFFC9
:100D50004FF40071994803F071FDFFF7A8FF10BD33
:100D600010B54FF48071954803F06AFDFFF79FFFBF
:100D70004FF40071914803F063FDFFF798FF4FF4C3
:100D800080718E4803F05AFDFFF791FF4FF4807198
:100D90008A4803F055FDFFF78AFF10BD10B54FF4E8
:100DA0008071864803F04CFDFFF781FF4FF400711E
:100DB000824803F043FDFFF77AFF4FF480717F48CC
:100DC00003F03CFDFFF773FF4FF480717B4803F0A5
:100DD00037FDFFF76CFF10BD10B54FF480717748F9
:100DE00003F02EFDFFF763FF4FF40071734803F02B
:100DF00025FDFFF75CFF4FF48071704803F01EFD86
:100E0000FFF755FF4FF400716C4803F0FDFC40B153
:100E10004FF48071694803F013FDFFF748FF00208D
:100E200010BD4FF48071654803F00AFDFFF73FFFE6
:100E30000120F5E770B5044608251FE04FF48071E6
:100E40005E4803F0FDFCFFF732FF14F0800F05D081
:100E50004FF40071594803F0F1FC04E04FF40071C5
:100E6000564803F0EDFC6006040EFFF720FF4FF438
:100E70008071524803F0E2FCFFF719FF2800A5F14A
:100E80000101CDB2DAD14FF480714C4803F0D8FCA7
:100E900070BD70B508250024A901484803F0CEFCB8
:100EA00017E06006040E4FF48071444803F0C8FC5C
:100EB000FFF7FDFE4FF48071404803F0BFFCFFF7E1
:100EC000F6FE4FF400713D4803F09EFC08B144F07B
:100ED00001042800A5F10101CDB2E2D14FF48071E7
:100EE000364803F0ADFC204670BD70B506460C4692
:100EF0001546FFF7EAFE08B9002070BD3046FFF73F
:100F000099FFFFF769FF18B9FFF70CFF0020F4E71E
:100F10002046FFF78FFFFFF75FFF2846FFF78AFFA6
:100F2000FFF75AFFFFF7FEFEFFF7C8FE0120E4E7D8
:100F300070B505460C46FFF7C8FE08B9002070BD25
:100F40002846FFF777FFFFF747FF18B9FFF7EAFEDC
:100F50000020F4E72046FFF76DFFFFF73DFFFFF7A6
:100F6000E1FEFFF7ABFE0120E9E770B504460D4650
:100F7000FFF7ABFE08B9002070BD2046FFF75AFF0F
:100F8000FFF72AFF18B9FFF7CDFE0020F4E7284647
:100F9000FFF750FFFFF720FFFFF797FE611CC8B275
:100FA000FFF748FFFFF718FFFFF773FF0646FFF74D
:100FB000F5FEFFF7B7FE3046DEE700000004024012
:100FC000F0EE400AF6EE001A60EEA11AB0EE611AD9
:100FD000B0EE600A10EE100AFE49A1EB600000EED0
:100FE000100A21EE002AF7EE081A42EE401A61EECE
:100FF000801AB0EE610A704710B52DED108B96B0D7
:10100000B0EE409AF0EE609AB0EE41AAF0EE61BA0E
:10101000F0EE42AAB0EE62BA0024EF4890ED000A6A
:1010200020EE000A8DED130A90ED000AEB48D0ED9A
:10103000000A20EE200A8DED120AE74890ED000A22
:10104000E748D0ED000A20EE200A8DED110AE248B3
:1010500090ED000AE348D0ED000A20EE200A8DED65
:10106000100ADE4890ED000A20EE000A8DED0F0A0E
:1010700090ED000ADA48D0ED000A20EE200A8DED4E
:101080000E0AD64890ED000AD648D0ED000A20EEB0
:10109000200A8DED0D0AD24890ED000A20EE000ADC
:1010A0008DED0C0A90ED000ACE48D0ED000A20EE3E
:1010B000200A8DED0B0A90ED000A20EE000A8DED5E
:1010C0000A0AFFF77FF9C849086008460068C7495F
:1010D000096888420CD3C4480068C4490968401AAA
:1010E00000EE100AB8EE400ADFEDC10AC0EE208A19
:1010F000BD480068BD4908606BEEAB0A4AEEAA0A1B
:101100004BEE0B0AB0EE600AFFF75AFFB0EE408AD2
:10111000B0EE480A2BEE800AF0EE40BAB0EE480A74
:101120002AEE800AF0EE40AAB0EE480A2BEE000A42
:10113000B0EE40BA9DED0D0ADDED110A30EE600A09
:10114000F0EE000A20EE20FA9DED120ADDED0B0A0A
:1011500030EE200AF0EE000A60EE20FA9DED130A50
:10116000DDED0F0A70EE600A9DED0C0A70EEC00A0C
:101170009DED0A0A30EE800A8DED150A9DED150AE7
:101180002AEE800AB0EE40CA0BEE6FCA6BEE0F0A71
:101190009DED150AF0EE60CA4BEEC0CA2BEEAF0A09
:1011A000B0EE40DA0AEECFDAB5EEC0CAF1EE10FAD0
:1011B00051D0F5EEC0CAF1EE10FA4CD0B5EEC0DA5F
:1011C000F1EE10FA47D09FED8B0A6CEE000A8A48C8
:1011D00090ED000A00EEA80A80ED000A9FED850A56
:1011E0006CEE800A854890ED000A00EEA80A80EDBA
:1011F000000A9FED800A6DEE000A814890ED000A1A
:1012000000EEA80A80ED000AF7EE000AB0EE490AE7
:1012100000EE8C0A7848D0ED000A30EE200AB0EEDD
:10122000409AF7EE000AB0EE690A00EEAC0A734885
:10123000D0ED000A30EE200AF0EE409AF7EE000AF8
:10124000B0EE4A0A00EE8D0A6D48D0ED000A30EE8D
:10125000200AB0EE40AA614890ED000AB1EE400AC3
:1012600020EE090A5E48D0ED000A00EEE90A5D486A
:1012700090ED001AF0EE400A41EE4A0A564890ED11
:10128000000A00EEA80A8DED140A90ED000A20EE87
:10129000090A5348D0ED000A00EE8A0A5148D0ED01
:1012A000000A00EEE90A4D48D0ED000AF0EE60DADF
:1012B00040EE28DA484890ED000A20EE290A474817
:1012C000D0ED000A00EECA0A4648D0ED000A00EE52
:1012D000890A4348D0ED000AB0EE60EA00EE28EA41
:1012E0003D4890ED000A20EE0A0A3C48D0ED000A85
:1012F00000EEA90A3A48D0ED000A00EEC90A3948C2
:10130000D0ED000AF0EE60EA40EE28EADDED140AC6
:1013100060EEA00A4DEEAD0A4EEE0E0A4EEEAE0A9B
:10132000B0EE600AFFF74CFEB0EE408A9DED140A65
:1013300020EE080A284880ED000A2DEE880A27488A
:1013400080ED000A2EEE080A254880ED000A2EEEF8
:10135000880A244880ED000A214890ED000AF8EE42
:10136000000A20EE200AD0ED000A20EE200A1D48D7
:10137000D0ED000AB0EE001A60EE810A90ED001A7E
:1013800000EEC10AF7EE000A30EE200A10EE101A45
:10139000084604F0C9FF41EC100B8DED020B0F481D
:1013A00090ED000AF0EE000A20EE200A0C48D0ED85
:1013B000000A20EE200A0848D0ED000AB0EE001A1C
:1013C00060EE810A074890ED001A00EE810A10EEE7
:1013D000101A17E0DF59375F1000002014000020BA
:1013E000180000201C0000207C0000207800002055
:1013F0000024F4490AD7233C2000002024000020C8
:1014000028000020084604F08FFF41EC100B8DED02
:10141000000B9DED021B9DED000B05F079FC8DEDA1
:10142000040B9DED040B51EC100B81F0004141ECDD
:10143000100B8DED060B9FEDF90B53EC102B9DED72
:10144000060B51EC100B04F05EFE41EC100B8DED21
:10145000080B9DED080B51EC100B04F078FFF149DF
:101460008860F14890ED000AF8EE000A20EE200AAC
:10147000EE48D0ED000A20EE200AED48D0ED000A3B
:10148000B0EE001A60EE810AEA4890ED001A00EE14
:10149000810A10EE101A084604F046FF41EC100BCA
:1014A0008DED020B9DED020B05F006F98DED040BA1
:1014B0009DED040B51EC100B81F0004141EC100B41
:1014C0008DED060B9FEDD50B53EC102B9DED060B10
:1014D00051EC100B04F017FE41EC100B8DED080BD6
:1014E0009DED080B51EC100B04F031FFCD49486025
:1014F000CD4890ED000AF8EE000A20EE200AD0ED6B
:10150000000A20EE200ACB48D0ED000AB0EE001A07
:1015100060EE810A90ED001A00EEC10AF7EE000AB3
:1015200030EE200A10EE101A084604F0FDFE41ECE1
:10153000100B8DED040BBF4890ED000AF0EE000A91
:1015400020EE200AB948D0ED000A20EE200AB84863
:10155000D0ED000AB0EE001A60EE810AB24890EDBC
:10156000001A00EE810A10EE101A084604F0DCFEA4
:1015700041EC100B8DED020B9DED041B9DED020B5C
:1015800005F0C6FB8DED060B9FEDA40B53EC102B65
:101590009DED060B51EC100B04F0B5FD41EC100B6A
:1015A0008DED080B9DED080B51EC100B04F0CFFEF8
:1015B0009C49086016B0BDEC108B10BD00B52DED38
:1015C000108B89B0B0EE40BAF0EE60BAB0EE418A4E
:1015D000F0EE618AB0EE429AF0EE629A8DED069BD3
:1015E0008DED048B944890ED000BB0EE40CAF0EE08
:1015F00060CA90ED000BB0EE40CAF0EE60CA9DEDFF
:10160000048B53EC182B8D4890ED000B51EC100B14
:1016100004F0D2FC41EC100BB0EE40AAF0EE60AA50
:101620009DED069B53EC192B51EC1A0B04F0C4FCF6
:1016300041EC100BB0EE40FAF0EE60FA53EC1F2BC9
:1016400051EC1A0B04F0D1FD41EC100BB0EE40EA66
:10165000F0EE60EA53EC1C2B51EC1B0B04F04DFD3B
:1016600041EC100BB0EE40FAF0EE60FA53EC1E2B9A
:1016700051EC1F0B04F047FD41EC100B8DED000BFE
:1016800053EC1C2B9DED000B51EC100B04F094FC63
:1016900041EC100BB0EE40DAF0EE60DA53EC1E2BAA
:1016A0009FED670B51EC100B04F027FD41EC100B84
:1016B000B0EE40FAF0EE60FA53EC1A2B51EC1F0B2F
:1016C00004F021FD41EC100B8DED020B9DED020BA2
:1016D0005A4880ED000B584880ED00DBB0EE4D0A13
:1016E000F0EE6D0A09B0BDEC108B00BD00B52DED1C
:1016F000108B89B0B0EE40BAF0EE60BAB0EE418A1D
:10170000F0EE618AB0EE429AF0EE629A8DED069BA1
:101710008DED048B4C4890ED000BB0EE40CAF0EE1E
:1017200060CA90ED000BB0EE40CAF0EE60CA9DEDCD
:10173000048B53EC182B454890ED000B51EC100B2B
:1017400004F03AFC41EC100BB0EE40AAF0EE60AAB7
:101750009DED069B53EC192B51EC1A0B04F02CFC5D
:1017600041EC100BB0EE40FAF0EE60FA53EC1F2B98
:1017700051EC1A0B04F039FD41EC100BB0EE40EACD
:10178000F0EE60EA53EC1C2B51EC1B0B04F0B5FCA3
:1017900041EC100BB0EE40FAF0EE60FA53EC1E2B69
:1017A00051EC1F0B04F0AFFC41EC100B8DED000B66
:1017B00053EC1C2B9DED000B51EC100B04F0FCFBCB
:1017C00041EC100BB0EE40DAF0EE60DA53EC1E2B79
:1017D0009FED1B0B51EC100B04F08FFC41EC100B38
:1017E000B0EE40FAF0EE60FA53EC1A2B51EC1F0BFE
:1017F00004F089FC41EC100B8DED020B9DED020B0A
:10180000124880ED000B104880ED00DBB0EE4D0A71
:10181000F0EE6D0A09B0BDEC108B00BD0000006059
:1018200094A94C408C020020140000201C000020D1
:101830001000002018000020580000206000002048
:10184000000000000000F03F480000205000002091
:1018500000B52DED108B89B0B0EE40BAF0EE60BA55
:10186000B0EE418AF0EE618AB0EE429AF0EE629AF2
:101870008DED069B8DED048BFE4890ED000BB0EED8
:1018800040CAF0EE60CA90ED000BB0EE40CAF0EE38
:1018900060CA9DED048B53EC182BF74890ED000BBC
:1018A00051EC100B04F088FB41EC100BB0EE40AA99
:1018B000F0EE60AA9DED069B53EC192B51EC1A0B30
:1018C00004F07AFB41EC100BB0EE40FAF0EE60FA57
:1018D00053EC1F2B51EC1A0B04F087FC41EC100B5E
:1018E000B0EE40EAF0EE60EA53EC1C2B51EC1B0B1F
:1018F00004F003FC41EC100BB0EE40FAF0EE60FA9D
:1019000053EC1E2B51EC1F0B04F0FDFB41EC100BB4
:101910008DED000B53EC1C2B9DED000B51EC100BCF
:1019200004F04AFB41EC100BB0EE40DAF0EE60DA66
:1019300053EC1E2B1FED3E0B51EC100B04F0DDFBA6
:1019400041EC100BB0EE40FAF0EE60FA53EC1A2BBB
:1019500051EC1F0B04F0D7FB41EC100B8DED020B8B
:101960009DED020BC44880ED000BC24880ED00DB0A
:10197000B0EE4D0AF0EE6D0A09B0BDEC108B00BD63
:1019800070B52DED088B0546002415B9BDEC088B0C
:1019900070BDFFF793F8B9484078B849097840EA34
:1019A000012000B2B6490880B448C078B3498978AC
:1019B00040EA012000B2B2494880B0484079AF49BE
:1019C000097940EA012000B2AD498880AB48407AED
:1019D000AA49097A40EA0121A948C08E081A00B232
:1019E000A7498884A548C07AA449897A40EA012198
:1019F000A348008F081A01B2A148C1849F48407BC8
:101A00009E49097B40EA01219D48408F081A01B296
:101A10009B480185B0F9240000EE100AB8EEC00A18
:101A200098489949097800EB810080ED000A9448B4
:101A3000B0F9260000EE100AB8EEC00A914828302E
:101A40009149097800EB810080ED000A8C48B0F9DB
:101A5000280000EE100AB8EEC00A8A4850308A49C1
:101A6000097800EB810080ED000A9FED888ADFEDA8
:101A7000878A9FED869A00241DE0824800EB84004F
:101A800090ED000A30EE080AB0EE408A7D4828301A
:101A900000EB840090ED000A30EE280AF0EE408A58
:101AA0007848503000EB840090ED000A30EE090ACF
:101AB000B0EE409A641C0A2CDFDB73480078401CAF
:101AC0000A2190FBF1F201FB12006F490870F2EE5F
:101AD000040A88EE200ADFED6E0A20EE200A68482C
:101AE00080ED0F0AB2EE040AC8EE800A9FED680A84
:101AF00020EE800A80ED100AF2EE040A89EE200A38
:101B0000DFED630A20EE200A80ED110A0146B1F9EB
:101B1000000004F0D9FB41EC100BB0EE40BAF0EE3F
:101B200060BA9FED5C2B9FED5D1BFFF791FEB0EE61
:101B300040AAF0EE60AA51EC1A0B04F0D6FB00B2FA
:101B40004F49C880B1F9020004F0BEFB41EC100B14
:101B5000B0EE40BAF0EE60BA9FED4E2B9FED4F1BFA
:101B6000FFF7C4FDB0EE40AAF0EE60AA51EC1A0BEC
:101B700004F0BBFB01B2424801810146B1F9040007
:101B800004F0A2FB41EC100BB0EE40BAF0EE60BAEC
:101B90009FED402B9FED411BFFF710FDB0EE40AADB
:101BA000F0EE60AA51EC1A0B04F09FFB01B234482E
:101BB000418100BFEAE610B504460120FFF7E0FED0
:101BC0002F48B0F90A0003EE100AB8EEC33AF0EE5F
:101BD000432A2B48B0F9080003EE100AB8EEC33AC6
:101BE000B0EE432A2648B0F9060003EE100AB8EE1C
:101BF000C33AF0EE431A224890ED113AB0EE431A80
:101C000090ED103AF0EE430A90ED0F3AB0EE430A31
:101C1000FFF7F2F910BD00B52DED108B89B0B0EED5
:101C200040BAF0EE60BAB0EE418AF0EE618AB0EEF2
:101C3000429AF0EE629A8DED069B8DED048B194869
:101C400090ED000BB0EE40CAF0EE60CA90ED000BD4
:101C5000B0EE40CAF0EE60CA9DED048B53EC182B39
:101C6000114890ED000B51EC100B04F0A5F941EC7C
:101C7000100B1BE038000020400000207C020020F8
:101C8000EC01002098020020350000200000000038
:101C9000E4A40B3A00000000000018407B14AE479B
:101CA000E17A943F6800002070000020B0EE40AA66
:101CB000F0EE60AA9DED069B53EC192B51EC1A0B2C
:101CC00004F07AF941EC100BB0EE40FAF0EE60FA55
:101CD00053EC1F2B51EC1A0B04F087FA41EC100B5C
:101CE000B0EE40EAF0EE60EA53EC1C2B51EC1B0B1B
:101CF00004F003FA41EC100BB0EE40FAF0EE60FA9B
:101D000053EC1E2B51EC1F0B04F0FDF941EC100BB2
:101D10008DED000B53EC1C2B9DED000B51EC100BCB
:101D200004F04AF941EC100BB0EE40DAF0EE60DA64
:101D300053EC1E2B9FED120B51EC100B04F0DDF950
:101D400041EC100BB0EE40FAF0EE60FA53EC1A2BB7
:101D500051EC1F0B04F0D7F941EC100B8DED020B89
:101D60009DED020B084880ED000B084880ED00DB7C
:101D7000B0EE4D0AF0EE6D0A09B0BDEC108B00BD5F
:101D8000000000000000F03F70000020680000200C
:101D90003D4890ED110AB1EE400ADFED3C0A20EE1D
:101DA000200A3B4880ED0A0A90ED0A0AB5EEC00A07
:101DB000F1EE10FA02DD90ED0A0A04E0344890EDED
:101DC0000A0AB1EE400AF6EE000AB4EEE00AF1EEBD
:101DD00010FA04D29FED2F0A2D4880ED0A0A2C48F4
:101DE00090ED0A0A9FED2C1AC0EE010A90ED090A47
:101DF00030EE800A80ED090A704770B5044694F908
:101E00000000401C05283BD2DFE800F03927030E14
:101E1000350000F0F9FB30B100F0BAFB0220207071
:101E200001201E4908602CE0194A1D49A01C00F041
:101E30008FFA2070FFF7ACFF1949487A0022194940
:101E400000F0E1FC012000F086FCC5B2164B174AF9
:101E50000121284600F04EFB13E00D4A1049A01C5A
:101E600000F076FA20700D4908780F4B0F4A0021D8
:101E700000F040FB05E0012000F05EFB01E000E027
:101E800000BF00BF012070BDEC010020333365426C
:101E9000400500200000000000007A448C00002073
:101EA0004803002004060020380500205C030020C1
:101EB00010B52DED048B0446206910B9FC48406B29
:101EC0002060FB48406B2168401A00EE100AB8EE13
:101ED000400ADFEDF80A80EE201A84ED021A94ED34
:101EE000020AF1EE040AB4EEE00AF1EE10FA04DDA3
:101EF000B7EE000A84ED030A20E094ED020AB1EE89
:101F0000400A10EE101A084604F00EFA41EC100BCD
:101F1000B0EE409AF0EE609A04F0EAFFB0EE408A2C
:101F2000F0EE608A51EC180B04F011FA00EE100A82
:101F3000F7EE000A30EEC00A84ED030A94ED030ABE
:101F4000BDEC048B10BD70B505460C46A87C10F0A6
:101F5000010F20D0D64890F8300010F0010F03D0C8
:101F60000120D349086102E00020D1490861D0482E
:101F7000FFF79EFFD048B0F9000000EE900AF8EE9F
:101F8000E00A20EE200ABDEEC00A10EE100A00B2F0
:101F9000C94988802AE0A87C10F0020F21D0C448EB
:101FA00090F8300010F0020F03D00120C049086102
:101FB00002E00020BE490861BD48FFF779FFBE4836
:101FC000B0F90000404200EE900AF8EEE00A20EE80
:101FD000200ABDEEC00A10EE100A00B2B649888091
:101FE00004E00020B4498880B1490861A87C10F061
:101FF000040F21D0AE4890F8300010F0040F03D049
:102000000121AB48816202E00021A9488162A84811
:102010001830FFF74DFFA848B0F9020000EE900A13
:10202000F8EEE00A20EE200ABDEEC00A10EE100A1B
:1020300000B2A149C8802CE0A87C10F0080F22D083
:102040009B4890F8300010F0080F03D00121984809
:10205000816202E000219648816295481830FFF7BE
:1020600027FF9548B0F90200404200EE900AF8EED2
:10207000E00A20EE200ABDEEC00A10EE100A00B2FF
:102080008D49C88005E000208B49C8800021884820
:102090008162688A864908638748B0F9040000EEC7
:1020A000100AB8EEC00A84ED000A8348B0F90600B1
:1020B00000EE100AB8EEC00A84ED010AB5F90A0074
:1020C000002817DD94ED090ADFED7C0AB4EEE00A82
:1020D000F1EE10FA29D294ED050AB5F90A0000EEE6
:1020E000900AF8EEE00A9FED761A00EE810A84ED80
:1020F000080A1AE0B5F90A00002816DA94ED090A70
:10210000DFED700AB4EEE00AF1EE10FA0DDD94EDA9
:10211000050AB5F90A0000EE900AF8EEE00A9FED14
:10212000681A00EE810A84ED080A94ED080A84ED2D
:10213000050A012070BD70B504460D466088A0F503
:102140008060002803DD6088A0F5806002E0608880
:10215000C0F58060642836DD01205549086160883B
:10216000A0F58060642813DD0846FFF7A1FE524801
:10217000B0F9000000EE900AF8EEE00A20EE200A26
:10218000BDEEC00A10EE100A00B24B49888022E072
:102190006088A0F5806010F1640F1CDA4448FFF7F6
:1021A00087FE4548B0F90000404200EE900AF8EE84
:1021B000E00A20EE200ABDEEC00A10EE100A00B2BE
:1021C0003D49888007E00020394908613A49888004
:1021D0003748FFF76DFE2088A0F58060002803DDFA
:1021E0002088A0F5806002E02088C0F58060642827
:1021F00038DD01212E4881622088A0F580606428A6
:1022000014DD2B481830FFF753FE2B48B0F90200BD
:1022100000EE900AF8EEE00A20EE200ABDEEC00AB9
:1022200010EE100A00B22449C88025E02088A0F5ED
:10223000806010F1640F1FDA1D481830FFF738FE78
:102240001D48B0F90200404200EE900AF8EEE00AA4
:1022500020EE200ABDEEC00A10EE100A00B21649A8
:10226000C88009E000211248816200201249C8801C
:102270000F481830FFF71CFE0F48B0F9040000EEBD
:10228000100AB8EEC00A85ED000A0B48B0F9060046
:1022900000EE100AB8EEC00A85ED010AA088C0F56C
:1022A0008060002810DDA088C0F580600FE000008D
:1022B000100300200000C8429400002000002042CB
:1022C000CDCC4C3D000020C2A088A0F58060322813
:1022D00002DA4FF48060A080A088C0F5806000EE34
:1022E000100AB8EEC00ADFEDA30A20EE200A85ED41
:1022F000080AD5ED080AB0EE600ADFED9F0A01205A
:10230000FEF7DEFA85ED080A95ED050AD5ED080A17
:1023100030EE600A85ED050A98480068052810DD52
:1023200095ED050AD5ED070AB4EE600AF1EE10FA54
:1023300002D00121297601E00021297600208F4971
:1023400008608E480068401C8C490860012070BD00
:1023500070B504460D461646287A022802D10020A0
:10236000207001E001202070287A012801D100208E
:1023700070BD207820B131462846FFF7DCFE03E02F
:1023800031462846FFF7DFFD7D48406B401C7C4905
:1023900048630220ECE7024608784B7840EA0320C5
:1023A000C0F30A0010804878C0108B7840EA4310D0
:1023B000C0F30A00508088788011CB7840EA83000F
:1023C0000B7940EA8320C0F30A009080087940101E
:1023D0004B7940EAC310C0F30A00D080487900115D
:1023E000800810724879C0F3011050728879CB7957
:1023F00040EA0320404200B25081087A4B7A40EA1A
:10240000032003B29381887ACB7A40EA032003B297
:10241000D3810B7B13744B7B5374887BCB7B40EA5B
:10242000032050820120704770B50346002023B17D
:10243000012B1CD0022B5AD139E0002014E04FF4BC
:1024400000740C6000240C724C7208248C720025FD
:1024500005EB400601F10B04A555012404EB4006F1
:1024600001F10B04A555401C0428E8DB40E04FF4C3
:1024700000740C6000240C724C7208248C720020D2
:1024800012E032F81040C4F30725002404EB4006A4
:1024900001F10B04A55512F81050012404EB40067D
:1024A00001F10B04A555401C0428EADB20E040F2B2
:1024B000FF140C6000240C724C7208248C720020F3
:1024C00012E032F81040C4F30725002404EB400664
:1024D00001F10B04A55512F81050012404EB40063D
:1024E00001F10B04A555401C0228EADB00E000BF07
:1024F00000BF70BD2DE9F04705460E4617469846C9
:1025000015B90020BDE8F087424639463046FFF74E
:102510008BFF39461B4801F0F9F98146002401E0A0
:10252000601C04B24946174801F088FA012801D01E
:10253000FF2CF5DB0120E5E770B5054602201249C6
:10254000086012480078C8720DB9002070BD0E49AD
:102550000C4801F0DBF90646002401E0601C04B2DF
:102560003146084801F06AFA012801D0FF2CF5DB5A
:102570000120EBE76F12033A00007042A000002038
:102580001003002000680040840300209C0000200D
:1025900010B51C2219491A4803F0EAFC1C221949FB
:1025A0001748483803F0E4FC012010BD10B504467C
:1025B0000CB9002010BD12486C38B0F98820D0ED5D
:1025C000230AB0EE600A00F148016C3000F0CAF94D
:1025D0000B496C39A1F890000846B0F98820D0ED7D
:1025E000110AB0EE600A48316C3000F0BBF90449C2
:1025F0006C39A1F892000120DCE70000C000002047
:1026000018040020A400002010B51C22C849C948A5
:1026100003F0AEFCB7EE000AC64880ED310A9FED2C
:10262000C60A80ED300AB7EE080AC44880ED030AF6
:10263000B6EE000A80ED040A1C22C149543003F0B2
:1026400097FC1C22BF49BD48943003F091FC4FF425
:102650008060BD49088048808880C880012010BD06
:1026600070B505460C4694ED000AB1EE400AD4ED73
:10267000010A30EE200AD4ED030A20EE200AD4ED40
:10268000040A94ED021A00EE810A85ED3A0A94EDEF
:10269000000AD4ED010A30EE200AD4ED030A20EE40
:1026A000200AD4ED040A94ED021A00EE810A85EDA9
:1026B0003B0A94ED000AD4ED010A30EE600AD4ED35
:1026C000030A20EE200AD4ED040A94ED021A00EE6B
:1026D000810A85ED3C0A94ED000AB1EE400AD4ED82
:1026E000010A30EE600AD4ED030A20EE200AD4ED90
:1026F000040A94ED021A00EE810A85ED3D0A0026D7
:1027000025E005F1E80000EB860090ED001AD5ED1C
:10271000311A21EE211AB0EE410A95ED301AF0EE91
:10272000410A0120FEF7CCF805F1D80000EB860045
:1027300080ED000A05F1AC0030F91600132190FB82
:10274000F1F001B205F1AC0020F81610761C042E51
:10275000D7DB012070BD70B505460DB9002070BDF6
:102760007648D0ED090AFDEEE00A10EE900A02B2BA
:102770007248D0ED050AB0EE600A00F13001543025
:1027800000F0F0F86D48D0ED0A0AFDEEE00A10EE18
:10279000900A02B26948D0ED140AB0EE600A00F166
:1027A0007001943000F0DEF800EE100AB8EEC00AB6
:1027B000624880ED020A90ED050A80ED070A0146A5
:1027C0005C48FFF74DFF002419E05A48AC3030F95F
:1027D00014202C3000EB8400D0ED000AB0EE600A2B
:1027E00004EBC40353481C3000EB83011C3800F099
:1027F000B9F801464F48F83020F81410641C042C36
:10280000E3DB0120ABE770B52DED048B06460C46EB
:102810001546012E18D04D48007888B100204B494C
:1028200008709FED4B0A454880ED020A9FED480A6B
:1028300080ED050A9FED460A80ED090A0120087027
:102840000020BDEC048B70BD207800285ED0D4ED54
:10285000018A94ED029A94ED030AB5EEC00AF1EEF6
:1028600010FA02DD94ED030A03E094ED030AB1EEE1
:10287000400AF6EE000AB4EEE00AF1EE10FA02D2D7
:102880009FED338A05E094ED030ADFED320A80EE16
:10289000208A2A4890ED050A30EE080A80ED050AE4
:1028A0002D4850F8350000EE100AB8EEC00A38EE98
:1028B000C00AF2EE040A80EE201AF0EE419ADFED33
:1028C000270AB0EE690A0120FDF7FAFF1B4880EDE8
:1028D000000A214800EBC50090ED010AB8EEC00ADD
:1028E00039EE400AF2EE040A80EE201AF0EE419A28
:1028F000DFED1B0AB0EE690A0120FDF7E1FF0F488A
:1029000080ED010A0120114908709AE79FED100A35
:102910000A4880ED020A9FED0E0A80ED050A9FED40
:102920000C0A80ED090A012008490870801E88E71A
:10293000DC000020400400200000C84340050020C7
:1029400014010020F800002048030020300100207E
:1029500000000000000020433C74000800004843D1
:102960000000164370B52DED028B05460C46B0EE07
:10297000408A164694ED000AF0EE408A84ED008A03
:1029800000EE106AB8EEC00A84ED010A00EE106A8B
:10299000B8EEC00A38EE400A84ED030A287E18B962
:1029A0000020BDEC028B70BD287E062869D2DFE8CE
:1029B00000F0680304052B3464E063E094ED030A3F
:1029C000B5EEC00AF1EE10FA02DD94ED030A03E061
:1029D00094ED030AB1EE400ADFED5C0AB4EEE00AC2
:1029E000F1EE10FA09D294ED000AB5EEC00AF1EE4C
:1029F00010FA02D00120287305E0002028739FED13
:102A0000540A84ED050A3DE094ED030ADFED510A16
:102A100020EE200A84ED030A34E094ED030AB5EEBB
:102A2000C00AF1EE10FA02DD94ED030A03E094ED22
:102A3000030AB1EE400AF6EE000AB4EEE00AF1EE47
:102A400010FA07D24448007E20B99FED410A84ED78
:102A5000030A15E0D4ED030AB0EE600ADFED3F0A89
:102A60000120FDF72DFF84ED030AD4ED030AB0EE3B
:102A7000600A3B4B3B4A05210120FDF73CFF01E08A
:102A800000E000BF00BF95ED000AD4ED030A20EE80
:102A9000200A84ED020A94ED020A84ED080A287BDC
:102AA00020B394ED050AD4ED030A30EE200A84ED3C
:102AB000050A94ED050AD5ED010A20EE200A84ED01
:102AC000060A95ED041AF0EE410A94ED061AB0EEEE
:102AD000410A287BFDF7F4FE84ED060A94ED080A0E
:102AE000D4ED060A30EE200A84ED080A687BB8B1FE
:102AF00094ED030AD4ED040A30EE600AD5ED020A23
:102B000020EE200A84ED070A94ED030A84ED040AFE
:102B100094ED020AD4ED070A30EE200A84ED080A8B
:102B200095ED051AF0EE410A94ED081AB0EE410A4F
:102B3000287EFDF7C5FE84ED080A94ED080ABDEE77
:102B4000C00A10EE100A00B22BE700000000484255
:102B500000000000CDCCCC3D40050020000020420C
:102B6000340100204801002000B597B00121FA4847
:102B700002F086F80121480402F0CBF802208DF81B
:102B8000480000208DF84A0001208DF84B000320FA
:102B90008DF849000420119011A9F04801F0D2FDF0
:102BA0000820119011A9ED4801F0CCFD0722022167
:102BB000EA4801F052FE07220321E84801F04DFEE9
:102BC0004FF4E13013900020ADF85000ADF8520002
:102BD000ADF854000C20ADF856000020ADF85800B8
:102BE00013A9DF4801F05DFA01224021DC4801F021
:102BF0008DFB01228021DA4801F088FB0121D848B1
:102C000001F0D7FAFF225021D64803F0C3F9D64885
:102C100002F0DCFF4FF000600190D148001D0290EF
:102C2000D04803900020049050200590002006908A
:102C30004FF4806007900020089009904FF4807056
:102C40000A904FF440300B9000200C900D900E90A5
:102C50000F9001A9C44803F05BF8C348183002F094
:102C6000B5FF4FF000600190BD48001D0290BF48C5
:102C700003904020049019200590002006904FF406
:102C8000806007900020089009900A904FF440302F
:102C90000B9000200C9001200D9000200E900F90C2
:102CA00001A9B148183003F033F826208DF8400010
:102CB00001208DF841008DF842008DF8430010A8E6
:102CC00000F025FC11208DF8400002208DF8410015
:102CD0008DF8420001208DF8430010A800F017FC89
:102CE000012240F224419E4801F019FB01221021EB
:102CF0009D48183003F0D2F801219B4803F042F8B8
:102D000001219948183003F03DF8012240219448F0
:102D100001F0FCFA01228021914801F0F7FA01212B
:102D20008F4801F046FA17B000BD00B597B00121F9
:102D30008948401C01F0A4FF0121880401F0E9FF4B
:102D400002208DF8480000208DF84A0001208DF8FF
:102D50004B0003208DF849004FF48060119011A9B9
:102D6000834801F0EFFC4FF40060119011A98048F6
:102D700001F0E8FC07220A217D4801F06EFD0722E0
:102D80000B217B4801F069FD4FF4E13013900020E6
:102D9000ADF85000ADF85200ADF854000C20ADF87D
:102DA00056000020ADF8580013A9724801F079F9D7
:102DB000012240216F4801F0A9FA012280216D48CB
:102DC00001F0A4FA01216B4801F0F3F9664860387C
:102DD00002F0FCFE4FF0006001906648001D02907A
:102DE00065480390002004900E2005900020069076
:102DF0004FF4806007900020089009904FF4807095
:102E00000A904FF440300B9000200C900D900E90E3
:102E10000F9001A95448603802F07AFF27208DF8FE
:102E2000400000208DF841008DF8420001208DF80F
:102E3000430010A800F06BFB012240F224414D48F2
:102E400001F06DFA01214848603802F09BFF012231
:102E50004021484801F05AFA0121464801F0A9F9F9
:102E600017B000BD10B545493F48183002F0E7FFE4
:102E700060B142493C48183002F0FCFF00213A485A
:102E8000183002F07FFF00203D49087010BD70B57A
:102E900004460D4600BF3A4800780028FBD10120C7
:102EA000374908702A462146304803F061F8294620
:102EB0002D48183002F087FF01212B48183002F00E
:102EC00061FF70BD70B588B0054600240026AA20B9
:102ED0008DF800008DF80100F1208DF8020014201B
:102EE0008DF8030000BF23E005EB8400C1780020CB
:102EF00000EB8400001D0DF8001005EB84008178C4
:102F0000012000EB8400001D0DF8001005EB84008B
:102F10004178022000EB8400001D0DF8001015F828
:102F20002410032000EB8400001D0DF80010641C29
:102F3000052CD9DB002404E01DF804003044C6B29F
:102F4000641C182CF8DB8DF8186019216846FFF70F
:102F50009EFF08B070BD000001002000000002408C
:102F6000004400401406002088600240A2060020B1
:102F70000004024000480040F4050020000020202A
:102F80005C01002070B588B005460026AA208DF8A7
:102F900000008DF80100EF208DF8020002208DF86E
:102FA000030010208DF80400E8B28DF8050000241D
:102FB00005E01DF80400304486B2601C84B2062C83
:102FC000F7DBF0B28DF8060007216846FFF75FFFD8
:102FD00008B070BD10B5002440F22441F84801F05B
:102FE000D9F9002853D0F6480088F548001D00881C
:102FF000F44802F00AFF002849D10021F14802F00C
:10300000C1FEF04802F0E1FEC0F10E00EE4908609A
:103010000E20EC492839C8620121EA4802F0B2FECC
:10302000EA480078AB2832D1E848407BE84908708C
:10303000E64840780871E5488178E5484171E34801
:10304000C178E3488171E1480179E148C171DF4805
:103050004079DF490872DD488179DD484172DB48FB
:10306000C179DB488172D948017AD948C172D74801
:10307000407AD7490873D548817AD5484173D348F7
:10308000C17AD3488173D148017BD148C17310BD47
:1030900010B5002440F22441CE4801F07BF900280D
:1030A0007ED0CC480088CB48001D0088C5486030E1
:1030B00002F0ABFE002873D10021C248603002F05C
:1030C00061FEC048603002F080FEC0F15000C2498D
:1030D00008605020C14908604FF00101C04802F06B
:1030E00051FEC0480078A528E5D1BE4840790128A6
:1030F00006D0022864D0032876D004285FD1C0E02F
:10310000B848C079B749097A00EB0120B549497A36
:1031100000EB0140B349897A00EB0160B2490880B5
:10312000B048C07AAF49097B00EB0120AE49488026
:10313000AC48407BAD490870AA48807B4870A948DC
:10314000C07B8870A748007CC870084690ED000AD4
:10315000A54880ED010AA348407CA5490870A14814
:10316000807C48709F48C07C88709E48007DC870F5
:10317000084690ED000A9C4880ED020A90ED010A95
:10318000D0ED020A20EE200A80ED030A954890F85F
:10319000260098490870934890F82700487000E08E
:1031A000D1E0904890F8280088708E4890F8290067
:1031B000C870084690ED000A8B4880ED050AC1E012
:1031C0008848C07900098C4948708648C07900F069
:1031D0000F0008708348007A8249497A00EB012089
:1031E00085494880AEE0FFE77E48C0798349087092
:1031F0007C48007A48707B48407A88707948807AA9
:10320000C870084690ED000A7D4880ED000A7548B8
:10321000C07A7C4908707348007B48707148407BD5
:1032200088707048807BC870084690ED000A74482A
:1032300080ED010A6B48C07B734908706948007CC7
:1032400048706848407C88706648807CC870084632
:1032500090ED000A6A4880ED020A6248C07C6B4922
:1032600008706048007D48705E48407D88705D4809
:10327000807DC870084690ED000A614880ED030A21
:1032800060E05848C07900F0010061490870554875
:10329000C079C0F3800048705248C079C0F3001074
:1032A00088705048C0798009C8704E48007A00F094
:1032B000070008714B48007AC0F302104871494872
:1032C000407A00F0070088714648407AC0F3021047
:1032D000C8714448807A00F0070008724148807A3B
:1032E000C0F3021048723F48C07A00F007008872AD
:1032F0003C48C07AC0F30210C8723A48007B00F024
:10330000010008733748007BC0F30010487335484C
:10331000407BC8813348807B0002C8813148C07B34
:1033200008823048007C000208822E48407C00F071
:10333000070088742B48407CC0F30210C8742948E9
:10334000807C087500BF10BD30B5034613B94FF639
:10335000FF7030BD09E013F8014B82EA0400C0B2EF
:103360002C4D35F8100080EA22220800A1F101015D
:10337000F1D11046EDE770B505460C4600260DB1BB
:10338000022C00D870BDA11E234802882846FFF7F2
:10339000DBFF0646A01E2E54310A601E295400BFD2
:1033A000F0E730B5034605E013F8010B80EA0204AC
:1033B0001A48025D0800A1F10101F5D1104630BDA7
:1033C00000480040286002406C010020F405002005
:1033D0000406002000440040700100208C60024080
:1033E0008860024014060020640600207C01002052
:1033F0008001002088010020740100208C01002041
:103400007C060020900100209401002098010020FB
:103410008C0600207E750008680100207D7400087D
:1034200070B505460C4600260DB1022C00D870BDC3
:10343000611EFF222846FFF7B4FF0646601E2E5489
:1034400000BFF4E710B50446A52020700C20607082
:103450000020A0700420E07005212046FFF7E0FF67
:10346000052060710020A07115212046FFF783FF21
:1034700010BD70B505460C4600260DB1022C01D8D2
:10348000002070BD611EFF222846FFF78AFF064616
:10349000601E285CB04201D10120F2E70020F0E775
:1034A00070B505460C4600260DB1022C01D800204F
:1034B00070BDA11E094802882846FFF745FF064651
:1034C000F1B2A01E285C814206D1601E285CB0EBE0
:1034D000162F01D10120EBE70020E9E76801002069
:1034E0000648804706480047FEE7FEE7FEE7FEE79E
:1034F000FEE7FEE7FEE7FEE7FEE7FEE7034500081E
:103500008901000833490143334A1160704770B59F
:10351000002100230F22C47824B32F4C246804F424
:10352000E064C4F5E064C4F30721C1F10404E3B22C
:103530000A4144789C40E1B28478144021430C074E
:10354000210E264C05786155047804F01F050124EE
:10355000AC4005786D114FF0E02606EB8505C5F807
:10356000004109E0047804F01F040125A5401C4C2B
:103570000678761144F8265070BD1A4A0A40024374
:10358000154B1B1F1A60704739B1134A121D126880
:103590000243114B1B1D1A6006E00F4A121D1268F0
:1035A00082430D4B1B1D1A607047042808D14FF051
:1035B000E021096941F004014FF0E022116107E0C8
:1035C0004FF0E021096921F004014FF0E022116180
:1035D000704700000000FA050CED00E000E400E098
:1035E00080E100E080FFFF1F10B50446FE488442E2
:1035F00009D10121480601F0E1FB00214FF00070E4
:1036000001F0DCFB08E00121880601F0D7FB002176
:103610004FF0806001F0D2FB10BD30B502460020B3
:103620000023146824F002041460146844F00104B8
:10363000146000E05B1C546814F0010F03D1A3F583
:103640007F44FF3CF6D1546814F0010F01D10020F3
:103650006CE08C79012C04D1146844F0800414606F
:1036600003E0146824F080041460CC79012C04D1A8
:10367000146844F04004146003E0146824F040042B
:1036800014600C7A012C04D1146844F020041460F6
:1036900003E0146824F0200414604C7A012C04D157
:1036A000146844F01004146003E0146824F010045B
:1036B00014608C7A012C04D1146844F0080414605E
:1036C00003E0146824F008041460CC7A012C04D1BF
:1036D000146844F00404146003E0146824F0040443
:1036E00014608C78A407CD7844EA05640D7944EA27
:1036F00005444D7944EA05540D886D1E2C43D46170
:10370000146824F001041460002300E05B1C54687A
:1037100014F0010F03D0A3F57F44FF3CF6D15468A9
:1037200014F0010F01D0002000E0012030BD10B5E1
:103730000021837A012202FA03F1AC4A126842F0B6
:103740000102AA4B1A60A94A1C3212688A43A74B8D
:103750001C331A60027BCAB9A44A0C3212688A432D
:10376000A24B0C331A604288C38842EA03439F4A43
:103770004032847A42F834300288838842EA034334
:103780009A4A4032847A02EBC4025360027B012AD7
:1037900019D1964A0C3212680A43944B0C331A60C2
:1037A0004288038842EA0343904A4032847A42F8CE
:1037B0003430C288838842EA03438C4A4032847A98
:1037C00002EBC4025360C27A3AB9884A121D1268E9
:1037D0008A43864B1B1D1A6006E0844A121D12683C
:1037E0000A43824B1B1D1A60028932B97F4A143288
:1037F00012688A437D4B14331A600289012A06D16C
:103800007A4A143212680A43784B14331A60427BA6
:10381000012A06D1754A1C3212680A43734B1C33C5
:103820001A60724A126822F00102704B1A6010BDD1
:1038300000218171C171017241728172C172817006
:10384000C170032101710221417101210180704782
:103850006649096841F00101644A1160114609682E
:1038600043F60E729143614A11601146096841EABC
:10387000002111601146096821F0010111607047B3
:1038800021B1026842F48032026003E0026822F44F
:10389000803202607047E1B1026842F0800202604B
:1038A0004FF4C272125842F480734FF4C272135034
:1038B0004FF4CA72125842F480734FF4CA72135014
:1038C0004FF4D272125842F480734FF4D2721350F4
:1038D0001BE0026822F0800202604FF4C2721258AC
:1038E00022F480734FF4C27213504FF4CA7212580C
:1038F00022F480734FF4CA7213504FF4D2721258EC
:1039000022F480734FF4D2721350704710B5024600
:103910000020936803F08063B3F1806F00D110E062
:10392000936803F00063B3F1006F01D1012008E058
:10393000936803F08053B3F1805F01D1022000E06F
:103940000420042879D002F5C07303EB00131B6830
:1039500003F0010402F5C07303EB00131C600B7A43
:103960007BB94B7A0C8843EA445302F5C07404EBEC
:1039700000142468234302F5C07404EB0014236090
:1039800010E00B7A4C6843EAC4034C7A234302F5F7
:10399000C07404EB00142468234302F5C07404EBE4
:1039A000001423608B7A03F00F038B7202F5C0734F
:1039B00003EB00135B6823F00F0402F5C07303EB05
:1039C00000135C6002F5C07303EB00135B688C7A34
:1039D000234302F5C07404EB001463608B7B1C0668
:1039E0004B7B44EA034403E000640040006600406F
:1039F0000B7B44EA0323CC7A234302F5C07404EB27
:103A00000014A3608B7C1C064B7C44EA03440B7CB3
:103A100044EA0323CC7B234302F5C07404EB001477
:103A2000E36002F5C07303EB00131B6843F001046D
:103A300002F5C07303EB00131C6010BD10B5024605
:103A4000002321B1012907D002290FD109E0906894
:103A5000F84C00EA04030BE09068F74C00EA04031A
:103A600006E09068F54C00EA040301E0002300BF83
:103A700000BFF34C181BA34216D007DC83B16FF0D4
:103A8000806018180ED0022818D111E0B0F5007F20
:103A900010D0EC4C001909D0B0F5003F0ED10BE06E
:103AA00002230DE000230BE0002309E0002307E0E0
:103AB000012305E0012303E0012301E0002300BF0F
:103AC00000BFD8B210BD21B1012907D002290FD102
:103AD00009E0826842F0800282600AE0826842F473
:103AE0000042826005E0826842F40002826000E0E9
:103AF00000BF00BF704710B500F5D87303EB01138A
:103B00001B6803F004031372137A53B900F5D873DA
:103B100003EB01131B6840F2FF7404EA5353136074
:103B200009E000F5D87303EB01131B686FF06044E4
:103B300004EAD303536000F5D87303EB01131B6849
:103B400003F00203537200F5D87303EB01135B68B3
:103B500003F00F03937200F5D87303EB01135B6856
:103B60001B0AD37400F5D87303EB01139B68D3725F
:103B700000F5D87303EB01139B681C0A147300F55E
:103B8000D87303EB01139B681C0C547300F5D873B6
:103B900003EB01139B681B0E937300F5D87303EBC3
:103BA0000113DB68D37300F5D87303EB0113DB68F3
:103BB0001C0A147400F5D87303EB0113DB681C0CAA
:103BC000547400F5D87303EB0113DB681B0E937478
:103BD00021B9C36843F02003C36003E0036943F0E5
:103BE0002003036110BD21B9C26842F02002C26007
:103BF00003E0026942F020020261704702460020A1
:103C000019B9D36803F0030006E0012903D1136951
:103C100003F0030000E00020704710B502460B4699
:103C200000204FF6FF71BBB9146824F0020444F081
:103C30000104146000E0491E546804F00304012CE0
:103C400001D00029F7D1546804F00304012C01D0FD
:103C5000002032E0012030E0012B13D1146824F061
:103C60000304146000E0491E546814F0030F01D0EF
:103C70000029F8D1546814F0030F01D000201CE093
:103C800001201AE0022B17D1146824F0010444F03B
:103C90000204146000E0491E546804F00304022C7E
:103CA00001D00029F7D1546804F00304022C01D09C
:103CB000002002E0012000E0002010BD01460020AD
:103CC0000A6822F0010242F002020A604A6802F029
:103CD0000302022A00D10120704701464FF6FF720D
:103CE00000200B6823F002030B6000E0521E4B68BB
:103CF00003F00203022B01D1002AF7D14B6803F035
:103D00000203022B00D001207047014600208A697F
:103D100002F070007047014600208A69100E70475B
:103D2000014600208A69C2F3074070471AB143690F
:103D30000B43436102E043698B434361704710B515
:103D40000246002011F4700F08D09369C1F31304E8
:103D5000234201D001202DE000202BE011F0807FD4
:103D600008D05368C1F31304234201D0012021E09D
:103D700000201FE011F0006F08D09368C1F3130416
:103D8000234201D0012015E0002013E011F0007F54
:103D900008D0D368C1F31304234201D0012009E005
:103DA000002007E01369C1F31304234201D001206E
:103DB00000E0002010BD0022234B994202D10023D5
:103DC000836111E0C1F3130211F0007F01D0C260E2
:103DD0000AE011F0806F01D0026105E011F0006F80
:103DE00001D0826000E042607047024600200A4233
:103DF00001D0012000E00020704770B504460D4658
:103E000000266069284272D0B5F5807F69D01DDC3C
:103E1000082D42D006DC012D2DD0022D31D0042DED
:103E20007FD134E0102D3ED0202D42D0402D78D1CE
:103E300045E0000003000004000300080000031038
:103E4000000100080001FFF77000F030B5F5004FE9
:103E500061D009DCB5F5007F4AD0B5F5806F4DD053
:103E6000B5F5006F5DD150E0B5F5803F2DD0B5F5CB
:103E7000003F56D12FE0A0685549FFF7B6FF064630
:103E800051E0E0680321FFF7B0FF06464BE0E06831
:103E90000821FFF7AAFF064645E0E0681021FFF77A
:103EA000A4FF06463FE020690321FFF79EFF064678
:103EB00039E020690821FFF798FF064633E02069C2
:103EC0001021FFF792FF06462DE060680821FFF7FA
:103ED0008CFF064627E060681021FFF786FF064644
:103EE00021E0A0690121FFF780FF06461BE01BE0EF
:103EF000A0690221FFF779FF064614E0A0690421BA
:103F0000FFF773FF06460EE00BE0A0697021FFF794
:103F10006CFF064607E060680421FFF766FF06466F
:103F200001E0002600BF00E00026304670BDB1F57C
:103F3000007F3AD00FDC202928D006DC01291CD0D4
:103F400004291DD0082940D11DE0402921D0B1F518
:103F5000807F3AD126E0B1F5004F31D006DCB1F5D3
:103F6000806F25D0B1F5006F2FD124E0B1F5803FEF
:103F700012D0B1F5003F28D111E0154A826025E04A
:103F80000822C26022E01022C2601FE00822026103
:103F90001CE01022026119E00822426016E01022A3
:103FA000426013E00422426010E0042242600DE00F
:103FB000042242600AE0002282610422426005E09D
:103FC000002282610422426000E000BF00BF70470F
:103FD0000101010010B50446FA48844208D10121CC
:103FE000102000F0FCFE0021102000F0F8FE57E049
:103FF000F548844209D10121480400F0DFFE002188
:104000004FF4003000F0DAFE4AE0F048844209D173
:104010000121880400F0D2FE00214FF4802000F03E
:10402000CDFE3DE0EA48844209D10121C80400F0F8
:10403000C5FE00214FF4002000F0C0FE30E0E5484E
:10404000844209D10121080500F0B8FE00214FF497
:10405000801000F0B3FE23E0DF48844208D1012144
:10406000202000F0BCFE0021202000F0B8FE17E068
:10407000DA48844209D10121880700F09FFE00211F
:104080004FF0804000F09AFE0AE0D548844207D104
:104090000121400500F092FE0021600500F08EFE37
:1040A00010BD2DE9FF4705460E460024A14600BF7E
:1040B000A046B08900B100BF2C8A24F44054F08897
:1040C00004432C82AC8941F20C608443B08831896E
:1040D0000843718908430443AC81AC8A24F44074DA
:1040E000B0890443AC82684600F0F9FCB5488542CB
:1040F00002D0B948854202D1DDF80C9001E0DDF82C
:104100000890A88910F4004F08D009EBC90000EB13
:10411000091031684900B0FBF1F707E009EBC9006D
:1041200000EB091031688900B0FBF1F76420B7FBA0
:10413000F0F004012009642101FB1078A88910F433
:10414000004F08D0322000EBC800B0FBF1F000F0C7
:104150000700044308E0322000EB08106421B0FBA4
:10416000F1F000F00F0004432C81BDE8FF874FF40D
:104170001651016000218180C18001810C214181A3
:1041800000218181704710B502460020108A20F47A
:1041900070600B884C8823438C882343CC8823434E
:1041A0001843108210BD0021018041808180C180B0
:1041B000704721B1828942F40052828104E08289F1
:1041C0004DF6FF731A4082817047028B02F47F42E2
:1041D0000283028B0A430283704721B1828942F431
:1041E0000042828103E08289C2F30E02828170471D
:1041F00021B1828A42F40062828204E0828A4FF214
:10420000FF731A4082827047C1F3080282807047B0
:1042100001468888C0F308007047028A4FF6F073A1
:104220001A400282028A0A430282704721B18289BF
:1042300042F00202828104E082894FF6FD731A4047
:104240008281704782894FF2FF731A40828182898E
:104250000A4382817047028A4FF6DF731A40028256
:10426000028A0A430282704721B1028A42F48042E4
:10427000028204E0028A4BF6FF731A400282704702
:10428000818941F001018181704721B1828A42F028
:104290000802828204E0828A4FF6F7731A40828213
:1042A0007047028BD2B20283028B42EA0122028360
:1042B000704721B1828A42F02002828204E0828A21
:1042C0004FF6DF731A408282704721B1828A42F032
:1042D0001002828204E0828A4FF6EF731A408282D3
:1042E0007047828A4FF6FB731A408282828A0A43A1
:1042F0008282704721B1828A42F00202828204E007
:10430000828A4FF6FD731A40828270471AB1838AFF
:104310000B43838202E0838A8B4383827047F0B52C
:1043200003460024002600250020A1F510676A3FFF
:1043300000D100BF1846C1F3421401F01F06012747
:1043400007FA06F5012C01D10C3004E0022C01D152
:10435000103000E014301AB107682F43076002E004
:104360000768AF430760F0BD02460020B1F5007F4B
:1043700000D100BF13880B4201D0012000E00020D3
:10438000704701F40072B2F5007F00D100BFCA434C
:104390000280704770B502460024002300250020EB
:1043A000A1F510666A3E00D100BFC1F3421501F0CD
:1043B0001F03012606FA03F3012D13D1968933401A
:1043C00017E0000000100140004400400048004099
:1043D000004C0040005000400014014000780040B4
:1043E000007C0040022D02D1168A334001E0968AFB
:1043F00033400C12012606FA04F41688344013B137
:104400000CB1012000E0002070BD10B50022002397
:10441000A1F510646A3C00D100BF0A120124944047
:10442000A3B2DC43048010BD0CB5002001900090C5
:104430007648006840F480307449086000BF7348D3
:10444000006800F4003000900198401C0190009832
:1044500018B90198B0F5A04FF1D16C48006810F47C
:10446000003F02D00120009001E000200090009861
:10447000012845D165484030006840F080506349CC
:10448000403108606248006840F44040604908607C
:104490005E48083000685D490831086008460068D9
:1044A00040F4004008600846006840F4A0500860EE
:1044B0005848091F0860081F006840F08070091FF5
:1044C000086000BF5148006810F0007FFAD040F249
:1044D0000570514908604D480830006820F003001D
:1044E0004A49083108600846006840F00200086048
:1044F00000BF46480830006800F00C000828F8D1DA
:104500000CBD70B5012401254448006840F47000DA
:10451000424908603D48006840F001003B4908609E
:1045200000203A4908310860384800683C49084092
:10453000364908603B48091D0860081F006820F4E0
:104540008020091F0860002030490C310860FFF707
:104550006BFFE00631498039086070BD70B50020FE
:104560000022022300240221284D08352D6805F081
:104570000C0020B1042806D0082834D107E02A4DC9
:104580002A4E356033E02A4D284E35602FE01F4D0E
:104590002D1D2D68C5F380541C4D2D1D2D6805F073
:1045A0003F0154B1224DB5FBF1F5184E361D36686A
:1045B000C6F3881605FB06F209E01B4DB5FBF1F5C5
:1045C000124E361D3668C6F3881605FB06F20F4DEF
:1045D0002D1D2D68C5F301456D1C6B00B2FBF3F575
:1045E000124E356003E0104D104E356000BF00BF25
:1045F000064D08352D68C5F303150E4E705D0B4D45
:104600002D68C540094E356070BD0000003802407D
:104610000070004008544007003C024088ED00E074
:10462000FFFFF6FE103000240024F4009C0100205F
:1046300000127A00A001002010B504469848844278
:1046400008D10121084600F086FB0021012000F07E
:1046500082FB76E09348844208D10121022000F0D9
:104660007AFB0021022000F076FB6AE08E4884424B
:1046700008D10121042000F06EFB0021042000F08D
:104680006AFB5EE08948844208D10121082000F0DD
:1046900062FB0021082000F05EFB52E08448844267
:1046A00008D10121102000F056FB0021102000F05D
:1046B00052FB46E07F48844208D10121202000F0CF
:1046C0004AFB0021202000F046FB3AE07A48844271
:1046D00008D10121402000F03EFB0021402000F0E5
:1046E0003AFB2EE07548844208D10121802000F079
:1046F00032FB0021802000F02EFB22E07048844233
:1047000008D10121801500F026FB0021A01500F042
:1047100022FB16E06B48844208D10121401500F0CD
:104720001AFB0021601500F016FB0AE0664884427F
:1047300007D10121001500F00EFB0021201500F02B
:104740000AFB10BDF0B50A4600210023002400BF7B
:104750003DE0012505FA01F3156805EA03049C42D2
:1047600034D105684F000326BE40B5430560157976
:104770004E00B5400668354305601579012D02D01D
:104780001579022D16D185684F000326BE40B5432A
:10479000856055794E00B54086683543856045682B
:1047A00001268E40B5434560456896798E40B6B285
:1047B00035434560C5684F000326BE40B543C5601C
:1047C000D5794E00B540C6683543C560491C1029EF
:1047D000BFD3F0BD4FF6FF7101600021017141713F
:1047E0008171C171704708B54FF480320092009A10
:1047F0000A430092009AC261C161009AC261C26913
:104800000092C269009208BD0246002013690B4263
:1048100001D0012000E0002070470146086980B205
:1048200070470246002053690B4201D0012000E08E
:10483000002070470146486980B270470183704785
:10484000418370470AB1018300E0418370474161B1
:10485000704742694A4042617047F0B50023002426
:104860004D07ED0E02FA05F3CE1000F1200555F8C4
:1048700026504E07F70E0F26BE40B543CF1000F16D
:10488000200646F82750CE1000F1200555F8265096
:1048900045EA0304CE1000F1200545F82640F0BD9E
:1048A000000002400004024000080240000C0240E8
:1048B000001002400014024000180240001C024098
:1048C000002002400024024000280240F94800680D
:1048D00040F00100F74908600020F64908310860FF
:1048E000F4480068F4490840F2490860F348091D9B
:1048F0000860F348EF4984310860F0481038091D1A
:104900000860EC48006820F48020EA490860002034
:10491000E8490C310860E7498C3108607047002194
:10492000E44A921C117011460870704710B5014698
:104930000022002300204A11012A02D1DD4C236805
:1049400008E0022A03D1DB4C7034236802E0D94C22
:104950007434236801F01F02012494401C4201D0EA
:10496000012000E0002010BD38B500200090002498
:10497000002500BF3120FFF7D9FF05460098401CF5
:1049800000900098B0F5A04F01D0002DF2D031205A
:10499000FFF7CCFF08B1012400E00024204638BD19
:1049A00001460020C34A106820F0F80040EAC10028
:1049B00010607047C349086070470021BD4A7032DB
:1049C00011701170012802D004280AD104E00121DD
:1049D000B84A7032117005E00521B64A7032117084
:1049E00000E000BF00BF7047B7490860704770B56E
:1049F000049C41EA82150126C6EB530645EA0645AA
:104A0000054345EA0465AB4E361D356070BDAD49C2
:104A100008667047820142EA0172A64B84331A602D
:104A20007047A8498866704710B5830143EA01635F
:104A300043EA02739F4C8834236010BDA149086784
:104A40007047A049C864704702460020994B08335C
:104A5000186820F0EC6042EA01031843954B0833D4
:104A60001860704702460020924B0833186820F007
:104A7000784042EA010318438E4B083318607047B0
:104A8000014600208B4A0832106820F003000843DA
:104A90001060704787480830006800F00C007047CD
:104AA00001460020834A0832106820F0F0000843D5
:104AB00010607047014600207E4A0832106820F4DA
:104AC000E05008431060704701460020794A0832E0
:104AD000106820F4604040EAC10010607047F0B5F3
:104AE000002100220024022500260223714F0837EE
:104AF0003F6807F00C0121B1042905D0082937D1FE
:104B000005E0724F076036E0714F076033E0694F90
:104B10003F1D3F68C7F38056664F3F1D3F6807F053
:104B20003F036EB16A4FB7FBF3F7DFF888C10CF1B2
:104B3000040CDCF800C0CCF3881C07FB0CF40CE080
:104B4000624FB7FBF3F7DFF86CC10CF1040CDCF833
:104B500000C0CCF3881C07FB0CF4564F3F1D3F6888
:104B6000C7F301477F1C7D00B4FBF5F7076002E047
:104B7000564F076000BF00BF4E4F08373F6807F031
:104B8000F0010909534F7A5C0768D7404760494FE5
:104B900008373F6807F4E051890A4E4F7A5C47684E
:104BA000D7408760434F08373F6807F46041490B9F
:104BB000484F7A5C4768D740C760F0BD002100F4D9
:104BC0004072B2F5407F0AD13A4A0832116821F4A6
:104BD000F811414A02401143364A08321160354A01
:104BE00070321268C0F30B031A43324B70331A60F1
:104BF0007047354944390860704733494039086087
:104C0000704736490860704701460020294A8C32B7
:104C1000106820F01F004A1E1043264A8C32106094
:104C2000704701460020234A8C32106820F4F85067
:104C30004A1E40EA02201F4A8C321060704701462B
:104C400000201C4A8C32106820F440100843106089
:104C5000704701460020174A8C32106820F440004B
:104C600008431060704701460020124A8C321068D9
:104C700020F44030084310607047194908607047BD
:104C800039B10C4A3032126802430A4B30331A6091
:104C900006E0084A303212688243064B30331A600D
:104CA0007047F9B1034A343212680243014B34337E
:104CB0001A601CE000380240FFFFF6EA10300024C2
:104CC0000030002000004742800E47420024F400DC
:104CD00000127A00B0010020FFFCFF0F5C01474288
:104CE000E01147428F4A126882438E4B1A60704728
:104CF00039B18C4A121D126802438A4B1B1D1A607F
:104D000006E0884A121D12688243864B1B1D1A60FA
:104D1000704739B1834A0C3212680243814B0C331D
:104D20001A6006E07F4A0C32126882437D4B0C33D6
:104D30001A60704739B17B4A103212680243794BCE
:104D400010331A6006E0774A103212688243754BBE
:104D500010331A60704739B1724A243A126802431C
:104D6000704B243B1A6006E06E4A243A1268824374
:104D70006C4B243B1A60704739B16A4A203A12687A
:104D80000243684B203B1A6006E0664A203A1268EC
:104D90008243644B203B1A60704739B1614A1C3A28
:104DA000126802435F4B1C3B1A6006E05D4A1C3AE6
:104DB000126882435B4B1C3B1A60704739B1594AF9
:104DC000143A12680243574B143B1A6006E0554AE6
:104DD000143A12688243534B143B1A60704739B13E
:104DE000504A103A126802434E4B103B1A6006E0DC
:104DF0004C4A103A126882434A4B103B1A60704783
:104E000039B1484A1C3212680243464B1C331A60BF
:104E100006E0444A1C3212688243424B1C331A603B
:104E2000704739B13F4A2032126802433D4B20336C
:104E30001A6006E03B4A203212688243394B203325
:104E40001A60704739B1374A243212680243354B31
:104E500024331A6006E0334A243212688243314B0D
:104E600024331A60704739B12E4A2C32126802433B
:104E70002C4B2C331A6006E02A4A2C3212688243EB
:104E8000284B2C331A60704739B1264A30321268E9
:104E90000243244B30331A6006E0224A3032126853
:104EA0008243204B30331A607047012808D11D49D6
:104EB0003C31096841F008011A4A3C32116007E0B0
:104EC00018493C31096821F00801164A3C3211604A
:104ED000704739B1134A273A12780243114B273BE6
:104EE0001A7006E00F4A273A127882430D4B273B8F
:104EF0001A7070470B484030006840F080700949D4
:104F000040310860704701460020064A283A12687E
:104F10000A4201D0012000E00020704701492639F3
:104F2000087070473438024010B50446FE48844289
:104F300008D101210846FFF752FF00210120FFF7A9
:104F40004EFF9DE0B4F1804F08D101210846FFF7E4
:104F500035FF00210120FFF731FF91E0F348844243
:104F600008D101210220FFF729FF00210220FFF7CD
:104F700025FF85E0EE48844208D101210420FFF797
:104F80001DFF00210420FFF719FF79E0E948844262
:104F900008D101210820FFF711FF00210820FFF7A9
:104FA0000DFF6DE0E448844208D101211020FFF795
:104FB00005FF00211020FFF701FF61E0DF48844278
:104FC00008D101212020FFF7F9FE00212020FFF762
:104FD000F5FE55E0DA48844208D101210220FFF7AE
:104FE000FEFE00210220FFF7FAFE49E0D548844288
:104FF00009D101210804FFF7F2FE00214FF48030AF
:10500000FFF7EDFE3CE0D048844209D1012148047D
:10501000FFF7E5FE00214FF40030FFF7E0FE2FE040
:10502000CA48844209D101218804FFF7D8FE002133
:105030004FF48020FFF7D3FE22E0C548844208D118
:1050400001214020FFF7BAFE00214020FFF7B6FE05
:1050500016E0C048844208D101218020FFF7AEFE4F
:1050600000218020FFF7AAFE0AE0BB48844207D156
:1050700001218015FFF7A2FE0021A015FFF79EFE7B
:1050800010BD00220288A84B98420ED0AC4B98422B
:105090000BD0B0F1804F08D0A44B984205D0A44B60
:1050A000984202D0A34B984204D14FF68F731A4016
:1050B0004B881A43A04B984207D0A04B984204D08B
:1050C0004FF6FF431A400B891A4302804B68C362B4
:1050D0000B880385944B984202D0994B984201D19A
:1050E0008B7A03860123838270474FF0FF31416042
:1050F0000021018001814180817270470185828297
:1051000070470A46002101884FF68F7319401143FA
:105110000180704741627047C16270470146486A2A
:1051200070470146088D704721B1028842F00202A3
:10513000028004E002884FF6FD731A400280704737
:1051400021B1028842F00402028004E002884FF696
:10515000FB731A400280704721B1028842F080023E
:10516000028004E002884FF67F731A400280704785
:1051700002884FF6F7731A40028002880A430280C1
:10518000704702884FF6FF431A40028002880A43A4
:105190000280704721B1028842F00102028004E0DF
:1051A00002884FF6FE731A400280704770B50024E3
:1051B00000220023058C4FF6FE7635400584028CD4
:1051C0008388048B4FF68F752C40B51E2C400D88BC
:1051D0002C43751E2A408D892A434D882A43524DFF
:1051E000A84202D0564DA84213D14FF6F7752A4077
:1051F000CD892A434FF6FB752A408D882A434FF606
:10520000FF652B404FF6FF552B400D8A2B434D8AEF
:105210002B43838004838D684563028470BD70B521
:10522000002400220023058C4FF6EF7635400584DC
:10523000028C8388048B48F6FF752C404FF6FF459F
:105240002C400D884FF6FF7606EA05252C434FF6D5
:10525000DF752A408D8906EA05152A434D8806EA3E
:1052600005152A43304DA84202D0354DA8421DD124
:105270004FF67F752A40CD894FF6FF7606EA051571
:105280002A434FF6BF752A408D8806EA05152A4342
:105290004FF6FF352B404FF2FF752B400D8A06EA83
:1052A00085052B434D8A06EA85052B4383800483BD
:1052B0008D688563028470BD70B5002400220023D0
:1052C000058C4FF6FF6635400584028C8388848BFD
:1052D0004FF68F752C404FF6FC752C400D882C43F3
:1052E0004FF6FF552A408D894FF6FF7606EA0525D1
:1052F0002A434D8806EA05252A430B4DA84202D0D1
:105300000F4DA84238D14FF2FF752A40CD894FF694
:10531000FF7606EA05252A434FF6FF352A408D8899
:1053200006EA05252A4319E0000001400004004078
:1053300000080040000C0040001000400014004035
:105340000004014000400140004401400048014089
:1053500000180040001C0040002000404EF6FF7581
:105360002B404DF6FF752B400D8A06EA05152B43A1
:105370004D8A06EA05152B43838084838D68C563B7
:10538000028470BD70B5002200230024058C4EF607
:10539000FF7635400584038C8488828B48F6FF7540
:1053A0002A404FF6FF452A400D884FF6FF7606EA61
:1053B00005252A434DF6FF752B408D8906EA0535F4
:1053C0002B434D8806EA05352B43FE4DA84202D0FB
:1053D000FD4DA84208D14BF6FF752C400D8A4FF6C3
:1053E000FF7606EA85152C43848082838D680564E8
:1053F000038470BD002101804180818081608181B2
:10540000C18101824182704770B5034600200024AB
:105410001846183001258D40ACB21D8CA5431D8463
:1054200009B108290AD100EB610005684FF68F76B3
:10543000354005600568154305600FE00D1FC5F395
:105440004E052844056848F6FF7635400560056836
:105450004FF6FF7606EA02263543056070BD4163CC
:10546000704781637047C1637047016470470A46A3
:105470000021018B4FF68F73194011430183704750
:105480000A460021018B48F6FF7319404FF6FF735F
:1054900003EA02231943018370470A460021818BE6
:1054A0004FF68F7319401143818370470A460021DC
:1054B000818B48F6FF7319404FF6FF7303EA02230E
:1054C0001943818370470A460021018B4FF6F77319
:1054D00019401143018370470A460021018B4FF2A6
:1054E000FF7319404FF6FF7303EA02231943018348
:1054F00070470A460021818B4FF6F773194011431C
:10550000818370470A460021818B4FF2FF73194057
:105510004FF6FF7303EA02231943818370470A465B
:105520000021018B4FF6FB73194011430183704733
:105530000A460021018B4FF6FF3319404FF6FF73E7
:1055400003EA02231943018370470A460021818B35
:105550004FF6FB7319401143818370470A460021BF
:10556000818B4FF6FF3319404FF6FF7303EA022396
:105570001943818370470A460021018B4FF67F73E0
:1055800019401143018370470A460021018BC1F382
:105590000E014FF6FF7303EA02231943018370479C
:1055A0000A460021818B4FF67F7319401143818396
:1055B00070470A460021818BC1F30E014FF6FF733D
:1055C00003EA02231943818370470A460021018CB4
:1055D0004FF6FD7319401143018470470A460021BC
:1055E000018C4FF6F77319401143018470470A4646
:1055F0000021018C4FF6DF7319404FF6FF7303EA69
:1056000002131943018470470A460021018C4FF6AA
:105610007F7319404FF6FF7303EA021319430184A5
:1056200070470A460021018C4FF6FF5319404FF690
:10563000FF7303EA02231943018470470A460021DD
:10564000018C4FF2FF7319404FF6FF7303EA0223F8
:105650001943018470470A460021018C4DF6FF73FF
:1056600019404FF6FF7303EA023319430184704770
:1056700030B5002301248C40A3B2048C9C430484E5
:10568000048C02FA01F5ADB22C43048430BD30B570
:10569000002304248C40A3B2048C9C430484048C17
:1056A00002FA01F5ADB22C43048430BD828B4FF277
:1056B000FF331A408283828B4FF6FF7303EA012384
:1056C0001A4382837047F0B50C461546002100222C
:1056D0000026078C4EF6FF7C07EA0C070784818BB7
:1056E000028C4FF6FF7707EA043640F6FF47394051
:1056F0004FF6FF7707EA052739434FF6FF7707EAAA
:105700000337394345F6FF773A4046F480573A432A
:1057100081830284F0BD828B4FF6F3731A4082833B
:10572000828B0A4382837047F0B50C4615460021F0
:1057300000220026078C4FF6FF6C07EA0C0707844F
:10574000818B028C4FF6FF7707EA04264FF60C7721
:1057500039404FF6FF7707EA03172F4339434FF2DB
:10576000FF573A4046F480773A4381830284F0BD84
:10577000028B4FF2FF331A400283028B4FF6FF7306
:1057800003EA01231A4302837047F0B50C4615461D
:10579000002100220026078C4FF6EF7C07EA0C0759
:1057A0000784018B028C4FF6FF7707EA041640F658
:1057B000FF4739404FF6FF7707EA033739434FF683
:1057C000FF7703E0000001400004014007EA0527DD
:1057D00039434FF65F773A4046F010073A4301836A
:1057E0000284F0BD028B4FF6F3731A400283028BE2
:1057F0000A4302837047F0B50C461546002100228B
:10580000068C4FF6FE773E400684018B028C4FF6E5
:105810000C7631407E1C06EA03162E4331434FF6C8
:10582000F576324044F00106324301830284F0BD34
:1058300070B505460C46208850B92389A288618836
:105840002846FFF7D8FFE1882846FFF7CBFF25E081
:10585000208804280AD12389A28861882846FFF776
:1058600094FFE1882846FFF783FF17E02088082887
:105870000AD12389A28861882846FFF755FFE1886D
:105880002846FFF748FF09E02389A2886188284657
:10589000FFF719FFE1882846FFF708FF70BD0021D8
:1058A00001804180012181800021C18001817047F8
:1058B0002DE9F04105460C4600260127608808B90D
:1058C000022600E00026A088012801D1022700E07E
:1058D00001272088A0B92389A28861882846FFF77C
:1058E0008AFFE1882846FFF77DFF23893A46314643
:1058F0002846FFF74AFFE1882846FFF739FF13E003
:105900002389A28861882846FFF73FFFE18828465F
:10591000FFF72EFF23893A4631462846FFF76BFFF3
:10592000E1882846FFF75EFFBDE8F0810146486B3D
:1059300070470146886B70470146C86B7047014647
:10594000086C70470A884B881A438B881A43CB88A7
:105950001A430B891A434B891A438B891A43A0F8BF
:10596000442070470021018041808180C1800181F5
:1059700041818181704731B1B0F8442042F4004246
:10598000A0F8442005E0B0F84420C2F30E02A0F8CD
:105990004420704721B1828842F00402828004E0F2
:1059A00082884FF6FB731A408280704721B182884B
:1059B00042F00102828004E082884FF6FE731A40B2
:1059C000828070471AB183890B43838102E0838907
:1059D0008B43838170478182704702460020138A7F
:1059E0000B4201D0012000E000207047CA43028230
:1059F000704730B50246002000230024158A05EACE
:105A00000103958905EA010413B10CB1012000E0FE
:105A1000002030BDCA430282704741EA0203A0F869
:105A2000483070471AB183890B43838102E0838930
:105A30008B438381704721B1828842F008028280C3
:105A400004E082884FF6F7731A408280704701891C
:105A50004FF6F8721140018170470A460021018912
:105A60004FF68F73194011430181704730B50446DA
:105A70000D4629462046FFF7F0FF208940F0070039
:105A8000208130BD2DE9F04104460D4616461F46E3
:105A9000602D06D13B46012231462046FFF775FEB8
:105AA00005E03B46012231462046FFF7A4FE294689
:105AB0002046FFF7D2FF208940F007002081BDE893
:105AC000F08130B50C4600210189C9B24FF6FF754F
:105AD00005EA0325154325432943018130BD2DE9FE
