:020000040800F2
:10000000100F00200D3B0008153B0008173B0008AF
:10001000193B00081B3B00081D3B000800000000C6
:100020000000000000000000000000001F3B00086E
:10003000213B000800000000233B0008253B00088E
:10004000273B0008273B0008273B0008273B000808
:10005000273B0008273B0008273B0008273B0008F8
:10006000273B0008273B0008273B0008273B0008E8
:10007000273B0008273B0008273B0008273B0008D8
:10008000273B000893340008273B0008210700089D
:1000900037070008273B0008273B0008273B0008DC
:1000A000273B0008273B0008273B0008273B0008A8
:1000B000273B0008273B0008273B0008273B000898
:1000C000273B0008273B0008273B0008273B000888
:1000D000273B0008C1060008BD36000801360008AD
:1000E000273B0008273B0008273B00089303000834
:1000F000273B0008273B0008273B0008273B000858
:10010000273B0008273B0008273B0008273B000847
:10011000273B0008273B0008273B0008273B000837
:10012000273B0008273B0008273B0008273B000827
:10013000273B0008273B0008273B00086B07000807
:1001400081070008273B0008273B0008273B0008E1
:10015000273B0008273B0008273B0008273B0008F7
:10016000273B0008273B0008273B0008273B0008E7
:10017000273B0008273B0008273B0008273B0008D7
:10018000273B0008273B0008DFF80CD006F0EEFC08
:10019000004800479D010008100F0020002400F0D7
:1001A0008FF80AE0012001F014FD1E2C03DD034846
:1001B00003F09FF90024601C84B2F3E7E8010020FB
:1001C00010B504466FF0040003F005FDE11704EBE1
:1001D0005171C1F3C701384A11701046007800EB25
:1001E0004001C1EBC0104FF6FF7101EAC000334976
:1001F000088010BD0146304A12784A434FF0E02390
:100200005A6100229A611A46126942F001021A618B
:1002100000BF4FF0E022106910F0010F02D010F47F
:10022000803FF6D04FF0E022126922F001024FF039
:10023000E0231A6100229A61704701461F4A128822
:100240004A434FF0E0235A6100229A611A4612692C
:1002500042F001021A6100BF4FF0E022106910F075
:10026000010F02D010F4803FF6D04FF0E022126967
:1002700022F001024FF0E0231A6100229A617047D8
:1002800070B504464FF4077094FBF0F0C6B24FF41B
:10029000077094FBF0F100FB114085B205E04FF4CC
:1002A0000770FFF7CAFF701EC6B2002EF7D115B156
:1002B0002846FFF7C2FF70BD0000002002000020AA
:1002C00010B5A820FFF77CFF02F06AFF00F0FEF8EF
:1002D0004FF47A70FFF7D4FF00F0CEFC00F0AAFBD9
:1002E00000F044FC00F008F800F064F903F034F882
:1002F00000F01FF810BD00000EB50121042005F02C
:100300001EF84FF0FF3001905320ADF800000020A0
:10031000ADF80800ADF8020001212C4805F032FAD2
:1003200069462A4805F0C3F90121284805F048FA32
:100330000EBD1FB50121402005F001F86320029099
:1003400040F24730ADF804000020ADF80600ADF8EB
:100350000C0001A91E4805F0AAF9012211461C480B
:1003600005F046FE01211A4805F02AFA4FF4E06034
:1003700003F0DEFB2B208DF8000000208DF801003B
:1003800001208DF802008DF80300684603F0D5FBCC
:100390001FBD10B501210E4805F041FE01280FD107
:1003A00001210B4805F04CFE0121094805F034FEFF
:1003B000084801F04AFF08480068401C06490860E8
:1003C00010BD02482430006870470000000800405B
:1003D00000180040800000200400002000B58BB011
:1003E0000121084604F062FF0121480604F0A7FF3E
:1003F0004FF4C050099002208DF8280000208DF89D
:100400002A0003208DF8290001208DF82B0009A96E
:10041000FE4804F0ADFC09220B21FC4804F033FD3A
:1004200009220C21F94804F02EFD00208DF81E0051
:100430008DF81F008DF820008DF821008DF8220026
:100440008DF823008DF81A008DF81B0008208DF818
:100450001C0003208DF81D00ADF8180006A9EC481B
:1004600003F0F1FB00208DF812008DF8130001203D
:100470008DF814000020ADF80800ADF80A00ADF8C2
:100480000C00ADF80E00ADF8100001208DF815003D
:1004900002A803F062FC01220221DD4803F05CFFA8
:1004A00001221146DA4803F057FF14208DF80400AA
:1004B00001208DF8050000208DF8060001208DF840
:1004C000070001A803F039FB0BB000BD00B58BB0ED
:1004D0000121022004F0EAFE0121480604F02FFF6A
:1004E0000121880604F02BFF09220D21C94804F0E0
:1004F000CAFC09220C21C74804F0C5FC4FF4405047
:10050000029002208DF80C0002A9C24804F030FCD1
:1005100040208DF8040000208DF8050001208DF8A2
:1005200006008DF8070001A803F007FBBA4803F0A6
:1005300071FB08A803F092FC00208DF826008DF8CE
:1005400027008DF828008DF829008DF82A008DF8F5
:100550002B008DF822008DF8230008208DF8240050
:1005600003208DF82500ADF8200008A9AA4803F063
:100570006AFB0E208DF81A0000208DF81B00012068
:100580008DF81C000020ADF81000ADF81200ADF899
:100590001400ADF81600ADF8180001208DF81D000C
:1005A00004A803F0DAFB012202219B4803F0D4FEE9
:1005B0000BB000BD00B597B00121984804F076FE5D
:1005C0000121102004F0CCFE07221146914804F0CE
:1005D0005AFC8020119002208DF8480000208DF8F0
:1005E0004A0003208DF8490000208DF84B0011A926
:1005F000884804F0BDFB8A4804F002F8894813904B
:100600000020ADF85000ADF852004FF48060ADF816
:1006100054000420ADF856000020ADF8580013A98E
:100620007F4804F054F8012240217D4804F084F909
:1006300025208DF8400001208DF8410000208DF824
:10064000420001208DF8430010A803F076FA7648A6
:1006500005F0D2FD01A805F09AFE4FF00060019070
:100660006F48001D029071480390002004901E20E6
:100670000590002006904FF48060079000200890BD
:1006800009904FF480700A904FF440300B90002096
:100690000C900D900E900F9001A9634805F04EFE4E
:1006A0000121614805F084FE012240F224415C48AA
:1006B00004F04BF901215A4804F091F817B000BD3D
:1006C00010B540F22441564804F07AF938B3544842
:1006D000008853488088544805F0ADFEF8B90021E1
:1006E000514805F065FE504805F085FEC0F11E003A
:1006F0004F4908601E204C4944390860081F0068B3
:1007000040F40020091F08600121474805F050FE11
:1007100047480068122802D1444802F006F910BD8B
:1007200010B501213A4803F07EFE18B10121384886
:1007300003F013FF10BD10B50221354803F073FE1E
:1007400090B10021324803F008FF3A4A00213048B6
:1007500003F0E7FC374814384069012804D13548D4
:100760001438C07F3449087010BD10B501212A48E3
:1007700003F059FE18B10121274803F0EEFE10BD29
:1007800010B50221244803F04EFE00281AD00221A1
:10079000214803F0E2FE294A00211F4803F0C1FC72
:1007A000264814384069A0F5007106390BD123485A
:1007B000143890F82010C07F01EB002001B22048CF
:1007C000A0F8881068E01D4814384069A0F5007151
:1007D00005390BD11948143890F82010C07F01EB6F
:1007E000002000B21649A1F8400055E01348143823
:1007F0004069B0F5007F43D9104814384069B0F51E
:10080000017F3DD80D4814381CE000000000024074
:100810000064004000040240006800400200400004
:1008200000100140A086010088640240FC01002005
:1008300008000020BC030020B1000020800300203D
:10084000D003002090F82010C07F01EB002002B2FE
:1008500012484169A1F20121114820F811200F48E6
:1008600090F8221090F8210001EB002002B20B4812
:100870004069A0F201200A49083921F810200BE054
:1008800006484069012807D10448C07F054908701F
:10089000024890F82000487010BD00006C03002052
:1008A0001805002078010020B0EE401AB4EEE01ADE
:1008B000F1EE10FA02DDB0EE600A7047B0EE410AC8
:1008C000FBE7B0EE401AB4EEE01AF1EE10FA02DDEA
:1008D000B0EE410A7047B0EE600AFBE7B0EE401A96
:1008E00010B9B0EE410A7047B4EEE01AF1EE10FA1A
:1008F00002DDB0EE600AF6E7B1EE600AB4EEC01AAF
:10090000F1EE10FA02D2B1EE600AECE7B0EE410A65
:10091000E9E730B50446F0EE400A002014B9B0EE25
:10092000600A30BD002028E0F5EEC00AF1EE10FAB2
:1009300002DDB0EE600A01E0B1EE600A03EB800573
:1009400095ED011AB4EEC10AF1EE10FA13D8F5EEE6
:10095000C00AF1EE10FA02DDB0EE600A01E0B1EE7D
:10096000600A03EB800595ED001AB4EEC10AF1EEC2
:1009700010FA00DD04E0451CE8B24D1E8542D3DCD0
:1009800000BF02EB800595ED000A20EE200AC8E7C3
:10099000F0EE402A10B9B0EE620A7047F5EEC02AB8
:1009A000F1EE10FA02DDB0EE620A01E0B1EE620A89
:1009B000B4EEE00AF1EE10FA39DBF5EEC02AF1EE02
:1009C00010FA02DDB0EE620A01E0B1EE620AB4EEA6
:1009D000C10AF1EE10FA2AD831EE600AB5EEC00A6B
:1009E000F1EE10FA02DD31EE600A03E031EE600A4A
:1009F000B1EE400AB0EE404A32EEE00A80EE043A30
:100A000032EE610AB5EEC00AF1EE10FA02DD32EE06
:100A1000610A03E032EE610AB1EE400AF0EE403ABC
:100A2000B0EE610A03EE230A20EE220AB5E722EEB9
:100A3000220AB2E710B500BF01226B21D02000F0DE
:100A400062FAC4B24FF4FA70FFF71AFC00226B216D
:100A5000D02000F058FAC4B23220FFF711FC752103
:100A6000D02000F090FA7F49087008460078682886
:100A7000E2D100226B21D02000F045FAC4B232202E
:100A8000FFF7FEFB00221921D02000F03CFA2044A1
:100A9000C4B23220FFF7F4FB03221A21D02000F069
:100AA00032FA2044C4B23220FFF7EAFB10221B21A5
:100AB000D02000F028FA2044C4B23220FFF7E0FB37
:100AC00009221C21D02000F01EFA2044C4B232209A
:100AD000FFF7D6FB204610BD10B53B21D02000F01B
:100AE00052FA614908703C21D02000F04CFA5E496E
:100AF00048703D21D02000F046FA5B4988703E21C5
:100B0000D02000F040FA5849C8703F21D02000F0B2
:100B10003AFA554908714021D02000F034FA524980
:100B200048714321D02000F02EFA4F490872442129
:100B3000D02000F028FA4C4948724521D02000F01E
:100B400022FA494988724621D02000F01CFA464911
:100B5000C8724721D02000F016FA43490873482193
:100B6000D02000F010FA4049487310BD10B52DEDAB
:100B7000048B4FF47A7408EE104A9FED3C0AF0EEB5
:100B8000408A9FED3A0AB0EE409A002138484185EC
:100B90008185C1853748C1853CE0FFF79DFF32481C
:100BA000407A3149097A40EA012000B2304988840C
:100BB0002D48C07A2C49897A40EA012001B22C489C
:100BC000C1842948407B2849097B40EA012001B2C1
:100BD00027480185B0F9240000EE100AB8EEC00ADB
:100BE00030EE280AF0EE408A2148B0F9260000EEE7
:100BF000100AB8EEC00A30EE090AB0EE409A1C485E
:100C0000B0F9280000EE100AB8EEC00A30EE290A4A
:100C1000F0EE409A2000A4F10104BED1B8EEC80A5B
:100C2000C8EE800ABDEEE00A10EE100A01B21048CC
:100C3000C186B8EEC80AC9EE000ABDEEE00A10EEA1
:100C4000100A01B20A480187B8EEC80AC9EE800A44
:100C5000BDEEE00A10EE100A01B205484187BDEC76
:100C6000048B10BD0C000020A0020020000000003A
:100C700010020020580200201CB50121022004F0BF
:100C800015FB4FF48070009001208DF804008DF862
:100C9000050000208DF8060001208DF80700694648
:100CA000CD4804F065F84FF40070009001208DF8F5
:100CB00004008DF805008DF8060000208DF807006F
:100CC0006946C54804F054F81CBD062000BF010069
:100CD000A0F10100FBD1704741F6583000E0401E02
:100CE0000028FCD1704710B54FF40071BA4804F0E9
:100CF000BBF84FF48071B84804F0B6F8FFF7E5FF91
:100D00004FF40071B44804F095F808B9002010BD04
:100D10004FF40071B04804F0A9F8FFF7D6FF4FF484
:100D20000071AD4804F086F808B10020EFE74FF4F9
:100D30000071A94804F09AF8FFF7C7FF0120E6E721
:100D400010B54FF48071A44804F090F8FFF7BDFF90
:100D50004FF40071A04804F089F8FFF7B6FF4FF494
:100D600080719D4804F080F8FFF7AFFF4FF40071E9
:100D7000994804F079F8FFF7A8FF10BD10B54FF4BB
:100D80008071954804F072F8FFF79FFF4FF40071EF
:100D9000914804F06BF8FFF798FF4FF480718E488C
:100DA00004F062F8FFF791FF4FF480718A4804F075
:100DB0005DF8FFF78AFF10BD10B54FF480718648CB
:100DC00004F054F8FFF781FF4FF40071824804F0FB
:100DD0004BF8FFF77AFF4FF480717F4804F044F836
:100DE000FFF773FF4FF480717B4804F03FF8FFF783
:100DF0006CFF10BD10B54FF48071774804F036F8E1
:100E0000FFF763FF4FF40071734804F02DF8FFF70C
:100E10005CFF4FF48071704804F026F8FFF755FF2F
:100E20004FF400716C4804F005F840B14FF4807144
:100E3000694804F01BF8FFF748FF002010BD4FF48D
:100E40008071654804F012F8FFF73FFF0120F5E7D5
:100E500070B5044608251FE04FF480715E4804F029
:100E600005F8FFF732FF14F0800F05D04FF4007142
:100E7000594803F0F9FF04E04FF40071564803F0BD
:100E8000F5FF6006040EFFF720FF4FF48071524813
:100E900003F0EAFFFFF719FF2800A5F10101CDB229
:100EA000DAD14FF480714C4803F0E0FF70BD70B5AB
:100EB00008250024A901484803F0D6FF17E0600682
:100EC000040E4FF48071444803F0D0FFFFF7FDFE9D
:100ED0004FF48071404803F0C7FFFFF7F6FE4FF470
:100EE00000713D4803F0A6FF08B144F0010428005A
:100EF000A5F10101CDB2E2D14FF48071364803F083
:100F0000B5FF204670BD70B506460C461546FFF786
:100F1000EAFE08B9002070BD3046FFF799FFFFF7E1
:100F200069FF18B9FFF70CFF0020F4E72046FFF730
:100F30008FFFFFF75FFF2846FFF78AFFFFF75AFF93
:100F4000FFF7FEFEFFF7C8FE0120E4E770B5054697
:100F50000C46FFF7C8FE08B9002070BD2846FFF711
:100F600077FFFFF747FF18B9FFF7EAFE0020F4E725
:100F70002046FFF76DFFFFF73DFFFFF7E1FEFFF7AC
:100F8000ABFE0120E9E770B504460D46FFF7ABFE66
:100F900008B9002070BD2046FFF75AFFFFF72AFF6F
:100FA00018B9FFF7CDFE0020F4E72846FFF750FF01
:100FB000FFF720FFFFF797FE611CC8B2FFF748FF5D
:100FC000FFF718FFFFF773FF0646FFF7F5FEFFF781
:100FD000B7FE3046DEE7000000040240F0EE400AB3
:100FE000F6EE001A60EEA11AB0EE611AB0EE600AD9
:100FF00010EE100AFE49A1EB600000EE100A21EE8F
:10100000002AF7EE081A42EE401A61EE801AB0EE9E
:10101000610A704710B52DED108B96B0B0EE409A76
:10102000F0EE609AB0EE41AAF0EE61BAF0EE42AA9C
:10103000B0EE62BA0024EF4890ED000A20EE000AFC
:101040008DED130A90ED000AEB48D0ED000A20EE7A
:10105000200A8DED120AE74890ED000AE748D0ED2E
:10106000000A20EE200A8DED110AE24890ED000AF8
:10107000E348D0ED000A20EE200A8DED100ADE488C
:1010800090ED000A20EE000A8DED0F0A90ED000AA7
:10109000DA48D0ED000A20EE200A8DED0E0AD6487F
:1010A00090ED000AD648D0ED000A20EE200A8DED22
:1010B0000D0AD24890ED000A20EE000A8DED0C0AD0
:1010C00090ED000ACE48D0ED000A20EE200A8DED0A
:1010D0000B0A90ED000A20EE000A8DED0A0AFFF7D8
:1010E00070F9C849086008460068C749096888421D
:1010F0000CD3C4480068C4490968401A00EE100ABD
:10110000B8EE400ADFEDC10AC0EE208ABD48006893
:10111000BD4908606BEEAB0A4AEEAA0A4BEE0B0A19
:10112000B0EE600AFFF75AFFB0EE408AB0EE480A10
:101130002BEE800AF0EE40BAB0EE480A2AEE800AA2
:10114000F0EE40AAB0EE480A2BEE000AB0EE40BA2C
:101150009DED0D0ADDED110A30EE600AF0EE000A99
:1011600020EE20FA9DED120ADDED0B0A30EE200A8A
:10117000F0EE000A60EE20FA9DED130ADDED0F0A95
:1011800070EE600A9DED0C0A70EEC00A9DED0A0A31
:1011900030EE800A8DED150A9DED150A2AEE800AC3
:1011A000B0EE40CA0BEE6FCA6BEE0F0A9DED150A4A
:1011B000F0EE60CA4BEEC0CA2BEEAF0AB0EE40DADA
:1011C0000AEECFDAB5EEC0CAF1EE10FA51D0F5EE64
:1011D000C0CAF1EE10FA4CD0B5EEC0DAF1EE10FA5A
:1011E00047D09FED8B0A6CEE000A8A4890ED000A0A
:1011F00000EEA80A80ED000A9FED850A6CEE800AD9
:10120000854890ED000A00EEA80A80ED000A9FEDE7
:10121000800A6DEE000A814890ED000A00EEA80AEF
:1012200080ED000AF7EE000AB0EE490A00EE8C0AE3
:101230007848D0ED000A30EE200AB0EE409AF7EE82
:10124000000AB0EE690A00EEAC0A7348D0ED000A5D
:1012500030EE200AF0EE409AF7EE000AB0EE4A0AAD
:1012600000EE8D0A6D48D0ED000A30EE200AB0EE97
:1012700040AA614890ED000AB1EE400A20EE090A4A
:101280005E48D0ED000A00EEE90A5D4890ED001AD4
:10129000F0EE400A41EE4A0A564890ED000A00EE90
:1012A000A80A8DED140A90ED000A20EE090A5348B1
:1012B000D0ED000A00EE8A0A5148D0ED000A00EE97
:1012C000E90A4D48D0ED000AF0EE60DA40EE28DA87
:1012D000484890ED000A20EE290A4748D0ED000A60
:1012E00000EECA0A4648D0ED000A00EE890A4348DB
:1012F000D0ED000AB0EE60EA00EE28EA3D4890ED3D
:10130000000A20EE0A0A3C48D0ED000A00EEA90AC5
:101310003A48D0ED000A00EEC90A3948D0ED000A7B
:10132000F0EE60EA40EE28EADDED140A60EEA00A75
:101330004DEEAD0A4EEE0E0A4EEEAE0AB0EE600A6B
:10134000FFF74CFEB0EE408A9DED140A20EE080A2D
:10135000284880ED000A2DEE880A274880ED000A13
:101360002EEE080A254880ED000A2EEE880A244851
:1013700080ED000A214890ED000AF8EE000A20EE08
:10138000200AD0ED000A20EE200A1D48D0ED000A08
:10139000B0EE001A60EE810A90ED001A00EEC10A6C
:1013A000F7EE000A30EE200A10EE101A084605F09B
:1013B000BFFA41EC100B8DED020B0F4890ED000AC7
:1013C000F0EE000A20EE200A0C48D0ED000A20EED4
:1013D000200A0848D0ED000AB0EE001A60EE810A3B
:1013E000074890ED001A00EE810A10EE101A17E07F
:1013F000DF59375F10000020140000201800002083
:101400001C0000207C000020780000200024F4490B
:101410000AD7233C200000202400002028000020C0
:10142000084605F085FA41EC100B8DED000B9DEDA3
:10143000021B9DED000B05F06FFF8DED040B9DED84
:10144000040B51EC100B81F0004141EC100B8DEDC1
:10145000060B9FEDF90B53EC102B9DED060B51EC99
:10146000100B05F054F941EC100B8DED080B9DEDC0
:10147000080B51EC100B05F06EFAF1498860F14849
:1014800090ED000AF8EE000A20EE200AEE48D0EDBA
:10149000000A20EE200AED48D0ED000AB0EE001A56
:1014A00060EE810AEA4890ED001A00EE810A10EE23
:1014B000101A084605F03CFA41EC100B8DED020BBA
:1014C0009DED020B05F0FCFB8DED040B9DED040B77
:1014D00051EC100B81F0004141EC100B8DED060B2F
:1014E0009FEDD50B53EC102B9DED060B51EC100B23
:1014F00005F00DF941EC100B8DED080B9DED080B7F
:1015000051EC100B05F027FACD494860CD4890ED1D
:10151000000AF8EE000A20EE200AD0ED000A20EEC4
:10152000200ACB48D0ED000AB0EE001A60EE810A26
:1015300090ED001A00EEC10AF7EE000A30EE200A24
:1015400010EE101A084605F0F3F941EC100B8DED82
:10155000040BBF4890ED000AF0EE000A20EE200ACE
:10156000B948D0ED000A20EE200AB848D0ED000AB4
:10157000B0EE001A60EE810AB24890ED001A00EE5B
:10158000810A10EE101A084605F0D2F941EC100B52
:101590008DED020B9DED041B9DED020B05F0BCFED5
:1015A0008DED060B9FEDA40B53EC102B9DED060B60
:1015B00051EC100B05F0ABF841EC100B8DED080B66
:1015C0009DED080B51EC100B05F0C5F99C49086026
:1015D00016B0BDEC108B10BD00B52DED108B89B091
:1015E000B0EE40BAF0EE60BAB0EE418AF0EE618A39
:1015F000B0EE429AF0EE629A8DED069B8DED048B73
:10160000944890ED000BB0EE40CAF0EE60CA90ED49
:10161000000BB0EE40CAF0EE60CA9DED048B53ECB7
:10162000182B8D4890ED000B51EC100B04F0C8FF07
:1016300041EC100BB0EE40AAF0EE60AA9DED069BC7
:1016400053EC192B51EC1A0B04F0BAFF41EC100BC0
:10165000B0EE40FAF0EE60FA53EC1F2B51EC1A0B8F
:1016600005F0C7F841EC100BB0EE40EAF0EE60EA8E
:1016700053EC1C2B51EC1B0B05F043F841EC100B09
:10168000B0EE40FAF0EE60FA53EC1E2B51EC1F0B5B
:1016900005F03DF841EC100B8DED000B53EC1C2BCD
:1016A0009DED000B51EC100B04F08AFF41EC100B88
:1016B000B0EE40DAF0EE60DA53EC1E2B9FED670BD4
:1016C00051EC100B05F01DF841EC100BB0EE40FA98
:1016D000F0EE60FA53EC1A2B51EC1F0B05F017F8E3
:1016E00041EC100B8DED020B9DED020B5A4880ED85
:1016F000000B584880ED00DBB0EE4D0AF0EE6D0AAD
:1017000009B0BDEC108B00BD00B52DED108B89B07C
:10171000B0EE40BAF0EE60BAB0EE418AF0EE618A07
:10172000B0EE429AF0EE629A8DED069B8DED048B41
:101730004C4890ED000BB0EE40CAF0EE60CA90ED60
:10174000000BB0EE40CAF0EE60CA9DED048B53EC86
:10175000182B454890ED000B51EC100B04F030FFB6
:1017600041EC100BB0EE40AAF0EE60AA9DED069B96
:1017700053EC192B51EC1A0B04F022FF41EC100B27
:10178000B0EE40FAF0EE60FA53EC1F2B51EC1A0B5E
:1017900005F02FF841EC100BB0EE40EAF0EE60EAF5
:1017A00053EC1C2B51EC1B0B04F0ABFF41EC100B6A
:1017B000B0EE40FAF0EE60FA53EC1E2B51EC1F0B2A
:1017C00004F0A5FF41EC100B8DED000B53EC1C2B2E
:1017D0009DED000B51EC100B04F0F2FE41EC100BF0
:1017E000B0EE40DAF0EE60DA53EC1E2B9FED1B0BEF
:1017F00051EC100B04F085FF41EC100BB0EE40FAF9
:10180000F0EE60FA53EC1A2B51EC1F0B04F07FFF43
:1018100041EC100B8DED020B9DED020B124880ED9B
:10182000000B104880ED00DBB0EE4D0AF0EE6D0AC3
:1018300009B0BDEC108B00BD0000006094A94C40C5
:10184000B0020020140000201C0000201000002026
:101850001800002058000020600000200000000058
:101860000000F03F480000205000002000B52DEDA2
:10187000108B89B0B0EE40BAF0EE60BAB0EE418A9B
:10188000F0EE618AB0EE429AF0EE629A8DED069B20
:101890008DED048BFE4890ED000BB0EE40CAF0EEEB
:1018A00060CA90ED000BB0EE40CAF0EE60CA9DED4C
:1018B000048B53EC182BF74890ED000B51EC100BF8
:1018C00004F07EFE41EC100BB0EE40AAF0EE60AAF0
:1018D0009DED069B53EC192B51EC1A0B04F070FE96
:1018E00041EC100BB0EE40FAF0EE60FA53EC1F2B17
:1018F00051EC1A0B04F07DFF41EC100BB0EE40EA06
:10190000F0EE60EA53EC1C2B51EC1B0B04F0F9FEDB
:1019100041EC100BB0EE40FAF0EE60FA53EC1E2BE7
:1019200051EC1F0B04F0F3FE41EC100B8DED000B9E
:1019300053EC1C2B9DED000B51EC100B04F040FE02
:1019400041EC100BB0EE40DAF0EE60DA53EC1E2BF7
:101950001FED3E0B51EC100B04F0D3FE41EC100BCD
:10196000B0EE40FAF0EE60FA53EC1A2B51EC1F0B7C
:1019700004F0CDFE41EC100B8DED020B9DED020B42
:10198000C44880ED000BC24880ED00DBB0EE4D0A8C
:10199000F0EE6D0A09B0BDEC108B00BD70B52DEDF9
:1019A000088B0546002415B9BDEC088B70BDFFF708
:1019B00093F8B9484078B849097840EA012000B264
:1019C000B6490880B448C078B349897840EA012014
:1019D00000B2B2494880B0484079AF49097940EA3D
:1019E000012000B2AD498880AB48407AAA49097A03
:1019F00040EA0121A948C08E081A00B2A74988848C
:101A0000A548C07AA449897A40EA0121A348008FF9
:101A1000081A01B2A148C1849F48407B9E49097BB6
:101A200040EA01219D48408F081A01B29B48018578
:101A3000B0F9240000EE100AB8EEC00A984899499F
:101A4000097800EB810080ED000A9448B0F9260087
:101A500000EE100AB8EEC00A914828309149097882
:101A600000EB810080ED000A8C48B0F9280000EE00
:101A7000100AB8EEC00A8A4850308A49097800EB4B
:101A8000810080ED000A9FED888ADFED878A9FED57
:101A9000869A00241DE0824800EB840090ED000A45
:101AA00030EE080AB0EE408A7D48283000EB840012
:101AB00090ED000A30EE280AF0EE408A7848503067
:101AC00000EB840090ED000A30EE090AB0EE409A77
:101AD000641C0A2CDFDB73480078401C0A2190FB51
:101AE000F1F201FB12006F490870F2EE040A88EE71
:101AF000200ADFED6E0A20EE200A684880ED0F0A0A
:101B0000B2EE040AC8EE800A9FED680A20EE800A51
:101B100080ED100AF2EE040A89EE200ADFED630A76
:101B200020EE200A80ED110A0146B1F9000004F010
:101B3000CFFE41EC100BB0EE40BAF0EE60BA9FED74
:101B40005C2B9FED5D1BFFF791FEB0EE40AAF0EE1F
:101B500060AA51EC1A0B04F0CCFE00B24F49C880C9
:101B6000B1F9020004F0B4FE41EC100BB0EE40BA43
:101B7000F0EE60BA9FED4E2B9FED4F1BFFF7C4FDBB
:101B8000B0EE40AAF0EE60AA51EC1A0B04F0B1FEE0
:101B900001B2424801810146B1F9040004F098FE07
:101BA00041EC100BB0EE40BAF0EE60BA9FED402B66
:101BB0009FED411BFFF710FDB0EE40AAF0EE60AACA
:101BC00051EC1A0B04F095FE01B23448418100BF7C
:101BD000EAE610B504460120FFF7E0FE2F48B0F911
:101BE0000A0003EE100AB8EEC33AF0EE432A2B487F
:101BF000B0F9080003EE100AB8EEC33AB0EE432A7B
:101C00002648B0F9060003EE100AB8EEC33AF0EE2B
:101C1000431A224890ED113AB0EE431A90ED103A73
:101C2000F0EE430A90ED0F3AB0EE430AFFF7F2F9F7
:101C300010BD00B52DED108B89B0B0EE40BAF0EEBE
:101C400060BAB0EE418AF0EE618AB0EE429AF0EEF0
:101C5000629A8DED069B8DED048B194890ED000B7B
:101C6000B0EE40CAF0EE60CA90ED000BB0EE40CA94
:101C7000F0EE60CA9DED048B53EC182B114890EDEB
:101C8000000B51EC100B04F09BFC41EC100B1BE023
:101C90003800002040000020A00200201002002098
:101CA000BC0200203500002000000000E4A40B3A34
:101CB00000000000000018407B14AE47E17A943F1A
:101CC0006800002070000020B0EE40AAF0EE60AA8C
:101CD0009DED069B53EC192B51EC1A0B04F070FC94
:101CE00041EC100BB0EE40FAF0EE60FA53EC1F2B13
:101CF00051EC1A0B04F07DFD41EC100BB0EE40EA04
:101D0000F0EE60EA53EC1C2B51EC1B0B04F0F9FCD9
:101D100041EC100BB0EE40FAF0EE60FA53EC1E2BE3
:101D200051EC1F0B04F0F3FC41EC100B8DED000B9C
:101D300053EC1C2B9DED000B51EC100B04F040FC00
:101D400041EC100BB0EE40DAF0EE60DA53EC1E2BF3
:101D50009FED120B51EC100B04F0D3FC41EC100B77
:101D6000B0EE40FAF0EE60FA53EC1A2B51EC1F0B78
:101D700004F0CDFC41EC100B8DED020B9DED020B40
:101D8000084880ED000B084880ED00DBB0EE4D0AFE
:101D9000F0EE6D0A09B0BDEC108B00BD0000000034
:101DA0000000F03F700000206800002010B50146E0
:101DB00000224B8AFC4C2488A3420DD1FA4B1B888D
:101DC00053B1FA4B1B685B1CF84C236023461B681D
:101DD000782B08D9012206E00023F44C236000226E
:101DE0004B8AF14C23804B8A1BB112B90023F04C73
:101DF0002370F04B9B7883B9EE4B1B786BB9ED4B9E
:101E00005B7853B9EB4B1B7803800023EA4C2370BB
:101E1000EA4C2370EA4C237010BDE64B9B78002BF4
:101E200064D0E34B1B78002B55D1002A53D08B7C18
:101E300013F0400F20D08B7C13F0800F1CD0DE4BB2
:101E40001B7853B90123DB4C2370DB4C2370002338
:101E5000DA4C2370DA4C23700AE01723D54C237038
:101E60000023D54C23700123D44C2370D44C237011
:101E70000123CF4C23702EE08B7C13F0400F13D046
:101E8000CE4B1B7833B90223CA4C23700123CB4CB1
:101E9000237005E01523C74C23700023C74C237023
:101EA0000123C34C237016E08B7C13F0800F12D0FB
:101EB000C34B1B7833B90323BE4C23700123C04CA2
:101EC000237005E01623BB4C23700023BC4C237009
:101ED0000123B74C2370B74B1B7803800378038032
:101EE000038843F430431BB203805BE1B14B5B7862
:101EF000002BFAD0AE4B1B78F3B9EAB18B7C13F010
:101F0000400F19D0AB4B5B7AB3B1AC4B1B785BB9CC
:101F10000123AA4C23700023A64C63720123237271
:101F20000023A84C236007E00023A44C2370012366
:101F3000A04C6372002323729E4BDB79002B77D079
:101F4000B3EE040AA04B83ED000AA04B1B78DBBB69
:101F50009F4B1B782BB99F4B5B7813B901239C4C8B
:101F600023709B4B1B786BB19A4B5B78032B09D189
:101F70000223904C23700123974C23700023944C30
:101F80002370F8E0944B1B786BB1924B5B780F2B6E
:101F900009D10323874C23700123904C2370002325
:101FA0008D4C2370E7E08D4B1B78002BE9D0894BDB
:101FB0005B783F2BE5D101237E4C2370834C23704B
:101FC0000023864C2370D6E0FFE7804B1B78002B64
:101FD000D7D0804B5B78032B06D10223754C23703E
:101FE00001237D4C2370C6E07B4B1B7853B1794BAA
:101FF0005B780F2B06D103236E4C23700123774CA3
:102000002370B8E0754B1B78002BBAD0714B5B780E
:102010003F2BB6D10123674C23700023E3710123CA
:1020200063729FED6F0A684B83ED000AA3E0FFE740
:10203000604B1B7A002BA4D0BBEE040A624B83EDED
:10204000000A654B1B788BB3624B5B784BB95D4BD9
:102050001B685B1C5B4C23609FED610A5A4B83ED50
:10206000000A5D4B1B7893B1584B1B787BB15B4BDF
:102070001B7863B1574B5B784BB9524B1B68C82B2D
:1020800005D917234B4C237000234E4C2360514B32
:102090005B78032B0BD11623464C237000234B4C4B
:1020A00023704E4C2370474C236064E016E0474B8E
:1020B0001B7893BB494B1B787BBB464B5B7863BB60
:1020C00015233C4C23700123404C2370434C237058
:1020D0000023414C23703B4C23604CE03E4B1B786B
:1020E000DBB93C4B5B7823B9364B1B685B1C354C2A
:1020F0002360364B1B788BB1384B1B7873B1354B53
:102100005B785BB92F4B1B68B3F57A7F06D9172331
:10211000284C237000232B4C23602CE02B4B1B7886
:102120008BB12E4B1B7873B12A4B5B78032B0AD1F2
:102130001623204C23700023244C2370274C23703B
:10214000204C236017E0214B1B78A3B9234B1B784D
:102150008BB9204B5B7873B91523164C2370194B40
:102160001B68B3F57A7F06D9002323729FED1C0A02
:10217000154B83ED000A0F4BDB794BB90D4B1B7AE6
:1021800033B90C4B5B7A1BB900230A4C6370237084
:10219000084B1B78038003780380038843F42043B3
:1021A0001BB2038000BF37E6980000209C0000208F
:1021B00097000020240600209600002094000020B4
:1021C00095000020A000002064050020A60000204B
:1021D000A700002078010020A4000020A500002016
:1021E00000000000634890ED110ADFED630A20EE65
:1021F000200A624880ED0A0A90ED0A0AB5EEC00A8C
:10220000F1EE10FA02DD90ED0A0A04E05B4890ED71
:102210000A0AB1EE400AF0EE080AB4EEE00AF1EE66
:1022200010FA04D21FED120A544880ED0A0A5348EE
:1022300090ED0A0ADFED520A80EE201A90ED090AAD
:1022400031EE000A80ED090A704770B5044694F932
:102250000000401C062870D2DFE800F08721030E42
:102260002F5A00F0BFFC30B100F080FC022020703B
:102270000120444908607AE0404A4349A01C00F02C
:10228000DDFA2070FFF7AEFF012000F048FDC5B277
:102290003E4B3F4A0121284600F00FFC67E0374AD9
:1022A0003949A01C00F0CAFA207036490878374B2B
:1022B000374A002100F001FC59E0304A3249A01CA5
:1022C00000F0BCFA3348407858B92F48FFF76EFD4C
:1022D00005462B462E4A0321012000F0EEFB02208A
:1022E0002070FFF77FFF2848FFF760FD05462B466B
:1022F000274A0321012000F0E0FB012000F00FFD40
:10230000C5B2224B224A0121284600F0D6FB2EE01E
:102310001A4A1D49A01C00F091FA1E48807868B93D
:102320001948FFF743FD05462B46194A03210120B2
:1023300000F0C3FB0220207016E017E0FFF752FF09
:102340001148FFF733FD05462B46114A03210120B2
:1023500000F0B3FB012000F0E2FCC5B20B4B0C4ACD
:102360000121284600F0A9FB01E000E000BF00BF0A
:10237000012070BD10020020333365426405002047
:1023800000007A448C000020940300205C050020AB
:102390006C0300202406002010B52DED048B0446AC
:1023A000206910B9FC48406B2060FB48406B2168F5
:1023B000401A00EE100AB8EE400ADFEDF80A80EE8F
:1023C000201A84ED021A94ED020AF1EE040AB4EE2A
:1023D000E00AF1EE10FA04DDB7EE000A84ED030A1C
:1023E00020E094ED020AB1EE400A10EE101A084601
:1023F00004F09EFA41EC100BB0EE409AF0EE609AB9
:1024000005F07AF8B0EE408AF0EE608A51EC180BD5
:1024100004F0A1FA00EE100AF7EE000A30EEC00A4E
:1024200084ED030A94ED030ABDEC048B10BD70B576
:1024300005460C46A87C10F0010F20D0D64890F835
:10244000300010F0010F03D00120D349086102E0F1
:102450000020D1490861D048FFF79EFFD048B0F96D
:10246000000000EE900AF8EEE00A20EE200ABDEE31
:10247000C00A10EE100A00B2C94988802AE0A87C80
:1024800010F0020F21D0C44890F8300010F0020F75
:1024900003D00120C049086102E00020BE49086164
:1024A000BD48FFF779FFBE48B0F90000404200EE9A
:1024B000900AF8EEE00A20EE200ABDEEC00A10EE07
:1024C000100A00B2B649888004E00020B449888030
:1024D000B1490861A87C10F0040F21D0AE4890F8F3
:1024E000300010F0040F03D00121AB48816202E0FC
:1024F0000021A9488162A8481830FFF74DFFA8487D
:10250000B0F9020000EE900AF8EEE00A20EE200A90
:10251000BDEEC00A10EE100A00B2A149C8802CE03E
:10252000A87C10F0080F22D09B4890F8300010F0E3
:10253000080F03D001219848816202E000219648EB
:10254000816295481830FFF727FF9548B0F90200DF
:10255000404200EE900AF8EEE00A20EE200ABDEEBE
:10256000C00A10EE100A00B28D49C88005E00020B4
:102570008B49C880002188488162688A864908633F
:102580008748B0F9040000EE100AB8EEC00A84EDE6
:10259000000A8348B0F9060000EE100AB8EEC00A3F
:1025A00084ED010AB5F90A00002817DD94ED090A47
:1025B000DFED7C0AB4EEE00AF1EE10FA29D294EDD8
:1025C000050AB5F90A0000EE900AF8EEE00A9FED60
:1025D000761A00EE810A84ED080A1AE0B5F90A00BD
:1025E000002816DA94ED090ADFED700AB4EEE00A6D
:1025F000F1EE10FA0DDD94ED050AB5F90A0000EED2
:10260000900AF8EEE00A9FED681A00EE810A84ED68
:10261000080A94ED080A84ED050A012070BD70B522
:1026200004460D466088A0F58060002803DD6088C0
:10263000A0F5806002E06088C0F58060642836DD27
:102640000120554908616088A0F58060642813DD89
:102650000846FFF7A1FE5248B0F9000000EE900ACC
:10266000F8EEE00A20EE200ABDEEC00A10EE100AD5
:1026700000B24B49888022E06088A0F5806010F1AC
:10268000640F1CDA4448FFF787FE4548B0F90000A4
:10269000404200EE900AF8EEE00A20EE200ABDEE7D
:1026A000C00A10EE100A00B23D49888007E0002001
:1026B000394908613A4988803748FFF76DFE20881C
:1026C000A0F58060002803DD2088A0F5806002E08E
:1026D0002088C0F58060642838DD01212E488162A1
:1026E0002088A0F58060642815DD2B481830FFF79E
:1026F00053FE2B48B0F90200404200EE900AF8EE7B
:10270000E00A20EE200ABDEEC00A10EE100A00B268
:102710002349C88024E02088A0F5806010F1640F70
:102720001EDA1D481830FFF737FE1D48B0F90200C9
:1027300000EE900AF8EEE00A20EE200ABDEEC00A94
:1027400010EE100A00B21649C88009E000211248B4
:10275000816200201249C8800F481830FFF71CFE24
:102760000F48B0F9040000EE100AB8EEC00A85ED7B
:10277000000A0B48B0F9060000EE100AB8EEC00AD5
:1027800085ED010AA088C0F58060002810DDA088D2
:10279000C0F580600FE00000340300200000C84254
:1027A000A8000020000020420AD7A33B000020C25E
:1027B000A088A0F58060322804DA9FEDE00A85ED5C
:1027C000080A0CE0A088C0F5806000EE100AB8EEA0
:1027D000C00ADFEDDB0A20EE200A85ED080AD5ED00
:1027E000080AB0EE600ADFEDD70A0120FEF776F89E
:1027F00085ED080A95ED050AD5ED080A30EE200AA8
:1028000085ED050AD0480068052810DD95ED050A1C
:10281000D5ED070AB4EE600AF1EE10FA02D00121FC
:10282000297601E0002129760020C7490860C648C2
:102830000068401CC4490860012070BD70B50546A1
:102840000C461646C148406B401CC0494863207A7C
:10285000012862D0022811D0032864D101202870F9
:102860000020BB49087031462046FFF7D8FE607A49
:102870000022B84900F0BAFA022070BD002028708A
:1028800031462046FFF7D3FD608A30B1B0F5807F36
:1028900007D0B0F5907F38D119E00020AE4908701C
:1028A00038E0AD48007888B9A948407820B10020C8
:1028B000A7494870087004E00120A54948700870D5
:1028C000C8710120A44908700320D6E722E0A2487D
:1028D0000078C8B99E48807820B100209C49887053
:1028E00008700CE09A48407828B100209849487058
:1028F0000120887003E0012095498870087001204C
:10290000954908700420B8E704E000209249087057
:102910000220B2E700BF0220AFE7012028700020AC
:102920008B490870A9E70220A7E7014608784A7892
:1029300040EA0220C0F30A00884A10804878C0109C
:102940008A7840EA4210C0F30A00844A50808878AE
:102950008011CA7840EA82000A7940EA8220C0F3F6
:102960000A007E4A9080087940104A7940EAC210F5
:10297000C0F30A00794AD0804879001180081072AB
:102980004879C0F3011050728879CA7940EA022070
:10299000404200B2714A5081087A4A7A40EA0220E5
:1029A00002B26E488281887ACA7A40EA022002B274
:1029B0006A48C2810A7B02744A7B4274887BCA7B64
:1029C00040EA0220654A50820120704770B50346F4
:1029D000002033B1012B1ED0022B3CD0032B69D138
:1029E00059E0002014E04FF400740C6000240C72D5
:1029F0004C7208248C72002505EB400601F10B0493
:102A0000A555012404EB400601F10B04A555401C1B
:102A10000428E8DB4FE04FF400740C6000240C72D3
:102A20004C7208248C72002012E032F81040C4F37B
:102A30000725002404EB400601F10B04A55512F80C
:102A40001050012404EB400601F10B04A555401C75
:102A50000428EADB2FE040F2FF140C6000240C7223
:102A60004C7208248C72002012E032F81040C4F33B
:102A70000725002404EB400601F10B04A55512F8CC
:102A80001050012404EB400601F10B04A555401C35
:102A90000228EADB0FE006240C6000240C724C7262
:102AA00008248C72AB24CC7215780D731488250A17
:102AB0004D7300E000BF00BF70BD2DE9F047054633
:102AC0000E461746984615B90020BDE8F0874246E5
:102AD00039463046FFF77AFF3946214801F02CFA93
:102AE0008146002401E0601C04B249461C4801F004
:102AF000BBFA012801D0FF2CF5DB0120E5E770B51A
:102B0000054602201749086017480078C8720DB9B9
:102B1000002070BD1349124801F00EFA0646002449
:102B200001E0601C04B231460D4801F09DFA012815
:102B300001D0FF2CF5DB0120EBE7000000000000D6
:102B400017B7D139CDCC4C3EB4000020340300205F
:102B50002406002040060020B2000020940300203C
:102B600000680040A8030020B000002010B51C221F
:102B700019491A4803F012FD1C2219491748483810
:102B800003F00CFD012010BD10B504460CB9002067
:102B900010BD12486C38B0F98820D0ED230AB0EE91
:102BA000600A00F148016C3000F0D4F90B496C392F
:102BB000A1F890000846B0F98820D0ED110AB0EED7
:102BC000600A48316C3000F0C5F904496C39A1F84D
:102BD00092000120DCE70000D80000203C04002027
:102BE000BC00002010B51C22CA49CB4803F0D6FC1B
:102BF000B3EE030AC84880ED310A9FEDC80A80EDA4
:102C0000300A9FEDC70AC74880ED030A9FEDC60A48
:102C100080ED040A1C22C549543003F0BFFC1C227D
:102C2000C349C048943003F0B9FC4FF48060C149F7
:102C3000088048808880C880012010BD70B5054696
:102C40000C4694ED000AB1EE400AD4ED010A30EED4
:102C5000200AD4ED030A20EE200AD4ED040A94EDF4
:102C6000021A00EE810A85ED3A0A94ED000AD4EDCD
:102C7000010A30EE200AD4ED030A20EE200AD4ED3A
:102C8000040A94ED021A00EE810A85ED3B0A94EDE8
:102C9000000AD4ED010A30EE600AD4ED030A20EEFA
:102CA000200AD4ED040A94ED021A00EE810A85EDA3
:102CB0003C0A94ED000AB1EE400AD4ED010A30EE70
:102CC000600AD4ED030A20EE200AD4ED040A94ED44
:102CD000021A00EE810A85ED3D0A00261BE005F18F
:102CE000E80000EB860090ED001AD5ED311A21EED8
:102CF000211AB0EE410A95ED301AF0EE410A01209A
:102D0000FDF7ECFDB1EE400A05F1D80000EB8600BE
:102D100080ED000A761C042EE1DB012070BD70B549
:102D200005460DB9002070BD7E48D0ED090AFDEEC4
:102D3000E00A10EE900A02B27A48D0ED050AB0EE31
:102D4000600A00F13001543000F004F97548D0ED0C
:102D50000A0AFDEEE00A10EE900A02B27148D0EDC8
:102D6000140AB0EE600A00F17001943000F0F2F83D
:102D700000EE100AB8EEC00A6A4880ED020A90ED33
:102D8000050A80ED070A01466348FFF757FF002454
:102D900022E06148AC3030F9140000EE900AF8EE01
:102DA000E00AFDEEE00A10EE900A02B25A48D8306E
:102DB00000EB8400D0ED000AB0EE600A04EBC4031F
:102DC00055481C3000EB83011C3800F0C3F8524911
:102DD000F83121F81400641C042CDADB4E4890ED25
:102DE000080A554880ED040A01209CE770B52DEDD6
:102DF000048B06460C461546012E16D04F48007827
:102E000078B100204D4908709FED4D0A454880ED8E
:102E1000020A9FED4B0A80ED050A9FED490A80EDFD
:102E2000090A0020BDEC048B70BD207800285ED01C
:102E3000D4ED018A94ED029A94ED030AB5EEC00A2E
:102E4000F1EE10FA02DD94ED030A03E094ED030ABB
:102E5000B1EE400AF6EE000AB4EEE00AF1EE10FA26
:102E600002D29FED378A05E094ED030ADFED350AC3
:102E700080EE208A2B4890ED050A30EE080A80ED9E
:102E8000050A314850F8350000EE100AB8EEC00AC5
:102E900038EEC00AF2EE040A80EE201AF0EE419AF3
:102EA000DFED2A0AB0EE690A0120FDF717FD1D4883
:102EB00080ED000A244800EBC50090ED010AB8EE51
:102EC000C00A39EE400AF2EE040A80EE201AF0EE53
:102ED000419ADFED1F0AB0EE690A0120FDF7FEFC02
:102EE000104880ED010A0120144908709AE79FED0F
:102EF000140A0C4880ED020A9FED110A80ED050AC4
:102F00009FED0F0A80ED090A01200C490870801E10
:102F100088E70000F80000206404002000C0DA45C3
:102F20006666E63F640500209A99993F30010020CB
:102F30001401002094030020E80100204C0100202F
:102F40000000000000002043447A000800004843CD
:102F50000000164370B52DED028B05460C46B0EE11
:102F6000408A164694ED000AF0EE408A84ED008A0D
:102F700000EE106AB8EEC00A84ED010A00EE106A95
:102F8000B8EEC00A38EE400A84ED030A287E18B96C
:102F90000020BDEC028B70BD287E062876D2DFE8CB
:102FA00000F08D0304054F5889E088E094ED000A95
:102FB000B5EEC00AF1EE10FA18D194ED030AB5EEA1
:102FC000C00AF1EE10FA02DD94ED030A03E094ED7D
:102FD000030AB1EE400ADFED6B0AB4EEE00AF1EE4F
:102FE00010FA03D29FED680A84ED030A94ED030AF8
:102FF000B5EEC00AF1EE10FA02DD94ED030A03E02B
:1030000094ED030AB1EE400ADFED600AB4EEE00A87
:10301000F1EE10FA09D294ED000AB5EEC00AF1EE15
:1030200010FA02D00120287309E0002028739FEDD8
:10303000560A84ED050A9FED540A84ED060A3EE027
:1030400094ED030ADFED520A20EE200A84ED030A14
:1030500035E094ED030AB5EEC00AF1EE10FA02DD98
:1030600094ED030A03E094ED030AB1EE400AF6EE94
:10307000000AB4EEE00AF1EE10FA08D24548007EEC
:1030800028B99FED410A84ED030A16E016E0D4ED5D
:10309000030AB0EE600ADFED3B0A0120FDF71EFCDB
:1030A00084ED030AD4ED030AB0EE600A3A4B3B4AC2
:1030B00005210120FDF72DFC01E000E000BF00BF6D
:1030C00095ED000AD4ED030A20EE200A84ED020AF1
:1030D00094ED020A84ED080A287B20B394ED050ADA
:1030E000D4ED030A30EE200A84ED050A94ED050ABA
:1030F000D5ED010A20EE200A84ED060A95ED041AAA
:10310000F0EE410A94ED061AB0EE410A287BFDF775
:10311000E5FB84ED060A94ED080AD4ED060A30EECC
:10312000200A84ED080A687BB8B194ED030AD4ED57
:10313000040A30EE600AD5ED020A20EE200A84ED82
:10314000070A94ED030A84ED040A94ED020AD4ED13
:10315000070A30EE200A84ED080A95ED051AF0EE14
:10316000410A94ED081AB0EE410A287EFDF7B6FB3D
:1031700084ED080A94ED080ABDEEC00A10EE100AAC
:1031800000B206E7000020420000000000004844B2
:10319000CDCCCC3D6405002050010020640100200E
:1031A00000B597B00121F74802F080F801214804EA
:1031B00002F0C5F802208DF8480000208DF84A0082
:1031C00001208DF84B0003208DF849000420119058
:1031D00011A9ED4801F0CCFD0820119011A9EA4891
:1031E00001F0C6FD07220221E74801F04CFE07224C
:1031F0000321E54801F047FE4FF4E1301390002031
:10320000ADF85000ADF85200ADF854000C20ADF808
:1032100056000020ADF8580013A9DC4801F057FA19
:1032200001224021D94801F087FB01228021D748A3
:1032300001F082FB0121D54801F0D1FAD44802F017
:10324000DBFF4FF000600190D048001D0290D14894
:1032500003900020049050200590002006904FF429
:10326000806007900020089009904FF480700A90C9
:103270004FF440300B9000200C900D900E900F906A
:1032800001A9C34803F05AF8C148183002F0B4FF4E
:103290004FF000600190BD48001D0290BE480390B1
:1032A0004020049019200590002006904FF4806083
:1032B00007900020089009900A904FF440300B903E
:1032C00000200C9001200D9000200E900F9001A97D
:1032D000AF48183003F032F826208DF84000012066
:1032E0008DF841008DF842008DF8430010A800F0E1
:1032F00024FC11208DF8400002208DF841008DF84B
:10330000420001208DF8430010A800F016FC0122B5
:1033100040F224419D4801F018FB012210219C48F5
:10332000183003F0D1F80121994803F041F8012148
:103330009748183003F03CF801224021934801F0EF
:10334000FBFA01228021914801F0F6FA01218F4811
:1033500001F045FA17B000BD00B597B001218948CA
:10336000401C01F0A3FF0121880401F0E8FF0220C6
:103370008DF8480000208DF84A0001208DF84B00A0
:1033800003208DF849004FF48060119011A9834803
:1033900001F0EEFC4FF40060119011A97F4801F09C
:1033A000E7FC07220A217D4801F06DFD07220B2171
:1033B0007A4801F068FD4FF4E13013900020ADF839
:1033C0005000ADF85200ADF854000C20ADF8560096
:1033D0000020ADF8580013A9714801F078F90122D6
:1033E00040216F4801F0A8FA012280216C4801F0C9
:1033F000A3FA01216A4801F0F2F96548603802F049
:10340000FBFE4FF0006001906548001D029065488A
:103410000390002004900E200590002006904FF4A9
:10342000806007900020089009904FF480700A9007
:103430004FF440300B9000200C900D900E900F90A8
:1034400001A95348603802F079FF27208DF8400029
:1034500000208DF841008DF8420001208DF84300D6
:1034600010A800F06AFB012240F224414C4801F010
:103470006CFA01214648603802F09AFF012240218F
:10348000474801F059FA0121454801F0A8F917B061
:1034900000BD10B544493E48183002F0E6FF60B167
:1034A00041493B48183002F0FBFF002138481830F2
:1034B00002F07EFF00203D49087010BD70B5044643
:1034C0000D4600BF394800780028FBD1012037495C
:1034D00008702A462146304803F060F829462C48F7
:1034E000183002F086FF01212948183002F060FFF1
:1034F00070BD70B588B0054600240026AA208DF85E
:1035000000008DF80100F1208DF8020014208DF8E4
:10351000030000BF23E005EB8400C178002000EB2E
:103520008400001D0DF8001005EB84008178012057
:1035300000EB8400001D0DF8001005EB84004178BD
:10354000022000EB8400001D0DF8001015F8241077
:10355000032000EB8400001D0DF80010641C052CF6
:10356000D9DB002404E01DF804003044C6B2641C1A
:10357000182CF8DB8DF8186019216846FFF79EFFBC
:1035800008B070BD0100200000000240004400406F
:103590008860024050060020DE0600200004024041
:1035A000004800403006002000002020800100205C
:1035B00070B588B005460026AA208DF800008DF869
:1035C0000100EF208DF8020002208DF8030010208A
:1035D0008DF80400E8B28DF80500002405E01DF820
:1035E0000400304486B2601C84B2062CF7DBF0B2D3
:1035F0008DF8060007216846FFF760FF08B070BD30
:1036000010B5002440F22441F84801F0D9F900280F
:1036100053D0F6480088F548001D0088F44802F0B1
:103620000AFF002849D10021F14802F0C1FEF0480C
:1036300002F0E1FEC0F10E00EE4908600E20EC49F8
:103640002839C8620121EA4802F0B2FEEA4800784F
:10365000AB2832D1E848407BE8490870E64840781A
:103660000871E5488178E5484171E348C178E3484D
:103670008171E1480179E148C171DF484079DF4952
:103680000872DD488179DD484172DB48C179DB4849
:103690008172D948017AD948C172D748407AD7494E
:1036A0000873D548817AD5484173D348C17AD34845
:1036B0008173D148017BD148C17310BD10B500247E
:1036C00040F22441CE4801F07BF900287ED0CC485E
:1036D0000088CB48001D0088C548603002F0ABFE72
:1036E000002873D10021C248603002F061FEC0485A
:1036F000603002F080FEC0F15000C24908605020E6
:10370000C14908604FF00101C04802F051FEC048B5
:103710000078A528E5D1BE484079012806D00228C6
:1037200064D0032876D004285FD1C0E0B848C079BF
:10373000B749097A00EB0120B549497A00EB01400D
:10374000B349897A00EB0160B2490880B048C07A79
:10375000AF49097B00EB0120AE494880AC48407B73
:10376000AD490870AA48807B4870A948C07B887022
:10377000A748007CC870084690ED000AA54880ED77
:10378000010AA348407CA5490870A148807C487084
:103790009F48C07C88709E48007DC870084690EDA8
:1037A000000A9C4880ED020A90ED010AD0ED020A61
:1037B00020EE200A80ED030A954890F826009849EB
:1037C0000870934890F82700487000E0D1E09048D6
:1037D00090F8280088708E4890F82900C870084634
:1037E00090ED000A8B4880ED050AC1E08848C07959
:1037F00000098C4948708648C07900F00F000870B5
:103800008348007A8249497A00EB01208549488043
:10381000AEE0FFE77E48C079834908707C48007AB3
:1038200048707B48407A88707948807AC87008462A
:1038300090ED000A7D4880ED000A7548C07A7C4909
:1038400008707348007B48707148407B88707048EE
:10385000807BC870084690ED000A744880ED010A2C
:103860006B48C07B734908706948007C48706848A1
:10387000407C88706648807CC870084690ED000ADD
:103880006A4880ED020A6248C07C6B490870604853
:10389000007D48705E48407D88705D48807DC870BE
:1038A000084690ED000A614880ED030A60E0584840
:1038B000C07900F00100614908705548C079C0F333
:1038C000800048705248C079C0F30010887050489A
:1038D000C0798009C8704E48007A00F0070008716E
:1038E0004B48007AC0F3021048714948407A00F012
:1038F000070088714648407AC0F30210C8714448F6
:10390000807A00F0070008724148807AC0F3021004
:1039100048723F48C07A00F0070088723C48C07A7D
:10392000C0F30210C8723A48007B00F0010008732F
:103930003748007BC0F3001048733548407BC8818E
:103940003348807B0002C8813148C07B0882304800
:10395000007C000208822E48407C00F0070088743A
:103960002B48407CC0F30210C8742948807C08753D
:1039700000BF10BD30B5034613B94FF6FF7030BD20
:1039800009E013F8014B82EA0400C0B22C4D35F86F
:10399000100080EA22220800A1F10101F1D11046B5
:1039A000EDE770B505460C4600260DB1022C00D897
:1039B00070BDA11E234802882846FFF7DBFF06469C
:1039C000A01E2E54310A601E295400BFF0E730B506
:1039D000034605E013F8010B80EA02041A48025D71
:1039E0000800A1F10101F5D1104630BD00480040AA
:1039F0002860024090010020300600204006002090
:103A000000440040940100208C6002408860024025
:103A100050060020A0060020A0010020A4010020E4
:103A2000AC01002098010020B0010020B806002061
:103A3000B4010020B8010020BC010020C80600200D
:103A4000867B00088C010020857A000870B5054649
:103A50000C4600260DB1022C00D870BD611EFF225D
:103A60002846FFF7B4FF0646601E2E5400BFF4E759
:103A700010B50446A52020700C2060700020A070B6
:103A80000420E07005212046FFF7E0FF052060716B
:103A90000020A07115212046FFF783FF10BD70B5EF
:103AA00005460C4600260DB1022C01D8002070BD41
:103AB000611EFF222846FFF78AFF0646601E285C2B
:103AC000B04201D10120F2E70020F0E770B50546D1
:103AD0000C4600260DB1022C01D8002070BDA11E9D
:103AE000094802882846FFF745FF0646F1B2A01EA6
:103AF000285C814206D1601E285CB0EB162F01D1F4
:103B00000120EBE70020E9E78C0100200648804710
:103B100006480047FEE7FEE7FEE7FEE7FEE7FEE7B2
:103B2000FEE7FEE7FEE7FEE72F4B000889010008ED
:103B300033490143334A1160704770B500210023B7
:103B40000F22C47824B32F4C246804F4E064C4F535
:103B5000E064C4F30721C1F10404E3B20A414478EC
:103B60009C40E1B28478144021430C07210E264C7E
:103B700005786155047804F01F050124AC400578F0
:103B80006D114FF0E02606EB8505C5F8004109E010
:103B9000047804F01F040125A5401C4C067876111A
:103BA00044F8265070BD1A4A0A400243154B1B1FA9
:103BB0001A60704739B1134A121D12680243114B43
:103BC0001B1D1A6006E00F4A121D126882430D4B3E
:103BD0001B1D1A607047042808D14FF0E0210969C5
:103BE00041F004014FF0E022116107E04FF0E021C5
:103BF000096921F004014FF0E022116170470000D3
:103C00000000FA050CED00E000E400E080E100E0D7
:103C100080FFFF1F10B50446FE48844209D10121F0
:103C2000480601F0E1FB00214FF0007001F0DCFBE1
:103C300008E00121880601F0D7FB00214FF08060E9
:103C400001F0D2FB10BD30B50246002000231468FD
:103C500024F002041460146844F00104146000E0CD
:103C60005B1C546814F0010F03D1A3F57F44FF3CA3
:103C7000F6D1546814F0010F01D100206CE08C796A
:103C8000012C04D1146844F08004146003E014682B
:103C900024F080041460CC79012C04D1146844F021
:103CA0004004146003E0146824F0400414600C7AAB
:103CB000012C04D1146844F02004146003E014685B
:103CC00024F0200414604C7A012C04D1146844F0D0
:103CD0001004146003E0146824F0100414608C7A5B
:103CE000012C04D1146844F00804146003E0146843
:103CF00024F008041460CC7A012C04D1146844F038
:103D00000404146003E0146824F0040414608C7844
:103D1000A407CD7844EA05640D7944EA05444D7959
:103D200044EA05540D886D1E2C43D461146824F0B8
:103D300001041460002300E05B1C546814F0010FC0
:103D400003D0A3F57F44FF3CF6D1546814F0010F73
:103D500001D0002000E0012030BD10B50021837AA1
:103D6000012202FA03F1AC4A126842F00102AA4BA6
:103D70001A60A94A1C3212688A43A74B1C331A6086
:103D8000027BCAB9A44A0C3212688A43A24B0C3394
:103D90001A604288C38842EA03439F4A4032847AC9
:103DA00042F834300288838842EA03439A4A403218
:103DB000847A02EBC4025360027B012A19D1964A2D
:103DC0000C3212680A43944B0C331A604288038801
:103DD00042EA0343904A4032847A42F83430C2883F
:103DE000838842EA03438C4A4032847A02EBC4025D
:103DF0005360C27A3AB9884A121D12688A43864BC8
:103E00001B1D1A6006E0844A121D12680A43824B89
:103E10001B1D1A60028932B97F4A143212688A4324
:103E20007D4B14331A600289012A06D17A4A143272
:103E300012680A43784B14331A60427B012A06D178
:103E4000754A1C3212680A43734B1C331A60724A5B
:103E5000126822F00102704B1A6010BD00218171BE
:103E6000C171017241728172C1728170C17003218E
:103E70000171022141710121018070476649096881
:103E800041F00101644A11601146096843F60E725F
:103E90009143614A11601146096841EA00211160AD
:103EA0001146096821F001011160704721B10268D3
:103EB00042F48032026003E0026822F48032026041
:103EC0007047E1B1026842F0800202604FF4C272B2
:103ED000125842F480734FF4C27213504FF4CA72F6
:103EE000125842F480734FF4CA7213504FF4D272D6
:103EF000125842F480734FF4D27213501BE00268E0
:103F000022F0800202604FF4C272125822F48073D1
:103F10004FF4C27213504FF4CA72125822F48073D5
:103F20004FF4CA7213504FF4D272125822F48073B5
:103F30004FF4D2721350704710B5024600209368B8
:103F400003F08063B3F1806F00D110E0936803F059
:103F50000063B3F1006F01D1012008E0936803F022
:103F60008053B3F1805F01D1022000E004200428D7
:103F700079D002F5C07303EB00131B6803F0010452
:103F800002F5C07303EB00131C600B7A7BB94B7A0C
:103F90000C8843EA445302F5C07404EB001424680F
:103FA000234302F5C07404EB0014236010E00B7A85
:103FB0004C6843EAC4034C7A234302F5C07404EB13
:103FC00000142468234302F5C07404EB001423603A
:103FD0008B7A03F00F038B7202F5C07303EB0013AF
:103FE0005B6823F00F0402F5C07303EB00135C6001
:103FF00002F5C07303EB00135B688C7A234302F570
:10400000C07404EB001463608B7B1C064B7B44EA9A
:10401000034403E000640040006600400B7B44EA78
:104020000323CC7A234302F5C07404EB0014A3608D
:104030008B7C1C064B7C44EA03440B7C44EA032340
:10404000CC7B234302F5C07404EB0014E36002F55B
:10405000C07303EB00131B6843F0010402F5C07347
:1040600003EB00131C6010BD10B50246002321B104
:10407000012907D002290FD109E09068F84C00EA25
:1040800004030BE09068F74C00EA040306E0906834
:10409000F54C00EA040301E0002300BF00BFF34C2D
:1040A000181BA34216D007DC83B16FF0806018188C
:1040B0000ED0022818D111E0B0F5007F10D0EC4CE2
:1040C000001909D0B0F5003F0ED10BE002230DE03E
:1040D00000230BE0002309E0002307E0012305E0B3
:1040E000012303E0012301E0002300BF00BFD8B299
:1040F00010BD21B1012907D002290FD109E0826842
:1041000042F0800282600AE0826842F400428260EB
:1041100005E0826842F40002826000E000BF00BF58
:10412000704710B500F5D87303EB01131B6803F05B
:1041300004031372137A53B900F5D87303EB011318
:104140001B6840F2FF7404EA5353136009E000F562
:10415000D87303EB01131B686FF0604404EAD303C8
:10416000536000F5D87303EB01131B6803F00203DF
:10417000537200F5D87303EB01135B6803F00F0370
:10418000937200F5D87303EB01135B681B0AD374B9
:1041900000F5D87303EB01139B68D37200F5D87355
:1041A00003EB01139B681C0A147300F5D87303EB2F
:1041B00001139B681C0C547300F5D87303EB0113B7
:1041C0009B681B0E937300F5D87303EB0113DB6838
:1041D000D37300F5D87303EB0113DB681C0A147466
:1041E00000F5D87303EB0113DB681C0C547400F565
:1041F000D87303EB0113DB681B0E937421B9C368FA
:1042000043F02003C36003E0036943F0200303612C
:1042100010BD21B9C26842F02002C26003E0026909
:1042200042F02002026170470246002019B9D368AB
:1042300003F0030006E0012903D1136903F0030032
:1042400000E00020704710B502460B4600204FF6F4
:10425000FF71BBB9146824F0020444F00104146037
:1042600000E0491E546804F00304012C01D0002929
:10427000F7D1546804F00304012C01D0002032E08F
:10428000012030E0012B13D1146824F003041460E2
:1042900000E0491E546814F0030F01D00029F8D142
:1042A000546814F0030F01D000201CE001201AE034
:1042B000022B17D1146824F0010444F002041460A6
:1042C00000E0491E546804F00304022C01D00029C8
:1042D000F7D1546804F00304022C01D0002002E05E
:1042E000012000E0002010BD014600200A6822F0F5
:1042F000010242F002020A604A6802F00302022A46
:1043000000D10120704701464FF6FF7200200B6874
:1043100023F002030B6000E0521E4B6803F002031F
:10432000022B01D1002AF7D14B6803F00203022BC4
:1043300000D001207047014600208A6902F0700019
:104340007047014600208A69100E70470146002020
:104350008A69C2F3074070471AB143690B4343614E
:1043600002E043698B434361704710B50246002069
:1043700011F4700F08D09369C1F31304234201D0E4
:1043800001202DE000202BE011F0807F08D0536841
:10439000C1F31304234201D0012021E000201FE0DB
:1043A00011F0006F08D09368C1F31304234201D0C9
:1043B000012015E0002013E011F0007F08D0D36841
:1043C000C1F31304234201D0012009E0002007E0DB
:1043D0001369C1F31304234201D0012000E000203F
:1043E00010BD0022234B994202D10023836111E0CA
:1043F000C1F3130211F0007F01D0C2600AE011F096
:10440000806F01D0026105E011F0006F01D0826081
:1044100000E042607047024600200A4201D00120BD
:1044200000E00020704770B504460D460026606924
:10443000284272D0B5F5807F69D01DDC082D42D0AE
:1044400006DC012D2DD0022D31D0042D7FD134E09A
:10445000102D3ED0202D42D0402D78D145E00000D7
:10446000030000040003000800000310000100081E
:104470000001FFF77000F030B5F5004F61D009DCA6
:10448000B5F5007F4AD0B5F5806F4DD0B5F5006F1A
:104490005DD150E0B5F5803F2DD0B5F5003F56D148
:1044A0002FE0A0685549FFF7B6FF064651E0E068E7
:1044B0000321FFF7B0FF06464BE0E0680821FFF755
:1044C000AAFF064645E0E0681021FFF7A4FF064674
:1044D0003FE020690321FFF79EFF064639E020698F
:1044E0000821FFF798FF064633E020691021FFF707
:1044F00092FF06462DE060680821FFF78CFF064614
:1045000027E060681021FFF786FF064621E0A069DA
:104510000121FFF780FF06461BE01BE0A069022196
:10452000FFF779FF064614E0A0690421FFF773FF47
:1045300006460EE00BE0A0697021FFF76CFF06460F
:1045400007E060680421FFF766FF064601E00026E9
:1045500000BF00E00026304670BDB1F5007F3AD0C4
:104560000FDC202928D006DC01291CD004291DD00D
:10457000082940D11DE0402921D0B1F5807F3AD1F2
:1045800026E0B1F5004F31D006DCB1F5806F25D0C3
:10459000B1F5006F2FD124E0B1F5803F12D0B1F515
:1045A000003F28D111E0154A826025E00822C26050
:1045B00022E01022C2601FE0082202611CE01022EB
:1045C000026119E00822426016E01022426013E006
:1045D0000422426010E0042242600DE004224260A6
:1045E0000AE0002282610422426005E0002282612A
:1045F0000422426000E000BF00BF704701010100DB
:1046000010B50446FA48844208D10121102000F078
:10461000FCFE0021102000F0F8FE57E0F54884422F
:1046200009D10121480400F0DFFE00214FF40030E1
:1046300000F0DAFE4AE0F048844209D10121880402
:1046400000F0D2FE00214FF4802000F0CDFE3DE0CE
:10465000EA48844209D10121C80400F0C5FE0021C6
:104660004FF4002000F0C0FE30E0E548844209D15C
:104670000121080500F0B8FE00214FF4801000F081
:10468000B3FE23E0DF48844208D10121202000F05E
:10469000BCFE0021202000F0B8FE17E0DA4884427A
:1046A00009D10121880700F09FFE00214FF08040D2
:1046B00000F09AFE0AE0D548844207D10121400566
:1046C00000F092FE0021600500F08EFE10BD2DE985
:1046D000FF4705460E460024A14600BFA046B0890C
:1046E00000B100BF2C8A24F44054F08804432C828B
:1046F000AC8941F20C608443B088318908437189E8
:1047000008430443AC81AC8A24F44074B089044368
:10471000AC82684600F0F9FCB548854202D0B94841
:10472000854202D1DDF80C9001E0DDF80890A889FF
:1047300010F4004F08D009EBC90000EB09103168F4
:104740004900B0FBF1F707E009EBC90000EB0910E5
:1047500031688900B0FBF1F76420B7FBF0F0040189
:104760002009642101FB1078A88910F4004F08D0BB
:10477000322000EBC800B0FBF1F000F0070004436A
:1047800008E0322000EB08106421B0FBF1F000F0EB
:104790000F0004432C81BDE8FF874FF416510160E0
:1047A00000218180C18001810C2141810021818112
:1047B000704710B502460020108A20F470600B8804
:1047C0004C8823438C882343CC882343184310828E
:1047D00010BD0021018041808180C180704721B1DE
:1047E000828942F40052828104E082894DF6FF738F
:1047F0001A4082817047028B02F47F420283028B4F
:104800000A430283704721B1828942F400428281C7
:1048100003E08289C2F30E028281704721B1828A4D
:1048200042F40062828204E0828A4FF2FF731A40EF
:1048300082827047C1F308028280704701468888EF
:10484000C0F308007047028A4FF6F0731A400282E4
:10485000028A0A430282704721B1828942F0020231
:10486000828104E082894FF6FD731A40828170478D
:1048700082894FF2FF731A40828182890A438281C2
:104880007047028A4FF6DF731A400282028A0A4397
:104890000282704721B1028A42F48042028204E01F
:1048A000028A4BF6FF731A4002827047818941F0F9
:1048B00001018181704721B1828A42F0080282821F
:1048C00004E0828A4FF6F7731A4082827047028BA7
:1048D000D2B20283028B42EA01220283704721B1E5
:1048E000828A42F02002828204E0828A4FF6DF73DD
:1048F0001A408282704721B1828A42F0100282827D
:1049000004E0828A4FF6EF731A4082827047828AEF
:104910004FF6FB731A408282828A0A438282704772
:1049200021B1828A42F00202828204E0828A4FF63A
:10493000FD731A40828270471AB1838A0B438382C7
:1049400002E0838A8B4383827047F0B503460024DC
:10495000002600250020A1F510676A3F00D100BFA6
:104960001846C1F3421401F01F06012707FA06F5A5
:10497000012C01D10C3004E0022C01D1103000E0F8
:1049800014301AB107682F43076002E00768AF438D
:104990000760F0BD02460020B1F5007F00D100BFE6
:1049A00013880B4201D0012000E00020704701F481
:1049B0000072B2F5007F00D100BFCA430280704789
:1049C00070B502460024002300250020A1F51066E2
:1049D0006A3E00D100BFC1F3421501F01F0301265A
:1049E00006FA03F3012D13D19689334017E0000036
:1049F000001001400044004000480040004C0040CE
:104A0000005000400014014000780040007C00404D
:104A1000022D02D1168A334001E0968A33400C12EF
:104A2000012606FA04F41688344013B10CB10120B3
:104A300000E0002070BD10B500220023A1F5106435
:104A40006A3C00D100BF0A1201249440A3B2DC43A7
:104A5000048010BD0CB500200190009076480068DD
:104A600040F480307449086000BF7348006800F467
:104A7000003000900198401C0190009818B90198EE
:104A8000B0F5A04FF1D16C48006810F4003F02D09F
:104A90000120009001E0002000900098012845D1FD
:104AA00065484030006840F08050634940310860FC
:104AB0006248006840F44040604908605E48083041
:104AC00000685D49083108600846006840F400400D
:104AD00008600846006840F4A05008605848091F64
:104AE0000860081F006840F08070091F086000BF60
:104AF0005148006810F0007FFAD040F2057051492B
:104B000008604D480830006820F003004A49083129
:104B100008600846006840F00200086000BF464890
:104B20000830006800F00C000828F8D10CBD70B502
:104B3000012401254448006840F47000424908609F
:104B40003D48006840F001003B49086000203A49B8
:104B500008310860384800683C4908403649086018
:104B60003B48091D0860081F006820F48020091FC9
:104B70000860002030490C310860FFF76BFFE00649
:104B800031498039086070BD70B5002000220223D1
:104B900000240221284D08352D6805F00C0020B1B5
:104BA000042806D0082834D107E02A4D2A4E356063
:104BB00033E02A4D284E35602FE01F4D2D1D2D6806
:104BC000C5F380541C4D2D1D2D6805F03F0154B1D7
:104BD000224DB5FBF1F5184E361D3668C6F3881622
:104BE00005FB06F209E01B4DB5FBF1F5124E361D33
:104BF0003668C6F3881605FB06F20F4D2D1D2D688D
:104C0000C5F301456D1C6B00B2FBF3F5124E356028
:104C100003E0104D104E356000BF00BF064D083553
:104C20002D68C5F303150E4E705D0B4D2D68C54004
:104C3000094E356070BD0000003802400070004031
:104C400008544007003C024088ED00E0FFFFF6FEFC
:104C5000103000240024F400C001002000127A006B
:104C6000C401002010B504469848844208D10121AF
:104C7000084600F086FB0021012000F082FB76E070
:104C80009348844208D10121022000F07AFB0021E0
:104C9000022000F076FB6AE08E48844208D10121B0
:104CA000042000F06EFB0021042000F06AFB5EE0AF
:104CB0008948844208D10121082000F062FB0021CC
:104CC000082000F05EFB52E08448844208D10121B4
:104CD000102000F056FB0021102000F052FB46E0AF
:104CE0007F48844208D10121202000F04AFB0021A6
:104CF000202000F046FB3AE07A48844208D10121A6
:104D0000402000F03EFB0021402000F03AFB2EE066
:104D10007548844208D10121802000F032FB002137
:104D2000802000F02EFB22E07048844208D101214F
:104D3000801500F026FB0021A01500F022FB16E0F4
:104D40006B48844208D10121401500F01AFB002174
:104D5000601500F016FB0AE06648844207D1012185
:104D6000001500F00EFB0021201500F00AFB10BD1D
:104D7000F0B50A4600210023002400BF3DE00125D4
:104D800005FA01F3156805EA03049C4234D105686D
:104D90004F000326BE40B543056015794E00B5406F
:104DA0000668354305601579012D02D01579022D6D
:104DB00016D185684F000326BE40B54385605579FE
:104DC0004E00B540866835438560456801268E40B3
:104DD000B5434560456896798E40B6B23543456027
:104DE000C5684F000326BE40B543C560D5794E0067
:104DF000B540C6683543C560491C1029BFD3F0BD16
:104E00004FF6FF7101600021017141718171C17123
:104E1000704708B54FF480320092009A0A4300921E
:104E2000009AC261C161009AC261C2690092C269FE
:104E3000009208BD0246002013690B4201D00120F8
:104E400000E0002070470146086980B270470246C2
:104E5000002053690B4201D0012000E00020704780
:104E60000146486980B270470183704741837047AB
:104E70000AB1018300E04183704741617047426994
:104E80004A4042617047F0B5002300244D07ED0E03
:104E900002FA05F3CE1000F1200555F826504E0712
:104EA000F70E0F26BE40B543CF1000F1200646F89E
:104EB0002750CE1000F1200555F8265045EA03048E
:104EC000CE1000F1200545F82640F0BD000002405C
:104ED0000004024000080240000C024000100240A2
:104EE0000014024000180240001C02400020024052
:104EF0000024024000280240F948006840F0010008
:104F0000F74908600020F64908310860F448006855
:104F1000F4490840F2490860F348091D0860F34865
:104F2000EF4984310860F0481038091D0860EC48EA
:104F3000006820F48020EA4908600020E8490C312C
:104F40000860E7498C31086070470021E44A921CF0
:104F5000117011460870704710B5014600220023F9
:104F600000204A11012A02D1DD4C236808E0022A00
:104F700003D1DB4C7034236802E0D94C74342368CD
:104F800001F01F02012494401C4201D0012000E0E6
:104F9000002010BD38B5002000900024002500BF7F
:104FA0003120FFF7D9FF05460098401C009000987B
:104FB000B0F5A04F01D0002DF2D03120FFF7CCFF8B
:104FC00008B1012400E00024204638BD014600203D
:104FD000C34A106820F0F80040EAC1001060704732
:104FE000C349086070470021BD4A703211701170CA
:104FF000012802D004280AD104E00121B84A703205
:10500000117005E00521B64A7032117000E000BF52
:1050100000BF7047B7490860704770B5049C41EA0B
:1050200082150126C6EB530645EA0645054345EAC7
:105030000465AB4E361D356070BDAD4908667047DE
:10504000820142EA0172A64B84331A607047A84974
:105050008866704710B5830143EA016343EA02732F
:105060009F4C8834236010BDA14908677047A04950
:10507000C864704702460020994B0833186820F036
:10508000EC6042EA01031843954B083318607047FF
:1050900002460020924B0833186820F0784042EA1C
:1050A000010318438E4B08331860704701460020F7
:1050B0008B4A0832106820F00300084310607047E4
:1050C00087480830006800F00C0070470146002057
:1050D000834A0832106820F0F000084310607047DF
:1050E000014600207E4A0832106820F4E050084350
:1050F0001060704701460020794A0832106820F499
:10510000604040EAC10010607047F0B50021002205
:105110000024022500260223714F08373F6807F05C
:105120000C0121B1042905D0082937D105E0724FBF
:10513000076036E0714F076033E0694F3F1D3F68FD
:10514000C7F38056664F3F1D3F6807F03F036EB1BF
:105150006A4FB7FBF3F7DFF888C10CF1040CDCF8F9
:1051600000C0CCF3881C07FB0CF40CE0624FB7FBCB
:10517000F3F7DFF86CC10CF1040CDCF800C0CCF3E1
:10518000881C07FB0CF4564F3F1D3F68C7F30147CF
:105190007F1C7D00B4FBF5F7076002E0564F076007
:1051A00000BF00BF4E4F08373F6807F0F001090904
:1051B000534F7A5C0768D7404760494F08373F68CC
:1051C00007F4E051890A4E4F7A5C4768D740876000
:1051D000434F08373F6807F46041490B484F7A5CFA
:1051E0004768D740C760F0BD002100F44072B2F5B7
:1051F000407F0AD13A4A0832116821F4F811414A35
:1052000002401143364A08321160354A7032126842
:10521000C0F30B031A43324B70331A6070473549A1
:10522000443908607047334940390860704736494F
:105230000860704701460020294A8C32106820F02F
:105240001F004A1E1043264A8C32106070470146E8
:105250000020234A8C32106820F4F8504A1E40EA9D
:1052600002201F4A8C3210607047014600201C4A01
:105270008C32106820F440100843106070470146DB
:105280000020174A8C32106820F440000843106058
:10529000704701460020124A8C32106820F44030DA
:1052A00008431060704719490860704739B10C4ACB
:1052B0003032126802430A4B30331A6006E0084A63
:1052C000303212688243064B30331A607047F9B1AE
:1052D000034A343212680243014B34331A601CE033
:1052E00000380240FFFFF6EA1030002400300020B2
:1052F00000004742800E47420024F40000127A006A
:10530000D4010020FFFCFF0F5C014742E01147423F
:105310008F4A126882438E4B1A60704739B18C4AAB
:10532000121D126802438A4B1B1D1A6006E0884A50
:10533000121D12688243864B1B1D1A60704739B1DB
:10534000834A0C3212680243814B0C331A6006E028
:105350007F4A0C32126882437D4B0C331A607047CF
:1053600039B17B4A103212680243794B10331A600C
:1053700006E0774A103212688243754B10331A6088
:10538000704739B1724A243A12680243704B243B89
:105390001A6006E06E4A243A126882436C4B243B42
:1053A0001A60704739B16A4A203A12680243684B62
:1053B000203B1A6006E0664A203A12688243644B3A
:1053C000203B1A60704739B1614A1C3A12680243A7
:1053D0005F4B1C3B1A6006E05D4A1C3A1268824330
:1053E0005B4B1C3B1A60704739B1594A143A12683A
:1053F0000243574B143B1A6006E0554A143A1268B0
:105400008243534B143B1A60704739B1504A103AEB
:10541000126802434E4B103B1A6006E04C4A103AA9
:10542000126882434A4B103B1A60704739B1484AB0
:105430001C3212680243464B1C331A6006E0444A91
:105440001C3212688243424B1C331A60704739B1D8
:105450003F4A2032126802433D4B20331A6006E077
:105460003B4A203212688243394B20331A6070471E
:1054700039B1374A243212680243354B24331A605B
:1054800006E0334A243212688243314B24331A60D7
:10549000704739B12E4A2C32126802432C4B2C3300
:1054A0001A6006E02A4A2C3212688243284B2C33B9
:1054B0001A60704739B1264A303212680243244BD1
:1054C00030331A6006E0224A303212688243204BA1
:1054D00030331A607047012808D11D493C310968F2
:1054E00041F008011A4A3C32116007E018493C318A
:1054F000096821F00801164A3C321160704739B141
:10550000134A273A12780243114B273B1A7006E0E0
:105510000F4A273A127882430D4B273B1A70704787
:105520000B484030006840F0807009494031086005
:10553000704701460020064A283A12680A4201D004
:10554000012000E0002070470149263908707047AB
:105550003438024010B50446FE48844208D1012187
:105560000846FFF752FF00210120FFF74EFF9DE0A4
:10557000B4F1804F08D101210846FFF735FF002123
:105580000120FFF731FF91E0F348844208D1012167
:105590000220FFF729FF00210220FFF725FF85E009
:1055A000EE48844208D101210420FFF71DFF0021AD
:1055B0000420FFF719FF79E0E948844208D101216E
:1055C0000820FFF711FF00210820FFF70DFF6DE015
:1055D000E448844208D101211020FFF705FF002193
:1055E0001020FFF701FF61E0DF48844208D101216C
:1055F0002020FFF7F9FE00212020FFF7F5FE55E0FF
:10560000DA48844208D101210220FFF7FEFE002182
:105610000220FFF7FAFE49E0D548844209D1012172
:105620000804FFF7F2FE00214FF48030FFF7EDFE93
:105630003CE0D048844209D101214804FFF7E5FE4F
:1056400000214FF40030FFF7E0FE2FE0CA4884420B
:1056500009D101218804FFF7D8FE00214FF48020F2
:10566000FFF7D3FE22E0C548844208D10121402043
:10567000FFF7BAFE00214020FFF7B6FE16E0C04853
:10568000844208D101218020FFF7AEFE0021802056
:10569000FFF7AAFE0AE0BB48844207D1012180152A
:1056A000FFF7A2FE0021A015FFF79EFE10BD00220D
:1056B0000288A84B98420ED0AC4B98420BD0B0F168
:1056C000804F08D0A44B984205D0A44B984202D0FA
:1056D000A34B984204D14FF68F731A404B881A435C
:1056E000A04B984207D0A04B984204D04FF6FF43FE
:1056F0001A400B891A4302804B68C3620B880385EA
:10570000944B984202D0994B984201D18B7A0386F0
:105710000123838270474FF0FF31416000210180F7
:1057200001814180817270470185828270470A46FB
:10573000002101884FF68F73194011430180704793
:1057400041627047C16270470146486A704701462E
:10575000088D704721B1028842F00202028004E005
:1057600002884FF6FD731A400280704721B102880B
:1057700042F00402028004E002884FF6FB731A40F4
:105780000280704721B1028842F08002028004E06A
:1057900002884FF67F731A400280704702884FF6E6
:1057A000F7731A40028002880A4302807047028819
:1057B0004FF6FF431A40028002880A430280704776
:1057C00021B1028842F00102028004E002884FF613
:1057D000FE731A400280704770B500240022002337
:1057E000058C4FF6FE7635400584028C8388048B49
:1057F0004FF68F752C40B51E2C400D882C43751E1E
:105800002A408D892A434D882A43524DA84202D00E
:10581000564DA84213D14FF6F7752A40CD892A4339
:105820004FF6FB752A408D882A434FF6FF652B40C3
:105830004FF6FF552B400D8A2B434D8A2B43838017
:1058400004838D684563028470BD70B50024002216
:105850000023058C4FF6EF7635400584028C838853
:10586000048B48F6FF752C404FF6FF452C400D8801
:105870004FF6FF7606EA05252C434FF6DF752A40E2
:105880008D8906EA05152A434D8806EA05152A433F
:10589000304DA84202D0354DA8421DD14FF67F753C
:1058A0002A40CD894FF6FF7606EA05152A434FF6C2
:1058B000BF752A408D8806EA05152A434FF6FF3545
:1058C0002B404FF2FF752B400D8A06EA85052B43CE
:1058D0004D8A06EA85052B43838004838D688563A2
:1058E000028470BD70B5002400220023058C4FF6A1
:1058F000FF6635400584028C8388848B4FF68F7554
:105900002C404FF6FC752C400D882C434FF6FF556C
:105910002A408D894FF6FF7606EA05252A434D88F1
:1059200006EA05252A430B4DA84202D00F4DA84296
:1059300038D14FF2FF752A40CD894FF6FF7606EA3F
:1059400005252A434FF6FF352A408D8806EA0525AE
:105950002A4319E000000140000400400008004014
:10596000000C004000100040001400400004014002
:105970000040014000440140004801400018004040
:10598000001C0040002000404EF6FF752B404DF6F5
:10599000FF752B400D8A06EA05152B434D8A06EA52
:1059A00005152B43838084838D68C563028470BD95
:1059B00070B5002200230024058C4EF6FF7635409A
:1059C0000584038C8488828B48F6FF752A404FF645
:1059D000FF452A400D884FF6FF7606EA05252A4343
:1059E0004DF6FF752B408D8906EA05352B434D8812
:1059F00006EA05352B43FE4DA84202D0FD4DA842D4
:105A000008D14BF6FF752C400D8A4FF6FF7606EA5B
:105A100085152C43848082838D680564038470BD62
:105A2000002101804180818081608181C18101826A
:105A30004182704770B50346002000241846183094
:105A400001258D40ACB21D8CA5431D8409B10829E8
:105A50000AD100EB610005684FF68F76354005608E
:105A60000568154305600FE00D1FC5F34E0528447A
:105A7000056848F6FF763540056005684FF6FF7605
:105A800006EA02263543056070BD416370478163B5
:105A90007047C1637047016470470A460021018B5B
:105AA0004FF68F7319401143018370470A46002156
:105AB000018B48F6FF7319404FF6FF7303EA022388
:105AC0001943018370470A460021818B4FF68F737B
:105AD00019401143818370470A460021818B48F6A3
