:020000040800F2
:10000000B00F0020854200088D420008FD22000844
:100010009142000893420008954200080000000049
:1000200000000000000000000000000097420008EF
:1000300099420008000000009B4200089D42000811
:100040009F4200089F4200089F4200089F4200080C
:100050009F4200089F4200089F4200089F420008FC
:100060009F4200089F4200089F4200089F420008EC
:100070009F4200089F4200089F4200089F420008DC
:100080009F4200080B3C00089F420008210700081F
:10009000370700089F4200089F4200089F4200085F
:1000A0009F4200089F4200089F4200089F420008AC
:1000B0009F4200089F4200089F4200089F4200089C
:1000C0009F4200089F4200089F4200089F4200088C
:1000D0009F420008C1060008353E0008793D00082F
:1000E0009F4200089F4200089F42000893030008B7
:1000F0009F4200089F4200089F4200089F4200085C
:100100009F4200089F4200089F4200089F4200084B
:100110009F4200089F4200089F4200089F4200083B
:100120009F4200089F4200089F4200089F4200082B
:100130009F4200089F4200089F420008590700089C
:100140006F0700089F4200089F4200089F42000876
:100150009F4200089F4200089F4200089F420008FB
:100160009F4200089F4200089F4200089F420008EB
:100170009F4200089F4200089F4200089F420008DB
:100180009F4200089F420008DFF80CD007F0AAF851
:10019000004800479D010008B00F0020002400F037
:1001A0008FF80AE0012001F00AFD1E2C03DD034850
:1001B00003F05BFD0024601C84B2F3E734020020EE
:1001C00010B504466FF0040004F0C1F8E11704EB29
:1001D0005171C1F3C701384A11701046007800EB25
:1001E0004001C1EBC0104FF6FF7101EAC000334976
:1001F000088010BD0146304A12784A434FF0E02390
:100200005A6100229A611A46126942F001021A618B
:1002100000BF4FF0E022106910F0010F02D010F47F
:10022000803FF6D04FF0E022126922F001024FF039
:10023000E0231A6100229A61704701461F4A128822
:100240004A434FF0E0235A6100229A611A4612692C
:1002500042F001021A6100BF4FF0E022106910F075
:10026000010F02D010F4803FF6D04FF0E022126967
:1002700022F001024FF0E0231A6100229A617047D8
:1002800070B504464FF4077094FBF0F0C6B24FF41B
:10029000077094FBF0F100FB114085B205E04FF4CC
:1002A0000770FFF7CAFF701EC6B2002EF7D115B156
:1002B0002846FFF7C2FF70BD0000002002000020AA
:1002C00010B5A820FFF77CFF03F026FB00F0FEF836
:1002D0004FF47A70FFF7D4FF00F0C4FC00F0A0FBED
:1002E00000F03AFC00F008F800F064F903F0F0FBCD
:1002F00000F01FF810BD00000EB50121042005F02C
:10030000DAFB4FF0FF3001905320ADF800000020E1
:10031000ADF80800ADF8020001212C4805F0EEFD13
:1003200069462A4805F07FFD0121284805F004FEB2
:100330000EBD1FB50121402005F0BDFB63200290DA
:1003400040F24730ADF804000020ADF80600ADF8EB
:100350000C0001A91E4805F066FD012211461C484B
:1003600006F002FA01211A4805F0E6FD4FF4E060BC
:1003700003F09AFF2B208DF8000000208DF801007B
:1003800001208DF802008DF80300684603F091FF0C
:100390001FBD10B501210E4806F0FDF901280FD14F
:1003A00001210B4806F008FA0121094806F0F0F98E
:1003B000084801F029FE08480068401C064908600A
:1003C00010BD02482430006870470000000800405B
:1003D00000180040800000200400002000B58BB011
:1003E0000121084605F01EFB0121480605F063FBCC
:1003F0004FF4C050099002208DF8280000208DF89D
:100400002A0003208DF8290001208DF82B0009A96E
:10041000FE4805F069F809220B21FC4805F0EFF8C9
:1004200009220C21F94805F0EAF800208DF81E0099
:100430008DF81F008DF820008DF821008DF8220026
:100440008DF823008DF81A008DF81B0008208DF818
:100450001C0003208DF81D00ADF8180006A9EC481B
:1004600003F0ADFF00208DF812008DF8130001207D
:100470008DF814000020ADF80800ADF80A00ADF8C2
:100480000C00ADF80E00ADF8100001208DF815003D
:1004900002A804F01EF801220221DD4804F018FB36
:1004A00001221146DA4804F013FB14208DF80400F1
:1004B00001208DF8050000208DF8060001208DF840
:1004C000070001A803F0F5FE0BB000BD00B58BB02E
:1004D0000121022005F0A6FA0121480605F0EBFAF9
:1004E0000121880605F0E7FA09220D21C94805F027
:1004F00086F809220C21C74805F081F84FF44050D6
:10050000029002208DF80C0002A9C24804F0ECFF12
:1005100040208DF8040000208DF8050001208DF8A2
:1005200006008DF8070001A803F0C3FEBA4803F0E7
:100530002DFF08A804F04EF800208DF826008DF855
:1005400027008DF828008DF829008DF82A008DF8F5
:100550002B008DF822008DF8230008208DF8240050
:1005600003208DF82500ADF8200008A9AA4803F063
:1005700026FF0E208DF81A0000208DF81B000120A8
:100580008DF81C000020ADF81000ADF81200ADF899
:100590001400ADF81600ADF8180001208DF81D000C
:1005A00004A803F096FF012202219B4804F090FA70
:1005B0000BB000BD00B597B00121984805F032FAA4
:1005C0000121102005F088FA07221146914805F014
:1005D00016F88020119002208DF8480000208DF838
:1005E0004A0003208DF8490000208DF84B0011A926
:1005F000884804F079FF8A4804F0BEFB89481390CC
:100600000020ADF85000ADF852004FF48060ADF816
:1006100054000420ADF856000020ADF8580013A98E
:100620007F4804F010FC012240217D4804F040FD89
:1006300025208DF8400001208DF8410000208DF824
:10064000420001208DF8430010A803F032FE7648E6
:1006500006F08EF901A806F056FA4FF000600190FE
:100660006F48001D029071480390002004901E20E6
:100670000590002006904FF48060079000200890BD
:1006800009904FF480700A904FF440300B90002096
:100690000C900D900E900F9001A9634806F00AFA95
:1006A0000121614806F040FA012240F224415C48F1
:1006B00004F007FD01215A4804F04DFC17B000BDBD
:1006C00010B540F22441564804F036FD38B3544882
:1006D000008853488088544806F069FAF8B9002128
:1006E000514806F021FA504806F041FAC0F11E00C8
:1006F0004F4908601E204C4944390860081F0068B3
:1007000040F40020091F08600121474806F00CFA58
:1007100047480068122802D1444801F0F7FD10BD97
:1007200010B501213A4804F03AFA18B101213848CD
:1007300004F0CFFA10BD10B50221354804F02FFAAD
:1007400048B10021324804F0C4FA3A4A0021304846
:1007500004F0A3F800BF10BD10B501212E4804F02D
:100760001EFA18B101212C4804F0B3FA10BD10B5DF
:100770000221294804F013FA00281AD00221264841
:1007800004F0A7FA2C4A0021234804F086F82A48EE
:1007900014384069A0F5007106390BD12648143889
:1007A00090F82010C07F01EB002001B22348A0F890
:1007B000881067E0204814384069A0F500710539B9
:1007C0000BD11D48143890F82010C07F01EB002099
:1007D00000B21A49A1F8400054E0174814384069A3
:1007E000B0F5007F42D9144814384069B0F5017F54
:1007F0003CD81148143890F82010C07F01EB00203D
:1008000002B20D48143841691AE0000000000240AD
:100810000064004000040240006800400200400004
:1008200000100140A0860100886402405C020020A4
:10083000080000201C040020E003002030040020F9
:10084000A1F20121104820F81120104890F8221040
:1008500090F8210001EB002002B20C484069A0F2A0
:1008600001200949083921F810200BE007484069A8
:10087000012807D10548C07F05490870034890F852
:100880002000487010BD000078050020CC03002037
:1008900084010020B0EE401AB4EEE01AF1EE10FA36
:1008A00002DDB0EE600A7047B0EE410AFBE7B0EE41
:1008B000401AB4EEE01AF1EE10FA02DDB0EE410A91
:1008C0007047B0EE600AFBE7B0EE401A10B9B0EE28
:1008D000410A7047B4EEE01AF1EE10FA02DDB0EE14
:1008E000600AF6E7B1EE600AB4EEC01AF1EE10FA53
:1008F00002D2B1EE600AECE7B0EE410AE9E730B5AA
:100900000446F0EE400A002014B9B0EE600A30BD93
:10091000002028E0F5EEC00AF1EE10FA02DDB0EE9C
:10092000600A01E0B1EE600A03EB800595ED011A63
:10093000B4EEC10AF1EE10FA13D8F5EEC00AF1EEEA
:1009400010FA02DDB0EE600A01E0B1EE600A03EBDE
:10095000800595ED001AB4EEC10AF1EE10FA00DD43
:1009600004E0451CE8B24D1E8542D3DC00BF02EB1B
:10097000800595ED000A20EE200AC8E7F0EE402A37
:1009800010B9B0EE620A7047F5EEC02AF1EE10FA27
:1009900002DDB0EE620A01E0B1EE620AB4EEE00AF6
:1009A000F1EE10FA39DBF5EEC02AF1EE10FA02DDB5
:1009B000B0EE620A01E0B1EE620AB4EEC10AF1EEF5
:1009C00010FA2AD831EE600AB5EEC00AF1EE10FA3C
:1009D00002DD31EE600A03E031EE600AB1EE400A5A
:1009E000B0EE404A32EEE00A80EE043A32EE610A9E
:1009F000B5EEC00AF1EE10FA02DD32EE610A03E054
:100A000032EE610AB1EE400AF0EE403AB0EE610A11
:100A100003EE230A20EE220AB5E722EE220AB2E70D
:100A200010B500BF01226B21D02000F062FAC4B2E1
:100A30004FF4FA70FFF724FC00226B21D02000F065
:100A400058FAC4B23220FFF71BFC7521D02000F009
:100A500090FA7F490870084600786828E2D10022A1
:100A60006B21D02000F045FAC4B23220FFF708FC19
:100A700000221921D02000F03CFA2044C4B23220D8
:100A8000FFF7FEFB03221A21D02000F032FA2044A7
:100A9000C4B23220FFF7F4FB10221B21D02000F05B
:100AA00028FA2044C4B23220FFF7EAFB09221C21B5
:100AB000D02000F01EFA2044C4B23220FFF7E0FB41
:100AC000204610BD10B53B21D02000F052FA6149FC
:100AD00008703C21D02000F04CFA5E4948703D215E
:100AE000D02000F046FA5B4988703E21D02000F00B
:100AF00040FA5849C8703F21D02000F03AFA5549D1
:100B000008714021D02000F034FA52494871432145
:100B1000D02000F02EFA4F4908724421D02000F076
:100B200028FA4C4948724521D02000F022FA494960
:100B300088724621D02000F01CFA4649C87247212D
:100B4000D02000F016FA434908734821D02000F065
:100B500010FA4049487310BD10B52DED048B4FF4C9
:100B60007A7408EE104A9FED3C0AF0EE408A9FED41
:100B70003A0AB0EE409A0021384841858185C18506
:100B80003748C1853CE0FFF79DFF3248407A314944
:100B9000097A40EA012000B2304988842D48C07AA1
:100BA0002C49897A40EA012001B22C48C1842948A5
:100BB000407B2849097B40EA012001B22748018592
:100BC000B0F9240000EE100AB8EEC00A30EE280A90
:100BD000F0EE408A2148B0F9260000EE100AB8EE87
:100BE000C00A30EE090AB0EE409A1C48B0F928005D
:100BF00000EE100AB8EEC00A30EE290AF0EE409A74
:100C00002000A4F10104BED1B8EEC80AC8EE800AE3
:100C1000BDEEE00A10EE100A01B21048C186B8EE2F
:100C2000C80AC9EE000ABDEEE00A10EE100A01B2D1
:100C30000A480187B8EEC80AC9EE800ABDEEE00A8C
:100C400010EE100A01B205484187BDEC048B10BDBF
:100C50000C000020000300200000000070020020B3
:100C6000B80200201CB50121022004F0DBFE4FF485
:100C70008070009001208DF804008DF805000020A0
:100C80008DF8060001208DF807006946CD4804F074
:100C90002BFC4FF40070009001208DF804008DF8BB
:100CA00005008DF8060000208DF807006946C5484C
:100CB00004F01AFC1CBD062000BF0100A0F10100D9
:100CC000FBD1704741F6583000E0401E0028FCD1AF
:100CD000704710B54FF40071BA4804F081FC4FF42E
:100CE0008071B84804F07CFCFFF7E5FF4FF4007119
:100CF000B44804F05BFC08B9002010BD4FF400714B
:100D0000B04804F06FFCFFF7D6FF4FF40071AD4818
:100D100004F04CFC08B10020EFE74FF40071A94843
:100D200004F060FCFFF7C7FF0120E6E710B54FF4C1
:100D30008071A44804F056FCFFF7BDFF4FF400712A
:100D4000A04804F04FFCFFF7B6FF4FF480719D48B8
:100D500004F046FCFFF7AFFF4FF40071994804F030
:100D60003FFCFFF7A8FF10BD10B54FF48071954808
:100D700004F038FCFFF79FFF4FF40071914804F036
:100D800031FCFFF798FF4FF480718E4804F028FC87
:100D9000FFF791FF4FF480718A4804F023FCFFF7BE
:100DA0008AFF10BD10B54FF48071864804F01AFC1C
:100DB000FFF781FF4FF40071824804F011FCFFF748
:100DC0007AFF4FF480717F4804F00AFCFFF773FF4D
:100DD0004FF480717B4804F005FCFFF76CFF10BDF9
:100DE00010B54FF48071774804F0FCFBFFF763FF08
:100DF0004FF40071734804F0F3FBFFF75CFF4FF40E
:100E00008071704804F0ECFBFFF755FF4FF4007160
:100E10006C4804F0CBFB40B14FF48071694804F09A
:100E2000E1FBFFF748FF002010BD4FF480716548DB
:100E300004F0D8FBFFF73FFF0120F5E770B504464B
:100E400008251FE04FF480715E4804F0CBFBFFF7EC
:100E500032FF14F0800F05D04FF40071594804F0B0
:100E6000BFFB04E04FF40071564804F0BBFB600682
:100E7000040EFFF720FF4FF48071524804F0B0FBDE
:100E8000FFF719FF2800A5F10101CDB2DAD14FF427
:100E900080714C4804F0A6FB70BD70B50825002495
:100EA000A901484804F09CFB17E06006040E4FF4CB
:100EB0008071444804F096FBFFF7FDFE4FF480710B
:100EC000404804F08DFBFFF7F6FE4FF400713D48FB
:100ED00004F06CFB08B144F001042800A5F1010105
:100EE000CDB2E2D14FF48071364804F07BFB20464E
:100EF00070BD70B506460C461546FFF7EAFE08B908
:100F0000002070BD3046FFF799FFFFF769FF18B961
:100F1000FFF70CFF0020F4E72046FFF78FFFFFF7F5
:100F20005FFF2846FFF78AFFFFF75AFFFFF7FEFE35
:100F3000FFF7C8FE0120E4E770B505460C46FFF751
:100F4000C8FE08B9002070BD2846FFF777FFFFF7FD
:100F500047FF18B9FFF7EAFE0020F4E72046FFF745
:100F60006DFFFFF73DFFFFF7E1FEFFF7ABFE01204E
:100F7000E9E770B504460D46FFF7ABFE08B900205F
:100F800070BD2046FFF75AFFFFF72AFF18B9FFF799
:100F9000CDFE0020F4E72846FFF750FFFFF720FFC3
:100FA000FFF797FE611CC8B2FFF748FFFFF718FF75
:100FB000FFF773FF0646FFF7F5FEFFF7B7FE304673
:100FC000DEE7000000040240F0EE400AF6EE001AF0
:100FD00060EEA11AB0EE611AB0EE600A10EE100ACF
:100FE000FE49A1EB600000EE100A21EE002AF7EEA8
:100FF000081A42EE401A61EE801AB0EE610A70479C
:1010000010B52DED108B96B0B0EE409AF0EE609AD0
:10101000B0EE41AAF0EE61BAF0EE42AAB0EE62BACA
:101020000024EF4890ED000A20EE000A8DED130A2F
:1010300090ED000AEB48D0ED000A20EE200A8DED7D
:10104000120AE74890ED000AE748D0ED000A20EECA
:10105000200A8DED110AE24890ED000AE348D0ED38
:10106000000A20EE200A8DED100ADE4890ED000AFD
:1010700020EE000A8DED0F0A90ED000ADA48D0ED5F
:10108000000A20EE200A8DED0E0AD64890ED000AE7
:10109000D648D0ED000A20EE200A8DED0D0AD24888
:1010A00090ED000A20EE000A8DED0C0A90ED000A8A
:1010B000CE48D0ED000A20EE200A8DED0B0A90ED0F
:1010C000000A20EE000A8DED0A0AFFF77AF9C849F6
:1010D000086008460068C749096888420CD3C448BC
:1010E0000068C4490968401A00EE100AB8EE400AC8
:1010F000DFEDC10AC0EE208ABD480068BD49086026
:101100006BEEAB0A4AEEAA0A4BEE0B0AB0EE600A8F
:10111000FFF75AFFB0EE408AB0EE480A2BEE800A85
:10112000F0EE40BAB0EE480A2AEE800AF0EE40AA8D
:10113000B0EE480A2BEE000AB0EE40BA9DED0D0A63
:10114000DDED110A30EE600AF0EE000A20EE20FA22
:101150009DED120ADDED0B0A30EE200AF0EE000ADA
:1011600060EE20FA9DED130ADDED0F0A70EE600AC5
:101170009DED0C0A70EEC00A9DED0A0A30EE800A61
:101180008DED150A9DED150A2AEE800AB0EE40CAD3
:101190000BEE6FCA6BEE0F0A9DED150AF0EE60CAFA
:1011A0004BEEC0CA2BEEAF0AB0EE40DA0AEECFDA51
:1011B000B5EEC0CAF1EE10FA51D0F5EEC0CAF1EEAC
:1011C00010FA4CD0B5EEC0DAF1EE10FA47D09FED30
:1011D0008B0A6CEE000A8A4890ED000A00EEA80A1D
:1011E00080ED000A9FED850A6CEE800A854890ED3F
:1011F000000A00EEA80A80ED000A9FED800A6DEE5D
:10120000000A814890ED000A00EEA80A80ED000A6D
:10121000F7EE000AB0EE490A00EE8C0A7848D0EDED
:10122000000A30EE200AB0EE409AF7EE000AB0EE67
:10123000690A00EEAC0A7348D0ED000A30EE200ACD
:10124000F0EE409AF7EE000AB0EE4A0A00EE8D0A80
:101250006D48D0ED000A30EE200AB0EE40AA614899
:1012600090ED000AB1EE400A20EE090A5E48D0ED8A
:10127000000A00EEE90A5D4890ED001AF0EE400A1F
:1012800041EE4A0A564890ED000A00EEA80A8DED9C
:10129000140A90ED000A20EE090A5348D0ED000A26
:1012A00000EE8A0A5148D0ED000A00EEE90A4D48E6
:1012B000D0ED000AF0EE60DA40EE28DA484890ED12
:1012C000000A20EE290A4748D0ED000A00EECA0ABB
:1012D0004648D0ED000A00EE890A4348D0ED000AE6
:1012E000B0EE60EA00EE28EA3D4890ED000A20EEFC
:1012F0000A0A3C48D0ED000A00EEA90A3A48D0EDAF
:10130000000A00EEC90A3948D0ED000AF0EE60EAA2
:1013100040EE28EADDED140A60EEA00A4DEEAD0ABB
:101320004EEE0E0A4EEEAE0AB0EE600AFFF74CFE2D
:10133000B0EE408A9DED140A20EE080A284880EDA0
:10134000000A2DEE880A274880ED000A2EEE080AD2
:10135000254880ED000A2EEE880A244880ED000A18
:10136000214890ED000AF8EE000A20EE200AD0EDA8
:10137000000A20EE200A1D48D0ED000AB0EE001A47
:1013800060EE810A90ED001A00EEC10AF7EE000A45
:1013900030EE200A10EE101A084605F085FE41ECEA
:1013A000100B8DED020B0F4890ED000AF0EE000AD5
:1013B00020EE200A0C48D0ED000A20EE200A084852
:1013C000D0ED000AB0EE001A60EE810A074890EDF9
:1013D000001A00EE810A10EE101A17E0DF59375F8D
:1013E0001000002014000020180000201C00002025
:1013F0007C000020780000200024F4490AD7233C18
:10140000200000202400002028000020084605F0CD
:101410004BFE41EC100B8DED000B9DED021B9DED85
:10142000000B06F035FB8DED040B9DED040B51EC2C
:10143000100B81F0004141EC100B8DED060B9FED80
:10144000F90B53EC102B9DED060B51EC100B05F036
:101450001AFD41EC100B8DED080B9DED080B51ECC6
:10146000100B05F034FEF1498860F14890ED000A58
:10147000F8EE000A20EE200AEE48D0ED000A20EE39
:10148000200AED48D0ED000AB0EE001A60EE810AA5
:10149000EA4890ED001A00EE810A10EE101A084694
:1014A00005F002FE41EC100B8DED020B9DED020BE1
:1014B00005F0C2FF8DED040B9DED040B51EC100BFC
:1014C00081F0004141EC100B8DED060B9FEDD50B2B
:1014D00053EC102B9DED060B51EC100B05F0D3FCDB
:1014E00041EC100B8DED080B9DED080B51EC100B32
:1014F00005F0EDFDCD494860CD4890ED000AF8EECD
:10150000000A20EE200AD0ED000A20EE200ACB4887
:10151000D0ED000AB0EE001A60EE810A90ED001ADC
:1015200000EEC10AF7EE000A30EE200A10EE101AA3
:10153000084605F0B9FD41EC100B8DED040BBF48DA
:1015400090ED000AF0EE000A20EE200AB948D0ED36
:10155000000A20EE200AB848D0ED000AB0EE001ACA
:1015600060EE810AB24890ED001A00EE810A10EE9A
:10157000101A084605F098FD41EC100B8DED020B9A
:101580009DED041B9DED020B06F082FA8DED060B1E
:101590009FEDA40B53EC102B9DED060B51EC100BA3
:1015A00005F071FC41EC100B8DED080B9DED080B67
:1015B00051EC100B05F08BFD9C49086016B0BDEC9A
:1015C000108B10BD00B52DED108B89B0B0EE40BA78
:1015D000F0EE60BAB0EE418AF0EE618AB0EE429A67
:1015E000F0EE629A8DED069B8DED048B944890EDA4
:1015F000000BB0EE40CAF0EE60CA90ED000BB0EE0A
:1016000040CAF0EE60CA9DED048B53EC182B8D4858
:1016100090ED000B51EC100B05F08EFB41EC100B24
:10162000B0EE40AAF0EE60AA9DED069B53EC192B9C
:1016300051EC1A0B05F080FB41EC100BB0EE40FAB8
:10164000F0EE60FA53EC1F2B51EC1A0B05F08DFCF9
:1016500041EC100BB0EE40EAF0EE60EA53EC1C2BCC
:1016600051EC1B0B05F009FC41EC100BB0EE40FAFD
:10167000F0EE60FA53EC1E2B51EC1F0B05F003FC4F
:1016800041EC100B8DED000B53EC1C2B9DED000B72
:1016900051EC100B05F050FB41EC100BB0EE40DAB2
:1016A000F0EE60DA53EC1E2B9FED670B51EC100B44
:1016B00005F0E3FB41EC100BB0EE40FAF0EE60FAFF
:1016C00053EC1A2B51EC1F0B05F0DDFB41EC100B1A
:1016D0008DED020B9DED020B5A4880ED000B584832
:1016E00080ED00DBB0EE4D0AF0EE6D0A09B0BDEC06
:1016F000108B00BD00B52DED108B89B0B0EE40BA57
:10170000F0EE60BAB0EE418AF0EE618AB0EE429A35
:10171000F0EE629A8DED069B8DED048B4C4890EDBA
:10172000000BB0EE40CAF0EE60CA90ED000BB0EED8
:1017300040CAF0EE60CA9DED048B53EC182B45486F
:1017400090ED000B51EC100B05F0F6FA41EC100B8C
:10175000B0EE40AAF0EE60AA9DED069B53EC192B6B
:1017600051EC1A0B05F0E8FA41EC100BB0EE40FA20
:10177000F0EE60FA53EC1F2B51EC1A0B05F0F5FB61
:1017800041EC100BB0EE40EAF0EE60EA53EC1C2B9B
:1017900051EC1B0B05F071FB41EC100BB0EE40FA65
:1017A000F0EE60FA53EC1E2B51EC1F0B05F06BFBB7
:1017B00041EC100B8DED000B53EC1C2B9DED000B41
:1017C00051EC100B05F0B8FA41EC100BB0EE40DA1A
:1017D000F0EE60DA53EC1E2B9FED1B0B51EC100B5F
:1017E00005F04BFB41EC100BB0EE40FAF0EE60FA66
:1017F00053EC1A2B51EC1F0B05F045FB41EC100B81
:101800008DED020B9DED020B124880ED000B104890
:1018100080ED00DBB0EE4D0AF0EE6D0A09B0BDECD4
:10182000108B00BD0000006094A94C401003002004
:10183000140000201C0000201000002018000020D0
:101840005800002060000020000000000000F03F71
:10185000480000205000002000B52DED108B89B00D
:10186000B0EE40BAF0EE60BAB0EE418AF0EE618AB6
:10187000B0EE429AF0EE629A8DED069B8DED048BF0
:10188000FE4890ED000BB0EE40CAF0EE60CA90ED5D
:10189000000BB0EE40CAF0EE60CA9DED048B53EC35
:1018A000182BF74890ED000B51EC100B05F044FAA3
:1018B00041EC100BB0EE40AAF0EE60AA9DED069B45
:1018C00053EC192B51EC1A0B05F036FA41EC100BC6
:1018D000B0EE40FAF0EE60FA53EC1F2B51EC1A0B0D
:1018E00005F043FB41EC100BB0EE40EAF0EE60EA8D
:1018F00053EC1C2B51EC1B0B05F0BFFA41EC100B09
:10190000B0EE40FAF0EE60FA53EC1E2B51EC1F0BD8
:1019100005F0B9FA41EC100B8DED000B53EC1C2BCC
:101920009DED000B51EC100B05F006FA41EC100B8D
:10193000B0EE40DAF0EE60DA53EC1E2B1FED3E0BFA
:1019400051EC100B05F099FA41EC100BB0EE40FA97
:10195000F0EE60FA53EC1A2B51EC1F0B05F093FAE2
:1019600041EC100B8DED020B9DED020BC44880ED98
:10197000000BC24880ED00DBB0EE4D0AF0EE6D0AC0
:1019800009B0BDEC108B00BD70B52DED088B054680
:10199000002415B9BDEC088B70BDFFF793F8B9486A
:1019A0004078B849097840EA012000B2B649088079
:1019B000B448C078B349897840EA012000B2B249FE
:1019C0004880B0484079AF49097940EA012000B227
:1019D000AD498880AB48407AAA49097A40EA01219A
:1019E000A948C08E081A00B2A7498884A548C07AC1
:1019F000A449897A40EA0121A348008F081A01B25C
:101A0000A148C1849F48407B9E49097B40EA01214F
:101A10009D48408F081A01B29B480185B0F9240007
:101A200000EE100AB8EEC00A98489949097800EB10
:101A3000810080ED000A9448B0F9260000EE100AFB
:101A4000B8EEC00A914828309149097800EB81002E
:101A500080ED000A8C48B0F9280000EE100AB8EEBC
:101A6000C00A8A4850308A49097800EB810080ED2D
:101A7000000A9FED888ADFED878A9FED869A002411
:101A80001DE0824800EB840090ED000A30EE080A69
:101A9000B0EE408A7D48283000EB840090ED000ACB
:101AA00030EE280AF0EE408A7848503000EB84008F
:101AB00090ED000A30EE090AB0EE409A641C0A2C40
:101AC000DFDB73480078401C0A2190FBF1F201FB38
:101AD00012006F490870F2EE040A88EE200ADFED6A
:101AE0006E0A20EE200A684880ED0F0AB2EE040A62
:101AF000C8EE800A9FED680A20EE800A80ED100A89
:101B0000F2EE040A89EE200ADFED630A20EE200AD5
:101B100080ED110A0146B1F9000005F095FA41EC9B
:101B2000100BB0EE40BAF0EE60BA9FED5C2B9FED6B
:101B30005D1BFFF791FEB0EE40AAF0EE60AA51ECFB
:101B40001A0B05F092FA00B24F49C880B1F90200B1
:101B500005F07AFA41EC100BB0EE40BAF0EE60BA44
:101B60009FED4E2B9FED4F1BFFF7C4FDB0EE40AA3B
:101B7000F0EE60AA51EC1A0B05F077FA01B2424878
:101B800001810146B1F9040005F05EFA41EC100B49
:101B9000B0EE40BAF0EE60BA9FED402B9FED411BD6
:101BA000FFF710FDB0EE40AAF0EE60AA51EC1A0B60
:101BB00005F05BFA01B23448418100BFEAE610B596
:101BC00004460120FFF7E0FE2F48B0F90A0003EEBB
:101BD000100AB8EEC33AF0EE432A2B48B0F90800D9
:101BE00003EE100AB8EEC33AB0EE432A2648B0F925
:101BF000060003EE100AB8EEC33AF0EE431A22488C
:101C000090ED113AB0EE431A90ED103AF0EE430A1F
:101C100090ED0F3AB0EE430AFFF7F2F910BD00B5B0
:101C20002DED108B89B0B0EE40BAF0EE60BAB0EE98
:101C3000418AF0EE618AB0EE429AF0EE629A8DED42
:101C4000069B8DED048B194890ED000BB0EE40CA59
:101C5000F0EE60CA90ED000BB0EE40CAF0EE60CA44
:101C60009DED048B53EC182B114890ED000B51ECBB
:101C7000100B05F061F841EC100B1BE03800002060
:101C80004000002000030020700200201C03002000
:101C90003500002000000000E4A40B3A0000000022
:101CA000000018407B14AE47E17A943F68000020A2
:101CB00070000020B0EE40AAF0EE60AA9DED069BF9
:101CC00053EC192B51EC1A0B05F036F841EC100BC4
:101CD000B0EE40FAF0EE60FA53EC1F2B51EC1A0B09
:101CE00005F043F941EC100BB0EE40EAF0EE60EA8B
:101CF00053EC1C2B51EC1B0B05F0BFF841EC100B07
:101D0000B0EE40FAF0EE60FA53EC1E2B51EC1F0BD4
:101D100005F0B9F841EC100B8DED000B53EC1C2BCA
:101D20009DED000B51EC100B05F006F841EC100B8B
:101D3000B0EE40DAF0EE60DA53EC1E2B9FED120BA2
:101D400051EC100B05F099F841EC100BB0EE40FA95
:101D5000F0EE60FA53EC1A2B51EC1F0B05F093F8E0
:101D600041EC100B8DED020B9DED020B084880ED50
:101D7000000B084880ED00DBB0EE4D0AF0EE6D0A76
:101D800009B0BDEC108B00BD000000000000F03F6A
:101D90007000002068000020FE4890ED3A0AD0ED67
:101DA0003B0A30EE200AD0ED3C0A30EE600AD0ED5E
:101DB0003D0A30EE600ADFEDF80A80EE201A9FED52
:101DC000F60A21EE000ADFEDF50A80EE201AB0EEE9
:101DD000000A21EE000ADFEDF20A20EE200A80ED73
:101DE000330A90ED3A0AD0ED3B0A30EE600AD0EDAE
:101DF0003C0A30EE600AD0ED3D0A30EE200ADFEDFD
:101E0000E60A80EE201A9FEDE40A21EE000ADFEDDB
:101E1000E30A80EE201AB0EE000A21EE000ADFEDA0
:101E2000E00A20EE200A80ED320AB0F9AC10B0F9D9
:101E3000AE000144D748B0F9B000091AD548B0F94E
:101E4000B200081A4C2190FBF1F000EE100AB8EE37
:101E5000C00ADFEDD10A20EE200ADFEDD00A80EEC5
:101E6000201AB0EE000A21EE000ADFEDCD0A20EEC6
:101E7000200AC84880ED370AB0F9AC10B0F9AE00BE
:101E8000091AC448B0F9B000091AC248B0F9B20042
:101E900008444C2190FBF1F000EE100AB8EEC00AA5
:101EA000DFEDBD0A60EE200A9FEDBC1A80EE810ACC
:101EB000F0EE000A20EE200ADFEDB90A20EE200A3B
:101EC000B44880ED360AB0F9AC004142B148B0F9EF
:101ED000AE00091AAF48B0F9B000091AAD48B0F920
:101EE000B200081A4C2190FBF1F000EE100AB8EE97
:101EF000C00ADFEDA90A60EE200A9FEDAA1A80EE63
:101F0000810ADFEDA60A80EE201AB0EE000A21EE6B
:101F1000000ADFEDA50A20EE200A9E4880ED380A6F
:101F200090ED380A9FEDA11AC0EE010A90ED390A32
:101F300030EE800A80ED390A9D4890ED110ADFED00
:101F40009D0A20EE200A9C4880ED0A0A914890EDF7
:101F5000360A9FED961AC0EE010A90ED340A30EE73
:101F6000800A80ED340A90ED370ADFED900A80EEAA
:101F7000201A90ED350A31EE000A80ED350A8E48C0
:101F800090ED0A0AB5EEC00AF1EE10FA02DD90ED0E
:101F90000A0A04E0884890ED0A0AB1EE400AF0EE21
:101FA000080AB4EEE00AF1EE10FA04D29FED830ABB
:101FB000814880ED0A0A804890ED0A0ADFED7B0A2D
:101FC00080EE201A90ED090A31EE000A80ED090A30
:101FD00070479FED7A0A784880ED090A9FED770AED
:101FE00080ED050A9FED750A80ED0A0A9FED730AE0
:101FF000684880ED340A9FED710A80ED350A9FED47
:102000006F0A80ED390A704730B587B0044694F9FD
:102010000000401C06287DD2DFE800F0A421030E5A
:102020002F6400F051FD30B100F012FD022020704D
:1020300001206349086097E05F4A6249A01C00F0F4
:102040000AFC2070FFF7A8FE012000F084FEC5B254
:102050005D4B5E4A0121284600F0A3FC84E0564A0D
:102060005849A01C00F0F7FB207055490878564BE2
:10207000564A002100F095FC76E04F4A5149A01CD9
:1020800000F0E9FB52484078B0B94E48006914228C
:102090004C49009002A804F03DFE02A80FC801F0D0
:1020A0009BF905462B46494A0321012000F079FCA3
:1020B000FFF78FFF02202070FFF76EFE4148006996
:1020C00014224049009002A804F024FE02A80FC880
:1020D00001F082F905462B463C4A0321012000F01D
:1020E00060FC41E0344A3749A01C00F0B4FB38489A
:1020F0008078B8B93348006914223249009002A8A8
:1021000004F008FE02A80FC801F066F905462B4648
:102110002E4A00E027E00321012000F042FC0220CB
:1021200020701EE0FFF738FE26480069142225497A
:10213000009002A804F0EEFD02A80FC801F04CF9CF
:1021400005462B46214A0321012000F02AFC0120EC
:1021500000F001FEC5B21C4B1C4A0121284600F0CC
:1021600020FC01E000E000BF00BF012007B030BD4F
:1021700000B50146087A01284AD1487A03282FD1B0
:102180001448007840BB0120114A50701070D07183
:10219000104A22E0C404002000009842000070426F
:1021A000DA0F49400080FD430000344300007A44C8
:1021B0007002002033336542D40500200000000087
:1021C0008C000020F4030020CC050020CC0300206C
:1021D000940600209100002002E01070032000BD52
:1021E000487A012807D10020454A50701070454AAE
:1021F00010700320F3E7487A022807D10020404AF4
:10220000507010703F4A10700220E8E70320E6E7A4
:10221000488A30B1B0F5807F08D0B0F5907F3BD1CF
:102220001CE00020384A10700220D8E736480078B9
:1022300098B93348407820B10020314A507010706E
:1022400006E001202E4A50701070D071FFF7C1FED9
:1022500001202D4A10700320C1E722E02A480078AF
:10226000C8B92748807820B10020254A90701070A6
:102270000CE02348407828B10020214A507001200A
:10228000907003E001201E4A9070107001201E4AD9
:1022900010700420A3E704E000201B4A1070022005
:1022A0009DE700BF00BF9AE788B0A0218DF800101D
:1022B000C17C8DF80110817C8DF80210417C8DF875
:1022C0000310017C8DF80410C17D8DF80510817D0F
:1022D0008DF80610417D8DF80710017D8DF80810EE
:1022E000C17E8DF80910817E8DF80A10417E8DF82F
:1022F0000B10017E8DF80C1008B0704700BFFEE790
:1023000094060020910000209000002001460878EB
:102310004A7840EA0220C0F30A00FE4A108048785A
:10232000C0108A7840EA4210C0F30A00F94A50808F
:1023300088788011CA7840EA82000A7940EA8220CF
:10234000C0F30A00F34A9080087940104A7940EAC5
:10235000C210C0F30A00EF4AD0804879001180080B
:1023600010724879C0F3011050728879CA7940EA36
:102370000220404200B2E74A5081087A4A7A40EA95
:10238000022002B2E3488281887ACA7A40EA0220B7
:1023900002B2E048C2810A7B02744A7B4274887BA5
:1023A000CA7B40EA0220DB4A50820120704710B508
:1023B0002DED048B0446206910B9D748406B20608E
:1023C000D548406B2168401A00EE100AB8EE400A6A
:1023D000DFEDD20A80EE201A84ED021A94ED020A93
:1023E000F1EE040AB4EEE00AF1EE10FA04DDB7EE05
:1023F000000A84ED030A20E094ED020AB1EE400ADF
:1024000010EE101A084604F04FFE41EC100BB0EE2F
:10241000409AF0EE609A05F02BFCB0EE408AF0EEA8
:10242000608A51EC180B04F052FE00EE100AF7EE31
:10243000000A30EEC00A84ED030A94ED030ABDECF5
:10244000048B10BD70B505460C46A87C10F0010F3A
:1024500020D0B14890F8300010F0010F03D00120D7
:10246000AD49086102E00020AB490861AA48FFF7C6
:102470009EFFAB48B0F9000000EE900AF8EEE00ACB
:1024800020EE200ABDEEC00A10EE100A00B2A449E8
:1024900088802AE0A87C10F0020F21D09E4890F896
:1024A000300010F0020F03D001209B49086102E0C8
:1024B0000020994908619848FFF779FF9848B0F9DA
:1024C0000000404200EE900AF8EEE00A20EE200AFA
:1024D000BDEEC00A10EE100A00B29149888004E0F7
:1024E00000208F4988808C490861A87C10F0040F77
:1024F00021D0894890F8300010F0040F03D001215A
:102500008548816202E00021834881628248183058
:10251000FFF74DFF8248B0F9020000EE900AF8EE96
:10252000E00A20EE200ABDEEC00A10EE100A00B24A
:102530007B49C8802CE0A87C10F0080F22D0764898
:1025400090F8300010F0080F03D00121724881622A
:1025500002E00021704881626F481830FFF727FFC2
:102560006F48B0F90200404200EE900AF8EEE00A2F
:1025700020EE200ABDEEC00A10EE100A00B2684933
:10258000C88005E000206649C88000216248816259
:10259000688A614908636248B0F9040000EE100AD5
:1025A000B8EEC00A84ED000A5D48B0F9060000EEFE
:1025B000100AB8EEC00A84ED010AB5F90A00002835
:1025C00017DD94ED090ADFED570AB4EEE00AF1EEEB
:1025D00010FA29D294ED050AB5F90A0000EE900A26
:1025E000F8EEE00A9FED501A00EE810A84ED080A29
:1025F0001AE0B5F90A00002816DA94ED090ADFEDB1
:102600004B0AB4EEE00AF1EE10FA0DDD94ED050A86
:10261000B5F90A0000EE900AF8EEE00A9FED421AC2
:1026200000EE810A84ED080A94ED080A84ED050A9B
:10263000012070BD70B504460D466088A0F580602D
:10264000002803DD6088A0F5806002E06088C0F5A6
:102650008060642836DD01202F4908616088A0F57C
:102660008060642813DD0846FFF7A1FE2C48B0F90E
:10267000000000EE900AF8EEE00A20EE200ABDEE1F
:10268000C00A10EE100A00B22549888022E0608856
:10269000A0F5806010F1640F1CDA1F48FFF787FE79
:1026A0001F48B0F90000404200EE900AF8EEE00A40
:1026B00020EE200ABDEEC00A10EE100A00B2184942
:1026C000888007E000201449086115498880124875
:1026D000FFF76DFE2088A0F58060002803DD2088CC
:1026E000A0F5806002E02088C0F58060642847DDA6
:1026F0000121094881622088A0F58060642825DDD9
:1027000005481830FFF753FE0548B0F90200404273
:102710000EE00000F4030020940300200000C842F3
:1027200098000020000020420AD7A33B000020C2EE
:1027300000EE900AF8EEE00A20EE200ABDEEC00A94
:1027400010EE100A00B2B749C88023E02088A0F537
:10275000806010F1640F1DDAB348FFF728FEB1481E
:10276000B0F9020000EE900AF8EEE00A20EE200A2E
:10277000BDEEC00A10EE100A00B2AA49C88009E0F6
:102780000021A948183881620020A649C880A648BF
:10279000FFF70DFEA348B0F9040000EE100AB8EEF2
:1027A000C00A85ED000A9F48B0F9060000EE100A45
:1027B000B8EEC00A85ED010AA088C0F58060002847
:1027C00003DDA088C0F5806002E0A088A0F58060ED
:1027D000322804DA9FED950A85ED080A0CE0A088FE
:1027E000C0F5806000EE100AB8EEC00ADFED900A76
:1027F00020EE200A85ED080AD5ED080AB0EE600A41
:10280000DFED8C0A0120FEF75FF885ED080A95EDF3
:10281000050AD5ED080A30EE200A85ED050A86483E
:102820000068052810DD95ED050AD5ED070AB4EE20
:10283000600AF1EE10FA02D00121297601E00021B0
:10284000297600207C4908607B480068401C7A4952
:102850000860012070BD70B504460D4616467248EA
:102860001838406B401C704918394863287A012891
:1028700018D002280CD003281AD101202070002083
:102880006E49087031462846FFF7D4FE022070BD1D
:102890000020207031462846FFF7D4FD6848FFF736
:1028A00067FCF4E7012020706548FFF761FCEEE764
:1028B0000220ECE770B50346002033B1012B1ED097
:1028C000022B3CD0032B69D159E0002014E04FF4D7
:1028D00000740C6000240C724C7208248C72002569
:1028E00005EB400601F10B04A555012404EB40065D
:1028F00001F10B04A555401C0428E8DB4FE04FF420
:1029000000740C6000240C724C7208248C7200203D
:1029100012E032F81040C4F30725002404EB40060F
:1029200001F10B04A55512F81050012404EB4006E8
:1029300001F10B04A555401C0428EADB2FE040F20E
:10294000FF140C6000240C724C7208248C7200205E
:1029500012E032F81040C4F30725002404EB4006CF
:1029600001F10B04A55512F81050012404EB4006A8
:1029700001F10B04A555401C0228EADB0FE00624F8
:102980000C6000240C724C7208248C72AB24CC7244
:1029900015780D731488250A4D7300E000BF00BF41
:1029A00070BD2DE9F04705460E461746984615B905
:1029B0000020BDE8F087424639463046FFF77AFFEF
:1029C0003946204801F074FE8146002401E0601C75
:1029D00004B249461B4801F003FF012801D0FF2C37
:1029E000F5DB0120E5E770B50546022016490860D1
:1029F00016480078C8720DB9002070BD1249114800
:102A000001F056FE0646002401E0601C04B2314687
:102A10000C4801F0E5FE012801D0FF2CF5DB012078
:102A2000EBE7000098000020AC030020000000004D
:102A300017B7D139CDCC4C3EA4000020940600201D
:102A4000F40300200068004008040020A0000020DB
:102A500010B51C2219491A4804F05CF91C221949C6
:102A60001748483804F056F9012010BD10B5044647
:102A70000CB9002010BD12486C38B0F98820D0ED98
:102A8000230AB0EE600A00F148016C3000F0B4FA9D
:102A90000B496C39A1F890000846B0F98820D0EDB8
:102AA000110AB0EE600A48316C3000F0A5FA044912
:102AB0006C39A1F892000120DCE70000C40000207E
:102AC0009C040020A800002010B51C22F749F848FB
:102AD00004F020F9B3EE030AF54880ED310A9FEDCA
:102AE000F50A80ED300A9FEDF40AF44880ED030A00
:102AF000B7EE000A80ED040A1C22F149543004F0BC
:102B000009F91C22EF49ED48943004F003F94FF421
:102B10008060ED49088048808880C880012010BD11
:102B200070B505460C4694ED000AB1EE400AD4EDAE
:102B3000010A30EE200AD4ED030A20EE200AD4ED7B
:102B4000040A94ED021A00EE810A85ED3E0A94ED26
:102B5000000AD4ED010A30EE200AD4ED030A20EE7B
:102B6000200AD4ED040A94ED021A00EE810A85EDE4
:102B70003F0A94ED000AD4ED010A30EE600AD4ED6C
:102B8000030A20EE200AD4ED040A94ED021A00EEA6
:102B9000810A85ED400A94ED000AB1EE400AD4EDB9
:102BA000010A30EE600AD4ED030A20EE200AD4EDCB
:102BB000040A94ED021A00EE810A85ED410A00260E
:102BC0001BE005F1F80000EB860090ED001AD5ED52
:102BD000311A21EE211AB0EE410A95ED301AF0EECD
:102BE000410A0120FDF770FEB1EE400A05F1E80050
:102BF00000EB860080ED000A761C042EE1DB01204C
:102C000070BD00B52DED108B89B0B0EE409AF0EE9E
:102C1000609AB0EE41FA1FEE100A04F045FA41EC5A
:102C2000100B8DED060B19EE900A04F03DFA41EC05
:102C3000100B8DED040BA54890ED000BB0EE40AAF3
:102C4000F0EE60AA90ED000BB0EE40AAF0EE60AAA4
:102C50009DED040B53EC102B9D4890ED000B51ECB7
:102C6000100B04F069F841EC100BB0EE408AF0EE66
:102C7000608A9DED060B53EC102B51EC180B04F001
:102C80005BF841EC100BB0EE40DAF0EE60DA53EC9A
:102C90001D2B51EC180B04F068F941EC100BB0EE51
:102CA00040CAF0EE60CA19EE100A04F0FDF941ECDA
:102CB000100B8DED000B53EC1A2B9DED000B51EC1E
:102CC000100B04F0DAF841EC100BB0EE40EAF0EE35
:102CD00060EA53EC1C2B51EC1E0B04F0D4F841ECD1
:102CE000100BB0EE40DAF0EE60DA53EC1A2B51EC38
:102CF0001D0B04F021F841EC100BB0EE40BAF0EEE1
:102D000060BA53EC1C2B9FED730B51EC100B04F0CD
:102D1000B4F841EC100BB0EE40DAF0EE60DA53ECB0
:102D2000182B51EC1D0B04F0AEF841EC100B8DED9F
:102D3000020B9DED020B664880ED000B634880EDB1
:102D400000BB51EC1B0B04F0C2F900EE100A09B0F5
:102D5000BDEC108B00BD70B52DED028B05461DB985
:102D60000020BDEC028B70BD5448D0ED090AFDEE89
:102D7000E00A10EE900A02B25048D0ED050AB0EE1B
:102D8000600A00F13001543000F036F94B48D0EDC4
:102D9000140AB0EE600A514890ED001A5048D0ED88
:102DA000000AFFF72EFFB0EE408A444890ED0A0A71
:102DB000BDEEC00A10EE100A02B2B0EE480A3F495A
:102DC000703101F1240000F017F900EE100AB8EE9E
:102DD000C00A3A4880ED020A90ED050A80ED070A24
:102DE00090ED050A3F4880ED000A344890ED090A4D
:102DF0003C4880ED010A314890ED0A0A394880EDDF
:102E0000020A2E4890ED140A364880ED030A28483D
:102E1000B0F9AC0000EE100AB8EEC00A314880EDFF
:102E2000040A264890ED1C0A2E4880ED050A234925
:102E30001F48FFF775FE002422E01D48AC3030F932
:102E4000140000EE900AF8EEE00AFDEEE00A10EE43
:102E5000900A02B21648E83000EB8400D0ED000A78
:102E6000B0EE600A04EBC40311481C3000EB830190
:102E70001C3800F0C1F801461B4820F81410641CEF
:102E8000042CDADB01206CE770B52DED048B0646CF
:102E90000C461546012E2BD01448007810B10020A6
:102EA000124908700020BDEC048B70BDEC000020BE
:102EB000C404002000C0DA456666E63FD405002061
:102EC0002401002008010020F40300204801002014
:102ED00050010020000000000000F03FE40000204E
:102EE000E000002034020020CC050020400100203A
:102EF0002078002860D0D4ED018A94ED029A94EDF8
:102F0000030AB5EEC00AF1EE10FA02DD94ED030AF1
:102F100003E094ED030AB1EE400AF6EE000AB4EEC7
:102F2000E00AF1EE10FA02D29FED2C8A05E094ED52
:102F3000030ADFED2B0A80EE208A2A4890ED050A6D
:102F400030EE080A80ED050A274850F8350000EEFB
:102F5000100AB8EEC00A38EEC00AF2EE040A80EE9B
:102F6000201AF0EE419ADFED210AB0EE690A012045
:102F7000FDF7AAFC1B4880ED000A1B4800EBC500CA
:102F800090ED010AB8EEC00A39EE400AF2EE040AEA
:102F900080EE201AF0EE419ADFED150AB0EE690AD4
:102FA0000120FDF791FC0F4880ED010A0120114935
:102FB0000870BDEC048B70BD9FED080A094880EDD8
:102FC000020A9FED060A80ED050A9FED040A80EDD6
:102FD000090A012007490870801EEAE70000000086
:102FE00000002043D4050020BC81000800004843B5
:102FF000000016434001002070B52DED028B054600
:103000000C46B0EE408A164694ED000AF0EE408A77
:1030100084ED008A00EE106AB8EEC00A84ED010A61
:1030200000EE106AB8EEC00A38EE400A84ED030ADA
:10303000287E18B90020BDEC028B70BD287E0628C2
:103040007DD2DFE800F0C70304055793C3E0C2E078
:1030500094ED030AF6EE000A20EE200A84ED030A3E
:1030600094ED000AB5EEC00AF1EE10FA18D194ED15
:10307000030AB5EEC00AF1EE10FA02DD94ED030A80
:1030800003E094ED030AB1EE400AF3EE040AB4EE55
:10309000E00AF1EE10FA03D29FED800A84ED030AF4
:1030A00094ED030AB5EEC00AF1EE10FA02DD94EDDC
:1030B000030A03E094ED030AB1EE400ADFED780A5B
:1030C000B4EEE00AF1EE10FA09D294ED000AB5EE82
:1030D000C00AF1EE10FA02D00120287309E00020A6
:1030E00028739FED6E0A84ED050A9FED6C0A84ED4E
:1030F000060A70E094ED030ADFED6A0A20EE200A6A
:1031000084ED030A94ED000AB5EEC00AF1EE10FA60
:1031100002DD94ED000A03E094ED000AB1EE400AEE
:10312000F2EE040AB4EEE00AF1EE10FA1DD294EDCC
:10313000030AB5EEC00AF1EE10FA04DD00E049E042
:1031400094ED030A03E094ED030AB1EE400AF6EEB3
:10315000000AB4EEE00AF1EE10FA06D25248007E00
:1031600018B99FED4E0A84ED030A34E094ED030A8A
:10317000B5EEC00AF1EE10FA02DD94ED030A03E0A9
:1031800094ED030AB1EE400AF6EE000AB4EEE00A4E
:10319000F1EE10FA07D24448007E20B99FED3F0AB5
:1031A00084ED030A15E0D4ED030AB0EE600ADFED0A
:1031B0003F0A0120FDF788FB84ED030AD4ED030AE2
:1031C000B0EE600A3A4B3B4A05210120FDF797FB20
:1031D00001E000E000BF00BF95ED000AD4ED030A56
:1031E00020EE200A84ED020A94ED020A84ED080A1A
:1031F000287B20B394ED050AD4ED030A30EE200AB3
:1032000084ED050A94ED050AD5ED010A20EE200AA9
:1032100084ED060A95ED041AF0EE410A94ED061AC3
:10322000B0EE410A287BFDF74FFB84ED060A94EDD2
:10323000080AD4ED060A30EE200A84ED080A687BFD
:10324000B8B194ED030AD4ED040A30EE600AD5ED6E
:10325000020A20EE200A84ED070A94ED030A84EDA9
:10326000040A94ED020AD4ED070A30EE200A84ED38
:10327000080A95ED051AF0EE410A94ED081AB0EE31
:10328000410A287EFDF720FB84ED080A94ED080A28
:10329000BDEEC00A10EE100A00B2CCE6000000003D
:1032A0000000C843CDCCCC3DD40500200000204216
:1032B0005C0100207001002010B52DED028BB0EEF6
:1032C000408A0024FE4880ED008AFE4890ED340AD2
:1032D000BDEEC00A10EE100A02B2F94890ED000AE5
:1032E000F949FA48FFF788FE00EE100AB8EEC00A66
:1032F000F44880ED3A0A90ED340ABDEEC00A10EEB3
:10330000100A02B2EE4890ED000AEF49EF48FFF7CD
:1033100073FE404200EE100AB8EEC00AE94880EDA4
:103320003B0A90ED340ABDEEC00A10EE100A02B25C
:10333000E34890ED000AE449E448FFF75DFE4042AF
:1033400000EE100AB8EEC00ADE4880ED3C0A90EDAF
:10335000340ABDEEC00A10EE100A02B2D84890ED51
:10336000000AD949D948FFF747FE00EE100AB8EE27
:10337000C00AD44880ED3D0A00BF21E0D148AC30FE
:1033800030F9140000EE900AF8EEE00AFDEEE00AD3
:1033900010EE900A02B2CB48E83000EB8400D0ED8A
:1033A000000AB0EE600A04EBC403C6481C3000EB10
:1033B00083011C38FFF720FEC54921F81400641C66
:1033C000042CDBDBC24BC34A01210846FFF7E9FAB4
:1033D0000120BDEC028B10BD0FB420B50025BDF857
:1033E0001A00BD49098888420DD1BB48008850B1F8
:1033F000BA480068401CB949086008460068782847
:1034000009D9012507E00020B44908600025BDF86E
:103410001A00B14908809DF8100001280CD19DF8D0
:103420001100022808D10020AD494872012008721D
:103430000020AC49086008E09DF81100022804D083
:103440000120A749487200200872BDF81A0018B17F
:1034500015B90020A4490870A148807800BBA04895
:103460000078E8B99E484078D0B99D48007820801F
:1034700000209E4908709E4908709E49087098492E
:103480004872984908609649C87108729A4908704C
:103490009A4908709A490870204620BC5DF814FBD0
:1034A0008F488078002868D08F480078002859D14C
:1034B000002D57D0BDF81A0010F0400F21D0BDF8F4
:1034C0001A0010F0800F1CD08848007850B90120F5
:1034D000834908708549087000208549087085492E
:1034E00008700AE017207E49087000207F490870A4
:1034F00001207F4908707F49087001207A490870CF
:1035000030E0BDF81A0010F0400F13D07848007872
:1035100030B902207249087001207549087005E031
:1035200015206F49087000207149087001206E490C
:10353000087017E0BDF81A0010F0800F12D06D4827
:10354000007830B903206649087001206949087085
:1035500005E01620624908700020664908700120C5
:10356000614908705E48007820802078208020889B
:1035700040F4304000B22080B3E159484078002840
:10358000FAD05948007828BB25B3BDF81A0010F0CE
:10359000800F1FD05748007870B95148407A58B111
:1035A00001205449087000204D49487201200872DA
:1035B00000204C4908600DE04E48007850B1484862
:1035C000407A38B900204B490870012044494872BC
:1035D000002008724248C07900286FD0494890ED19
:1035E000000AFFF769FE46480078E8BB46480078C5
:1035F00050B94648407838B90120434908709FEDDA
:10360000440A404880ED000A3F480078A0B13F4896
:103610004078032810D10220314908700120364932
:103620000870002038490870FEF7D3FC9FED390A76
:10363000344880ED000A3DE12F480078A8B13348B6
:1036400040780F2811D103202549087001202B490B
:103650000870002028490870FEF7BBFC9FED2E0A79
:10366000284880ED000A25E117E02448007800286A
:10367000E1D0264840783F28DDD101201849087064
:103680001F49087000201D490870FEF7A2FC9FED3D
:10369000220A1C4880ED000A0CE119480078002835
:1036A000C9D01A48407803283ED102200C4908703E
:1036B000012011490870FEF78CFC2FE060E000004B
:1036C000C4010020C4040020A00600208C010020BA
:1036D000CC050020CC030020B0010020B401002064
:1036E00094060020B8010020AF010020AE010020A8
:1036F000AC010020AD010020BC010020BD01002074
:10370000BE010020A8010020BF010020840100208C
:103710000000FA430000FA44000048449FED730A99
:10372000734880ED000AC5E07248007888B172489D
:1037300040780F280DD1032070490870012070498E
:103740000870FEF746FC9FED6F0A694880ED000A9D
:10375000B0E06B480078002885D0674840783F2863
:103760009AD10120654908700020C8710120487273
:10377000FEF72FFC9FED5D0A5D4880ED000A99E0A1
:103780005E48007A002887D05A480078F0B35A483B
:10379000407820B95C480068401C5B490860554887
:1037A000007890B15948007878B15548007860B1F8
:1037B0005148407848B954480068C82805D91720AE
:1037C0004E4908700020504908604B484078032853
:1037D0000AD116204949087000204C490870484910
:1037E00008704949086065E048480078A0BB444833
:1037F000007888BB4048407870BB15203F4908706E
:103800000120424908703E49087000E005E00020B0
:10381000384908703C4908604CE036480078D8B90F
:103820003548407820B938480068401C364908605F
:103830003648007888B13248007870B12E48407818
:1038400058B931480068B0F5487F06D917202B4990
:10385000087000202C4908602CE02C48007888B1C2
:103860002748007870B12448407803280AD11620F0
:103870002249087000202549087021490870224912
:10388000086017E021480078A0B91D48007888B981
:103890001948407870B91520184908701A4800680E
:1038A000B0F5487F06D9002008729FED190A194823
:1038B00080ED000A1148C07948B91048007A30B943
:1038C0000E48407A18B900200C49487008700B481F
:1038D0000078208020782080208840F4204000B2AA
:1038E00020802046D9E5F0EE400A704700808944E8
:1038F000A8010020BC0100208401002094060020C3
:10390000BD01002000004843B8010020BE01002096
:1039100000000000D405002000B597B00121F74851
:1039200002F080F80121480402F0C5F802208DF869
:10393000480000208DF84A0001208DF84B0003203C
:103940008DF849000420119011A9ED4801F0CCFD3B
:103950000820119011A9EA4801F0C6FD07220221B2
:10396000E74801F04CFE07220321E54801F047FE3D
:103970004FF4E13013900020ADF85000ADF8520044
:10398000ADF854000C20ADF856000020ADF85800FA
:1039900013A9DC4801F057FA01224021D94801F06F
:1039A00087FB01228021D74801F082FB0121D54805
:1039B00001F0D1FAD44802F0DBFF4FF00060019033
:1039C000D048001D0290D148039000200490502060
:1039D0000590002006904FF480600790002008902A
:1039E00009904FF480700A904FF440300B90002003
:1039F0000C900D900E900F9001A9C34803F05AF857
:103A0000C148183002F0B4FF4FF000600190BD488B
:103A1000001D0290BE480390402004901D20059098
:103A2000002006904FF480600790002008900990D5
:103A30000A904FF440300B9000200C9001200D9024
:103A400000200E900F9001A9AF48183003F032F813
:103A500026208DF8400001208DF841008DF84200AD
:103A60008DF8430010A800F024FC11208DF84000D0
:103A700002208DF841008DF8420001208DF84300AE
:103A800010A800F016FC012240F224419D4801F0EC
:103A900018FB012210219C48183003F0D1F80121B5
:103AA000994803F041F801219748183003F03CF899
:103AB00001224021934801F0FBFA01228021914824
:103AC00001F0F6FA01218F4801F045FA17B000BD68
:103AD00000B597B001218948401C01F0A3FF0121E6
:103AE000880401F0E8FF02208DF8480000208DF8DE
:103AF0004A0001208DF84B0003208DF849004FF457
:103B00008060119011A9834801F0EEFC4FF4006031
:103B1000119011A97F4801F0E7FC07220A217D4896
:103B200001F06DFD07220B217A4801F068FD4FF48A
:103B3000E13013900020ADF85000ADF85200ADF820
:103B400054000C20ADF856000020ADF8580013A921
:103B5000714801F078F9012240216F4801F0A8FA7C
:103B6000012280216C4801F0A3FA01216A4801F08A
:103B7000F2F96548603802F0FBFE4FF000600190FA
:103B80006548001D029065480390002004900E20B7
:103B90000590002006904FF4806007900020089068
:103BA00009904FF480700A904FF440300B90002041
:103BB0000C900D900E900F9001A95348603802F0C0
:103BC00079FF27208DF8400000208DF841008DF806
:103BD000420001208DF8430010A800F06AFB01228A
:103BE00040F224414C4801F06CFA0121464860380B
:103BF00002F09AFF01224021474801F059FA0121C1
:103C0000454801F0A8F917B000BD10B544493E4839
:103C1000183002F0E6FF60B141493B48183002F02D
:103C2000FBFF00213848183002F07EFF00203D499C
:103C3000087010BD70B504460D4600BF39480078C5
:103C40000028FBD10120374908702A462146304818
:103C500003F060F829462C48183002F086FF012155
:103C60002948183002F060FF70BD70B588B0054675
:103C700000240026AA208DF800008DF80100F12014
:103C80008DF8020018208DF8030000BF23E005EB3B
:103C90008400C178002000EB8400001D0DF80010A6
:103CA00005EB84008178012000EB8400001D0DF8F5
:103CB000001005EB84004178022000EB8400001D19
:103CC0000DF8001015F82410032000EB8400001DEF
:103CD0000DF80010641C062CD9DB002404E01DF84C
:103CE00004003044C6B2641C1C2CF8DB8DF81C6048
:103CF0001D216846FFF79EFF08B070BD010020003F
:103D0000000002400044004088600240E4060020B9
:103D1000720700200004024000480040C406002052
:103D200000002020CC01002070B588B00546002698
:103D3000AA208DF800008DF80100EF208DF8020018
:103D400002208DF8030010208DF80400E8B28DF8F1
:103D50000500002405E01DF80400304486B2601C14
:103D600084B2062CF7DBF0B28DF806000721684616
:103D7000FFF760FF08B070BD10B5002440F2244189
:103D8000F84801F0D9F9002853D0F6480088F548E2
:103D9000001D0088F44802F00AFF002849D10021E4
:103DA000F14802F0C1FEF04802F0E1FEC0F10E0061
:103DB000EE4908600E20EC492839C8620121EA4822
:103DC00002F0B2FEEA480078AB2832D1E848407BE6
:103DD000E8490870E64840780871E5488178E54888
:103DE0004171E348C178E3488171E1480179E148D4
:103DF000C171DF484079DF490872DD488179DD48CB
:103E00004172DB48C179DB488172D948017AD948CF
:103E1000C172D748407AD7490873D548817AD548C6
:103E20004173D348C17AD3488173D148017BD148CB
:103E3000C17310BD10B5002440F22441CE4801F0FA
:103E40007BF900287ED0CC480088CB48001D008834
:103E5000C548603002F0ABFE002873D10021C24893
:103E6000603002F061FEC048603002F080FEC0F1B8
:103E70005000C24908605020C14908604FF001015C
:103E8000C04802F051FEC0480078A528E5D1BE48E0
:103E90004079012806D0022864D0032876D004286F
:103EA0005FD1C0E0B848C079B749097A00EB01207A
:103EB000B549497A00EB0140B349897A00EB0160CA
:103EC000B2490880B048C07AAF49097B00EB0120B5
:103ED000AE494880AC48407BAD490870AA48807B19
:103EE0004870A948C07B8870A748007CC870084605
:103EF00090ED000AA54880ED010AA348407CA54941
:103F00000870A148807C48709F48C07C88709E489B
:103F1000007DC870084690ED000A9C4880ED020ABA
:103F200090ED010AD0ED020A20EE200A80ED030A8E
:103F3000954890F8260098490870934890F8270013
:103F4000487000E0D1E0904890F8280088708E48D2
:103F500090F82900C870084690ED000A8B4880ED63
:103F6000050AC1E08848C07900098C494870864834
:103F7000C07900F00F0008708348007A8249497ABE
:103F800000EB012085494880AEE0FFE77E48C0791C
:103F9000834908707C48007A48707B48407A887072
:103FA0007948807AC870084690ED000A7D4880ED17
:103FB000000A7548C07A7C4908707348007B4870D5
:103FC0007148407B88707048807BC870084690EDCF
:103FD000000A744880ED010A6B48C07B7349087081
:103FE0006948007C48706848407C88706648807CDE
:103FF000C870084690ED000A6A4880ED020A6248DF
:10400000C07C6B4908706048007D48705E48407D08
:1040100088705D48807DC870084690ED000A614850
:1040200080ED030A60E05848C07900F00100614962
:1040300008705548C079C0F3800048705248C07974
:10404000C0F3001088705048C0798009C8704E488D
:10405000007A00F0070008714B48007AC0F30210A4
:1040600048714948407A00F0070088714648407A14
:10407000C0F30210C8714448807A00F0070008724B
:104080004148807AC0F3021048723F48C07A00F07D
:10409000070088723C48C07AC0F30210C8723A48E0
:1040A000007B00F0010008733748007BC0F300106C
:1040B00048733548407BC8813348807B0002C88103
:1040C0003148C07B08823048007C000208822E48BC
:1040D000407C00F0070088742B48407CC0F302103D
:1040E000C8742948807C087500BF10BD30B50346F0
:1040F00013B94FF6FF7030BD09E013F8014B82EAA7
:104100000400C0B22C4D35F8100080EA22220800CD
:10411000A1F10101F1D11046EDE770B505460C465D
:1041200000260DB1022C00D870BDA11E23480288C4
:104130002846FFF7DBFF0646A01E2E54310A601EFC
:10414000295400BFF0E730B5034605E013F8010B32
:1041500080EA02041A48025D0800A1F10101F5D1CC
:10416000104630BD0048004028600240DC010020BD
:10417000C4060020D406002000440040E0010020D6
:104180008C60024088600240E40600203407002072
:10419000EC010020F0010020F8010020E4010020E3
:1041A000FC0100204C070020000200200402002037
:1041B000080200205C070020FE820008D8010020D1
:1041C000FD81000870B505460C4600260DB1022C95
:1041D00000D870BD611EFF222846FFF7B4FF0646D7
:1041E000601E2E5400BFF4E710B50446A5202070D1
:1041F0000C2060700020A0700420E0700521204693
:10420000FFF7E0FF052060710020A0711521204616
:10421000FFF783FF10BD70B505460C4600260DB1B3
:10422000022C01D8002070BD611EFF222846FFF736
:104230008AFF0646601E285CB04201D10120F2E7E9
:104240000020F0E770B505460C4600260DB1022CA3
:1042500001D8002070BDA11E094802882846FFF73A
:1042600045FF0646F1B2A01E285C814206D1601EC1
:10427000285CB0EB162F01D10120EBE70020E9E725
:10428000D80100200648804706480047FEE7FEE7C1
:10429000FEE7FEE7FEE7FEE7FEE7FEE7FEE7FEE7F6
:1042A000A75200088901000833490143334A1160CD
:1042B000704770B5002100230F22C47824B32F4C1F
:1042C000246804F4E064C4F5E064C4F30721C1F198
:1042D0000404E3B20A4144789C40E1B2847814407B
:1042E00021430C07210E264C05786155047804F013
:1042F0001F050124AC4005786D114FF0E02606EB58
:104300008505C5F8004109E0047804F01F04012583
:10431000A5401C4C0678761144F8265070BD1A4A08
:104320000A400243154B1B1F1A60704739B1134AEC
:10433000121D12680243114B1B1D1A6006E00F4A42
:10434000121D126882430D4B1B1D1A607047042812
:1043500008D14FF0E021096941F004014FF0E0225B
:10436000116107E04FF0E021096921F004014FF0ED
:10437000E0221161704700000000FA050CED00E03A
:1043800000E400E080E100E080FFFF1F10B504467C
:10439000FE48844209D10121480601F0E1FB0021D9
:1043A0004FF0007001F0DCFB08E00121880601F00D
:1043B000D7FB00214FF0806001F0D2FB10BD30B57B
:1043C000024600200023146824F0020414601468DC
:1043D00044F00104146000E05B1C546814F0010F09
:1043E00003D1A3F57F44FF3CF6D1546814F0010FCC
:1043F00001D100206CE08C79012C04D1146844F0C8
:104400008004146003E0146824F080041460CC7904
:10441000012C04D1146844F04004146003E01468D3
:1044200024F0400414600C7A012C04D1146844F088
:104430002004146003E0146824F0200414604C7A13
:10444000012C04D1146844F01004146003E01468D3
:1044500024F0100414608C7A012C04D1146844F008
:104460000804146003E0146824F008041460CC7A93
:10447000012C04D1146844F00404146003E01468AF
:1044800024F0040414608C78A407CD7844EA056411
:104490000D7944EA05444D7944EA05540D886D1EB2
:1044A0002C43D461146824F001041460002300E05C
:1044B0005B1C546814F0010F03D0A3F57F44FF3C4C
:1044C000F6D1546814F0010F01D0002000E0012063
:1044D00030BD10B50021837A012202FA03F1AC4A03
:1044E000126842F00102AA4B1A60A94A1C321268F3
:1044F0008A43A74B1C331A60027BCAB9A44A0C3208
:1045000012688A43A24B0C331A604288C38842EA7D
:1045100003439F4A4032847A42F8343002888388C9
:1045200042EA03439A4A4032847A02EBC40253605F
:10453000027B012A19D1964A0C3212680A43944B25
:104540000C331A604288038842EA0343904A40329F
:10455000847A42F83430C288838842EA03438C4A22
:104560004032847A02EBC4025360C27A3AB9884A74
:10457000121D12688A43864B1B1D1A6006E0844A8E
:10458000121D12680A43824B1B1D1A60028932B940
:104590007F4A143212688A437D4B14331A600289B1
:1045A000012A06D17A4A143212680A43784B14332E
:1045B0001A60427B012A06D1754A1C3212680A43EE
:1045C000734B1C331A60724A126822F00102704B5E
:1045D0001A6010BD00218171C17101724172817236
:1045E000C1728170C17003210171022141710121E9
:1045F000018070476649096841F00101644A116011
:104600001146096843F60E729143614A11601146E2
:10461000096841EA002111601146096821F0010191
:104620001160704721B1026842F48032026003E0F9
:10463000026822F4803202607047E1B1026842F001
:10464000800202604FF4C272125842F480734FF439
:10465000C27213504FF4CA72125842F480734FF46E
:10466000CA7213504FF4D272125842F480734FF44E
:10467000D27213501BE0026822F0800202604FF4F5
:10468000C272125822F480734FF4C27213504FF466
:10469000CA72125822F480734FF4CA7213504FF446
:1046A000D272125822F480734FF4D27213507047B2
:1046B00010B502460020936803F08063B3F1806F69
:1046C00000D110E0936803F00063B3F1006F01D1F3
:1046D000012008E0936803F08053B3F1805F01D1BB
:1046E000022000E00420042879D002F5C07303EB17
:1046F00000131B6803F0010402F5C07303EB001301
:104700001C600B7A7BB94B7A0C8843EA445302F560
:10471000C07404EB00142468234302F5C07404EB56
:104720000014236010E00B7A4C6843EAC4034C7A0F
:10473000234302F5C07404EB00142468234302F5FC
:10474000C07404EB001423608B7A03F00F038B72A8
:1047500002F5C07303EB00135B6823F00F0402F54E
:10476000C07303EB00135C6002F5C07303EB00132E
:104770005B688C7A234302F5C07404EB0014636019
:104780008B7B1C064B7B44EA034403E0006400403F
:10479000006600400B7B44EA0323CC7A234302F5F6
:1047A000C07404EB0014A3608B7C1C064B7C44EAB1
:1047B00003440B7C44EA0323CC7B234302F5C074FF
:1047C00004EB0014E36002F5C07303EB00131B68F5
:1047D00043F0010402F5C07303EB00131C6010BD2D
:1047E00010B50246002321B1012907D002290FD1BB
:1047F00009E09068F84C00EA04030BE09068F74C7D
:1048000000EA040306E09068F54C00EA040301E0C6
:10481000002300BF00BFF34C181BA34216D007DCD7
:1048200083B16FF0806018180ED0022818D111E003
:10483000B0F5007F10D0EC4C001909D0B0F5003F66
:104840000ED10BE002230DE000230BE0002309E072
:10485000002307E0012305E0012303E0012301E039
:10486000002300BF00BFD8B210BD21B1012907D07D
:1048700002290FD109E0826842F0800282600AE0DA
:10488000826842F40042826005E0826842F40002DD
:10489000826000E000BF00BF704710B500F5D8731C
:1048A00003EB01131B6803F004031372137A53B96B
:1048B00000F5D87303EB01131B6840F2FF7404EAA0
:1048C0005353136009E000F5D87303EB01131B6821
:1048D0006FF0604404EAD303536000F5D87303EB30
:1048E00001131B6803F00203537200F5D87303EB46
:1048F00001135B6803F00F03937200F5D87303EBA9
:1049000001135B681B0AD37400F5D87303EB011322
:104910009B68D37200F5D87303EB01139B681C0AE4
:10492000147300F5D87303EB01139B681C0C5473CC
:1049300000F5D87303EB01139B681B0E937300F50E
:10494000D87303EB0113DB68D37300F5D87303EB63
:104950000113DB681C0A147400F5D87303EB011310
:10496000DB681C0C547400F5D87303EB0113DB688F
:104970001B0E937421B9C36843F02003C36003E0A6
:10498000036943F02003036110BD21B9C26842F0FE
:104990002002C26003E0026942F020020261704717
:1049A0000246002019B9D36803F0030006E001298C
:1049B00003D1136903F0030000E00020704710B535
:1049C00002460B4600204FF6FF71BBB9146824F075
:1049D000020444F00104146000E0491E546804F02D
:1049E0000304012C01D00029F7D1546804F003041A
:1049F000012C01D0002032E0012030E0012B13D146
:104A0000146824F00304146000E0491E546814F094
:104A1000030F01D00029F8D1546814F0030F01D01E
:104A200000201CE001201AE0022B17D1146824F0AA
:104A3000010444F00204146000E0491E546804F0CC
:104A40000304022C01D00029F7D1546804F00304B8
:104A5000022C01D0002002E0012000E0002010BD67
:104A6000014600200A6822F0010242F002020A60B8
:104A70004A6802F00302022A00D101207047014671
:104A80004FF6FF7200200B6823F002030B6000E07A
:104A9000521E4B6803F00203022B01D1002AF7D10A
:104AA0004B6803F00203022B00D00120704701463F
:104AB00000208A6902F070007047014600208A6970
:104AC000100E7047014600208A69C2F30740704704
:104AD0001AB143690B43436102E043698B4343616D
:104AE000704710B50246002011F4700F08D093698A
:104AF000C1F31304234201D001202DE000202BE05C
:104B000011F0807F08D05368C1F31304234201D011
:104B1000012021E000201FE011F0006F08D0936811
:104B2000C1F31304234201D0012015E0002013E05B
:104B300011F0007F08D0D368C1F31304234201D0E1
:104B4000012009E0002007E01369C1F313042342A8
:104B500001D0012000E0002010BD0022234B99422B
:104B600002D10023836111E0C1F3130211F0007F31
:104B700001D0C2600AE011F0806F01D0026105E04F
:104B800011F0006F01D0826000E042607047024681
:104B900000200A4201D0012000E00020704770B5DB
:104BA00004460D4600266069284272D0B5F5807F24
:104BB00069D01DDC082D42D006DC012D2DD0022D40
:104BC00031D0042D7FD134E0102D3ED0202D42D0A5
:104BD000402D78D145E000000300000400030008E8
:104BE00000000310000100080001FFF77000F03022
:104BF000B5F5004F61D009DCB5F5007F4AD0B5F5B9
:104C0000806F4DD0B5F5006F5DD150E0B5F5803FB8
:104C10002DD0B5F5003F56D12FE0A0685549FFF7DC
:104C2000B6FF064651E0E0680321FFF7B0FF0646F5
:104C30004BE0E0680821FFF7AAFF064645E0E06880
:104C40001021FFF7A4FF06463FE020690321FFF78C
:104C50009EFF064639E020690821FFF798FF0646C7
:104C600033E020691021FFF792FF06462DE06068CF
:104C70000821FFF78CFF064627E060681021FFF748
:104C800086FF064621E0A0690121FFF780FF064666
:104C90001BE01BE0A0690221FFF779FF064614E044
:104CA000A0690421FFF773FF06460EE00BE0A06940
:104CB0007021FFF76CFF064607E060680421FFF7EC
:104CC00066FF064601E0002600BF00E000263046F1
:104CD00070BDB1F5007F3AD00FDC202928D006DC6A
:104CE00001291CD004291DD0082940D11DE04029EC
:104CF00021D0B1F5807F3AD126E0B1F5004F31D017
:104D000006DCB1F5806F25D0B1F5006F2FD124E01E
:104D1000B1F5803F12D0B1F5003F28D111E0154A1E
:104D2000826025E00822C26022E01022C2601FE0FB
:104D3000082202611CE01022026119E00822426090
:104D400016E01022426013E00422426010E00422C8
:104D500042600DE0042242600AE0002282610422E7
:104D6000426005E0002282610422426000E000BF50
:104D700000BF70470101010010B50446FA488442A3
:104D800008D10121102000F0FCFE0021102000F0CD
:104D9000F8FE57E0F548844209D10121480400F0AB
:104DA000DFFE00214FF4003000F0DAFE4AE0F04868
:104DB000844209D10121880400F0D2FE00214FF481
:104DC000802000F0CDFE3DE0EA48844209D1012177
:104DD000C80400F0C5FE00214FF4002000F0C0FE22
:104DE00030E0E548844209D10121080500F0B8FE11
:104DF00000214FF4801000F0B3FE23E0DF4884422E
:104E000008D10121202000F0BCFE0021202000F06C
:104E1000B8FE17E0DA48844209D10121880700F082
:104E20009FFE00214FF0804000F09AFE0AE0D54836
:104E3000844207D10121400500F092FE0021600567
:104E400000F08EFE10BD2DE9FF4705460E460024FA
:104E5000A14600BFA046B08900B100BF2C8A24F44F
:104E60004054F08804432C82AC8941F20C608443A6
:104E7000B08831890843718908430443AC81AC8A06
:104E800024F44074B0890443AC82684600F0F9FC15
:104E9000B548854202D0B948854202D1DDF80C9070
:104EA00001E0DDF80890A88910F4004F08D009EB64
:104EB000C90000EB091031684900B0FBF1F707E0C9
:104EC00009EBC90000EB091031688900B0FBF1F76C
:104ED0006420B7FBF0F004012009642101FB107885
:104EE000A88910F4004F08D0322000EBC800B0FBB6
:104EF000F1F000F00700044308E0322000EB081056
:104F00006421B0FBF1F000F00F0004432C81BDE8F8
:104F1000FF874FF41651016000218180C18001811B
:104F20000C21418100218181704710B5024600208B
:104F3000108A20F470600B884C8823438C882343AC
:104F4000CC8823431843108210BD0021018041808A
:104F50008180C180704721B1828942F400528281F0
:104F600004E082894DF6FF731A4082817047028BFC
:104F700002F47F420283028B0A430283704721B10D
:104F8000828942F40042828103E08289C2F30E02E8
:104F90008281704721B1828A42F40062828204E0F9
:104FA000828A4FF2FF731A4082827047C1F308026F
:104FB0008280704701468888C0F308007047028AE3
:104FC0004FF6F0731A400282028A0A430282704747
:104FD00021B1828942F00202828104E082894FF687
:104FE000FD731A408281704782894FF2FF731A4025
:104FF000828182890A4382817047028A4FF6DF7379
:105000001A400282028A0A430282704721B1028A50
:1050100042F48042028204E0028A4BF6FF731A4097
:1050200002827047818941F001018181704721B17D
:10503000828A42F00802828204E0828A4FF6F77385
:105040001A4082827047028BD2B20283028B42EAFC
:1050500001220283704721B1828A42F020028282BB
:1050600004E0828A4FF6DF731A408282704721B1D2
:10507000828A42F01002828204E0828A4FF6EF7345
:105080001A4082827047828A4FF6FB731A408282EE
:10509000828A0A438282704721B1828A42F00202E8
:1050A000828204E0828A4FF6FD731A408282704742
:1050B0001AB1838A0B43838202E0838A8B43838203
:1050C0007047F0B503460024002600250020A1F516
:1050D00010676A3F00D100BF1846C1F3421401F0C7
:1050E0001F06012707FA06F5012C01D10C3004E058
:1050F000022C01D1103000E014301AB107682F43A0
:10510000076002E00768AF430760F0BD0246002079
:10511000B1F5007F00D100BF13880B4201D0012000
:1051200000E00020704701F40072B2F5007F00D16A
:1051300000BFCA430280704770B5024600240023B6
:1051400000250020A1F510666A3E00D100BFC1F322
:10515000421501F01F03012606FA03F3012D13D1B6
:105160009689334017E000000010014000440040E1
:1051700000480040004C0040005000400014014036
:1051800000780040007C0040022D02D1168A334096
:1051900001E0968A33400C12012606FA04F41688C0
:1051A000344013B10CB1012000E0002070BD10B5F7
:1051B00000220023A1F510646A3C00D100BF0A124E
:1051C00001249440A3B2DC43048010BD0CB5002040
:1051D000019000907648006840F48030744908607F
:1051E00000BF7348006800F4003000900198401C34
:1051F0000190009818B90198B0F5A04FF1D16C4812
:10520000006810F4003F02D00120009001E000206F
:1052100000900098012845D165484030006840F072
:1052200080506349403108606248006840F4404063
:10523000604908605E48083000685D4908310860D0
:105240000846006840F4004008600846006840F4E2
:10525000A05008605848091F0860081F006840F007
:105260008070091F086000BF5148006810F0007F7F
:10527000FAD040F20570514908604D480830006886
:1052800020F003004A49083108600846006840F0F1
:105290000200086000BF46480830006800F00C00BB
:1052A0000828F8D10CBD70B50124012544480068D8
:1052B00040F47000424908603D48006840F0010039
:1052C0003B49086000203A490831086038480068C6
:1052D0003C490840364908603B48091D0860081FE2
:1052E000006820F48020091F0860002030490C313C
:1052F0000860FFF76BFFE00631498039086070BD38
:1053000070B500200022022300240221284D083518
:105310002D6805F00C0020B1042806D0082834D1EF
:1053200007E02A4D2A4E356033E02A4D284E35607D
:105330002FE01F4D2D1D2D68C5F380541C4D2D1DD4
:105340002D6805F03F0154B1224DB5FBF1F5184E23
:10535000361D3668C6F3881605FB06F209E01B4DBC
:10536000B5FBF1F5124E361D3668C6F3881605FBFF
:1053700006F20F4D2D1D2D68C5F301456D1C6B0008
:10538000B2FBF3F5124E356003E0104D104E356060
:1053900000BF00BF064D08352D68C5F303150E4E3E
:1053A000705D0B4D2D68C540094E356070BD000025
:1053B000003802400070004008544007003C0240A2
:1053C00088ED00E0FFFFF6FE103000240024F4001A
:1053D0000C02002000127A001002002010B50446D2
:1053E0009848844208D10121084600F086FB00213C
:1053F000012000F082FB76E09348844208D101212D
:10540000022000F07AFB0021022000F076FB6AE027
:105410008E48844208D10121042000F06EFB002157
:10542000042000F06AFB5EE08948844208D1012133
:10543000082000F062FB0021082000F05EFB52E033
:105440008448844208D10121102000F056FB00213D
:10545000102000F052FB46E07F48844208D1012131
:10546000202000F04AFB0021202000F046FB3AE01B
:105470007A48844208D10121402000F03EFB0021FF
:10548000402000F03AFB2EE07548844208D101210B
:10549000802000F032FB0021802000F02EFB22E073
:1054A0007048844208D10121801500F026FB0021BC
:1054B000A01500F022FB16E06B48844208D10121C0
:1054C000401500F01AFB0021601500F016FB0AE001
:1054D0006648844207D10121001500F00EFB00212F
:1054E000201500F00AFB10BDF0B50A46002100238C
:1054F000002400BF3DE0012505FA01F3156805EA27
:1055000003049C4234D105684F000326BE40B543D6
:10551000056015794E00B54006683543056015797C
:10552000012D02D01579022D16D185684F00032672
:10553000BE40B543856055794E00B5408668354319
:105540008560456801268E40B5434560456896797B
:105550008E40B6B235434560C5684F000326BE4055
:10556000B543C560D5794E00B540C6683543C560C2
:10557000491C1029BFD3F0BD4FF6FF710160002117
:10558000017141718171C171704708B54FF480326A
:105590000092009A0A430092009AC261C161009A87
:1055A000C261C2690092C269009208BD0246002031
:1055B00013690B4201D0012000E000207047014632
:1055C000086980B270470246002053690B4201D03F
:1055D000012000E0002070470146486980B2704712
:1055E00001837047418370470AB1018300E0418322
:1055F00070474161704742694A4042617047F0B567
:10560000002300244D07ED0E02FA05F3CE1000F141
:10561000200555F826504E07F70E0F26BE40B5431D
:10562000CF1000F1200646F82750CE1000F12005DB
:1056300055F8265045EA0304CE1000F1200545F840
:105640002640F0BD00000240000402400008024075
:10565000000C0240001002400014024000180240FA
:10566000001C0240002002400024024000280240AA
:10567000F948006840F00100F74908600020F64949
:1056800008310860F4480068F4490840F2490860AD
:10569000F348091D0860F348EF4984310860F04879
:1056A0001038091D0860EC48006820F48020EA49A1
:1056B00008600020E8490C310860E7498C31086037
:1056C00070470021E44A921C11701146087070471F
:1056D00010B501460022002300204A11012A02D100
:1056E000DD4C236808E0022A03D1DB4C70342368C8
:1056F00002E0D94C7434236801F01F020124944065
:105700001C4201D0012000E0002010BD38B500206F
:1057100000900024002500BF3120FFF7D9FF054687
:105720000098401C00900098B0F5A04F01D0002DCB
:10573000F2D03120FFF7CCFF08B1012400E00024B3
:10574000204638BD01460020C34A106820F0F8000A
:1057500040EAC10010607047C349086070470021EB
:10576000BD4A703211701170012802D004280AD18C
:1057700004E00121B84A7032117005E00521B64AF3
:105780007032117000E000BF00BF7047B749086079
:10579000704770B5049C41EA82150126C6EB53069A
:1057A00045EA0645054345EA0465AB4E361D3560BE
:1057B00070BDAD4908667047820142EA0172A64B8E
:1057C00084331A607047A8498866704710B5830112
:1057D00043EA016343EA02739F4C8834236010BD9F
:1057E000A14908677047A049C86470470246002075
:1057F000994B0833186820F0EC6042EA0103184323
:10580000954B08331860704702460020924B0833CE
:10581000186820F0784042EA010318438E4B0833A1
:1058200018607047014600208B4A0832106820F04B
:10583000030008431060704787480830006800F094
:105840000C00704701460020834A0832106820F09F
:10585000F000084310607047014600207E4A08327D
:10586000106820F4E05008431060704701460020A3
:10587000794A0832106820F4604040EAC1001060A4
:105880007047F0B5002100220024022500260223E3
:10589000714F08373F6807F00C0121B1042905D08A
:1058A000082937D105E0724F076036E0714F076075
:1058B00033E0694F3F1D3F68C7F38056664F3F1D79
:1058C0003F6807F03F036EB16A4FB7FBF3F7DFF8AD
:1058D00088C10CF1040CDCF800C0CCF3881C07FB79
:1058E0000CF40CE0624FB7FBF3F7DFF86CC10CF17E
:1058F000040CDCF800C0CCF3881C07FB0CF4564FFA
:105900003F1D3F68C7F301477F1C7D00B4FBF5F7DF
:10591000076002E0564F076000BF00BF4E4F0837D8
:105920003F6807F0F0010909534F7A5C0768D740D8
:105930004760494F08373F6807F4E051890A4E4FE6
:105940007A5C4768D7408760434F08373F6807F461
:105950006041490B484F7A5C4768D740C760F0BD4B
:10596000002100F44072B2F5407F0AD13A4A083271
:10597000116821F4F811414A02401143364A0832B5
:105980001160354A70321268C0F30B031A43324B70
:1059900070331A607047354944390860704733499D
:1059A000403908607047364908607047014600205A
:1059B000294A8C32106820F01F004A1E1043264AE4
:1059C0008C321060704701460020234A8C321068E8
:1059D00020F4F8504A1E40EA02201F4A8C32106020
:1059E0007047014600201C4A8C32106820F4401099
:1059F00008431060704701460020174A8C32106837
:105A000020F4400008431060704701460020124A0D
:105A10008C32106820F440300843106070471949F8
:105A20000860704739B10C4A3032126802430A4BA1
:105A300030331A6006E0084A303212688243064B5F
:105A400030331A607047F9B1034A343212680243A6
:105A5000014B34331A601CE000380240FFFFF6EAC5
:105A6000103000240030002000004742800E4742E2
:105A70000024F40000127A0020020020FFFCFF0F37
:105A80005C014742E01147428F4A126882438E4BC5
:105A90001A60704739B18C4A121D126802438A4B52
:105AA0001B1D1A6006E0884A121D12688243864B4D
:105AB0001B1D1A60704739B1834A0C3212680243C9
:105AC000814B0C331A6006E07F4A0C321268824325
:105AD0007D4B0C331A60704739B17B4A1032126823
